{
	"simpleswap.sol": {
		"SimpleSwap": {
			"abi": [
				{
					"inputs": [
						{
							"internalType": "address",
							"name": "token",
							"type": "address"
						}
					],
					"name": "SafeERC20FailedOperation",
					"type": "error"
				},
				{
					"anonymous": false,
					"inputs": [
						{
							"indexed": true,
							"internalType": "address",
							"name": "token0",
							"type": "address"
						},
						{
							"indexed": true,
							"internalType": "address",
							"name": "token1",
							"type": "address"
						},
						{
							"indexed": true,
							"internalType": "address",
							"name": "provider",
							"type": "address"
						},
						{
							"indexed": false,
							"internalType": "uint256",
							"name": "amount0",
							"type": "uint256"
						},
						{
							"indexed": false,
							"internalType": "uint256",
							"name": "amount1",
							"type": "uint256"
						},
						{
							"indexed": false,
							"internalType": "uint256",
							"name": "liquidity",
							"type": "uint256"
						}
					],
					"name": "LiquidityAdded",
					"type": "event"
				},
				{
					"anonymous": false,
					"inputs": [
						{
							"indexed": true,
							"internalType": "address",
							"name": "token0",
							"type": "address"
						},
						{
							"indexed": true,
							"internalType": "address",
							"name": "token1",
							"type": "address"
						},
						{
							"indexed": true,
							"internalType": "address",
							"name": "provider",
							"type": "address"
						},
						{
							"indexed": false,
							"internalType": "uint256",
							"name": "amount0",
							"type": "uint256"
						},
						{
							"indexed": false,
							"internalType": "uint256",
							"name": "amount1",
							"type": "uint256"
						},
						{
							"indexed": false,
							"internalType": "uint256",
							"name": "liquidity",
							"type": "uint256"
						}
					],
					"name": "LiquidityRemoved",
					"type": "event"
				},
				{
					"anonymous": false,
					"inputs": [
						{
							"indexed": true,
							"internalType": "address",
							"name": "tokenIn",
							"type": "address"
						},
						{
							"indexed": true,
							"internalType": "address",
							"name": "tokenOut",
							"type": "address"
						},
						{
							"indexed": true,
							"internalType": "address",
							"name": "user",
							"type": "address"
						},
						{
							"indexed": false,
							"internalType": "uint256",
							"name": "amountIn",
							"type": "uint256"
						},
						{
							"indexed": false,
							"internalType": "uint256",
							"name": "amountOut",
							"type": "uint256"
						}
					],
					"name": "TokensSwapped",
					"type": "event"
				},
				{
					"inputs": [
						{
							"internalType": "address",
							"name": "tokenA",
							"type": "address"
						},
						{
							"internalType": "address",
							"name": "tokenB",
							"type": "address"
						},
						{
							"internalType": "uint256",
							"name": "amountADesired",
							"type": "uint256"
						},
						{
							"internalType": "uint256",
							"name": "amountBDesired",
							"type": "uint256"
						},
						{
							"internalType": "uint256",
							"name": "amountAMin",
							"type": "uint256"
						},
						{
							"internalType": "uint256",
							"name": "amountBMin",
							"type": "uint256"
						},
						{
							"internalType": "address",
							"name": "to",
							"type": "address"
						},
						{
							"internalType": "uint256",
							"name": "deadline",
							"type": "uint256"
						}
					],
					"name": "addLiquidity",
					"outputs": [
						{
							"internalType": "uint256",
							"name": "amountA",
							"type": "uint256"
						},
						{
							"internalType": "uint256",
							"name": "amountB",
							"type": "uint256"
						},
						{
							"internalType": "uint256",
							"name": "liquidity",
							"type": "uint256"
						}
					],
					"stateMutability": "nonpayable",
					"type": "function"
				},
				{
					"inputs": [
						{
							"internalType": "address",
							"name": "tokenA",
							"type": "address"
						},
						{
							"internalType": "address",
							"name": "tokenB",
							"type": "address"
						},
						{
							"internalType": "address",
							"name": "user",
							"type": "address"
						}
					],
					"name": "balanceOf",
					"outputs": [
						{
							"internalType": "uint256",
							"name": "",
							"type": "uint256"
						}
					],
					"stateMutability": "view",
					"type": "function"
				},
				{
					"inputs": [
						{
							"internalType": "uint256",
							"name": "amountIn",
							"type": "uint256"
						},
						{
							"internalType": "address",
							"name": "tokenIn",
							"type": "address"
						},
						{
							"internalType": "address",
							"name": "tokenOut",
							"type": "address"
						}
					],
					"name": "getAmountOut",
					"outputs": [
						{
							"internalType": "uint256",
							"name": "",
							"type": "uint256"
						}
					],
					"stateMutability": "view",
					"type": "function"
				},
				{
					"inputs": [
						{
							"internalType": "address",
							"name": "tokenA",
							"type": "address"
						},
						{
							"internalType": "address",
							"name": "tokenB",
							"type": "address"
						}
					],
					"name": "getReserves",
					"outputs": [
						{
							"internalType": "uint256",
							"name": "reserveA",
							"type": "uint256"
						},
						{
							"internalType": "uint256",
							"name": "reserveB",
							"type": "uint256"
						}
					],
					"stateMutability": "view",
					"type": "function"
				},
				{
					"inputs": [
						{
							"internalType": "address",
							"name": "tokenA",
							"type": "address"
						},
						{
							"internalType": "address",
							"name": "tokenB",
							"type": "address"
						},
						{
							"internalType": "uint256",
							"name": "liquidity",
							"type": "uint256"
						},
						{
							"internalType": "uint256",
							"name": "amountAMin",
							"type": "uint256"
						},
						{
							"internalType": "uint256",
							"name": "amountBMin",
							"type": "uint256"
						},
						{
							"internalType": "address",
							"name": "to",
							"type": "address"
						},
						{
							"internalType": "uint256",
							"name": "deadline",
							"type": "uint256"
						}
					],
					"name": "removeLiquidity",
					"outputs": [
						{
							"internalType": "uint256",
							"name": "amountA",
							"type": "uint256"
						},
						{
							"internalType": "uint256",
							"name": "amountB",
							"type": "uint256"
						}
					],
					"stateMutability": "nonpayable",
					"type": "function"
				},
				{
					"inputs": [
						{
							"internalType": "uint256",
							"name": "amountIn",
							"type": "uint256"
						},
						{
							"internalType": "uint256",
							"name": "amountOutMin",
							"type": "uint256"
						},
						{
							"internalType": "address[]",
							"name": "path",
							"type": "address[]"
						},
						{
							"internalType": "address",
							"name": "to",
							"type": "address"
						},
						{
							"internalType": "uint256",
							"name": "deadline",
							"type": "uint256"
						}
					],
					"name": "swapExactTokensForTokens",
					"outputs": [
						{
							"internalType": "uint256[]",
							"name": "amounts",
							"type": "uint256[]"
						}
					],
					"stateMutability": "nonpayable",
					"type": "function"
				}
			],
			"devdoc": {
				"errors": {
					"SafeERC20FailedOperation(address)": [
						{
							"details": "An operation with an ERC-20 token failed."
						}
					]
				},
				"kind": "dev",
				"methods": {},
				"title": "SimpleSwap - Decentralized Exchange Contract",
				"version": 1
			},
			"evm": {
				"assembly": "    /* \"simpleswap.sol\":374:8963  contract SimpleSwap is ReentrancyGuard {... */\n  mstore(0x40, 0x80)\n  jumpi(tag_15, callvalue)\n  tag_17\n  tag_3\n  jump\t// in\ntag_17:\n  mload(0x40)\n  dataSize(sub_0)\n  dataOffset(sub_0)\n  dup3\n  codecopy\n  dataSize(sub_0)\n  swap1\n  return\ntag_15:\n  0x00\n  dup1\n  revert\ntag_3:\n  tag_19\n  tag_14\n  jump\t// in\ntag_19:\n  jump\t// out\ntag_7:\n  tag_21\n  tag_21\n  tag_21\n  swap3\n  swap1\n  jump\ntag_21:\n  swap1\n  jump\n    /* \"@openzeppelin/contracts/security/ReentrancyGuard.sol\":1676:1717  uint256 private constant _NOT_ENTERED = 1 */\ntag_8:\n    /* \"@openzeppelin/contracts/security/ReentrancyGuard.sol\":1716:1717  1 */\n  tag_21\n  0x01\n  tag_7\n  jump\t// in\ntag_13:\n  swap1\n  tag_21\n  tag_21\n  tag_30\n  swap3\n  tag_7\n  jump\t// in\ntag_30:\n  swap1\n  sstore\n  jump\t// out\n    /* \"@openzeppelin/contracts/security/ReentrancyGuard.sol\":1797:1850  constructor() {... */\ntag_14:\n    /* \"@openzeppelin/contracts/security/ReentrancyGuard.sol\":1821:1843  _status = _NOT_ENTERED */\n  tag_19\n    /* \"@openzeppelin/contracts/security/ReentrancyGuard.sol\":1831:1843  _NOT_ENTERED */\n  tag_32\n  tag_8\n  jump\t// in\ntag_32:\n    /* \"@openzeppelin/contracts/security/ReentrancyGuard.sol\":1821:1843  _status = _NOT_ENTERED */\n  0x00\n  tag_13\n  jump\t// in\nstop\n\nsub_0: assembly {\n        /* \"simpleswap.sol\":374:8963  contract SimpleSwap is ReentrancyGuard {... */\n      mstore(0x40, 0x80)\n      jumpi(tag_202, iszero(lt(calldatasize, 0x04)))\n      0x00\n      dup1\n      revert\n    tag_202:\n      shr(0xe0, calldataload(0x00))\n      dup1\n      0x38ed1739\n      eq\n      tag_205\n      jumpi\n      dup1\n      0x5e1e6325\n      eq\n      tag_207\n      jumpi\n      dup1\n      0x75bb9b63\n      eq\n      tag_209\n      jumpi\n      dup1\n      0xbaa2abde\n      eq\n      tag_211\n      jumpi\n      dup1\n      0xd52bb6f4\n      eq\n      tag_213\n      jumpi\n      0xe8e33700\n      sub\n      tag_218\n      jumpi\n      tag_40\n      jump\t// in\n    tag_213:\n      tag_37\n      jump\t// in\n    tag_211:\n      tag_35\n      jump\t// in\n    tag_209:\n      tag_32\n      jump\t// in\n    tag_207:\n      tag_30\n      jump\t// in\n    tag_205:\n      tag_26\n      jump\t// in\n    tag_7:\n      dup1\n    tag_217:\n      sub\n      tag_218\n      jumpi\n      jump\t// out\n    tag_218:\n      0x00\n      dup1\n      revert\n    tag_8:\n      swap1\n      pop\n      calldataload\n      swap1\n      tag_220\n      dup3\n      tag_7\n      jump\t// in\n    tag_220:\n      jump\t// out\n    tag_12:\n      swap1\n      swap2\n      dup3\n      0x1f\n      dup4\n      add\n      slt\n      iszero\n      tag_218\n      jumpi\n      dup2\n      calldataload\n      swap2\n      0xffffffffffffffff\n      dup4\n      gt\n      tag_218\n      jumpi\n      0x20\n      add\n      swap3\n      0x20\n      dup4\n      mul\n      dup5\n      add\n      gt\n      tag_218\n      jumpi\n      jump\t// out\n    tag_14:\n      sub(shl(0xa0, 0x01), 0x01)\n      and\n      swap1\n      jump\t// out\n    tag_227:\n      swap1\n      jump\t// out\n    tag_15:\n      sub(shl(0xa0, 0x01), 0x01)\n      dup2\n      and\n      jump(tag_217)\n    tag_16:\n      swap1\n      pop\n      calldataload\n      swap1\n      tag_220\n      dup3\n      tag_15\n      jump\t// in\n    tag_17:\n      swap1\n      0xa0\n      dup3\n      dup3\n      sub\n      slt\n      tag_218\n      jumpi\n      tag_234\n      dup2\n      dup4\n      tag_8\n      jump\t// in\n    tag_234:\n      swap3\n      tag_235\n      dup3\n      0x20\n      dup6\n      add\n      tag_8\n      jump\t// in\n    tag_235:\n      swap3\n      0x40\n      dup2\n      add\n      calldataload\n      swap2\n      0xffffffffffffffff\n      dup4\n      gt\n      tag_218\n      jumpi\n      tag_238\n      dup5\n      tag_227\n      swap5\n      dup5\n      add\n      tag_12\n      jump\t// in\n    tag_238:\n      swap4\n      swap1\n      swap5\n      tag_240\n      dup2\n      0x60\n      dup7\n      add\n      tag_16\n      jump\t// in\n    tag_240:\n      swap4\n      0x80\n      add\n      tag_8\n      jump\t// in\n    tag_24:\n      swap1\n      tag_243\n      tag_244\n      tag_245\n      dup5\n      mload\n      swap1\n      jump\n    tag_245:\n      dup1\n      dup5\n      mstore\n      swap3\n      0x20\n      add\n      swap1\n      jump\n    tag_244:\n      swap3\n      0x20\n      add\n      swap1\n      jump\n    tag_243:\n      swap1\n      0x00\n    tag_246:\n      dup2\n      dup2\n      lt\n      tag_247\n      jumpi\n      pop\n      pop\n      pop\n      swap1\n      jump\t// out\n    tag_247:\n      swap1\n      swap2\n      swap3\n      tag_249\n      tag_250\n      0x01\n      swap3\n      dup7\n      mload\n      dup2\n      mstore\n      0x20\n      add\n      swap1\n      jump\n    tag_250:\n      swap5\n      0x20\n      add\n      swap1\n      jump\n    tag_249:\n      swap3\n      swap2\n      add\n      jump(tag_246)\n    tag_25:\n      0x20\n      dup1\n      dup3\n      mstore\n      tag_227\n      swap3\n      swap2\n      add\n      swap1\n      tag_24\n      jump\t// in\n    tag_26:\n      jumpi(tag_218, callvalue)\n      tag_254\n      tag_255\n      tag_256\n      calldatasize\n      0x04\n      tag_17\n      jump\t// in\n    tag_256:\n      swap5\n      swap4\n      swap1\n      swap4\n      swap3\n      swap2\n      swap3\n      tag_104\n      jump\t// in\n    tag_255:\n      mload(0x40)\n      swap2\n      dup3\n      swap2\n      dup3\n      tag_25\n      jump\t// in\n    tag_254:\n      sub\n      swap1\n      return\n    tag_27:\n      swap1\n      swap2\n      0x60\n      dup3\n      dup5\n      sub\n      slt\n      tag_218\n      jumpi\n      tag_227\n      tag_261\n      dup5\n      dup5\n      tag_8\n      jump\t// in\n    tag_261:\n      swap4\n      tag_262\n      dup2\n      0x20\n      dup7\n      add\n      tag_16\n      jump\t// in\n    tag_262:\n      swap4\n      0x40\n      add\n      tag_16\n      jump\t// in\n    tag_30:\n      jumpi(tag_218, callvalue)\n      tag_254\n      tag_268\n      tag_269\n      calldatasize\n      0x04\n      tag_27\n      jump\t// in\n    tag_269:\n      swap2\n      tag_106\n      jump\t// in\n    tag_268:\n      mload(0x40)\n      swap2\n      dup3\n      swap2\n      dup3\n      swap1\n      dup2\n      mstore\n      0x20\n      add\n      swap1\n      jump\n    tag_31:\n      swap1\n      swap2\n      0x60\n      dup3\n      dup5\n      sub\n      slt\n      tag_218\n      jumpi\n      tag_227\n      tag_261\n      dup5\n      dup5\n      tag_16\n      jump\t// in\n    tag_32:\n      jumpi(tag_218, callvalue)\n      tag_254\n      tag_268\n      tag_280\n      calldatasize\n      0x04\n      tag_31\n      jump\t// in\n    tag_280:\n      swap2\n      tag_108\n      jump\t// in\n    tag_33:\n      0xe0\n      dup2\n      dup4\n      sub\n      slt\n      tag_218\n      jumpi\n      tag_284\n      dup3\n      dup3\n      tag_16\n      jump\t// in\n    tag_284:\n      swap3\n      tag_285\n      dup4\n      0x20\n      dup5\n      add\n      tag_16\n      jump\t// in\n    tag_285:\n      swap3\n      tag_286\n      dup2\n      0x40\n      dup6\n      add\n      tag_8\n      jump\t// in\n    tag_286:\n      swap3\n      tag_287\n      dup3\n      0x60\n      dup4\n      add\n      tag_8\n      jump\t// in\n    tag_287:\n      swap3\n      tag_227\n      tag_289\n      dup5\n      0x80\n      dup6\n      add\n      tag_8\n      jump\t// in\n    tag_289:\n      swap4\n      tag_290\n      dup2\n      0xa0\n      dup7\n      add\n      tag_16\n      jump\t// in\n    tag_290:\n      swap4\n      0xc0\n      add\n      tag_8\n      jump\t// in\n    tag_34:\n      swap1\n      dup2\n      mstore\n      0x40\n      dup2\n      add\n      swap3\n      swap2\n      tag_220\n      swap2\n      0x20\n      add\n      mstore\n      jump\n    tag_292:\n      add\n      mstore\n      jump\n    tag_35:\n      jumpi(tag_218, callvalue)\n      tag_295\n      tag_296\n      calldatasize\n      0x04\n      tag_33\n      jump\t// in\n    tag_296:\n      swap6\n      swap5\n      swap1\n      swap5\n      swap4\n      swap2\n      swap4\n      tag_130\n      jump\t// in\n    tag_295:\n      swap1\n      tag_254\n      tag_298\n      mload(0x40)\n      swap1\n      jump\n    tag_298:\n      swap3\n      dup4\n      swap3\n      dup4\n      tag_34\n      jump\t// in\n    tag_36:\n      swap2\n      swap1\n      0x40\n      dup4\n      dup3\n      sub\n      slt\n      tag_218\n      jumpi\n      tag_227\n      swap1\n      tag_301\n      dup2\n      dup6\n      tag_16\n      jump\t// in\n    tag_301:\n      swap4\n      0x20\n      add\n      tag_16\n      jump\t// in\n    tag_37:\n      jumpi(tag_218, callvalue)\n      tag_295\n      tag_306\n      calldatasize\n      0x04\n      tag_36\n      jump\t// in\n    tag_306:\n      swap1\n      tag_135\n      jump\t// in\n    tag_38:\n      swap2\n      swap1\n      0x0100\n      dup4\n      dup3\n      sub\n      slt\n      tag_218\n      jumpi\n      tag_311\n      dup2\n      dup5\n      tag_16\n      jump\t// in\n    tag_311:\n      swap3\n      tag_312\n      dup3\n      0x20\n      dup4\n      add\n      tag_16\n      jump\t// in\n    tag_312:\n      swap3\n      tag_313\n      dup4\n      0x40\n      dup5\n      add\n      tag_8\n      jump\t// in\n    tag_313:\n      swap3\n      tag_314\n      dup2\n      0x60\n      dup6\n      add\n      tag_8\n      jump\t// in\n    tag_314:\n      swap3\n      tag_315\n      dup3\n      0x80\n      dup4\n      add\n      tag_8\n      jump\t// in\n    tag_315:\n      swap3\n      tag_227\n      tag_317\n      dup5\n      0xa0\n      dup6\n      add\n      tag_8\n      jump\t// in\n    tag_317:\n      swap4\n      tag_318\n      dup2\n      0xc0\n      dup7\n      add\n      tag_16\n      jump\t// in\n    tag_318:\n      swap4\n      0xe0\n      add\n      tag_8\n      jump\t// in\n    tag_39:\n      swap1\n      dup2\n      mstore\n      0x60\n      dup2\n      add\n      swap4\n      swap3\n      tag_220\n      swap3\n      swap1\n      swap2\n      0x40\n      swap2\n      tag_292\n      swap1\n      0x20\n      dup4\n      add\n      mstore\n      jump\n    tag_40:\n      jumpi(tag_218, callvalue)\n      tag_254\n      tag_325\n      tag_326\n      calldatasize\n      0x04\n      tag_38\n      jump\t// in\n    tag_326:\n      swap7\n      swap6\n      swap1\n      swap6\n      swap5\n      swap2\n      swap5\n      swap4\n      swap3\n      swap4\n      tag_150\n      jump\t// in\n    tag_325:\n      mload(0x40)\n      swap2\n      swap4\n      swap2\n    tag_327:\n      swap4\n      dup5\n      swap4\n      dup5\n      tag_39\n      jump\t// in\n        /* \"@openzeppelin/contracts/security/ReentrancyGuard.sol\":2227:2330  modifier nonReentrant() {... */\n    tag_43:\n      swap1\n        /* \"@openzeppelin/contracts/security/ReentrancyGuard.sol\":2292:2293  _ */\n      tag_328\n        /* \"@openzeppelin/contracts/security/ReentrancyGuard.sol\":2227:2330  modifier nonReentrant() {... */\n      swap7\n      swap6\n      swap5\n      swap4\n      swap3\n      swap2\n      tag_329\n      tag_156\n      jump\t// in\n    tag_329:\n        /* \"@openzeppelin/contracts/security/ReentrancyGuard.sol\":2292:2293  _ */\n      tag_103\n      jump\t// in\n    tag_328:\n      swap1\n      tag_220\n      tag_158\n      jump\t// in\n        /* \"simpleswap.sol\":374:8963  contract SimpleSwap is ReentrancyGuard {... */\n    tag_48:\n      iszero\n      tag_334\n      jumpi\n      jump\t// out\n    tag_334:\n      mload(0x40)\n      shl(0xe5, 0x461bcd)\n      dup2\n      mstore\n      0x20\n      0x04\n      dup3\n      add\n      mstore\n      0x07\n      0x24\n      dup3\n      add\n      mstore\n      shl(0xca, 0x115e1c1a5c9959)\n      0x44\n      dup3\n      add\n      mstore\n      dup1\n      0x64\n      dup2\n      add\n    tag_337:\n      sub\n      swap1\n      revert\n    tag_52:\n      tag_227\n      tag_227\n      tag_227\n      swap3\n      swap1\n      jump\n    tag_56:\n      iszero\n      tag_344\n      jumpi\n      jump\t// out\n    tag_344:\n      mload(0x40)\n      shl(0xe5, 0x461bcd)\n      dup2\n      mstore\n      0x20\n      0x04\n      dup3\n      add\n      mstore\n      0x0e\n      0x24\n      dup3\n      add\n      mstore\n      shl(0x91, 0x2830ba341036bab9ba1031329019)\n      0x44\n      dup3\n      add\n      mstore\n      0x64\n      swap1\n      revert\n    tag_62:\n      iszero\n      tag_354\n      jumpi\n      jump\t// out\n    tag_354:\n      mload(0x40)\n      shl(0xe5, 0x461bcd)\n      dup2\n      mstore\n      0x20\n      0x04\n      dup3\n      add\n      mstore\n      0x0a\n      0x24\n      dup3\n      add\n      mstore\n      shl(0xb2, 0x16995c9bc81a5b9c1d5d)\n      0x44\n      dup3\n      add\n      mstore\n      0x64\n      swap1\n      revert\n    tag_63:\n      mstore(0x00, shl(0xe0, 0x4e487b71))\n      mstore(0x04, 0x32)\n      revert(0x00, 0x24)\n    tag_64:\n      swap2\n      swap1\n      dup2\n      lt\n      iszero\n      tag_358\n      jumpi\n      0x20\n      mul\n      add\n      swap1\n      jump\t// out\n    tag_358:\n      tag_63\n      jump\t// in\n    tag_65:\n      calldataload\n      tag_227\n      dup2\n      tag_15\n      jump\t// in\n    tag_68:\n      tag_227\n      swap1\n      tag_14\n      swap1\n      sub(shl(0xa0, 0x01), 0x01)\n      and\n      dup3\n      jump\n    tag_69:\n      tag_227\n      swap1\n      tag_68\n      jump\t// in\n    tag_70:\n      tag_227\n      swap1\n      tag_69\n      jump\t// in\n    tag_71:\n      swap1\n      tag_369\n      swap1\n      tag_70\n      jump\t// in\n    tag_369:\n      0x00\n      mstore\n      0x20\n      mstore\n      keccak256(0x00, 0x40)\n      swap1\n      jump\t// out\n    tag_76:\n      tag_227\n      swap1\n      dup2\n      jump\n    tag_77:\n      tag_227\n      swap1\n      sload\n      tag_76\n      jump\t// in\n    tag_84:\n      iszero\n      tag_380\n      jumpi\n      jump\t// out\n    tag_380:\n      mload(0x40)\n      shl(0xe5, 0x461bcd)\n      dup2\n      mstore\n      0x20\n      0x04\n      dup3\n      add\n      mstore\n      0x13\n      0x24\n      dup3\n      add\n      mstore\n      shl(0x6a, 0x125b9cdd59999a58da595b9d081bdd5d1c1d5d)\n      0x44\n      dup3\n      add\n      mstore\n      0x64\n      swap1\n      revert\n    tag_85:\n      mstore(0x00, shl(0xe0, 0x4e487b71))\n      mstore(0x04, 0x11)\n      revert(0x00, 0x24)\n    tag_86:\n      swap2\n      swap1\n      dup3\n      add\n      dup1\n      swap3\n      gt\n      tag_386\n      jumpi\n      jump\t// out\n    tag_386:\n      tag_85\n      jump\t// in\n    tag_91:\n      swap1\n      tag_227\n      tag_227\n      tag_394\n      swap3\n      tag_52\n      jump\t// in\n    tag_394:\n      swap1\n      sstore\n      jump\t// out\n    tag_92:\n      swap2\n      swap1\n      dup3\n      sub\n      swap2\n      dup3\n      gt\n      tag_386\n      jumpi\n      jump\t// out\n    tag_94:\n      mstore(0x00, shl(0xe0, 0x4e487b71))\n      mstore(0x04, 0x41)\n      revert(0x00, 0x24)\n    tag_95:\n      swap1\n      0x1f\n      add\n      not(0x1f)\n      and\n      dup2\n      add\n      swap1\n      dup2\n      lt\n      0xffffffffffffffff\n      dup3\n      gt\n      or\n      tag_400\n      jumpi\n      0x40\n      mstore\n      jump\t// out\n    tag_400:\n      tag_94\n      jump\t// in\n    tag_96:\n      swap1\n      tag_220\n      tag_403\n      mload(0x40)\n      swap1\n      jump\n    tag_403:\n      swap3\n      dup4\n      tag_95\n      jump\t// in\n    tag_97:\n      0xffffffffffffffff\n      dup2\n      gt\n      tag_400\n      jumpi\n      0x20\n      dup1\n      swap2\n      mul\n      add\n      swap1\n      jump\t// out\n    tag_98:\n      swap1\n      tag_406\n      tag_407\n      dup4\n      tag_97\n      jump\t// in\n    tag_407:\n      tag_96\n      jump\t// in\n    tag_406:\n      swap2\n      dup3\n      mstore\n      jump\t// out\n    tag_99:\n      calldatasize\n      swap1\n      calldatacopy\n      jump\t// out\n    tag_100:\n      swap1\n      tag_220\n      tag_409\n      dup4\n      tag_98\n      jump\t// in\n    tag_409:\n      swap3\n      0x20\n      dup1\n      tag_410\n      dup7\n      swap4\n      tag_97\n      jump\t// in\n    tag_410:\n      swap3\n      add\n      swap2\n      sub\n      swap1\n      tag_99\n      jump\t// in\n    tag_101:\n      swap1\n      tag_411\n      dup3\n      mload\n      swap1\n      jump\n    tag_411:\n      dup2\n      lt\n      iszero\n      tag_358\n      jumpi\n      0x20\n      dup1\n      swap2\n      mul\n      add\n      add\n      swap1\n      jump\t// out\n        /* \"simpleswap.sol\":7368:8960  function swapExactTokensForTokens(... */\n    tag_103:\n        /* \"simpleswap.sol\":7832:7839  path[1] */\n      tag_415\n        /* \"simpleswap.sol\":7368:8960  function swapExactTokensForTokens(... */\n      swap2\n      swap5\n        /* \"simpleswap.sol\":7617:7664  require(block.timestamp <= deadline, \"Expired\") */\n      tag_416\n        /* \"simpleswap.sol\":8755:8764  amountOut */\n      tag_417\n        /* \"simpleswap.sol\":7368:8960  function swapExactTokensForTokens(... */\n      swap5\n      swap8\n      swap6\n      swap10\n      swap9\n        /* \"simpleswap.sol\":7832:7839  path[1] */\n      tag_429\n        /* \"simpleswap.sol\":7368:8960  function swapExactTokensForTokens(... */\n      swap4\n        /* \"simpleswap.sol\":7625:7640  block.timestamp */\n      pop\n        /* \"simpleswap.sol\":7625:7652  block.timestamp <= deadline */\n      tag_419\n      tag_420\n        /* \"simpleswap.sol\":7625:7640  block.timestamp */\n      timestamp\n        /* \"simpleswap.sol\":7644:7652  deadline */\n      swap3\n        /* \"simpleswap.sol\":374:8963  contract SimpleSwap is ReentrancyGuard {... */\n      swap1\n      jump\n        /* \"simpleswap.sol\":7625:7652  block.timestamp <= deadline */\n    tag_420:\n      swap2\n        /* \"simpleswap.sol\":374:8963  contract SimpleSwap is ReentrancyGuard {... */\n      swap1\n      jump\n        /* \"simpleswap.sol\":7625:7652  block.timestamp <= deadline */\n    tag_419:\n      gt\n      iszero\n        /* \"simpleswap.sol\":7617:7664  require(block.timestamp <= deadline, \"Expired\") */\n      tag_48\n      jump\t// in\n    tag_416:\n        /* \"simpleswap.sol\":7675:7718  require(path.length == 2, \"Path must be 2\") */\n      tag_421\n        /* \"simpleswap.sol\":7683:7687  path */\n      dup2\n        /* \"simpleswap.sol\":7683:7699  path.length == 2 */\n      tag_423\n      tag_420\n        /* \"simpleswap.sol\":7698:7699  2 */\n      0x02\n        /* \"simpleswap.sol\":7683:7699  path.length == 2 */\n      tag_52\n      jump\t// in\n    tag_423:\n      eq\n        /* \"simpleswap.sol\":7675:7718  require(path.length == 2, \"Path must be 2\") */\n      tag_56\n      jump\t// in\n    tag_421:\n        /* \"simpleswap.sol\":7729:7764  require(amountIn > 0, \"Zero input\") */\n      tag_425\n        /* \"simpleswap.sol\":7737:7745  amountIn */\n      dup7\n        /* \"simpleswap.sol\":7737:7749  amountIn > 0 */\n      tag_426\n      tag_420\n        /* \"simpleswap.sol\":7748:7749  0 */\n      0x00\n        /* \"simpleswap.sol\":7737:7749  amountIn > 0 */\n      tag_52\n      jump\t// in\n    tag_426:\n      gt\n        /* \"simpleswap.sol\":7729:7764  require(amountIn > 0, \"Zero input\") */\n      tag_62\n      jump\t// in\n    tag_425:\n        /* \"simpleswap.sol\":7795:7802  path[0] */\n      tag_428\n      tag_429\n        /* \"simpleswap.sol\":7795:7799  path */\n      dup11\n      dup4\n        /* \"simpleswap.sol\":7795:7802  path[0] */\n      tag_430\n        /* \"simpleswap.sol\":7800:7801  0 */\n      0x00\n        /* \"simpleswap.sol\":7795:7802  path[0] */\n      tag_52\n      jump\t// in\n    tag_430:\n      swap2\n      tag_64\n      jump\t// in\n    tag_429:\n      tag_65\n      jump\t// in\n    tag_428:\n        /* \"simpleswap.sol\":7832:7836  path */\n      swap9\n      swap1\n        /* \"simpleswap.sol\":7832:7839  path[1] */\n      tag_430\n        /* \"simpleswap.sol\":7837:7838  1 */\n      0x01\n        /* \"simpleswap.sol\":7832:7839  path[1] */\n      tag_52\n      jump\t// in\n    tag_415:\n        /* \"simpleswap.sol\":7899:7906  tokenIn */\n      swap2\n        /* \"simpleswap.sol\":7948:7970  _pairs[token0][token1] */\n      tag_227\n        /* \"simpleswap.sol\":7928:7970  Pair storage pair = _pairs[token0][token1] */\n      tag_433\n        /* \"simpleswap.sol\":7887:7917  _sortTokens(tokenIn, tokenOut) */\n      tag_434\n        /* \"simpleswap.sol\":7899:7906  tokenIn */\n      dup6\n      dup11\n        /* \"simpleswap.sol\":7887:7917  _sortTokens(tokenIn, tokenOut) */\n      tag_170\n      jump\t// in\n    tag_434:\n        /* \"simpleswap.sol\":7852:7917  (address token0, address token1) = _sortTokens(tokenIn, tokenOut) */\n      swap1\n      swap3\n      swap1\n        /* \"simpleswap.sol\":7948:7962  _pairs[token0] */\n      tag_435\n        /* \"simpleswap.sol\":7852:7917  (address token0, address token1) = _sortTokens(tokenIn, tokenOut) */\n      dup5\n        /* \"simpleswap.sol\":7948:7954  _pairs */\n      0x01\n        /* \"simpleswap.sol\":7948:7962  _pairs[token0] */\n      tag_71\n      jump\t// in\n    tag_435:\n        /* \"simpleswap.sol\":7948:7970  _pairs[token0][token1] */\n      tag_71\n      jump\t// in\n        /* \"simpleswap.sol\":7928:7970  Pair storage pair = _pairs[token0][token1] */\n    tag_433:\n        /* \"simpleswap.sol\":8025:8032  tokenIn */\n      dup9\n        /* \"simpleswap.sol\":8025:8042  tokenIn == token0 */\n      tag_436\n      sub(shl(0xa0, 0x01), 0x01)\n        /* \"simpleswap.sol\":374:8963  contract SimpleSwap is ReentrancyGuard {... */\n      dup5\n      and\n        /* \"simpleswap.sol\":8025:8042  tokenIn == token0 */\n    tag_437:\n      swap2\n      sub(shl(0xa0, 0x01), 0x01)\n        /* \"simpleswap.sol\":374:8963  contract SimpleSwap is ReentrancyGuard {... */\n      and\n      swap1\n      jump\n        /* \"simpleswap.sol\":8025:8042  tokenIn == token0 */\n    tag_436:\n      sub\n        /* \"simpleswap.sol\":8025:8170  tokenIn == token0 ?... */\n      tag_438\n      jumpi\n        /* \"simpleswap.sol\":8059:8081  pair.reserves.reserve0 */\n      tag_440\n        /* \"simpleswap.sol\":8059:8063  pair */\n      dup2\n        /* \"simpleswap.sol\":8059:8081  pair.reserves.reserve0 */\n      tag_77\n      jump\t// in\n    tag_440:\n        /* \"simpleswap.sol\":8083:8105  pair.reserves.reserve1 */\n      tag_441\n      0x01\n      dup4\n      add\n      tag_77\n      jump\t// in\n    tag_441:\n        /* \"simpleswap.sol\":8025:8170  tokenIn == token0 ?... */\n      swap1\n    tag_442:\n        /* \"simpleswap.sol\":7983:8170  (uint256 reserveIn, uint256 reserveOut) = tokenIn == token0 ?... */\n      swap1\n        /* \"simpleswap.sol\":8190:8197  tokenIn */\n      swap3\n        /* \"simpleswap.sol\":8243:8251  amountIn */\n      tag_443\n        /* \"simpleswap.sol\":8183:8198  IERC20(tokenIn) */\n      tag_444\n        /* \"simpleswap.sol\":8190:8197  tokenIn */\n      dup13\n        /* \"simpleswap.sol\":8183:8198  IERC20(tokenIn) */\n      tag_70\n      jump\t// in\n    tag_444:\n        /* \"simpleswap.sol\":8216:8226  msg.sender */\n      caller\n        /* \"simpleswap.sol\":8228:8241  address(this) */\n      tag_445\n        /* \"simpleswap.sol\":8236:8240  this */\n      address\n        /* \"simpleswap.sol\":8228:8241  address(this) */\n      tag_70\n      jump\t// in\n    tag_445:\n        /* \"simpleswap.sol\":8243:8251  amountIn */\n      swap1\n      dup12\n      swap3\n      tag_178\n      jump\t// in\n    tag_443:\n        /* \"simpleswap.sol\":8342:8399  require(amountOut >= amountOutMin, \"Insufficient output\") */\n      tag_446\n        /* \"simpleswap.sol\":8285:8331  _getAmountOut(amountIn, reserveIn, reserveOut) */\n      tag_447\n        /* \"simpleswap.sol\":8320:8330  reserveOut */\n      dup6\n        /* \"simpleswap.sol\":8309:8318  reserveIn */\n      dup5\n        /* \"simpleswap.sol\":8299:8307  amountIn */\n      dup12\n        /* \"simpleswap.sol\":8285:8331  _getAmountOut(amountIn, reserveIn, reserveOut) */\n      tag_189\n      jump\t// in\n    tag_447:\n        /* \"simpleswap.sol\":8350:8359  amountOut */\n      swap10\n        /* \"simpleswap.sol\":8350:8375  amountOut >= amountOutMin */\n      tag_448\n      tag_420\n        /* \"simpleswap.sol\":8350:8359  amountOut */\n      dup13\n        /* \"simpleswap.sol\":8363:8375  amountOutMin */\n      swap3\n        /* \"simpleswap.sol\":374:8963  contract SimpleSwap is ReentrancyGuard {... */\n      swap1\n      jump\n        /* \"simpleswap.sol\":8350:8375  amountOut >= amountOutMin */\n    tag_448:\n      lt\n      iszero\n        /* \"simpleswap.sol\":8342:8399  require(amountOut >= amountOutMin, \"Insufficient output\") */\n      tag_84\n      jump\t// in\n    tag_446:\n        /* \"simpleswap.sol\":8416:8433  tokenIn == token0 */\n      tag_450\n      tag_437\n        /* \"simpleswap.sol\":8416:8423  tokenIn */\n      dup13\n        /* \"simpleswap.sol\":8427:8433  token0 */\n      swap3\n      sub(shl(0xa0, 0x01), 0x01)\n        /* \"simpleswap.sol\":374:8963  contract SimpleSwap is ReentrancyGuard {... */\n      and\n      swap1\n      jump\n        /* \"simpleswap.sol\":8416:8433  tokenIn == token0 */\n    tag_450:\n      sub\n        /* \"simpleswap.sol\":8412:8709  if (tokenIn == token0) {... */\n      tag_452\n      jumpi\n        /* \"simpleswap.sol\":8510:8523  pair.reserves */\n      0x00\n        /* \"simpleswap.sol\":8535:8557  reserveOut - amountOut */\n      tag_454\n        /* \"simpleswap.sol\":8510:8557  pair.reserves.reserve1 = reserveOut - amountOut */\n      tag_455\n        /* \"simpleswap.sol\":8475:8484  reserveIn */\n      swap5\n        /* \"simpleswap.sol\":8450:8495  pair.reserves.reserve0 = reserveIn + amountIn */\n      tag_456\n        /* \"simpleswap.sol\":8475:8495  reserveIn + amountIn */\n      tag_457\n        /* \"simpleswap.sol\":8510:8532  pair.reserves.reserve1 */\n      0x01\n        /* \"simpleswap.sol\":8475:8484  reserveIn */\n      swap6\n        /* \"simpleswap.sol\":8487:8495  amountIn */\n      dup13\n        /* \"simpleswap.sol\":8475:8495  reserveIn + amountIn */\n      swap1\n      tag_86\n      jump\t// in\n    tag_457:\n        /* \"simpleswap.sol\":8450:8454  pair */\n      dup5\n      dup1\n      dup9\n        /* \"simpleswap.sol\":8450:8463  pair.reserves */\n      add\n        /* \"simpleswap.sol\":8450:8472  pair.reserves.reserve0 */\n      add\n        /* \"simpleswap.sol\":8450:8495  pair.reserves.reserve0 = reserveIn + amountIn */\n      tag_91\n      jump\t// in\n    tag_456:\n        /* \"simpleswap.sol\":8548:8557  amountOut */\n      dup11\n        /* \"simpleswap.sol\":8535:8557  reserveOut - amountOut */\n      swap1\n      tag_92\n      jump\t// in\n    tag_454:\n        /* \"simpleswap.sol\":8510:8514  pair */\n      swap3\n        /* \"simpleswap.sol\":8510:8523  pair.reserves */\n      add\n        /* \"simpleswap.sol\":8510:8532  pair.reserves.reserve1 */\n      add\n        /* \"simpleswap.sol\":8510:8557  pair.reserves.reserve1 = reserveOut - amountOut */\n      tag_91\n      jump\t// in\n    tag_455:\n        /* \"simpleswap.sol\":8721:8737  IERC20(tokenOut) */\n      tag_459\n        /* \"simpleswap.sol\":8728:8736  tokenOut */\n      dup4\n        /* \"simpleswap.sol\":8721:8737  IERC20(tokenOut) */\n      tag_70\n      jump\t// in\n    tag_459:\n        /* \"simpleswap.sol\":8751:8753  to */\n      swap1\n        /* \"simpleswap.sol\":8755:8764  amountOut */\n      dup6\n      swap2\n      tag_191\n      jump\t// in\n    tag_417:\n        /* \"simpleswap.sol\":8788:8804  new uint256[](2) */\n      tag_460\n      tag_461\n        /* \"simpleswap.sol\":8802:8803  2 */\n      0x02\n        /* \"simpleswap.sol\":8788:8804  new uint256[](2) */\n      tag_52\n      jump\t// in\n    tag_461:\n      tag_100\n      jump\t// in\n    tag_460:\n        /* \"simpleswap.sol\":8828:8836  amountIn */\n      swap5\n        /* \"simpleswap.sol\":8815:8836  amounts[0] = amountIn */\n      tag_462\n        /* \"simpleswap.sol\":8828:8836  amountIn */\n      dup4\n        /* \"simpleswap.sol\":8815:8836  amounts[0] = amountIn */\n      tag_463\n        /* \"simpleswap.sol\":8815:8822  amounts */\n      dup9\n        /* \"simpleswap.sol\":8815:8836  amounts[0] = amountIn */\n      tag_464\n        /* \"simpleswap.sol\":8823:8824  0 */\n      0x00\n        /* \"simpleswap.sol\":8815:8836  amounts[0] = amountIn */\n      tag_52\n      jump\t// in\n    tag_464:\n      swap1\n      tag_101\n      jump\t// in\n    tag_463:\n        /* \"simpleswap.sol\":374:8963  contract SimpleSwap is ReentrancyGuard {... */\n      mstore\n      jump\n        /* \"simpleswap.sol\":8815:8836  amounts[0] = amountIn */\n    tag_462:\n        /* \"simpleswap.sol\":8847:8869  amounts[1] = amountOut */\n      tag_465\n        /* \"simpleswap.sol\":8860:8869  amountOut */\n      dup5\n        /* \"simpleswap.sol\":8847:8869  amounts[1] = amountOut */\n      tag_463\n        /* \"simpleswap.sol\":8847:8854  amounts */\n      dup9\n        /* \"simpleswap.sol\":8847:8869  amounts[1] = amountOut */\n      tag_464\n        /* \"simpleswap.sol\":8855:8856  1 */\n      0x01\n        /* \"simpleswap.sol\":8847:8869  amounts[1] = amountOut */\n      tag_52\n      jump\t// in\n    tag_465:\n        /* \"simpleswap.sol\":8920:8930  msg.sender */\n      caller\n        /* \"simpleswap.sol\":8932:8940  amountIn */\n      swap3\n        /* \"simpleswap.sol\":8942:8951  amountOut */\n      swap4\n        /* \"simpleswap.sol\":8887:8952  TokensSwapped(tokenIn, tokenOut, msg.sender, amountIn, amountOut) */\n      tag_468\n      tag_470\n      tag_470\n      0xad56699d0f375866eb895ed27203058a36a713382aaded78eb6b67da266d4332\n      swap5\n      tag_70\n      jump\t// in\n    tag_470:\n      swap5\n      tag_70\n      jump\t// in\n    tag_468:\n      swap5\n      tag_471\n      tag_298\n        /* \"simpleswap.sol\":374:8963  contract SimpleSwap is ReentrancyGuard {... */\n      mload(0x40)\n      swap1\n      jump\n        /* \"simpleswap.sol\":8887:8952  TokensSwapped(tokenIn, tokenOut, msg.sender, amountIn, amountOut) */\n    tag_471:\n      sub\n      swap1\n      log4\n        /* \"simpleswap.sol\":7368:8960  function swapExactTokensForTokens(... */\n      jump\t// out\n        /* \"simpleswap.sol\":8412:8709  if (tokenIn == token0) {... */\n    tag_452:\n        /* \"simpleswap.sol\":8650:8663  pair.reserves */\n      0x00\n        /* \"simpleswap.sol\":8675:8697  reserveOut - amountOut */\n      tag_454\n        /* \"simpleswap.sol\":8650:8697  pair.reserves.reserve0 = reserveOut - amountOut */\n      tag_474\n        /* \"simpleswap.sol\":8615:8624  reserveIn */\n      swap5\n        /* \"simpleswap.sol\":8590:8635  pair.reserves.reserve1 = reserveIn + amountIn */\n      tag_456\n        /* \"simpleswap.sol\":8615:8635  reserveIn + amountIn */\n      tag_476\n        /* \"simpleswap.sol\":8615:8624  reserveIn */\n      dup5\n      swap6\n        /* \"simpleswap.sol\":8627:8635  amountIn */\n      dup13\n        /* \"simpleswap.sol\":8615:8635  reserveIn + amountIn */\n      swap1\n      tag_86\n      jump\t// in\n    tag_476:\n        /* \"simpleswap.sol\":8590:8612  pair.reserves.reserve1 */\n      0x01\n        /* \"simpleswap.sol\":8590:8594  pair */\n      dup6\n      dup9\n        /* \"simpleswap.sol\":8590:8603  pair.reserves */\n      add\n        /* \"simpleswap.sol\":8590:8612  pair.reserves.reserve1 */\n      add\n        /* \"simpleswap.sol\":8590:8635  pair.reserves.reserve1 = reserveIn + amountIn */\n      tag_91\n      jump\t// in\n        /* \"simpleswap.sol\":8650:8697  pair.reserves.reserve0 = reserveOut - amountOut */\n    tag_474:\n        /* \"simpleswap.sol\":8412:8709  if (tokenIn == token0) {... */\n      jump(tag_455)\n        /* \"simpleswap.sol\":8025:8170  tokenIn == token0 ?... */\n    tag_438:\n        /* \"simpleswap.sol\":8123:8145  pair.reserves.reserve1 */\n      tag_477\n      0x01\n      dup3\n      add\n      tag_77\n      jump\t// in\n    tag_477:\n        /* \"simpleswap.sol\":8147:8169  pair.reserves.reserve0 */\n      tag_478\n        /* \"simpleswap.sol\":8147:8151  pair */\n      dup3\n        /* \"simpleswap.sol\":8147:8169  pair.reserves.reserve0 */\n      tag_77\n      jump\t// in\n    tag_478:\n        /* \"simpleswap.sol\":8025:8170  tokenIn == token0 ?... */\n      swap1\n      jump(tag_442)\n        /* \"simpleswap.sol\":7368:8960  function swapExactTokensForTokens(... */\n    tag_104:\n        /* \"simpleswap.sol\":7580:7604  uint256[] memory amounts */\n      tag_227\n      swap6\n        /* \"simpleswap.sol\":7368:8960  function swapExactTokensForTokens(... */\n      swap5\n      swap4\n      swap3\n      swap2\n      swap1\n        /* \"simpleswap.sol\":374:8963  contract SimpleSwap is ReentrancyGuard {... */\n      0x60\n        /* \"simpleswap.sol\":7580:7604  uint256[] memory amounts */\n      tag_43\n      jump\t// in\n        /* \"simpleswap.sol\":1905:2411  function getAmountOut(uint256 amountIn, address tokenIn, address tokenOut) external view returns (uint256) {... */\n    tag_106:\n        /* \"simpleswap.sol\":2119:2141  _pairs[token0][token1] */\n      tag_227\n        /* \"simpleswap.sol\":2194:2211  tokenIn == token0 */\n      tag_482\n      tag_437\n        /* \"simpleswap.sol\":2099:2141  Pair storage pair = _pairs[token0][token1] */\n      tag_484\n        /* \"simpleswap.sol\":2058:2088  _sortTokens(tokenIn, tokenOut) */\n      tag_485\n        /* \"simpleswap.sol\":2357:2403  _getAmountOut(amountIn, reserveIn, reserveOut) */\n      tag_227\n        /* \"simpleswap.sol\":1905:2411  function getAmountOut(uint256 amountIn, address tokenIn, address tokenOut) external view returns (uint256) {... */\n      swap8\n        /* \"simpleswap.sol\":2003:2010  uint256 */\n      tag_487\n        /* \"simpleswap.sol\":374:8963  contract SimpleSwap is ReentrancyGuard {... */\n      0x00\n      swap1\n      jump\n        /* \"simpleswap.sol\":2003:2010  uint256 */\n    tag_487:\n        /* \"simpleswap.sol\":2070:2077  tokenIn */\n      pop\n      dup8\n        /* \"simpleswap.sol\":2058:2088  _sortTokens(tokenIn, tokenOut) */\n      tag_170\n      jump\t// in\n    tag_485:\n        /* \"simpleswap.sol\":2023:2088  (address token0, address token1) = _sortTokens(tokenIn, tokenOut) */\n      swap1\n      swap5\n      swap1\n        /* \"simpleswap.sol\":2119:2133  _pairs[token0] */\n      tag_435\n        /* \"simpleswap.sol\":2023:2088  (address token0, address token1) = _sortTokens(tokenIn, tokenOut) */\n      dup7\n        /* \"simpleswap.sol\":2119:2125  _pairs */\n      0x01\n        /* \"simpleswap.sol\":2119:2133  _pairs[token0] */\n      tag_71\n      jump\t// in\n        /* \"simpleswap.sol\":2099:2141  Pair storage pair = _pairs[token0][token1] */\n    tag_484:\n        /* \"simpleswap.sol\":2194:2201  tokenIn */\n      swap5\n        /* \"simpleswap.sol\":2205:2211  token0 */\n      swap3\n      sub(shl(0xa0, 0x01), 0x01)\n        /* \"simpleswap.sol\":374:8963  contract SimpleSwap is ReentrancyGuard {... */\n      and\n      swap1\n      jump\n        /* \"simpleswap.sol\":2194:2211  tokenIn == token0 */\n    tag_482:\n      sub\n        /* \"simpleswap.sol\":2194:2339  tokenIn == token0 ?... */\n      tag_489\n      jumpi\n        /* \"simpleswap.sol\":2252:2274  pair.reserves.reserve1 */\n      tag_491\n      0x01\n        /* \"simpleswap.sol\":2252:2265  pair.reserves */\n      0x00\n        /* \"simpleswap.sol\":2228:2250  pair.reserves.reserve0 */\n      tag_492\n        /* \"simpleswap.sol\":2228:2232  pair */\n      dup6\n        /* \"simpleswap.sol\":2228:2250  pair.reserves.reserve0 */\n      tag_77\n      jump\t// in\n    tag_492:\n        /* \"simpleswap.sol\":2252:2256  pair */\n      swap5\n        /* \"simpleswap.sol\":2252:2265  pair.reserves */\n      add\n        /* \"simpleswap.sol\":2252:2274  pair.reserves.reserve1 */\n      add\n      tag_77\n      jump\t// in\n    tag_491:\n        /* \"simpleswap.sol\":2194:2339  tokenIn == token0 ?... */\n      swap2\n    tag_493:\n        /* \"simpleswap.sol\":2152:2339  (uint256 reserveIn, uint256 reserveOut) = tokenIn == token0 ?... */\n      swap1\n        /* \"simpleswap.sol\":2357:2403  _getAmountOut(amountIn, reserveIn, reserveOut) */\n      tag_189\n      jump\t// in\n        /* \"simpleswap.sol\":2194:2339  tokenIn == token0 ?... */\n    tag_489:\n        /* \"simpleswap.sol\":2316:2338  pair.reserves.reserve0 */\n      tag_494\n      0x00\n      dup1\n        /* \"simpleswap.sol\":2292:2314  pair.reserves.reserve1 */\n      tag_492\n      0x01\n      dup7\n      add\n      tag_77\n      jump\t// in\n        /* \"simpleswap.sol\":2316:2338  pair.reserves.reserve0 */\n    tag_494:\n        /* \"simpleswap.sol\":2194:2339  tokenIn == token0 ?... */\n      swap2\n      jump(tag_493)\n        /* \"simpleswap.sol\":1297:1530  function balanceOf(address tokenA, address tokenB, address user) external view returns (uint256) {... */\n    tag_108:\n      swap2\n        /* \"simpleswap.sol\":1485:1516  _pairs[token0][token1].balances */\n      0x03\n        /* \"simpleswap.sol\":1485:1507  _pairs[token0][token1] */\n      tag_497\n        /* \"simpleswap.sol\":1485:1499  _pairs[token0] */\n      tag_435\n        /* \"simpleswap.sol\":1440:1467  _sortTokens(tokenA, tokenB) */\n      tag_499\n        /* \"simpleswap.sol\":1485:1522  _pairs[token0][token1].balances[user] */\n      tag_500\n        /* \"simpleswap.sol\":1297:1530  function balanceOf(address tokenA, address tokenB, address user) external view returns (uint256) {... */\n      swap6\n        /* \"simpleswap.sol\":1485:1522  _pairs[token0][token1].balances[user] */\n      tag_227\n        /* \"simpleswap.sol\":1297:1530  function balanceOf(address tokenA, address tokenB, address user) external view returns (uint256) {... */\n      swap8\n        /* \"simpleswap.sol\":1385:1392  uint256 */\n      tag_502\n        /* \"simpleswap.sol\":374:8963  contract SimpleSwap is ReentrancyGuard {... */\n      0x00\n      swap1\n      jump\n        /* \"simpleswap.sol\":1385:1392  uint256 */\n    tag_502:\n        /* \"simpleswap.sol\":1452:1458  tokenA */\n      pop\n        /* \"simpleswap.sol\":1440:1467  _sortTokens(tokenA, tokenB) */\n      tag_170\n      jump\t// in\n    tag_499:\n        /* \"simpleswap.sol\":1405:1467  (address token0, address token1) = _sortTokens(tokenA, tokenB) */\n      swap2\n      swap1\n        /* \"simpleswap.sol\":1485:1491  _pairs */\n      0x01\n        /* \"simpleswap.sol\":1485:1499  _pairs[token0] */\n      tag_71\n      jump\t// in\n        /* \"simpleswap.sol\":1485:1507  _pairs[token0][token1] */\n    tag_497:\n        /* \"simpleswap.sol\":1485:1516  _pairs[token0][token1].balances */\n      add\n        /* \"simpleswap.sol\":1485:1522  _pairs[token0][token1].balances[user] */\n      tag_71\n      jump\t// in\n    tag_500:\n      tag_77\n      jump\t// in\n        /* \"@openzeppelin/contracts/security/ReentrancyGuard.sol\":2227:2330  modifier nonReentrant() {... */\n    tag_109:\n      swap1\n        /* \"@openzeppelin/contracts/security/ReentrancyGuard.sol\":2292:2293  _ */\n      tag_503\n        /* \"@openzeppelin/contracts/security/ReentrancyGuard.sol\":2227:2330  modifier nonReentrant() {... */\n      swap9\n      swap8\n      swap7\n      swap6\n      swap5\n      swap4\n      swap3\n      swap2\n      tag_504\n      tag_156\n      jump\t// in\n    tag_504:\n        /* \"@openzeppelin/contracts/security/ReentrancyGuard.sol\":2292:2293  _ */\n      tag_129\n      jump\t// in\n    tag_503:\n      swap1\n      swap2\n      tag_220\n      tag_158\n      jump\t// in\n        /* \"simpleswap.sol\":374:8963  contract SimpleSwap is ReentrancyGuard {... */\n    tag_113:\n      iszero\n      tag_509\n      jumpi\n      jump\t// out\n    tag_509:\n      mload(0x40)\n      shl(0xe5, 0x461bcd)\n      dup2\n      mstore\n      0x20\n      0x04\n      dup3\n      add\n      mstore\n      0x0e\n      0x24\n      dup3\n      add\n      mstore\n      shl(0x90, 0x5a65726f206c6971756964697479)\n      0x44\n      dup3\n      add\n      mstore\n      0x64\n      swap1\n      revert\n    tag_117:\n      iszero\n      tag_516\n      jumpi\n      jump\t// out\n    tag_516:\n      mload(0x40)\n      shl(0xe5, 0x461bcd)\n      dup2\n      mstore\n      0x20\n      0x04\n      dup3\n      add\n      mstore\n      0x0f\n      0x24\n      dup3\n      add\n      mstore\n      shl(0x8c, 0x0496e73756666696369656e74204c5)\n      0x44\n      dup3\n      add\n      mstore\n      0x64\n      swap1\n      revert\n    tag_118:\n      dup2\n      dup2\n      mul\n      swap3\n      swap2\n      dup2\n      iszero\n      swap2\n      dup5\n      div\n      eq\n      or\n      iszero\n      tag_386\n      jumpi\n      jump\t// out\n    tag_119:\n      mstore(0x00, shl(0xe0, 0x4e487b71))\n      mstore(0x04, 0x12)\n      revert(0x00, 0x24)\n    tag_120:\n      dup2\n      iszero\n      tag_527\n      jumpi\n      div\n      swap1\n      jump\t// out\n    tag_527:\n      tag_119\n      jump\t// in\n    tag_124:\n      iszero\n      tag_532\n      jumpi\n      jump\t// out\n    tag_532:\n      mload(0x40)\n      shl(0xe5, 0x461bcd)\n      dup2\n      mstore\n      0x20\n      0x04\n      dup3\n      add\n      mstore\n      0x05\n      0x24\n      dup3\n      add\n      mstore\n      shl(0xd8, 0x4d696e2041)\n      0x44\n      dup3\n      add\n      mstore\n      0x64\n      swap1\n      revert\n    tag_128:\n      iszero\n      tag_539\n      jumpi\n      jump\t// out\n    tag_539:\n      mload(0x40)\n      shl(0xe5, 0x461bcd)\n      dup2\n      mstore\n      0x20\n      0x04\n      dup3\n      add\n      mstore\n      0x05\n      0x24\n      dup3\n      add\n      mstore\n      shl(0xd9, 0x26b4b71021)\n      0x44\n      dup3\n      add\n      mstore\n      0x64\n      swap1\n      revert\n        /* \"simpleswap.sol\":5990:7360  function removeLiquidity(... */\n    tag_129:\n      swap9\n      swap7\n      swap3\n      swap4\n      swap6\n      swap9\n      swap8\n      swap2\n      swap5\n      swap8\n      pop\n        /* \"simpleswap.sol\":6290:6305  block.timestamp */\n      pop\n      timestamp\n        /* \"simpleswap.sol\":6290:6317  block.timestamp <= deadline */\n      gt\n      iszero\n        /* \"simpleswap.sol\":6282:6329  require(block.timestamp <= deadline, \"Expired\") */\n      tag_545\n      swap1\n      tag_48\n      jump\t// in\n    tag_545:\n        /* \"simpleswap.sol\":6348:6357  liquidity */\n      dup4\n        /* \"simpleswap.sol\":6348:6361  liquidity > 0 */\n      tag_546\n        /* \"simpleswap.sol\":6360:6361  0 */\n      0x00\n        /* \"simpleswap.sol\":6348:6361  liquidity > 0 */\n      tag_52\n      jump\t// in\n    tag_546:\n      lt\n        /* \"simpleswap.sol\":6340:6380  require(liquidity > 0, \"Zero liquidity\") */\n      tag_548\n      swap1\n      tag_113\n      jump\t// in\n    tag_548:\n        /* \"simpleswap.sol\":6428:6455  _sortTokens(tokenA, tokenB) */\n      tag_549\n        /* \"simpleswap.sol\":6448:6454  tokenB */\n      dup3\n        /* \"simpleswap.sol\":6440:6446  tokenA */\n      dup5\n        /* \"simpleswap.sol\":6428:6455  _sortTokens(tokenA, tokenB) */\n      tag_170\n      jump\t// in\n    tag_549:\n        /* \"simpleswap.sol\":6393:6455  (address token0, address token1) = _sortTokens(tokenA, tokenB) */\n      swap4\n      swap1\n      swap3\n      swap1\n        /* \"simpleswap.sol\":6486:6500  _pairs[token0] */\n      tag_550\n        /* \"simpleswap.sol\":6393:6455  (address token0, address token1) = _sortTokens(tokenA, tokenB) */\n      dup5\n        /* \"simpleswap.sol\":6486:6492  _pairs */\n      0x01\n        /* \"simpleswap.sol\":6486:6500  _pairs[token0] */\n      tag_71\n      jump\t// in\n    tag_550:\n        /* \"simpleswap.sol\":6501:6507  token1 */\n      dup6\n        /* \"simpleswap.sol\":6486:6508  _pairs[token0][token1] */\n      tag_551\n      swap2\n      tag_71\n      jump\t// in\n    tag_551:\n        /* \"simpleswap.sol\":6527:6552  pair.balances[msg.sender] */\n      tag_553\n        /* \"simpleswap.sol\":6541:6551  msg.sender */\n      caller\n        /* \"simpleswap.sol\":6527:6540  pair.balances */\n      0x03\n      dup4\n      add\n        /* \"simpleswap.sol\":6527:6552  pair.balances[msg.sender] */\n      tag_71\n      jump\t// in\n    tag_553:\n      tag_554\n      swap1\n      tag_77\n      jump\t// in\n    tag_554:\n        /* \"simpleswap.sol\":6556:6565  liquidity */\n      dup8\n      gt\n        /* \"simpleswap.sol\":6527:6565  pair.balances[msg.sender] >= liquidity */\n      iszero\n        /* \"simpleswap.sol\":6519:6585  require(pair.balances[msg.sender] >= liquidity, \"Insufficient LP\") */\n      tag_557\n      swap1\n      tag_117\n      jump\t// in\n    tag_557:\n        /* \"simpleswap.sol\":6617:6639  pair.reserves.reserve0 */\n      tag_558\n        /* \"simpleswap.sol\":6617:6621  pair */\n      dup2\n        /* \"simpleswap.sol\":6617:6639  pair.reserves.reserve0 */\n      tag_77\n      jump\t// in\n    tag_558:\n        /* \"simpleswap.sol\":6669:6691  pair.reserves.reserve1 */\n      tag_559\n      0x01\n      dup4\n      add\n      tag_77\n      jump\t// in\n    tag_559:\n        /* \"simpleswap.sol\":6724:6728  pair */\n      swap1\n        /* \"simpleswap.sol\":6724:6740  pair.totalSupply */\n      tag_560\n      0x02\n      dup5\n      add\n      tag_77\n      jump\t// in\n    tag_560:\n        /* \"simpleswap.sol\":6764:6773  liquidity */\n      swap12\n        /* \"simpleswap.sol\":6764:6784  liquidity * reserve0 */\n      tag_561\n        /* \"simpleswap.sol\":6776:6784  reserve0 */\n      dup3\n        /* \"simpleswap.sol\":6764:6773  liquidity */\n      dup12\n        /* \"simpleswap.sol\":6764:6784  liquidity * reserve0 */\n      tag_118\n      jump\t// in\n    tag_561:\n        /* \"simpleswap.sol\":6788:6799  totalSupply */\n      dup14\n        /* \"simpleswap.sol\":6763:6799  (liquidity * reserve0) / totalSupply */\n      tag_562\n      swap2\n      tag_120\n      jump\t// in\n    tag_562:\n        /* \"simpleswap.sol\":6821:6830  liquidity */\n      swap13\n        /* \"simpleswap.sol\":6821:6841  liquidity * reserve1 */\n      tag_563\n        /* \"simpleswap.sol\":6833:6841  reserve1 */\n      dup5\n        /* \"simpleswap.sol\":6821:6830  liquidity */\n      dup13\n        /* \"simpleswap.sol\":6821:6841  liquidity * reserve1 */\n      tag_118\n      jump\t// in\n    tag_563:\n        /* \"simpleswap.sol\":6845:6856  totalSupply */\n      swap1\n        /* \"simpleswap.sol\":6820:6856  (liquidity * reserve1) / totalSupply */\n      tag_564\n      swap2\n      tag_120\n      jump\t// in\n    tag_564:\n        /* \"simpleswap.sol\":6877:6884  amountA */\n      swap12\n      dup14\n        /* \"simpleswap.sol\":6877:6898  amountA >= amountAMin */\n      lt\n      iszero\n        /* \"simpleswap.sol\":6869:6908  require(amountA >= amountAMin, \"Min A\") */\n      tag_567\n      swap1\n      tag_124\n      jump\t// in\n    tag_567:\n        /* \"simpleswap.sol\":6927:6934  amountB */\n      dup12\n        /* \"simpleswap.sol\":6927:6948  amountB >= amountBMin */\n      lt\n      iszero\n        /* \"simpleswap.sol\":6919:6958  require(amountB >= amountBMin, \"Min B\") */\n      tag_570\n      swap1\n      tag_128\n      jump\t// in\n    tag_570:\n        /* \"simpleswap.sol\":7007:7014  amountA */\n      dup12\n        /* \"simpleswap.sol\":6996:7014  reserve0 - amountA */\n      tag_571\n      swap2\n      tag_92\n      jump\t// in\n    tag_571:\n        /* \"simpleswap.sol\":6971:7014  pair.reserves.reserve0 = reserve0 - amountA */\n      tag_572\n      swap1\n        /* \"simpleswap.sol\":6971:6975  pair */\n      dup4\n        /* \"simpleswap.sol\":6971:7014  pair.reserves.reserve0 = reserve0 - amountA */\n      tag_91\n      jump\t// in\n    tag_572:\n        /* \"simpleswap.sol\":7061:7068  amountB */\n      dup10\n        /* \"simpleswap.sol\":7050:7068  reserve1 - amountB */\n      tag_573\n      swap2\n      tag_92\n      jump\t// in\n    tag_573:\n        /* \"simpleswap.sol\":7025:7068  pair.reserves.reserve1 = reserve1 - amountB */\n      tag_574\n      swap1\n        /* \"simpleswap.sol\":7025:7047  pair.reserves.reserve1 */\n      0x01\n      dup4\n      add\n        /* \"simpleswap.sol\":7025:7068  pair.reserves.reserve1 = reserve1 - amountB */\n      tag_91\n      jump\t// in\n    tag_574:\n        /* \"simpleswap.sol\":7079:7095  pair.totalSupply */\n      0x02\n      dup2\n      add\n        /* \"simpleswap.sol\":7099:7108  liquidity */\n      dup8\n        /* \"simpleswap.sol\":7079:7108  pair.totalSupply -= liquidity */\n      tag_575\n        /* \"simpleswap.sol\":7079:7095  pair.totalSupply */\n      dup3\n        /* \"simpleswap.sol\":7079:7108  pair.totalSupply -= liquidity */\n      tag_77\n      jump\t// in\n    tag_575:\n      swap1\n      tag_576\n      swap2\n      tag_92\n      jump\t// in\n    tag_576:\n      tag_577\n      swap2\n      tag_91\n      jump\t// in\n    tag_577:\n        /* \"simpleswap.sol\":7148:7157  liquidity */\n      dup7\n        /* \"simpleswap.sol\":7119:7123  pair */\n      swap1\n        /* \"simpleswap.sol\":7119:7132  pair.balances */\n      0x03\n      add\n        /* \"simpleswap.sol\":7133:7143  msg.sender */\n      caller\n        /* \"simpleswap.sol\":7119:7144  pair.balances[msg.sender] */\n      tag_578\n      swap2\n      tag_71\n      jump\t// in\n    tag_578:\n        /* \"simpleswap.sol\":7119:7157  pair.balances[msg.sender] -= liquidity */\n      swap1\n      tag_579\n      dup3\n      tag_77\n      jump\t// in\n    tag_579:\n      swap1\n      tag_580\n      swap2\n      tag_92\n      jump\t// in\n    tag_580:\n      tag_581\n      swap2\n      tag_91\n      jump\t// in\n    tag_581:\n        /* \"simpleswap.sol\":7170:7184  IERC20(tokenA) */\n      tag_582\n      swap1\n      tag_70\n      jump\t// in\n    tag_582:\n        /* \"simpleswap.sol\":7198:7200  to */\n      dup3\n        /* \"simpleswap.sol\":7202:7209  amountA */\n      dup10\n      swap1\n      tag_583\n      swap3\n      tag_191\n      jump\t// in\n    tag_583:\n        /* \"simpleswap.sol\":7221:7235  IERC20(tokenB) */\n      tag_584\n      swap1\n      tag_70\n      jump\t// in\n    tag_584:\n        /* \"simpleswap.sol\":7253:7260  amountB */\n      tag_585\n      swap2\n      dup8\n      swap2\n      tag_191\n      jump\t// in\n    tag_585:\n        /* \"simpleswap.sol\":7304:7310  token1 */\n      swap1\n        /* \"simpleswap.sol\":7312:7322  msg.sender */\n      caller\n        /* \"simpleswap.sol\":7324:7331  amountA */\n      swap2\n      dup7\n        /* \"simpleswap.sol\":7333:7340  amountB */\n      swap4\n      dup7\n        /* \"simpleswap.sol\":7279:7352  LiquidityRemoved(token0, token1, msg.sender, amountA, amountB, liquidity) */\n      0xd765e08eef31c0983ecca03ecd166297ac485ecd5dd69e291c848f0a020333c1\n      swap3\n      tag_586\n      swap1\n      tag_70\n      jump\t// in\n    tag_586:\n      swap4\n      tag_587\n      swap1\n      tag_70\n      jump\t// in\n    tag_587:\n      swap5\n      tag_588\n      swap1\n      tag_70\n      jump\t// in\n    tag_588:\n      swap6\n      tag_589\n        /* \"simpleswap.sol\":374:8963  contract SimpleSwap is ReentrancyGuard {... */\n      mload(0x40)\n      swap1\n      jump\n        /* \"simpleswap.sol\":7279:7352  LiquidityRemoved(token0, token1, msg.sender, amountA, amountB, liquidity) */\n    tag_589:\n      swap3\n      dup4\n      swap3\n      tag_471\n      swap3\n      dup5\n      tag_39\n      jump\t// in\n        /* \"simpleswap.sol\":5990:7360  function removeLiquidity(... */\n    tag_130:\n        /* \"simpleswap.sol\":6254:6269  uint256 amountB */\n      tag_591\n      swap7\n      swap6\n        /* \"simpleswap.sol\":5990:7360  function removeLiquidity(... */\n      swap5\n      swap4\n      swap3\n      swap2\n      swap1\n        /* \"simpleswap.sol\":374:8963  contract SimpleSwap is ReentrancyGuard {... */\n      0x00\n      dup1\n        /* \"simpleswap.sol\":6254:6269  uint256 amountB */\n      tag_109\n      jump\t// in\n    tag_591:\n        /* \"simpleswap.sol\":5990:7360  function removeLiquidity(... */\n      swap1\n      swap2\n      jump\t// out\n        /* \"simpleswap.sol\":374:8963  contract SimpleSwap is ReentrancyGuard {... */\n    tag_131:\n      tag_227\n      0x40\n      tag_96\n      jump\t// in\n    tag_132:\n      swap1\n      tag_220\n      tag_596\n      0x01\n      tag_597\n      tag_131\n      jump\t// in\n    tag_597:\n      swap5\n      tag_598\n      tag_599\n      dup3\n      tag_77\n      jump\t// in\n    tag_599:\n      dup8\n      mstore\n      jump\n    tag_598:\n      add\n      tag_77\n      jump\t// in\n    tag_596:\n      0x20\n      dup5\n      add\n      mstore\n      jump\n    tag_133:\n      tag_227\n      swap1\n      tag_132\n      jump\t// in\n        /* \"simpleswap.sol\":1538:1897  function getReserves(address tokenA, address tokenB) external view returns (uint256 reserveA, uint256 reserveB) {... */\n    tag_135:\n      swap1\n        /* \"simpleswap.sol\":1819:1835  tokenA == token0 */\n      tag_602\n      tag_437\n        /* \"simpleswap.sol\":1734:1785  Reserves memory r = _pairs[token0][token1].reserves */\n      tag_604\n        /* \"simpleswap.sol\":1754:1785  _pairs[token0][token1].reserves */\n      0x00\n        /* \"simpleswap.sol\":1696:1723  _sortTokens(tokenA, tokenB) */\n      tag_605\n        /* \"simpleswap.sol\":1754:1776  _pairs[token0][token1] */\n      tag_606\n        /* \"simpleswap.sol\":1538:1897  function getReserves(address tokenA, address tokenB) external view returns (uint256 reserveA, uint256 reserveB) {... */\n      swap6\n        /* \"simpleswap.sol\":1614:1630  uint256 reserveA */\n      tag_607\n        /* \"simpleswap.sol\":374:8963  contract SimpleSwap is ReentrancyGuard {... */\n      0x00\n      swap1\n      jump\n        /* \"simpleswap.sol\":1614:1630  uint256 reserveA */\n    tag_607:\n      pop\n        /* \"simpleswap.sol\":374:8963  contract SimpleSwap is ReentrancyGuard {... */\n      0x00\n        /* \"simpleswap.sol\":1632:1648  uint256 reserveB */\n      tag_487\n        /* \"simpleswap.sol\":374:8963  contract SimpleSwap is ReentrancyGuard {... */\n      jump\n        /* \"simpleswap.sol\":1696:1723  _sortTokens(tokenA, tokenB) */\n    tag_605:\n        /* \"simpleswap.sol\":1661:1723  (address token0, address token1) = _sortTokens(tokenA, tokenB) */\n      swap1\n      swap6\n      swap1\n        /* \"simpleswap.sol\":1754:1768  _pairs[token0] */\n      tag_435\n        /* \"simpleswap.sol\":1661:1723  (address token0, address token1) = _sortTokens(tokenA, tokenB) */\n      dup8\n        /* \"simpleswap.sol\":1754:1760  _pairs */\n      0x01\n        /* \"simpleswap.sol\":1754:1768  _pairs[token0] */\n      tag_71\n      jump\t// in\n        /* \"simpleswap.sol\":1754:1776  _pairs[token0][token1] */\n    tag_606:\n        /* \"simpleswap.sol\":1754:1785  _pairs[token0][token1].reserves */\n      add\n        /* \"simpleswap.sol\":1734:1785  Reserves memory r = _pairs[token0][token1].reserves */\n      tag_133\n      jump\t// in\n    tag_604:\n        /* \"simpleswap.sol\":1819:1825  tokenA */\n      swap4\n        /* \"simpleswap.sol\":1829:1835  token0 */\n      swap3\n      sub(shl(0xa0, 0x01), 0x01)\n        /* \"simpleswap.sol\":374:8963  contract SimpleSwap is ReentrancyGuard {... */\n      and\n      swap1\n      jump\n        /* \"simpleswap.sol\":1819:1835  tokenA == token0 */\n    tag_602:\n      sub\n        /* \"simpleswap.sol\":1819:1889  tokenA == token0 ? (r.reserve0, r.reserve1) : (r.reserve1, r.reserve0) */\n      tag_610\n      jumpi\n        /* \"simpleswap.sol\":1851:1861  r.reserve1 */\n      tag_591\n      0x20\n        /* \"simpleswap.sol\":1839:1849  r.reserve0 */\n      tag_613\n        /* \"simpleswap.sol\":1839:1840  r */\n      dup4\n        /* \"simpleswap.sol\":374:8963  contract SimpleSwap is ReentrancyGuard {... */\n      mload\n      swap1\n      jump\n        /* \"simpleswap.sol\":1839:1849  r.reserve0 */\n    tag_613:\n        /* \"simpleswap.sol\":1851:1852  r */\n      swap3\n        /* \"simpleswap.sol\":1851:1861  r.reserve1 */\n      add\n        /* \"simpleswap.sol\":374:8963  contract SimpleSwap is ReentrancyGuard {... */\n      mload\n      swap1\n      jump\n        /* \"simpleswap.sol\":1819:1889  tokenA == token0 ? (r.reserve0, r.reserve1) : (r.reserve1, r.reserve0) */\n    tag_610:\n        /* \"simpleswap.sol\":1878:1888  r.reserve0 */\n      tag_591\n      0x00\n        /* \"simpleswap.sol\":1866:1876  r.reserve1 */\n      tag_613\n      0x20\n        /* \"simpleswap.sol\":1866:1867  r */\n      dup5\n        /* \"simpleswap.sol\":1866:1876  r.reserve1 */\n      add\n        /* \"simpleswap.sol\":374:8963  contract SimpleSwap is ReentrancyGuard {... */\n      mload\n      swap1\n      jump\n        /* \"@openzeppelin/contracts/security/ReentrancyGuard.sol\":2227:2330  modifier nonReentrant() {... */\n    tag_136:\n      swap1\n        /* \"@openzeppelin/contracts/security/ReentrancyGuard.sol\":2292:2293  _ */\n      tag_617\n        /* \"@openzeppelin/contracts/security/ReentrancyGuard.sol\":2227:2330  modifier nonReentrant() {... */\n      swap11\n      swap10\n      swap9\n      swap8\n      swap7\n      swap6\n      swap5\n      swap4\n      swap3\n      swap2\n      tag_618\n      tag_156\n      jump\t// in\n    tag_618:\n        /* \"@openzeppelin/contracts/security/ReentrancyGuard.sol\":2292:2293  _ */\n      tag_149\n      jump\t// in\n    tag_617:\n      swap1\n      swap2\n      swap3\n      tag_220\n      tag_158\n      jump\t// in\n        /* \"simpleswap.sol\":374:8963  contract SimpleSwap is ReentrancyGuard {... */\n    tag_140:\n      iszero\n      tag_623\n      jumpi\n      jump\t// out\n    tag_623:\n      mload(0x40)\n      shl(0xe5, 0x461bcd)\n      dup2\n      mstore\n      0x20\n      0x04\n      dup3\n      add\n      mstore\n      0x0a\n      0x24\n      dup3\n      add\n      mstore\n      shl(0xb0, 0x536c6970706167652041)\n      0x44\n      dup3\n      add\n      mstore\n      0x64\n      swap1\n      revert\n    tag_144:\n      iszero\n      tag_630\n      jumpi\n      jump\t// out\n    tag_630:\n      mload(0x40)\n      shl(0xe5, 0x461bcd)\n      dup2\n      mstore\n      0x20\n      0x04\n      dup3\n      add\n      mstore\n      0x0a\n      0x24\n      dup3\n      add\n      mstore\n      shl(0xb1, 0x29b634b83830b3b29021)\n      0x44\n      dup3\n      add\n      mstore\n      0x64\n      swap1\n      revert\n    tag_148:\n      iszero\n      tag_637\n      jumpi\n      jump\t// out\n    tag_637:\n      mload(0x40)\n      shl(0xe5, 0x461bcd)\n      dup2\n      mstore\n      0x20\n      0x04\n      dup3\n      add\n      mstore\n      0x0e\n      0x24\n      dup3\n      add\n      mstore\n      shl(0x90, 0x4c6971756964697479207a65726f)\n      0x44\n      dup3\n      add\n      mstore\n      0x64\n      swap1\n      revert\n        /* \"simpleswap.sol\":3959:5982  function addLiquidity(... */\n    tag_149:\n      swap1\n        /* \"simpleswap.sol\":4305:4352  require(block.timestamp <= deadline, \"Expired\") */\n      tag_641\n        /* \"simpleswap.sol\":3959:5982  function addLiquidity(... */\n      swap4\n      swap11\n      swap3\n      swap2\n      swap12\n      swap9\n      swap12\n      swap10\n      swap7\n      swap5\n      swap8\n      swap10\n      pop\n      pop\n        /* \"simpleswap.sol\":4313:4328  block.timestamp */\n      pop\n        /* \"simpleswap.sol\":4313:4340  block.timestamp <= deadline */\n      tag_419\n      tag_420\n        /* \"simpleswap.sol\":4313:4328  block.timestamp */\n      timestamp\n        /* \"simpleswap.sol\":4332:4340  deadline */\n      swap3\n        /* \"simpleswap.sol\":374:8963  contract SimpleSwap is ReentrancyGuard {... */\n      swap1\n      jump\n        /* \"simpleswap.sol\":4305:4352  require(block.timestamp <= deadline, \"Expired\") */\n    tag_641:\n        /* \"simpleswap.sol\":4398:4425  _sortTokens(tokenA, tokenB) */\n      tag_644\n        /* \"simpleswap.sol\":4418:4424  tokenB */\n      dup5\n        /* \"simpleswap.sol\":4410:4416  tokenA */\n      dup9\n        /* \"simpleswap.sol\":4398:4425  _sortTokens(tokenA, tokenB) */\n      tag_170\n      jump\t// in\n    tag_644:\n        /* \"simpleswap.sol\":4363:4425  (address token0, address token1) = _sortTokens(tokenA, tokenB) */\n      swap5\n      swap1\n      swap3\n      swap1\n        /* \"simpleswap.sol\":4436:4478  Pair storage pair = _pairs[token0][token1] */\n      tag_645\n        /* \"simpleswap.sol\":4456:4478  _pairs[token0][token1] */\n      tag_227\n        /* \"simpleswap.sol\":4456:4470  _pairs[token0] */\n      tag_647\n        /* \"simpleswap.sol\":4363:4425  (address token0, address token1) = _sortTokens(tokenA, tokenB) */\n      dup7\n        /* \"simpleswap.sol\":4456:4462  _pairs */\n      0x01\n        /* \"simpleswap.sol\":4456:4470  _pairs[token0] */\n      tag_71\n      jump\t// in\n    tag_647:\n        /* \"simpleswap.sol\":4471:4477  token1 */\n      dup9\n        /* \"simpleswap.sol\":4456:4478  _pairs[token0][token1] */\n      swap1\n      tag_71\n      jump\t// in\n        /* \"simpleswap.sol\":4436:4478  Pair storage pair = _pairs[token0][token1] */\n    tag_645:\n        /* \"simpleswap.sol\":4531:4535  pair */\n      swap2\n        /* \"simpleswap.sol\":4531:4553  pair.reserves.reserve0 */\n      tag_648\n        /* \"simpleswap.sol\":4531:4535  pair */\n      dup4\n        /* \"simpleswap.sol\":4531:4553  pair.reserves.reserve0 */\n      tag_77\n      jump\t// in\n    tag_648:\n        /* \"simpleswap.sol\":4555:4559  pair */\n      swap9\n        /* \"simpleswap.sol\":4555:4577  pair.reserves.reserve1 */\n      tag_649\n      0x01\n      dup6\n      add\n      tag_77\n      jump\t// in\n    tag_649:\n        /* \"simpleswap.sol\":4595:4603  reserve0 */\n      swap12\n      dup13\n      dup12\n        /* \"simpleswap.sol\":4595:4608  reserve0 == 0 */\n      tag_650\n      tag_420\n        /* \"simpleswap.sol\":4607:4608  0 */\n      0x00\n        /* \"simpleswap.sol\":4595:4608  reserve0 == 0 */\n      tag_52\n      jump\t// in\n    tag_650:\n      eq\n        /* \"simpleswap.sol\":4595:4625  reserve0 == 0 && reserve1 == 0 */\n      dup1\n      tag_652\n      jumpi\n        /* \"simpleswap.sol\":3959:5982  function addLiquidity(... */\n    tag_653:\n        /* \"simpleswap.sol\":4591:5259  if (reserve0 == 0 && reserve1 == 0) {... */\n      iszero\n      tag_654\n      jumpi\n        /* \"simpleswap.sol\":4664:4678  amountADesired */\n      pop\n      pop\n      pop\n        /* \"simpleswap.sol\":4680:4694  amountBDesired */\n      swap3\n        /* \"simpleswap.sol\":4642:4695  (amountA, amountB) = (amountADesired, amountBDesired) */\n      swap9\n      dup10\n      swap4\n        /* \"simpleswap.sol\":4591:5259  if (reserve0 == 0 && reserve1 == 0) {... */\n      swap11\n        /* \"simpleswap.sol\":5715:5758  pair.reserves.reserve0 = reserve0 + amountA */\n      tag_656\n        /* \"simpleswap.sol\":5740:5758  reserve0 + amountA */\n      tag_657\n        /* \"simpleswap.sol\":4591:5259  if (reserve0 == 0 && reserve1 == 0) {... */\n      dup14\n        /* \"simpleswap.sol\":5662:5702  require(liquidity > 0, \"Liquidity zero\") */\n      tag_658\n        /* \"simpleswap.sol\":4591:5259  if (reserve0 == 0 && reserve1 == 0) {... */\n      swap13\n        /* \"simpleswap.sol\":5863:5893  pair.balances[to] += liquidity */\n      tag_659\n        /* \"simpleswap.sol\":4591:5259  if (reserve0 == 0 && reserve1 == 0) {... */\n      swap9\n        /* \"simpleswap.sol\":5408:5415  amountB */\n      tag_660\n        /* \"simpleswap.sol\":5349:5363  IERC20(tokenB) */\n      tag_661\n        /* \"simpleswap.sol\":5769:5812  pair.reserves.reserve1 = reserve1 + amountB */\n      tag_662\n        /* \"simpleswap.sol\":4591:5259  if (reserve0 == 0 && reserve1 == 0) {... */\n      swap10\n        /* \"simpleswap.sol\":5330:5337  amountA */\n      tag_666\n        /* \"simpleswap.sol\":5271:5285  IERC20(tokenA) */\n      tag_664\n        /* \"simpleswap.sol\":5794:5812  reserve1 + amountB */\n      tag_665\n        /* \"simpleswap.sol\":4591:5259  if (reserve0 == 0 && reserve1 == 0) {... */\n      swap12\n    tag_666:\n        /* \"simpleswap.sol\":5271:5285  IERC20(tokenA) */\n      tag_70\n      jump\t// in\n    tag_664:\n        /* \"simpleswap.sol\":5303:5313  msg.sender */\n      caller\n        /* \"simpleswap.sol\":5315:5328  address(this) */\n      tag_667\n        /* \"simpleswap.sol\":5323:5327  this */\n      address\n        /* \"simpleswap.sol\":5315:5328  address(this) */\n      tag_70\n      jump\t// in\n    tag_667:\n        /* \"simpleswap.sol\":5330:5337  amountA */\n      swap1\n      dup10\n      swap3\n      tag_178\n      jump\t// in\n        /* \"simpleswap.sol\":5349:5363  IERC20(tokenB) */\n    tag_661:\n        /* \"simpleswap.sol\":5381:5391  msg.sender */\n      caller\n        /* \"simpleswap.sol\":5393:5406  address(this) */\n      tag_668\n        /* \"simpleswap.sol\":5401:5405  this */\n      address\n        /* \"simpleswap.sol\":5393:5406  address(this) */\n      tag_70\n      jump\t// in\n    tag_668:\n        /* \"simpleswap.sol\":5408:5415  amountB */\n      swap1\n      dup5\n      swap3\n      tag_178\n      jump\t// in\n    tag_660:\n        /* \"simpleswap.sol\":5433:5449  pair.totalSupply */\n      tag_669\n      0x02\n        /* \"simpleswap.sol\":5433:5437  pair */\n      dup11\n        /* \"simpleswap.sol\":5433:5449  pair.totalSupply */\n      add\n      tag_77\n      jump\t// in\n    tag_669:\n        /* \"simpleswap.sol\":5433:5454  pair.totalSupply == 0 */\n      tag_670\n      tag_420\n        /* \"simpleswap.sol\":5453:5454  0 */\n      0x00\n        /* \"simpleswap.sol\":5433:5454  pair.totalSupply == 0 */\n      tag_52\n      jump\t// in\n    tag_670:\n      sub\n        /* \"simpleswap.sol\":5429:5650  if (pair.totalSupply == 0) {... */\n      tag_672\n      jumpi\n        /* \"simpleswap.sol\":5489:5506  amountA * amountB */\n      tag_674\n        /* \"simpleswap.sol\":5483:5507  _sqrt(amountA * amountB) */\n      tag_675\n        /* \"simpleswap.sol\":5489:5496  amountA */\n      swap2\n      dup5\n        /* \"simpleswap.sol\":5489:5506  amountA * amountB */\n      tag_118\n      jump\t// in\n    tag_674:\n        /* \"simpleswap.sol\":5483:5507  _sqrt(amountA * amountB) */\n      tag_199\n      jump\t// in\n    tag_675:\n        /* \"simpleswap.sol\":5429:5650  if (pair.totalSupply == 0) {... */\n      swap14\n      dup15\n    tag_676:\n        /* \"simpleswap.sol\":5670:5683  liquidity > 0 */\n      tag_677\n      tag_420\n        /* \"simpleswap.sol\":5682:5683  0 */\n      0x00\n        /* \"simpleswap.sol\":5670:5683  liquidity > 0 */\n      tag_52\n      jump\t// in\n    tag_677:\n      gt\n        /* \"simpleswap.sol\":5662:5702  require(liquidity > 0, \"Liquidity zero\") */\n      tag_148\n      jump\t// in\n    tag_658:\n        /* \"simpleswap.sol\":5740:5758  reserve0 + amountA */\n      tag_86\n      jump\t// in\n    tag_657:\n        /* \"simpleswap.sol\":5715:5719  pair */\n      dup6\n        /* \"simpleswap.sol\":5715:5758  pair.reserves.reserve0 = reserve0 + amountA */\n      tag_91\n      jump\t// in\n    tag_656:\n        /* \"simpleswap.sol\":5805:5812  amountB */\n      dup11\n        /* \"simpleswap.sol\":5794:5812  reserve1 + amountB */\n      swap1\n      tag_86\n      jump\t// in\n    tag_665:\n        /* \"simpleswap.sol\":5769:5791  pair.reserves.reserve1 */\n      0x01\n      dup4\n      add\n        /* \"simpleswap.sol\":5769:5812  pair.reserves.reserve1 = reserve1 + amountB */\n      tag_91\n      jump\t// in\n    tag_662:\n        /* \"simpleswap.sol\":5823:5852  pair.totalSupply += liquidity */\n      tag_679\n        /* \"simpleswap.sol\":5823:5839  pair.totalSupply */\n      0x02\n      dup3\n      add\n        /* \"simpleswap.sol\":5823:5852  pair.totalSupply += liquidity */\n      tag_680\n        /* \"simpleswap.sol\":5843:5852  liquidity */\n      dup10\n        /* \"simpleswap.sol\":5823:5852  pair.totalSupply += liquidity */\n      tag_658\n        /* \"simpleswap.sol\":5823:5839  pair.totalSupply */\n      dup4\n        /* \"simpleswap.sol\":5823:5852  pair.totalSupply += liquidity */\n      tag_77\n      jump\t// in\n    tag_680:\n      swap1\n      tag_91\n      jump\t// in\n    tag_679:\n        /* \"simpleswap.sol\":5863:5893  pair.balances[to] += liquidity */\n      tag_680\n        /* \"simpleswap.sol\":5863:5880  pair.balances[to] */\n      tag_683\n        /* \"simpleswap.sol\":5863:5876  pair.balances */\n      0x03\n        /* \"simpleswap.sol\":5884:5893  liquidity */\n      dup10\n        /* \"simpleswap.sol\":5863:5867  pair */\n      swap4\n        /* \"simpleswap.sol\":5863:5876  pair.balances */\n      add\n        /* \"simpleswap.sol\":5877:5879  to */\n      dup7\n        /* \"simpleswap.sol\":5863:5880  pair.balances[to] */\n      swap1\n      tag_71\n      jump\t// in\n    tag_683:\n        /* \"simpleswap.sol\":5863:5893  pair.balances[to] += liquidity */\n      swap2\n      tag_658\n      dup4\n      tag_77\n      jump\t// in\n    tag_659:\n        /* \"simpleswap.sol\":5934:5940  token1 */\n      swap2\n        /* \"simpleswap.sol\":5946:5953  amountA */\n      dup7\n        /* \"simpleswap.sol\":5955:5962  amountB */\n      swap3\n      dup7\n        /* \"simpleswap.sol\":5964:5973  liquidity */\n      dup7\n        /* \"simpleswap.sol\":5911:5974  LiquidityAdded(token0, token1, to, amountA, amountB, liquidity) */\n      swap5\n      tag_471\n      tag_686\n      tag_688\n      tag_688\n      0x43c967b388d3a4ccad3f7ab80167852e322e5a3fde9893f530252281b2ae8b70\n      swap7\n      tag_70\n      jump\t// in\n    tag_688:\n      swap7\n      tag_70\n      jump\t// in\n    tag_686:\n      swap7\n      tag_327\n        /* \"simpleswap.sol\":374:8963  contract SimpleSwap is ReentrancyGuard {... */\n      mload(0x40)\n      swap1\n      jump\n        /* \"simpleswap.sol\":5429:5650  if (pair.totalSupply == 0) {... */\n    tag_672:\n        /* \"simpleswap.sol\":5552:5638  _min((amountA * pair.totalSupply) / reserve0, (amountB * pair.totalSupply) / reserve1) */\n      tag_690\n        /* \"simpleswap.sol\":5558:5565  amountA */\n      swap1\n        /* \"simpleswap.sol\":5598:5637  (amountB * pair.totalSupply) / reserve1 */\n      tag_691\n        /* \"simpleswap.sol\":5599:5625  amountB * pair.totalSupply */\n      tag_692\n        /* \"simpleswap.sol\":5558:5565  amountA */\n      dup12\n        /* \"simpleswap.sol\":5609:5625  pair.totalSupply */\n      tag_696\n      0x02\n        /* \"simpleswap.sol\":5557:5596  (amountA * pair.totalSupply) / reserve0 */\n      tag_694\n        /* \"simpleswap.sol\":5558:5584  amountA * pair.totalSupply */\n      tag_695\n        /* \"simpleswap.sol\":5558:5565  amountA */\n      dup11\n        /* \"simpleswap.sol\":5568:5584  pair.totalSupply */\n      tag_696\n        /* \"simpleswap.sol\":5568:5572  pair */\n      dup5\n      dup8\n        /* \"simpleswap.sol\":5568:5584  pair.totalSupply */\n      add\n      tag_77\n      jump\t// in\n    tag_696:\n        /* \"simpleswap.sol\":5558:5584  amountA * pair.totalSupply */\n      swap1\n      tag_118\n      jump\t// in\n    tag_695:\n        /* \"simpleswap.sol\":5588:5596  reserve0 */\n      dup10\n        /* \"simpleswap.sol\":5557:5596  (amountA * pair.totalSupply) / reserve0 */\n      swap1\n      tag_120\n      jump\t// in\n    tag_694:\n        /* \"simpleswap.sol\":5599:5606  amountB */\n      swap6\n        /* \"simpleswap.sol\":5609:5613  pair */\n      swap3\n        /* \"simpleswap.sol\":5609:5625  pair.totalSupply */\n      add\n      tag_77\n      jump\t// in\n        /* \"simpleswap.sol\":5599:5625  amountB * pair.totalSupply */\n    tag_692:\n        /* \"simpleswap.sol\":5629:5637  reserve1 */\n      dup9\n        /* \"simpleswap.sol\":5598:5637  (amountB * pair.totalSupply) / reserve1 */\n      swap1\n      tag_120\n      jump\t// in\n    tag_691:\n        /* \"simpleswap.sol\":5552:5638  _min((amountA * pair.totalSupply) / reserve0, (amountB * pair.totalSupply) / reserve1) */\n      swap1\n      tag_192\n      jump\t// in\n    tag_690:\n        /* \"simpleswap.sol\":5429:5650  if (pair.totalSupply == 0) {... */\n      swap14\n      dup15\n      jump(tag_676)\n        /* \"simpleswap.sol\":4591:5259  if (reserve0 == 0 && reserve1 == 0) {... */\n    tag_654:\n        /* \"simpleswap.sol\":4754:4779  amountADesired * reserve1 */\n      tag_697\n        /* \"simpleswap.sol\":4753:4791  (amountADesired * reserve1) / reserve0 */\n      tag_698\n        /* \"simpleswap.sol\":4754:4768  amountADesired */\n      swap2\n      dup6\n      swap9\n      swap4\n      swap5\n      swap9\n        /* \"simpleswap.sol\":4754:4779  amountADesired * reserve1 */\n      tag_118\n      jump\t// in\n    tag_697:\n        /* \"simpleswap.sol\":4783:4791  reserve0 */\n      dup13\n        /* \"simpleswap.sol\":4753:4791  (amountADesired * reserve1) / reserve0 */\n      swap1\n      tag_120\n      jump\t// in\n    tag_698:\n        /* \"simpleswap.sol\":4810:4824  amountBOptimal */\n      swap6\n        /* \"simpleswap.sol\":4828:4842  amountBDesired */\n      dup2\n        /* \"simpleswap.sol\":4810:4824  amountBOptimal */\n      dup8\n        /* \"simpleswap.sol\":4810:4842  amountBOptimal <= amountBDesired */\n      gt\n        /* \"simpleswap.sol\":4806:5248  if (amountBOptimal <= amountBDesired) {... */\n      tag_701\n      jumpi\n        /* \"simpleswap.sol\":4871:4885  amountBOptimal */\n      pop\n      pop\n      dup5\n        /* \"simpleswap.sol\":4871:4899  amountBOptimal >= amountBMin */\n      lt\n      iszero\n        /* \"simpleswap.sol\":4863:4914  require(amountBOptimal >= amountBMin, \"Slippage B\") */\n      tag_705\n      swap1\n      tag_144\n      jump\t// in\n    tag_705:\n        /* \"simpleswap.sol\":4971:4985  amountBOptimal */\n      swap3\n        /* \"simpleswap.sol\":4933:4986  (amountA, amountB) = (amountADesired, amountBOptimal) */\n      swap9\n      dup10\n      swap4\n        /* \"simpleswap.sol\":4806:5248  if (amountBOptimal <= amountBDesired) {... */\n      swap11\n        /* \"simpleswap.sol\":5715:5758  pair.reserves.reserve0 = reserve0 + amountA */\n      tag_656\n        /* \"simpleswap.sol\":5740:5758  reserve0 + amountA */\n      tag_657\n        /* \"simpleswap.sol\":4806:5248  if (amountBOptimal <= amountBDesired) {... */\n      dup14\n        /* \"simpleswap.sol\":5662:5702  require(liquidity > 0, \"Liquidity zero\") */\n      tag_658\n        /* \"simpleswap.sol\":4806:5248  if (amountBOptimal <= amountBDesired) {... */\n      swap13\n        /* \"simpleswap.sol\":5863:5893  pair.balances[to] += liquidity */\n      tag_659\n        /* \"simpleswap.sol\":4806:5248  if (amountBOptimal <= amountBDesired) {... */\n      swap9\n        /* \"simpleswap.sol\":5408:5415  amountB */\n      tag_660\n        /* \"simpleswap.sol\":5349:5363  IERC20(tokenB) */\n      tag_661\n        /* \"simpleswap.sol\":5769:5812  pair.reserves.reserve1 = reserve1 + amountB */\n      tag_662\n        /* \"simpleswap.sol\":4806:5248  if (amountBOptimal <= amountBDesired) {... */\n      swap10\n        /* \"simpleswap.sol\":5330:5337  amountA */\n      tag_666\n        /* \"simpleswap.sol\":5271:5285  IERC20(tokenA) */\n      tag_664\n        /* \"simpleswap.sol\":5794:5812  reserve1 + amountB */\n      tag_665\n        /* \"simpleswap.sol\":4806:5248  if (amountBOptimal <= amountBDesired) {... */\n      swap12\n        /* \"simpleswap.sol\":5271:5285  IERC20(tokenA) */\n      tag_70\n      jump\t// in\n        /* \"simpleswap.sol\":4806:5248  if (amountBOptimal <= amountBDesired) {... */\n    tag_701:\n        /* \"simpleswap.sol\":5053:5067  amountBDesired */\n      swap3\n      pop\n      swap5\n      pop\n      pop\n      dup4\n        /* \"simpleswap.sol\":5070:5078  reserve0 */\n      dup10\n        /* \"simpleswap.sol\":5053:5078  amountBDesired * reserve0 */\n      tag_707\n      swap2\n      tag_118\n      jump\t// in\n    tag_707:\n        /* \"simpleswap.sol\":5082:5090  reserve1 */\n      dup12\n        /* \"simpleswap.sol\":5052:5090  (amountBDesired * reserve0) / reserve1 */\n      tag_708\n      swap2\n      tag_120\n      jump\t// in\n    tag_708:\n        /* \"simpleswap.sol\":5117:5131  amountAOptimal */\n      swap1\n      dup2\n        /* \"simpleswap.sol\":5117:5145  amountAOptimal >= amountAMin */\n      lt\n      iszero\n        /* \"simpleswap.sol\":5109:5160  require(amountAOptimal >= amountAMin, \"Slippage A\") */\n      tag_705\n      swap1\n      tag_140\n      jump\t// in\n        /* \"simpleswap.sol\":4595:4625  reserve0 == 0 && reserve1 == 0 */\n    tag_652:\n        /* \"simpleswap.sol\":4612:4620  reserve1 */\n      pop\n      dup1\n        /* \"simpleswap.sol\":4612:4625  reserve1 == 0 */\n      tag_712\n      tag_420\n        /* \"simpleswap.sol\":4624:4625  0 */\n      0x00\n        /* \"simpleswap.sol\":4612:4625  reserve1 == 0 */\n      tag_52\n      jump\t// in\n    tag_712:\n      eq\n        /* \"simpleswap.sol\":4595:4625  reserve0 == 0 && reserve1 == 0 */\n      jump(tag_653)\n        /* \"simpleswap.sol\":3959:5982  function addLiquidity(... */\n    tag_150:\n        /* \"simpleswap.sol\":4275:4292  uint256 liquidity */\n      tag_714\n      swap8\n      swap7\n        /* \"simpleswap.sol\":3959:5982  function addLiquidity(... */\n      swap6\n      swap5\n      swap4\n      swap3\n      swap2\n      swap1\n        /* \"simpleswap.sol\":374:8963  contract SimpleSwap is ReentrancyGuard {... */\n      0x00\n      dup1\n      dup1\n        /* \"simpleswap.sol\":4275:4292  uint256 liquidity */\n      tag_136\n      jump\t// in\n    tag_714:\n        /* \"simpleswap.sol\":3959:5982  function addLiquidity(... */\n      swap1\n      swap2\n      swap3\n      jump\t// out\n        /* \"@openzeppelin/contracts/security/ReentrancyGuard.sol\":1723:1760  uint256 private constant _ENTERED = 2 */\n    tag_151:\n        /* \"@openzeppelin/contracts/security/ReentrancyGuard.sol\":1759:1760  2 */\n      tag_227\n      0x02\n      tag_52\n      jump\t// in\n    tag_155:\n      iszero\n      tag_722\n      jumpi\n      jump\t// out\n    tag_722:\n        /* \"simpleswap.sol\":374:8963  contract SimpleSwap is ReentrancyGuard {... */\n      mload(0x40)\n      shl(0xe5, 0x461bcd)\n        /* \"@openzeppelin/contracts/security/ReentrancyGuard.sol\":1759:1760  2 */\n      dup2\n      mstore\n      0x20\n      0x04\n      dup3\n      add\n      mstore\n      0x1f\n      0x24\n      dup3\n      add\n        /* \"simpleswap.sol\":374:8963  contract SimpleSwap is ReentrancyGuard {... */\n      mstore\n        /* \"@openzeppelin/contracts/security/ReentrancyGuard.sol\":1759:1760  2 */\n      0x5265656e7472616e637947756172643a207265656e7472616e742063616c6c00\n        /* \"simpleswap.sol\":374:8963  contract SimpleSwap is ReentrancyGuard {... */\n      0x44\n      dup3\n      add\n        /* \"@openzeppelin/contracts/security/ReentrancyGuard.sol\":1759:1760  2 */\n      mstore\n        /* \"simpleswap.sol\":374:8963  contract SimpleSwap is ReentrancyGuard {... */\n      0x64\n      swap1\n      revert\n        /* \"@openzeppelin/contracts/security/ReentrancyGuard.sol\":2336:2623  function _nonReentrantBefore() private {... */\n    tag_156:\n        /* \"@openzeppelin/contracts/security/ReentrancyGuard.sol\":2460:2523  require(_status != _ENTERED, \"ReentrancyGuard: reentrant call\") */\n      tag_726\n        /* \"@openzeppelin/contracts/security/ReentrancyGuard.sol\":2468:2475  _status */\n      tag_727\n      0x00\n      tag_77\n      jump\t// in\n    tag_727:\n        /* \"@openzeppelin/contracts/security/ReentrancyGuard.sol\":2468:2487  _status != _ENTERED */\n      tag_728\n      tag_420\n        /* \"@openzeppelin/contracts/security/ReentrancyGuard.sol\":2479:2487  _ENTERED */\n      tag_227\n      tag_151\n      jump\t// in\n        /* \"@openzeppelin/contracts/security/ReentrancyGuard.sol\":2468:2487  _status != _ENTERED */\n    tag_728:\n      eq\n      iszero\n        /* \"@openzeppelin/contracts/security/ReentrancyGuard.sol\":2460:2523  require(_status != _ENTERED, \"ReentrancyGuard: reentrant call\") */\n      tag_155\n      jump\t// in\n    tag_726:\n        /* \"@openzeppelin/contracts/security/ReentrancyGuard.sol\":2598:2616  _status = _ENTERED */\n      tag_220\n        /* \"@openzeppelin/contracts/security/ReentrancyGuard.sol\":2608:2616  _ENTERED */\n      tag_732\n      tag_151\n      jump\t// in\n    tag_732:\n        /* \"@openzeppelin/contracts/security/ReentrancyGuard.sol\":2598:2616  _status = _ENTERED */\n      0x00\n      tag_91\n      jump\t// in\n        /* \"@openzeppelin/contracts/security/ReentrancyGuard.sol\":1676:1717  uint256 private constant _NOT_ENTERED = 1 */\n    tag_157:\n        /* \"@openzeppelin/contracts/security/ReentrancyGuard.sol\":1716:1717  1 */\n      tag_227\n      0x01\n      tag_52\n      jump\t// in\n        /* \"@openzeppelin/contracts/security/ReentrancyGuard.sol\":2629:2838  function _nonReentrantAfter() private {... */\n    tag_158:\n        /* \"@openzeppelin/contracts/security/ReentrancyGuard.sol\":2809:2831  _status = _NOT_ENTERED */\n      tag_220\n        /* \"@openzeppelin/contracts/security/ReentrancyGuard.sol\":2819:2831  _NOT_ENTERED */\n      tag_732\n      tag_157\n      jump\t// in\n        /* \"simpleswap.sol\":374:8963  contract SimpleSwap is ReentrancyGuard {... */\n    tag_163:\n      iszero\n      tag_739\n      jumpi\n      jump\t// out\n    tag_739:\n      mload(0x40)\n      shl(0xe5, 0x461bcd)\n      dup2\n      mstore\n      0x20\n      0x04\n      dup3\n      add\n      mstore\n      0x10\n      0x24\n      dup3\n      add\n      mstore\n      shl(0x80, 0x4964656e746963616c20746f6b656e73)\n      0x44\n      dup3\n      add\n      mstore\n      0x64\n      swap1\n      revert\n    tag_164:\n      tag_14\n      tag_227\n      tag_227\n      swap3\n      swap1\n      jump\n    tag_165:\n      tag_227\n      swap1\n      tag_164\n      jump\t// in\n    tag_169:\n      iszero\n      tag_750\n      jumpi\n      jump\t// out\n    tag_750:\n      mload(0x40)\n      shl(0xe5, 0x461bcd)\n      dup2\n      mstore\n      0x20\n      0x04\n      dup3\n      add\n      mstore\n      0x0c\n      0x24\n      dup3\n      add\n      mstore\n      shl(0xa0, 0x5a65726f2061646472657373)\n      0x44\n      dup3\n      add\n      mstore\n      0x64\n      swap1\n      revert\n        /* \"simpleswap.sol\":2419:2728  function _sortTokens(address tokenA, address tokenB) internal pure returns (address, address) {... */\n    tag_170:\n      swap1\n      swap2\n      swap1\n        /* \"simpleswap.sol\":2524:2569  require(tokenA != tokenB, \"Identical tokens\") */\n      tag_756\n        /* \"simpleswap.sol\":2419:2728  function _sortTokens(address tokenA, address tokenB) internal pure returns (address, address) {... */\n      dup2\n        /* \"simpleswap.sol\":2532:2548  tokenA != tokenB */\n      tag_757\n      sub(shl(0xa0, 0x01), 0x01)\n        /* \"simpleswap.sol\":374:8963  contract SimpleSwap is ReentrancyGuard {... */\n      dup7\n      and\n        /* \"simpleswap.sol\":2532:2548  tokenA != tokenB */\n      tag_437\n        /* \"simpleswap.sol\":374:8963  contract SimpleSwap is ReentrancyGuard {... */\n      jump\n        /* \"simpleswap.sol\":2532:2548  tokenA != tokenB */\n    tag_757:\n      eq\n      iszero\n        /* \"simpleswap.sol\":2524:2569  require(tokenA != tokenB, \"Identical tokens\") */\n      tag_163\n      jump\t// in\n    tag_756:\n        /* \"simpleswap.sol\":2588:2594  tokenA */\n      dup1\n        /* \"simpleswap.sol\":2588:2608  tokenA != address(0) */\n      tag_759\n      tag_437\n        /* \"simpleswap.sol\":2598:2608  address(0) */\n      tag_14\n        /* \"simpleswap.sol\":2606:2607  0 */\n      0x00\n        /* \"simpleswap.sol\":2598:2608  address(0) */\n      tag_165\n      jump\t// in\n        /* \"simpleswap.sol\":2588:2608  tokenA != address(0) */\n    tag_759:\n      eq\n      iszero\n        /* \"simpleswap.sol\":2588:2632  tokenA != address(0) && tokenB != address(0) */\n      dup1\n      tag_762\n      jumpi\n        /* \"simpleswap.sol\":2419:2728  function _sortTokens(address tokenA, address tokenB) internal pure returns (address, address) {... */\n    tag_763:\n        /* \"simpleswap.sol\":2580:2649  require(tokenA != address(0) && tokenB != address(0), \"Zero address\") */\n      tag_764\n      swap1\n      tag_169\n      jump\t// in\n    tag_764:\n        /* \"simpleswap.sol\":2667:2673  tokenA */\n      dup1\n        /* \"simpleswap.sol\":2667:2682  tokenA < tokenB */\n      tag_765\n      sub(shl(0xa0, 0x01), 0x01)\n        /* \"simpleswap.sol\":374:8963  contract SimpleSwap is ReentrancyGuard {... */\n      dup6\n      and\n        /* \"simpleswap.sol\":2667:2682  tokenA < tokenB */\n      tag_437\n        /* \"simpleswap.sol\":374:8963  contract SimpleSwap is ReentrancyGuard {... */\n      jump\n        /* \"simpleswap.sol\":2667:2682  tokenA < tokenB */\n    tag_765:\n      lt\n        /* \"simpleswap.sol\":2667:2720  tokenA < tokenB ? (tokenA, tokenB) : (tokenB, tokenA) */\n      iszero\n      tag_227\n      jumpi\n        /* \"simpleswap.sol\":2660:2720  return tokenA < tokenB ? (tokenA, tokenB) : (tokenB, tokenA) */\n      swap2\n      swap1\n      jump\t// out\n        /* \"simpleswap.sol\":2588:2632  tokenA != address(0) && tokenB != address(0) */\n    tag_762:\n        /* \"simpleswap.sol\":2612:2618  tokenB */\n      pop\n        /* \"simpleswap.sol\":2580:2649  require(tokenA != address(0) && tokenB != address(0), \"Zero address\") */\n      tag_764\n        /* \"simpleswap.sol\":2612:2618  tokenB */\n      dup4\n        /* \"simpleswap.sol\":2612:2632  tokenB != address(0) */\n      tag_770\n      tag_437\n        /* \"simpleswap.sol\":2622:2632  address(0) */\n      tag_14\n        /* \"simpleswap.sol\":2630:2631  0 */\n      0x00\n        /* \"simpleswap.sol\":2622:2632  address(0) */\n      tag_165\n      jump\t// in\n        /* \"simpleswap.sol\":2612:2632  tokenB != address(0) */\n    tag_770:\n      eq\n      iszero\n        /* \"simpleswap.sol\":2588:2632  tokenA != address(0) && tokenB != address(0) */\n      swap1\n      pop\n      jump(tag_763)\n        /* \"simpleswap.sol\":374:8963  contract SimpleSwap is ReentrancyGuard {... */\n    tag_175:\n      tag_774\n      tag_775\n      tag_227\n      swap3\n      0xffffffff\n      and\n      swap1\n      jump\n    tag_775:\n      0xe0\n      shl\n      swap1\n      jump\n    tag_774:\n      not(sub(shl(0xe0, 0x01), 0x01))\n      and\n      swap1\n      jump\n    tag_177:\n      sub(shl(0xa0, 0x01), 0x01)\n      swap2\n      dup3\n      and\n      dup2\n      mstore\n      swap2\n      and\n      0x20\n      dup3\n      add\n      mstore\n      0x60\n      dup2\n      add\n      swap3\n      swap2\n      tag_220\n      swap2\n      0x40\n      add\n      mstore\n      jump\n        /* \"@openzeppelin/contracts/token/ERC20/utils/SafeERC20.sol\":1618:1806  function safeTransferFrom(IERC20 token, address from, address to, uint256 value) internal {... */\n    tag_178:\n        /* \"@openzeppelin/contracts/token/ERC20/utils/SafeERC20.sol\":1745:1798  abi.encodeCall(token.transferFrom, (from, to, value)) */\n      tag_220\n      swap4\n      0x04\n      swap4\n        /* \"@openzeppelin/contracts/token/ERC20/utils/SafeERC20.sol\":1618:1806  function safeTransferFrom(IERC20 token, address from, address to, uint256 value) internal {... */\n      swap2\n      swap3\n        /* \"@openzeppelin/contracts/token/ERC20/utils/SafeERC20.sol\":1745:1798  abi.encodeCall(token.transferFrom, (from, to, value)) */\n      tag_783\n      swap3\n        /* \"@openzeppelin/contracts/token/ERC20/utils/SafeERC20.sol\":1618:1806  function safeTransferFrom(IERC20 token, address from, address to, uint256 value) internal {... */\n      swap1\n      swap2\n        /* \"@openzeppelin/contracts/token/ERC20/utils/SafeERC20.sol\":1745:1798  abi.encodeCall(token.transferFrom, (from, to, value)) */\n      tag_781\n      swap2\n      tag_784\n        /* \"@openzeppelin/contracts/token/ERC20/utils/SafeERC20.sol\":1760:1778  token.transferFrom */\n      0x23b872dd\n        /* \"@openzeppelin/contracts/token/ERC20/utils/SafeERC20.sol\":1745:1798  abi.encodeCall(token.transferFrom, (from, to, value)) */\n      tag_175\n      jump\t// in\n    tag_784:\n      swap4\n      tag_785\n        /* \"simpleswap.sol\":374:8963  contract SimpleSwap is ReentrancyGuard {... */\n      mload(0x40)\n      swap1\n      jump\n        /* \"@openzeppelin/contracts/token/ERC20/utils/SafeERC20.sol\":1745:1798  abi.encodeCall(token.transferFrom, (from, to, value)) */\n    tag_785:\n      swap8\n      dup9\n      swap6\n      0x20\n      dup8\n      add\n      swap1\n      dup2\n      mstore\n      add\n      tag_177\n      jump\t// in\n    tag_781:\n      0x20\n      dup3\n      add\n      dup2\n      sub\n      dup3\n      mstore\n      sub\n      dup4\n      tag_95\n      jump\t// in\n    tag_783:\n      tag_201\n      jump\t// in\n        /* \"simpleswap.sol\":374:8963  contract SimpleSwap is ReentrancyGuard {... */\n    tag_182:\n      iszero\n      tag_789\n      jumpi\n      jump\t// out\n    tag_789:\n      mload(0x40)\n      shl(0xe5, 0x461bcd)\n      dup2\n      mstore\n      0x20\n      0x04\n      dup3\n      add\n      mstore\n      0x0d\n      0x24\n      dup3\n      add\n      mstore\n      shl(0x9a, 0x125b9d985b1a59081a5b9c1d5d)\n      0x44\n      dup3\n      add\n      mstore\n      0x64\n      swap1\n      revert\n        /* \"simpleswap.sol\":455:499  uint256 private constant FEE_NUMERATOR = 997 */\n    tag_185:\n        /* \"simpleswap.sol\":496:499  997 */\n      tag_227\n      0x03e5\n      tag_52\n      jump\t// in\n        /* \"simpleswap.sol\":506:553  uint256 private constant FEE_DENOMINATOR = 1000 */\n    tag_188:\n        /* \"simpleswap.sol\":549:553  1000 */\n      tag_227\n      0x03e8\n      tag_52\n      jump\t// in\n        /* \"simpleswap.sol\":2736:3099  function _getAmountOut(uint256 amountIn, uint256 reserveIn, uint256 reserveOut) internal pure returns (uint256) {... */\n    tag_189:\n        /* \"simpleswap.sol\":3011:3091  (amountInWithFee * reserveOut) / (reserveIn * FEE_DENOMINATOR + amountInWithFee) */\n      tag_227\n        /* \"simpleswap.sol\":2736:3099  function _getAmountOut(uint256 amountIn, uint256 reserveIn, uint256 reserveOut) internal pure returns (uint256) {... */\n      swap3\n        /* \"simpleswap.sol\":3045:3072  reserveIn * FEE_DENOMINATOR */\n      tag_658\n        /* \"simpleswap.sol\":3012:3040  amountInWithFee * reserveOut */\n      tag_803\n        /* \"simpleswap.sol\":2969:2993  amountIn * FEE_NUMERATOR */\n      tag_804\n        /* \"simpleswap.sol\":3045:3090  reserveIn * FEE_DENOMINATOR + amountInWithFee */\n      tag_805\n        /* \"simpleswap.sol\":2736:3099  function _getAmountOut(uint256 amountIn, uint256 reserveIn, uint256 reserveOut) internal pure returns (uint256) {... */\n      swap5\n        /* \"simpleswap.sol\":2839:2846  uint256 */\n      tag_806\n        /* \"simpleswap.sol\":374:8963  contract SimpleSwap is ReentrancyGuard {... */\n      0x00\n      swap1\n      jump\n        /* \"simpleswap.sol\":2839:2846  uint256 */\n    tag_806:\n        /* \"simpleswap.sol\":2867:2875  amountIn */\n      pop\n      dup1\n        /* \"simpleswap.sol\":2867:2879  amountIn > 0 */\n      tag_807\n      tag_420\n        /* \"simpleswap.sol\":2878:2879  0 */\n      0x00\n        /* \"simpleswap.sol\":2867:2879  amountIn > 0 */\n      tag_52\n      jump\t// in\n    tag_807:\n      gt\n        /* \"simpleswap.sol\":2867:2896  amountIn > 0 && reserveIn > 0 */\n      dup1\n      tag_809\n      jumpi\n        /* \"simpleswap.sol\":2736:3099  function _getAmountOut(uint256 amountIn, uint256 reserveIn, uint256 reserveOut) internal pure returns (uint256) {... */\n    tag_810:\n        /* \"simpleswap.sol\":2867:2914  amountIn > 0 && reserveIn > 0 && reserveOut > 0 */\n      dup1\n      tag_811\n      jumpi\n        /* \"simpleswap.sol\":2736:3099  function _getAmountOut(uint256 amountIn, uint256 reserveIn, uint256 reserveOut) internal pure returns (uint256) {... */\n    tag_812:\n        /* \"simpleswap.sol\":2859:2932  require(amountIn > 0 && reserveIn > 0 && reserveOut > 0, \"Invalid input\") */\n      tag_813\n      swap1\n      tag_182\n      jump\t// in\n    tag_813:\n        /* \"simpleswap.sol\":2980:2993  FEE_NUMERATOR */\n      tag_696\n      tag_185\n      jump\t// in\n        /* \"simpleswap.sol\":2969:2993  amountIn * FEE_NUMERATOR */\n    tag_804:\n        /* \"simpleswap.sol\":3012:3027  amountInWithFee */\n      swap3\n      dup4\n        /* \"simpleswap.sol\":3012:3040  amountInWithFee * reserveOut */\n      tag_118\n      jump\t// in\n    tag_803:\n        /* \"simpleswap.sol\":3045:3054  reserveIn */\n      swap4\n        /* \"simpleswap.sol\":3057:3072  FEE_DENOMINATOR */\n      tag_696\n      tag_188\n      jump\t// in\n        /* \"simpleswap.sol\":3045:3090  reserveIn * FEE_DENOMINATOR + amountInWithFee */\n    tag_805:\n        /* \"simpleswap.sol\":3011:3091  (amountInWithFee * reserveOut) / (reserveIn * FEE_DENOMINATOR + amountInWithFee) */\n      swap1\n      tag_120\n      jump\t// in\n        /* \"simpleswap.sol\":2867:2914  amountIn > 0 && reserveIn > 0 && reserveOut > 0 */\n    tag_811:\n        /* \"simpleswap.sol\":2900:2910  reserveOut */\n      pop\n        /* \"simpleswap.sol\":2859:2932  require(amountIn > 0 && reserveIn > 0 && reserveOut > 0, \"Invalid input\") */\n      tag_813\n        /* \"simpleswap.sol\":2900:2910  reserveOut */\n      dup6\n        /* \"simpleswap.sol\":2900:2914  reserveOut > 0 */\n      tag_816\n      tag_420\n        /* \"simpleswap.sol\":2913:2914  0 */\n      0x00\n        /* \"simpleswap.sol\":2900:2914  reserveOut > 0 */\n      tag_52\n      jump\t// in\n    tag_816:\n      gt\n        /* \"simpleswap.sol\":2867:2914  amountIn > 0 && reserveIn > 0 && reserveOut > 0 */\n      swap1\n      pop\n      jump(tag_812)\n        /* \"simpleswap.sol\":2867:2896  amountIn > 0 && reserveIn > 0 */\n    tag_809:\n        /* \"simpleswap.sol\":2883:2892  reserveIn */\n      pop\n      dup7\n        /* \"simpleswap.sol\":2883:2896  reserveIn > 0 */\n      tag_818\n      tag_420\n        /* \"simpleswap.sol\":2895:2896  0 */\n      0x00\n        /* \"simpleswap.sol\":2883:2896  reserveIn > 0 */\n      tag_52\n      jump\t// in\n    tag_818:\n      gt\n        /* \"simpleswap.sol\":2867:2896  amountIn > 0 && reserveIn > 0 */\n      jump(tag_810)\n        /* \"simpleswap.sol\":374:8963  contract SimpleSwap is ReentrancyGuard {... */\n    tag_190:\n      sub(shl(0xa0, 0x01), 0x01)\n      swap1\n      swap2\n      and\n      dup2\n      mstore\n      0x40\n      dup2\n      add\n      swap3\n      swap2\n      tag_220\n      swap2\n      0x20\n      add\n      mstore\n      jump\n        /* \"@openzeppelin/contracts/token/ERC20/utils/SafeERC20.sol\":1219:1379  function safeTransfer(IERC20 token, address to, uint256 value) internal {... */\n    tag_191:\n        /* \"@openzeppelin/contracts/token/ERC20/utils/SafeERC20.sol\":1328:1371  abi.encodeCall(token.transfer, (to, value)) */\n      tag_220\n      swap3\n      0x04\n      swap3\n      tag_783\n      swap2\n      tag_781\n      swap1\n      tag_825\n        /* \"@openzeppelin/contracts/token/ERC20/utils/SafeERC20.sol\":1343:1357  token.transfer */\n      0xa9059cbb\n        /* \"@openzeppelin/contracts/token/ERC20/utils/SafeERC20.sol\":1328:1371  abi.encodeCall(token.transfer, (to, value)) */\n      tag_175\n      jump\t// in\n    tag_825:\n      swap3\n      tag_826\n        /* \"simpleswap.sol\":374:8963  contract SimpleSwap is ReentrancyGuard {... */\n      mload(0x40)\n      swap1\n      jump\n        /* \"@openzeppelin/contracts/token/ERC20/utils/SafeERC20.sol\":1328:1371  abi.encodeCall(token.transfer, (to, value)) */\n    tag_826:\n      swap7\n      dup8\n      swap5\n      0x20\n      dup7\n      add\n      swap1\n      dup2\n      mstore\n      add\n      tag_190\n      jump\t// in\n        /* \"simpleswap.sol\":3519:3626  function _min(uint256 a, uint256 b) internal pure returns (uint256) {... */\n    tag_192:\n      swap1\n        /* \"simpleswap.sol\":3609:3610  b */\n      dup1\n        /* \"simpleswap.sol\":3605:3606  a */\n      dup3\n        /* \"simpleswap.sol\":3605:3610  a < b */\n      lt\n        /* \"simpleswap.sol\":3605:3618  a < b ? a : b */\n      iszero\n      tag_830\n      jumpi\n        /* \"simpleswap.sol\":3613:3614  a */\n      pop\n        /* \"simpleswap.sol\":3598:3618  return a < b ? a : b */\n      swap1\n      jump\t// out\n        /* \"simpleswap.sol\":3605:3618  a < b ? a : b */\n    tag_830:\n        /* \"simpleswap.sol\":3617:3618  b */\n      swap1\n      pop\n        /* \"simpleswap.sol\":3598:3618  return a < b ? a : b */\n      swap1\n      jump\t// out\n        /* \"simpleswap.sol\":374:8963  contract SimpleSwap is ReentrancyGuard {... */\n    tag_196:\n      tag_836\n      tag_227\n      tag_227\n      swap3\n      swap1\n      jump\n    tag_836:\n      0xff\n      and\n      swap1\n      jump\n    tag_198:\n      tag_227\n      swap1\n      tag_840\n      tag_420\n      tag_227\n      swap5\n      0xff\n      and\n      swap1\n      jump\n    tag_840:\n      swap1\n      shr\n      swap1\n      jump\n        /* \"simpleswap.sol\":3634:3951  function _sqrt(uint256 y) internal pure returns (uint256 z) {... */\n    tag_199:\n        /* \"simpleswap.sol\":374:8963  contract SimpleSwap is ReentrancyGuard {... */\n      0x00\n        /* \"simpleswap.sol\":3709:3710  y */\n      dup2\n        /* \"simpleswap.sol\":3709:3714  y > 3 */\n      tag_844\n      tag_420\n        /* \"simpleswap.sol\":3713:3714  3 */\n      0x03\n        /* \"simpleswap.sol\":3709:3714  y > 3 */\n      tag_52\n      jump\t// in\n    tag_844:\n      gt\n        /* \"simpleswap.sol\":3705:3944  if (y > 3) {... */\n      iszero\n      tag_846\n      jumpi\n        /* \"simpleswap.sol\":3735:3736  y */\n      pop\n      dup1\n        /* \"simpleswap.sol\":3763:3775  (y >> 1) + 1 */\n      tag_848\n        /* \"simpleswap.sol\":3764:3770  y >> 1 */\n      tag_849\n        /* \"simpleswap.sol\":3764:3765  y */\n      dup4\n        /* \"simpleswap.sol\":3764:3770  y >> 1 */\n      tag_850\n        /* \"simpleswap.sol\":3769:3770  1 */\n      0x01\n        /* \"simpleswap.sol\":3764:3770  y >> 1 */\n      tag_196\n      jump\t// in\n    tag_850:\n      swap1\n      tag_198\n      jump\t// in\n    tag_849:\n        /* \"simpleswap.sol\":3763:3775  (y >> 1) + 1 */\n      tag_851\n        /* \"simpleswap.sol\":3774:3775  1 */\n      0x01\n        /* \"simpleswap.sol\":3763:3775  (y >> 1) + 1 */\n      tag_52\n      jump\t// in\n    tag_851:\n      swap1\n      tag_86\n      jump\t// in\n    tag_848:\n        /* \"simpleswap.sol\":3790:3883  while (x < z) {... */\n      swap1\n    tag_852:\n        /* \"simpleswap.sol\":3801:3802  z */\n      dup1\n        /* \"simpleswap.sol\":3797:3798  x */\n      dup3\n        /* \"simpleswap.sol\":3797:3802  x < z */\n      lt\n      iszero\n      tag_855\n      jumpi\n      pop\n        /* \"simpleswap.sol\":3851:3867  (y / x + x) >> 1 */\n      tag_857\n        /* \"simpleswap.sol\":3852:3861  y / x + x */\n      tag_858\n        /* \"simpleswap.sol\":3827:3828  x */\n      dup3\n        /* \"simpleswap.sol\":3852:3857  y / x */\n      tag_658\n        /* \"simpleswap.sol\":3827:3828  x */\n      dup2\n        /* \"simpleswap.sol\":3852:3853  y */\n      dup7\n        /* \"simpleswap.sol\":3852:3857  y / x */\n      tag_120\n      jump\t// in\n        /* \"simpleswap.sol\":3852:3861  y / x + x */\n    tag_858:\n        /* \"simpleswap.sol\":3851:3867  (y / x + x) >> 1 */\n      tag_850\n        /* \"simpleswap.sol\":3866:3867  1 */\n      0x01\n        /* \"simpleswap.sol\":3851:3867  (y / x + x) >> 1 */\n      tag_196\n      jump\t// in\n    tag_857:\n        /* \"simpleswap.sol\":3790:3883  while (x < z) {... */\n      swap1\n      jump(tag_852)\n        /* \"simpleswap.sol\":3797:3802  x < z */\n    tag_855:\n      swap3\n      swap2\n      pop\n      pop\n        /* \"simpleswap.sol\":3634:3951  function _sqrt(uint256 y) internal pure returns (uint256 z) {... */\n      jump\t// out\n        /* \"simpleswap.sol\":3705:3944  if (y > 3) {... */\n    tag_846:\n        /* \"simpleswap.sol\":3904:3905  y */\n      swap2\n      swap1\n        /* \"simpleswap.sol\":3904:3910  y != 0 */\n      tag_862\n      tag_420\n        /* \"simpleswap.sol\":3909:3910  0 */\n      0x00\n        /* \"simpleswap.sol\":3904:3910  y != 0 */\n      tag_52\n      jump\t// in\n    tag_862:\n      sub\n        /* \"simpleswap.sol\":3900:3944  if (y != 0) {... */\n      tag_864\n      jumpi\n        /* \"simpleswap.sol\":3634:3951  function _sqrt(uint256 y) internal pure returns (uint256 z) {... */\n      jump\t// out\n        /* \"simpleswap.sol\":3900:3944  if (y != 0) {... */\n    tag_864:\n        /* \"simpleswap.sol\":3931:3932  1 */\n      swap1\n      pop\n        /* \"simpleswap.sol\":3927:3932  z = 1 */\n      tag_227\n        /* \"simpleswap.sol\":3931:3932  1 */\n      0x01\n        /* \"simpleswap.sol\":3927:3932  z = 1 */\n      tag_52\n      jump\t// in\n        /* \"@openzeppelin/contracts/token/ERC20/utils/SafeERC20.sol\":8370:9090  function _callOptionalReturn(IERC20 token, bytes memory data) private {... */\n    tag_201:\n      swap1\n        /* \"@openzeppelin/contracts/token/ERC20/utils/SafeERC20.sol\":8507:8928  assembly (\"memory-safe\") {... */\n      0x00\n      0x20\n        /* \"@openzeppelin/contracts/token/ERC20/utils/SafeERC20.sol\":8370:9090  function _callOptionalReturn(IERC20 token, bytes memory data) private {... */\n      swap2\n        /* \"@openzeppelin/contracts/token/ERC20/utils/SafeERC20.sol\":8450:8468  uint256 returnSize */\n      tag_868\n        /* \"simpleswap.sol\":374:8963  contract SimpleSwap is ReentrancyGuard {... */\n      0x00\n      swap1\n      jump\n        /* \"@openzeppelin/contracts/token/ERC20/utils/SafeERC20.sol\":8450:8468  uint256 returnSize */\n    tag_868:\n      pop\n        /* \"@openzeppelin/contracts/token/ERC20/utils/SafeERC20.sol\":8507:8928  assembly (\"memory-safe\") {... */\n      dup3\n      dup2\n      mload\n      swap2\n      add\n      dup3\n      dup6\n      gas\n      call\n      iszero\n      tag_870\n      jumpi\n      returndatasize\n      mload(0x00)\n        /* \"@openzeppelin/contracts/token/ERC20/utils/SafeERC20.sol\":8942:8952  returnSize */\n      swap1\n        /* \"@openzeppelin/contracts/token/ERC20/utils/SafeERC20.sol\":8942:8957  returnSize == 0 */\n      tag_872\n      tag_420\n        /* \"@openzeppelin/contracts/token/ERC20/utils/SafeERC20.sol\":8956:8957  0 */\n      0x00\n        /* \"@openzeppelin/contracts/token/ERC20/utils/SafeERC20.sol\":8942:8957  returnSize == 0 */\n      tag_52\n      jump\t// in\n    tag_872:\n      sub\n        /* \"@openzeppelin/contracts/token/ERC20/utils/SafeERC20.sol\":8942:9010  returnSize == 0 ? address(token).code.length == 0 : returnValue != 1 */\n      tag_874\n      jumpi\n        /* \"@openzeppelin/contracts/token/ERC20/utils/SafeERC20.sol\":8968:8973  token */\n      pop\n        /* \"@openzeppelin/contracts/token/ERC20/utils/SafeERC20.sol\":8960:8974  address(token) */\n      tag_876\n        /* \"@openzeppelin/contracts/token/ERC20/utils/SafeERC20.sol\":8968:8973  token */\n      dup2\n        /* \"@openzeppelin/contracts/token/ERC20/utils/SafeERC20.sol\":8960:8974  address(token) */\n      tag_70\n      jump\t// in\n    tag_876:\n        /* \"@openzeppelin/contracts/token/ERC20/utils/SafeERC20.sol\":8960:8986  address(token).code.length */\n      extcodesize\n        /* \"@openzeppelin/contracts/token/ERC20/utils/SafeERC20.sol\":8960:8991  address(token).code.length == 0 */\n      tag_877\n      tag_420\n        /* \"@openzeppelin/contracts/token/ERC20/utils/SafeERC20.sol\":8990:8991  0 */\n      0x00\n        /* \"@openzeppelin/contracts/token/ERC20/utils/SafeERC20.sol\":8960:8991  address(token).code.length == 0 */\n      tag_52\n      jump\t// in\n    tag_877:\n      eq\n        /* \"@openzeppelin/contracts/token/ERC20/utils/SafeERC20.sol\":8942:9010  returnSize == 0 ? address(token).code.length == 0 : returnValue != 1 */\n    tag_879:\n        /* \"@openzeppelin/contracts/token/ERC20/utils/SafeERC20.sol\":8938:9084  if (returnSize == 0 ? address(token).code.length == 0 : returnValue != 1) {... */\n      tag_880\n      jumpi\n        /* \"@openzeppelin/contracts/token/ERC20/utils/SafeERC20.sol\":8370:9090  function _callOptionalReturn(IERC20 token, bytes memory data) private {... */\n      pop\n      jump\t// out\n        /* \"@openzeppelin/contracts/token/ERC20/utils/SafeERC20.sol\":8938:9084  if (returnSize == 0 ? address(token).code.length == 0 : returnValue != 1) {... */\n    tag_880:\n        /* \"@openzeppelin/contracts/token/ERC20/utils/SafeERC20.sol\":9058:9072  address(token) */\n      tag_882\n        /* \"@openzeppelin/contracts/token/ERC20/utils/SafeERC20.sol\":9033:9073  SafeERC20FailedOperation(address(token)) */\n      tag_337\n        /* \"@openzeppelin/contracts/token/ERC20/utils/SafeERC20.sol\":9066:9071  token */\n      swap2\n        /* \"@openzeppelin/contracts/token/ERC20/utils/SafeERC20.sol\":9058:9072  address(token) */\n      tag_70\n      jump\t// in\n    tag_882:\n      shl(0xe0, 0x5274afe7)\n        /* \"@openzeppelin/contracts/token/ERC20/utils/SafeERC20.sol\":9033:9073  SafeERC20FailedOperation(address(token)) */\n      0x00\n      swap1\n      dup2\n      mstore\n      sub(shl(0xa0, 0x01), 0x01)\n        /* \"simpleswap.sol\":374:8963  contract SimpleSwap is ReentrancyGuard {... */\n      swap1\n      swap2\n      and\n        /* \"@openzeppelin/contracts/token/ERC20/utils/SafeERC20.sol\":9033:9073  SafeERC20FailedOperation(address(token)) */\n      0x04\n        /* \"simpleswap.sol\":374:8963  contract SimpleSwap is ReentrancyGuard {... */\n      mstore\n        /* \"@openzeppelin/contracts/token/ERC20/utils/SafeERC20.sol\":9033:9073  SafeERC20FailedOperation(address(token)) */\n      swap1\n      dup2\n      swap1\n        /* \"simpleswap.sol\":374:8963  contract SimpleSwap is ReentrancyGuard {... */\n      0x24\n      swap1\n      jump\n        /* \"@openzeppelin/contracts/token/ERC20/utils/SafeERC20.sol\":8942:9010  returnSize == 0 ? address(token).code.length == 0 : returnValue != 1 */\n    tag_874:\n        /* \"@openzeppelin/contracts/token/ERC20/utils/SafeERC20.sol\":8994:9010  returnValue != 1 */\n      tag_884\n      tag_420\n        /* \"@openzeppelin/contracts/token/ERC20/utils/SafeERC20.sol\":9009:9010  1 */\n      0x01\n        /* \"@openzeppelin/contracts/token/ERC20/utils/SafeERC20.sol\":8994:9010  returnValue != 1 */\n      tag_52\n      jump\t// in\n    tag_884:\n      eq\n      iszero\n        /* \"@openzeppelin/contracts/token/ERC20/utils/SafeERC20.sol\":8942:9010  returnSize == 0 ? address(token).code.length == 0 : returnValue != 1 */\n      jump(tag_879)\n        /* \"@openzeppelin/contracts/token/ERC20/utils/SafeERC20.sol\":8507:8928  assembly (\"memory-safe\") {... */\n    tag_870:\n      mload(0x40)\n      returndatasize\n      0x00\n      dup3\n      returndatacopy\n      returndatasize\n      swap1\n      revert\n\n    auxdata: 0xa2646970667358221220b334ba784c7fdb84d7122696be589bedb1036a16872f71e4834b3e2539d182e064736f6c634300081e0033\n}\n",
				"bytecode": {
					"linkReferences": {},
					"object": "608060405234601f57600e6023565b60405161162b61005e823961162b90f35b5f80fd5b60296050565b565b6035603560359290565b90565b60356001602b565b9060356035604c92602b565b9055565b602960586038565b5f604056fe60806040526004361015610011575f80fd5b5f3560e01c806338ed1739146100705780635e1e63251461006b57806375bb9b6314610066578063baa2abde14610061578063d52bb6f41461005c5763e8e337000361007e576103f8565b61034b565b6102f3565b61025a565b610215565b6101b3565b805b0361007e57565b5f80fd5b9050359061008f82610075565b565b909182601f8301121561007e5781359167ffffffffffffffff831161007e57602001926020830284011161007e57565b6001600160a01b031690565b90565b6001600160a01b038116610077565b9050359061008f826100d0565b9060a08282031261007e576101018183610082565b9261010f8260208501610082565b9260408101359167ffffffffffffffff831161007e57610134846100cd948401610091565b93909461014481606086016100df565b93608001610082565b9061016d61016661015c845190565b8084529260200190565b9260200190565b905f5b81811061017d5750505090565b90919261019a6101936001928651815260200190565b9460200190565b929101610170565b60208082526100cd9291019061014d565b3461007e576101e16101d56101c93660046100ec565b9493909392919261091a565b604051918291826101a2565b0390f35b909160608284031261007e576100cd6101fe8484610082565b9361020c81602086016100df565b936040016100df565b3461007e576101e161023161022b3660046101e5565b9161092a565b6040519182918290815260200190565b909160608284031261007e576100cd6101fe84846100df565b3461007e576101e1610231610270366004610241565b916109a2565b60e08183031261007e5761028a82826100df565b9261029883602084016100df565b926102a68160408501610082565b926102b48260608301610082565b926100cd6102c58460808501610082565b936102d38160a086016100df565b9360c001610082565b90815260408101929161008f9160200152565b0152565b3461007e57610312610306366004610276565b95949094939193610ce6565b906101e161031f60405190565b928392836102dc565b919060408382031261007e576100cd9061034281856100df565b936020016100df565b3461007e5761031261035e366004610328565b90610d3d565b91906101008382031261007e5761037b81846100df565b9261038982602083016100df565b926103978360408401610082565b926103a58160608501610082565b926103b38260808301610082565b926100cd6103c48460a08501610082565b936103d28160c086016100df565b9360e001610082565b90815260608101939261008f9290916040916102ef906020830152565b3461007e576101e161041d61040e366004610364565b96959095949194939293611105565b6040519193915b938493846103db565b9061044496959493929161043f611173565b6106d6565b9061008f6111af565b1561045457565b60405162461bcd60e51b8152602060048201526007602482015266115e1c1a5c995960ca1b604482015280606481015b0390fd5b6100cd6100cd6100cd9290565b1561049c57565b60405162461bcd60e51b815260206004820152600e60248201526d2830ba341036bab9ba103132901960911b6044820152606490fd5b156104d957565b60405162461bcd60e51b815260206004820152600a60248201526916995c9bc81a5b9c1d5d60b21b6044820152606490fd5b634e487b7160e01b5f52603260045260245ffd5b919081101561052f576020020190565b61050b565b356100cd816100d0565b6100cd906100c1906001600160a01b031682565b6100cd9061053e565b6100cd90610552565b9061056e9061055b565b5f5260205260405f2090565b6100cd9081565b6100cd905461057a565b1561059257565b60405162461bcd60e51b8152602060048201526013602482015272125b9cdd59999a58da595b9d081bdd5d1c1d5d606a1b6044820152606490fd5b634e487b7160e01b5f52601160045260245ffd5b919082018092116105ee57565b6105cd565b906100cd6100cd61060392610488565b9055565b919082039182116105ee57565b634e487b7160e01b5f52604160045260245ffd5b90601f01601f1916810190811067ffffffffffffffff82111761064a57604052565b610614565b9061008f61065c60405190565b9283610628565b67ffffffffffffffff811161064a5760208091020190565b9061068d61068883610663565b61064f565b918252565b369037565b9061008f6106a48361067b565b926020806106b28693610663565b9201910390610692565b906106c5825190565b81101561052f576020809102010190565b610756919461070161084e949795999861074593506106fa6106f6429290565b9190565b111561044d565b610718816107126106f66002610488565b14610495565b61072e866107286106f65f610488565b116104d2565b61074a6107458a8361073f5f610488565b9161051f565b610534565b989061073f6001610488565b916100cd61077a610767858a61124a565b909290610775846001610564565b610564565b886107966001600160a01b0384165b916001600160a01b031690565b036108ff576107a481610581565b6107b060018301610581565b905b90926107d26107c08c61055b565b336107ca3061055b565b908b9261130f565b6107f36107e085848b6113af565b996107ec6106f68c9290565b101561058b565b6108076107898c926001600160a01b031690565b036108d8575f61083561083d9461082e6108246001958c906105e1565b84808801016105f3565b8a90610607565b9201016105f3565b6108468361055b565b908591611453565b61086061085b6002610488565b610697565b9461087b83610878886108725f610488565b906106bc565b52565b61088d84610878886108726001610488565b3392936108c66108c06108c07fad56699d0f375866eb895ed27203058a36a713382aaded78eb6b67da266d43329461055b565b9461055b565b946108d361031f60405190565b0390a4565b5f6108356108fa9461082e6108ef84958c906105e1565b6001858801016105f3565b61083d565b61090b60018201610581565b61091482610581565b906107b2565b6100cd959493929190606061042d565b6100cd61096761078961095961094b6100cd976109445f90565b508761124a565b909490610775866001610564565b94926001600160a01b031690565b0361098b5761098360015f61097b85610581565b940101610581565b915b906113af565b61099c5f8061097b60018601610581565b91610985565b9160036109cc6107756109c36109d2956100cd976109bd5f90565b5061124a565b91906001610564565b01610564565b610581565b906109f098979695949392916109eb611173565b610b13565b909161008f6111af565b15610a0157565b60405162461bcd60e51b815260206004820152600e60248201526d5a65726f206c697175696469747960901b6044820152606490fd5b15610a3e57565b60405162461bcd60e51b815260206004820152600f60248201526e0496e73756666696369656e74204c5608c1b6044820152606490fd5b818102929181159184041417156105ee57565b634e487b7160e01b5f52601260045260245ffd5b8115610aa6570490565b610a88565b15610ab257565b60405162461bcd60e51b81526020600482015260056024820152644d696e204160d81b6044820152606490fd5b15610ae657565b60405162461bcd60e51b815260206004820152600560248201526426b4b7102160d91b6044820152606490fd5b989692939598979194975050421115610b2b9061044d565b83610b355f610488565b10610b3f906109fa565b610b49828461124a565b93909290610b58846001610564565b85610b6291610564565b610b6f3360038301610564565b610b7890610581565b871115610b8490610a37565b610b8d81610581565b610b9960018301610581565b90610ba660028401610581565b9b610bb1828b610a75565b8d610bbb91610a9c565b9c610bc6848c610a75565b90610bd091610a9c565b9b8d1015610bdd90610aab565b8b1015610be990610adf565b8b610bf391610607565b610bfd90836105f3565b89610c0791610607565b610c1490600183016105f3565b6002810187610c2282610581565b90610c2c91610607565b610c35916105f3565b869060030133610c4491610564565b90610c4e82610581565b90610c5891610607565b610c61916105f3565b610c6a9061055b565b828990610c7692611453565b610c7f9061055b565b610c8a918791611453565b9033918693867fd765e08eef31c0983ecca03ecd166297ac485ecd5dd69e291c848f0a020333c192610cbb9061055b565b93610cc59061055b565b94610ccf9061055b565b95610cd960405190565b9283926108d392846103db565b610cf7969594939291905f806109d7565b9091565b6100cd604061064f565b9061008f610d2d6001610d16610cfb565b94610d27610d2382610581565b8752565b01610581565b6020840152565b6100cd90610d05565b90610d7f610789610d715f610d5d610d6b95610d565f90565b505f610944565b909590610775876001610564565b01610d34565b93926001600160a01b031690565b03610d9757610cf76020610d91835190565b92015190565b610cf75f610d91602084015190565b90610dc19a999897969594939291610dbc611173565b610e7b565b90919261008f6111af565b15610dd357565b60405162461bcd60e51b815260206004820152600a602482015269536c697070616765204160b01b6044820152606490fd5b15610e0c57565b60405162461bcd60e51b815260206004820152600a60248201526929b634b83830b3b2902160b11b6044820152606490fd5b15610e4557565b60405162461bcd60e51b815260206004820152600e60248201526d4c6971756964697479207a65726f60901b6044820152606490fd5b90610e99939a92919b989b99969497995050506106fa6106f6429290565b610ea3848861124a565b94909290610ebf6100cd610eb8866001610564565b8890610564565b91610ec983610581565b98610ed660018501610581565b9b8c8b610ee56106f65f610488565b14806110f1575b1561106f57505050929889939a610f95610f8f8d610f8a9c610fdb98610f46610f34610fa599610f1d610f22610f9c9b5b61055b565b33610f2c3061055b565b90899261130f565b33610f3e3061055b565b90849261130f565b610f5260028a01610581565b610f5e6106f65f610488565b0361102457610f70610f759184610a75565b6114c7565b9d8e5b610f846106f65f610488565b11610e3e565b6105e1565b856105f3565b8a906105e1565b600183016105f3565b610fbf60028201610fb989610f8a83610581565b906105f3565b610fb9610fd160038993018690610564565b91610f8a83610581565b9186928686946108d361101a6110146110147f43c967b388d3a4ccad3f7ab80167852e322e5a3fde9893f530252281b2ae8b709661055b565b9661055b565b9661042460405190565b6110689061106261105b8b611046600261105361104c8a611046848701610581565b90610a75565b8990610a9c565b959201610581565b8890610a9c565b90611489565b9d8e610f78565b611080611087918598939498610a75565b8c90610a9c565b958187116110ca57505084101561109d90610e05565b929889939a610f95610f8f8d610f8a9c610fdb98610f46610f34610fa599610f1d610f22610f9c9b61055b565b925094505083896110da91610a75565b8b6110e491610a9c565b9081101561109d90610dcc565b50806110ff6106f65f610488565b14610eec565b61111897969594939291905f8080610da6565b909192565b6100cd6002610488565b1561112e57565b60405162461bcd60e51b815260206004820152601f60248201527f5265656e7472616e637947756172643a207265656e7472616e742063616c6c006044820152606490fd5b61119461117f5f610581565b61118d6106f66100cd61111d565b1415611127565b61008f61119f61111d565b5f6105f3565b6100cd6001610488565b61008f61119f6111a5565b156111c157565b60405162461bcd60e51b815260206004820152601060248201526f4964656e746963616c20746f6b656e7360801b6044820152606490fd5b6100c16100cd6100cd9290565b6100cd906111f9565b1561121657565b60405162461bcd60e51b815260206004820152600c60248201526b5a65726f206164647265737360a01b6044820152606490fd5b90919061126a816112636001600160a01b038616610789565b14156111ba565b8061127a6107896100c15f611206565b1415806112a8575b61128b9061120f565b8061129e6001600160a01b038516610789565b10156100cd579190565b5061128b836112bc6107896100c15f611206565b14159050611282565b6112de6112d86100cd9263ffffffff1690565b60e01b90565b6001600160e01b03191690565b6001600160a01b0391821681529116602082015260608101929161008f9160400152565b61008f9360049391926113589290916113499161132f6323b872dd6112c5565b9361133960405190565b97889560208701908152016112eb565b60208201810382520383610628565b611558565b1561136457565b60405162461bcd60e51b815260206004820152600d60248201526c125b9d985b1a59081a5b9c1d5d609a1b6044820152606490fd5b6100cd6103e5610488565b6100cd6103e8610488565b6100cd92610f8a6113fa6113f3611403946113c75f90565b50806113d56106f65f610488565b1180611422575b80611409575b6113eb9061135d565b611046611399565b9283610a75565b936110466113a4565b90610a9c565b506113eb8561141a6106f65f610488565b1190506113e2565b50866114306106f65f610488565b116113dc565b6001600160a01b03909116815260408101929161008f9160200152565b61008f92600492611358916113499061146f63a9059cbb6112c5565b9261147960405190565b9687946020860190815201611436565b9080821015611496575090565b905090565b6114a86100cd6100cd9290565b60ff1690565b6100cd906114c26106f66100cd9460ff1690565b901c90565b5f816114d66106f66003610488565b11156115375750806115056114f5836114ef600161149b565b906114ae565b6114ff6001610488565b906105e1565b905b80821015611531575061152b61152182610f8a8186610a9c565b6114ef600161149b565b90611507565b92915050565b91906115456106f65f610488565b0361154c57565b90506100cd6001610488565b905f6020916115645f90565b50828151910182855af1156115ea573d5f51906115836106f65f610488565b036115d657506115928161055b565b3b61159f6106f65f610488565b145b6115a85750565b6115b46104849161055b565b635274afe760e01b5f9081526001600160a01b03909116600452908190602490565b6115e36106f66001610488565b14156115a1565b6040513d5f823e3d90fdfea2646970667358221220b334ba784c7fdb84d7122696be589bedb1036a16872f71e4834b3e2539d182e064736f6c634300081e0033",
					"opcodes": "PUSH1 0x80 PUSH1 0x40 MSTORE CALLVALUE PUSH1 0x1F JUMPI PUSH1 0xE PUSH1 0x23 JUMP JUMPDEST PUSH1 0x40 MLOAD PUSH2 0x162B PUSH2 0x5E DUP3 CODECOPY PUSH2 0x162B SWAP1 RETURN JUMPDEST PUSH0 DUP1 REVERT JUMPDEST PUSH1 0x29 PUSH1 0x50 JUMP JUMPDEST JUMP JUMPDEST PUSH1 0x35 PUSH1 0x35 PUSH1 0x35 SWAP3 SWAP1 JUMP JUMPDEST SWAP1 JUMP JUMPDEST PUSH1 0x35 PUSH1 0x1 PUSH1 0x2B JUMP JUMPDEST SWAP1 PUSH1 0x35 PUSH1 0x35 PUSH1 0x4C SWAP3 PUSH1 0x2B JUMP JUMPDEST SWAP1 SSTORE JUMP JUMPDEST PUSH1 0x29 PUSH1 0x58 PUSH1 0x38 JUMP JUMPDEST PUSH0 PUSH1 0x40 JUMP INVALID PUSH1 0x80 PUSH1 0x40 MSTORE PUSH1 0x4 CALLDATASIZE LT ISZERO PUSH2 0x11 JUMPI PUSH0 DUP1 REVERT JUMPDEST PUSH0 CALLDATALOAD PUSH1 0xE0 SHR DUP1 PUSH4 0x38ED1739 EQ PUSH2 0x70 JUMPI DUP1 PUSH4 0x5E1E6325 EQ PUSH2 0x6B JUMPI DUP1 PUSH4 0x75BB9B63 EQ PUSH2 0x66 JUMPI DUP1 PUSH4 0xBAA2ABDE EQ PUSH2 0x61 JUMPI DUP1 PUSH4 0xD52BB6F4 EQ PUSH2 0x5C JUMPI PUSH4 0xE8E33700 SUB PUSH2 0x7E JUMPI PUSH2 0x3F8 JUMP JUMPDEST PUSH2 0x34B JUMP JUMPDEST PUSH2 0x2F3 JUMP JUMPDEST PUSH2 0x25A JUMP JUMPDEST PUSH2 0x215 JUMP JUMPDEST PUSH2 0x1B3 JUMP JUMPDEST DUP1 JUMPDEST SUB PUSH2 0x7E JUMPI JUMP JUMPDEST PUSH0 DUP1 REVERT JUMPDEST SWAP1 POP CALLDATALOAD SWAP1 PUSH2 0x8F DUP3 PUSH2 0x75 JUMP JUMPDEST JUMP JUMPDEST SWAP1 SWAP2 DUP3 PUSH1 0x1F DUP4 ADD SLT ISZERO PUSH2 0x7E JUMPI DUP2 CALLDATALOAD SWAP2 PUSH8 0xFFFFFFFFFFFFFFFF DUP4 GT PUSH2 0x7E JUMPI PUSH1 0x20 ADD SWAP3 PUSH1 0x20 DUP4 MUL DUP5 ADD GT PUSH2 0x7E JUMPI JUMP JUMPDEST PUSH1 0x1 PUSH1 0x1 PUSH1 0xA0 SHL SUB AND SWAP1 JUMP JUMPDEST SWAP1 JUMP JUMPDEST PUSH1 0x1 PUSH1 0x1 PUSH1 0xA0 SHL SUB DUP2 AND PUSH2 0x77 JUMP JUMPDEST SWAP1 POP CALLDATALOAD SWAP1 PUSH2 0x8F DUP3 PUSH2 0xD0 JUMP JUMPDEST SWAP1 PUSH1 0xA0 DUP3 DUP3 SUB SLT PUSH2 0x7E JUMPI PUSH2 0x101 DUP2 DUP4 PUSH2 0x82 JUMP JUMPDEST SWAP3 PUSH2 0x10F DUP3 PUSH1 0x20 DUP6 ADD PUSH2 0x82 JUMP JUMPDEST SWAP3 PUSH1 0x40 DUP2 ADD CALLDATALOAD SWAP2 PUSH8 0xFFFFFFFFFFFFFFFF DUP4 GT PUSH2 0x7E JUMPI PUSH2 0x134 DUP5 PUSH2 0xCD SWAP5 DUP5 ADD PUSH2 0x91 JUMP JUMPDEST SWAP4 SWAP1 SWAP5 PUSH2 0x144 DUP2 PUSH1 0x60 DUP7 ADD PUSH2 0xDF JUMP JUMPDEST SWAP4 PUSH1 0x80 ADD PUSH2 0x82 JUMP JUMPDEST SWAP1 PUSH2 0x16D PUSH2 0x166 PUSH2 0x15C DUP5 MLOAD SWAP1 JUMP JUMPDEST DUP1 DUP5 MSTORE SWAP3 PUSH1 0x20 ADD SWAP1 JUMP JUMPDEST SWAP3 PUSH1 0x20 ADD SWAP1 JUMP JUMPDEST SWAP1 PUSH0 JUMPDEST DUP2 DUP2 LT PUSH2 0x17D JUMPI POP POP POP SWAP1 JUMP JUMPDEST SWAP1 SWAP2 SWAP3 PUSH2 0x19A PUSH2 0x193 PUSH1 0x1 SWAP3 DUP7 MLOAD DUP2 MSTORE PUSH1 0x20 ADD SWAP1 JUMP JUMPDEST SWAP5 PUSH1 0x20 ADD SWAP1 JUMP JUMPDEST SWAP3 SWAP2 ADD PUSH2 0x170 JUMP JUMPDEST PUSH1 0x20 DUP1 DUP3 MSTORE PUSH2 0xCD SWAP3 SWAP2 ADD SWAP1 PUSH2 0x14D JUMP JUMPDEST CALLVALUE PUSH2 0x7E JUMPI PUSH2 0x1E1 PUSH2 0x1D5 PUSH2 0x1C9 CALLDATASIZE PUSH1 0x4 PUSH2 0xEC JUMP JUMPDEST SWAP5 SWAP4 SWAP1 SWAP4 SWAP3 SWAP2 SWAP3 PUSH2 0x91A JUMP JUMPDEST PUSH1 0x40 MLOAD SWAP2 DUP3 SWAP2 DUP3 PUSH2 0x1A2 JUMP JUMPDEST SUB SWAP1 RETURN JUMPDEST SWAP1 SWAP2 PUSH1 0x60 DUP3 DUP5 SUB SLT PUSH2 0x7E JUMPI PUSH2 0xCD PUSH2 0x1FE DUP5 DUP5 PUSH2 0x82 JUMP JUMPDEST SWAP4 PUSH2 0x20C DUP2 PUSH1 0x20 DUP7 ADD PUSH2 0xDF JUMP JUMPDEST SWAP4 PUSH1 0x40 ADD PUSH2 0xDF JUMP JUMPDEST CALLVALUE PUSH2 0x7E JUMPI PUSH2 0x1E1 PUSH2 0x231 PUSH2 0x22B CALLDATASIZE PUSH1 0x4 PUSH2 0x1E5 JUMP JUMPDEST SWAP2 PUSH2 0x92A JUMP JUMPDEST PUSH1 0x40 MLOAD SWAP2 DUP3 SWAP2 DUP3 SWAP1 DUP2 MSTORE PUSH1 0x20 ADD SWAP1 JUMP JUMPDEST SWAP1 SWAP2 PUSH1 0x60 DUP3 DUP5 SUB SLT PUSH2 0x7E JUMPI PUSH2 0xCD PUSH2 0x1FE DUP5 DUP5 PUSH2 0xDF JUMP JUMPDEST CALLVALUE PUSH2 0x7E JUMPI PUSH2 0x1E1 PUSH2 0x231 PUSH2 0x270 CALLDATASIZE PUSH1 0x4 PUSH2 0x241 JUMP JUMPDEST SWAP2 PUSH2 0x9A2 JUMP JUMPDEST PUSH1 0xE0 DUP2 DUP4 SUB SLT PUSH2 0x7E JUMPI PUSH2 0x28A DUP3 DUP3 PUSH2 0xDF JUMP JUMPDEST SWAP3 PUSH2 0x298 DUP4 PUSH1 0x20 DUP5 ADD PUSH2 0xDF JUMP JUMPDEST SWAP3 PUSH2 0x2A6 DUP2 PUSH1 0x40 DUP6 ADD PUSH2 0x82 JUMP JUMPDEST SWAP3 PUSH2 0x2B4 DUP3 PUSH1 0x60 DUP4 ADD PUSH2 0x82 JUMP JUMPDEST SWAP3 PUSH2 0xCD PUSH2 0x2C5 DUP5 PUSH1 0x80 DUP6 ADD PUSH2 0x82 JUMP JUMPDEST SWAP4 PUSH2 0x2D3 DUP2 PUSH1 0xA0 DUP7 ADD PUSH2 0xDF JUMP JUMPDEST SWAP4 PUSH1 0xC0 ADD PUSH2 0x82 JUMP JUMPDEST SWAP1 DUP2 MSTORE PUSH1 0x40 DUP2 ADD SWAP3 SWAP2 PUSH2 0x8F SWAP2 PUSH1 0x20 ADD MSTORE JUMP JUMPDEST ADD MSTORE JUMP JUMPDEST CALLVALUE PUSH2 0x7E JUMPI PUSH2 0x312 PUSH2 0x306 CALLDATASIZE PUSH1 0x4 PUSH2 0x276 JUMP JUMPDEST SWAP6 SWAP5 SWAP1 SWAP5 SWAP4 SWAP2 SWAP4 PUSH2 0xCE6 JUMP JUMPDEST SWAP1 PUSH2 0x1E1 PUSH2 0x31F PUSH1 0x40 MLOAD SWAP1 JUMP JUMPDEST SWAP3 DUP4 SWAP3 DUP4 PUSH2 0x2DC JUMP JUMPDEST SWAP2 SWAP1 PUSH1 0x40 DUP4 DUP3 SUB SLT PUSH2 0x7E JUMPI PUSH2 0xCD SWAP1 PUSH2 0x342 DUP2 DUP6 PUSH2 0xDF JUMP JUMPDEST SWAP4 PUSH1 0x20 ADD PUSH2 0xDF JUMP JUMPDEST CALLVALUE PUSH2 0x7E JUMPI PUSH2 0x312 PUSH2 0x35E CALLDATASIZE PUSH1 0x4 PUSH2 0x328 JUMP JUMPDEST SWAP1 PUSH2 0xD3D JUMP JUMPDEST SWAP2 SWAP1 PUSH2 0x100 DUP4 DUP3 SUB SLT PUSH2 0x7E JUMPI PUSH2 0x37B DUP2 DUP5 PUSH2 0xDF JUMP JUMPDEST SWAP3 PUSH2 0x389 DUP3 PUSH1 0x20 DUP4 ADD PUSH2 0xDF JUMP JUMPDEST SWAP3 PUSH2 0x397 DUP4 PUSH1 0x40 DUP5 ADD PUSH2 0x82 JUMP JUMPDEST SWAP3 PUSH2 0x3A5 DUP2 PUSH1 0x60 DUP6 ADD PUSH2 0x82 JUMP JUMPDEST SWAP3 PUSH2 0x3B3 DUP3 PUSH1 0x80 DUP4 ADD PUSH2 0x82 JUMP JUMPDEST SWAP3 PUSH2 0xCD PUSH2 0x3C4 DUP5 PUSH1 0xA0 DUP6 ADD PUSH2 0x82 JUMP JUMPDEST SWAP4 PUSH2 0x3D2 DUP2 PUSH1 0xC0 DUP7 ADD PUSH2 0xDF JUMP JUMPDEST SWAP4 PUSH1 0xE0 ADD PUSH2 0x82 JUMP JUMPDEST SWAP1 DUP2 MSTORE PUSH1 0x60 DUP2 ADD SWAP4 SWAP3 PUSH2 0x8F SWAP3 SWAP1 SWAP2 PUSH1 0x40 SWAP2 PUSH2 0x2EF SWAP1 PUSH1 0x20 DUP4 ADD MSTORE JUMP JUMPDEST CALLVALUE PUSH2 0x7E JUMPI PUSH2 0x1E1 PUSH2 0x41D PUSH2 0x40E CALLDATASIZE PUSH1 0x4 PUSH2 0x364 JUMP JUMPDEST SWAP7 SWAP6 SWAP1 SWAP6 SWAP5 SWAP2 SWAP5 SWAP4 SWAP3 SWAP4 PUSH2 0x1105 JUMP JUMPDEST PUSH1 0x40 MLOAD SWAP2 SWAP4 SWAP2 JUMPDEST SWAP4 DUP5 SWAP4 DUP5 PUSH2 0x3DB JUMP JUMPDEST SWAP1 PUSH2 0x444 SWAP7 SWAP6 SWAP5 SWAP4 SWAP3 SWAP2 PUSH2 0x43F PUSH2 0x1173 JUMP JUMPDEST PUSH2 0x6D6 JUMP JUMPDEST SWAP1 PUSH2 0x8F PUSH2 0x11AF JUMP JUMPDEST ISZERO PUSH2 0x454 JUMPI JUMP JUMPDEST PUSH1 0x40 MLOAD PUSH3 0x461BCD PUSH1 0xE5 SHL DUP2 MSTORE PUSH1 0x20 PUSH1 0x4 DUP3 ADD MSTORE PUSH1 0x7 PUSH1 0x24 DUP3 ADD MSTORE PUSH7 0x115E1C1A5C9959 PUSH1 0xCA SHL PUSH1 0x44 DUP3 ADD MSTORE DUP1 PUSH1 0x64 DUP2 ADD JUMPDEST SUB SWAP1 REVERT JUMPDEST PUSH2 0xCD PUSH2 0xCD PUSH2 0xCD SWAP3 SWAP1 JUMP JUMPDEST ISZERO PUSH2 0x49C JUMPI JUMP JUMPDEST PUSH1 0x40 MLOAD PUSH3 0x461BCD PUSH1 0xE5 SHL DUP2 MSTORE PUSH1 0x20 PUSH1 0x4 DUP3 ADD MSTORE PUSH1 0xE PUSH1 0x24 DUP3 ADD MSTORE PUSH14 0x2830BA341036BAB9BA1031329019 PUSH1 0x91 SHL PUSH1 0x44 DUP3 ADD MSTORE PUSH1 0x64 SWAP1 REVERT JUMPDEST ISZERO PUSH2 0x4D9 JUMPI JUMP JUMPDEST PUSH1 0x40 MLOAD PUSH3 0x461BCD PUSH1 0xE5 SHL DUP2 MSTORE PUSH1 0x20 PUSH1 0x4 DUP3 ADD MSTORE PUSH1 0xA PUSH1 0x24 DUP3 ADD MSTORE PUSH10 0x16995C9BC81A5B9C1D5D PUSH1 0xB2 SHL PUSH1 0x44 DUP3 ADD MSTORE PUSH1 0x64 SWAP1 REVERT JUMPDEST PUSH4 0x4E487B71 PUSH1 0xE0 SHL PUSH0 MSTORE PUSH1 0x32 PUSH1 0x4 MSTORE PUSH1 0x24 PUSH0 REVERT JUMPDEST SWAP2 SWAP1 DUP2 LT ISZERO PUSH2 0x52F JUMPI PUSH1 0x20 MUL ADD SWAP1 JUMP JUMPDEST PUSH2 0x50B JUMP JUMPDEST CALLDATALOAD PUSH2 0xCD DUP2 PUSH2 0xD0 JUMP JUMPDEST PUSH2 0xCD SWAP1 PUSH2 0xC1 SWAP1 PUSH1 0x1 PUSH1 0x1 PUSH1 0xA0 SHL SUB AND DUP3 JUMP JUMPDEST PUSH2 0xCD SWAP1 PUSH2 0x53E JUMP JUMPDEST PUSH2 0xCD SWAP1 PUSH2 0x552 JUMP JUMPDEST SWAP1 PUSH2 0x56E SWAP1 PUSH2 0x55B JUMP JUMPDEST PUSH0 MSTORE PUSH1 0x20 MSTORE PUSH1 0x40 PUSH0 KECCAK256 SWAP1 JUMP JUMPDEST PUSH2 0xCD SWAP1 DUP2 JUMP JUMPDEST PUSH2 0xCD SWAP1 SLOAD PUSH2 0x57A JUMP JUMPDEST ISZERO PUSH2 0x592 JUMPI JUMP JUMPDEST PUSH1 0x40 MLOAD PUSH3 0x461BCD PUSH1 0xE5 SHL DUP2 MSTORE PUSH1 0x20 PUSH1 0x4 DUP3 ADD MSTORE PUSH1 0x13 PUSH1 0x24 DUP3 ADD MSTORE PUSH19 0x125B9CDD59999A58DA595B9D081BDD5D1C1D5D PUSH1 0x6A SHL PUSH1 0x44 DUP3 ADD MSTORE PUSH1 0x64 SWAP1 REVERT JUMPDEST PUSH4 0x4E487B71 PUSH1 0xE0 SHL PUSH0 MSTORE PUSH1 0x11 PUSH1 0x4 MSTORE PUSH1 0x24 PUSH0 REVERT JUMPDEST SWAP2 SWAP1 DUP3 ADD DUP1 SWAP3 GT PUSH2 0x5EE JUMPI JUMP JUMPDEST PUSH2 0x5CD JUMP JUMPDEST SWAP1 PUSH2 0xCD PUSH2 0xCD PUSH2 0x603 SWAP3 PUSH2 0x488 JUMP JUMPDEST SWAP1 SSTORE JUMP JUMPDEST SWAP2 SWAP1 DUP3 SUB SWAP2 DUP3 GT PUSH2 0x5EE JUMPI JUMP JUMPDEST PUSH4 0x4E487B71 PUSH1 0xE0 SHL PUSH0 MSTORE PUSH1 0x41 PUSH1 0x4 MSTORE PUSH1 0x24 PUSH0 REVERT JUMPDEST SWAP1 PUSH1 0x1F ADD PUSH1 0x1F NOT AND DUP2 ADD SWAP1 DUP2 LT PUSH8 0xFFFFFFFFFFFFFFFF DUP3 GT OR PUSH2 0x64A JUMPI PUSH1 0x40 MSTORE JUMP JUMPDEST PUSH2 0x614 JUMP JUMPDEST SWAP1 PUSH2 0x8F PUSH2 0x65C PUSH1 0x40 MLOAD SWAP1 JUMP JUMPDEST SWAP3 DUP4 PUSH2 0x628 JUMP JUMPDEST PUSH8 0xFFFFFFFFFFFFFFFF DUP2 GT PUSH2 0x64A JUMPI PUSH1 0x20 DUP1 SWAP2 MUL ADD SWAP1 JUMP JUMPDEST SWAP1 PUSH2 0x68D PUSH2 0x688 DUP4 PUSH2 0x663 JUMP JUMPDEST PUSH2 0x64F JUMP JUMPDEST SWAP2 DUP3 MSTORE JUMP JUMPDEST CALLDATASIZE SWAP1 CALLDATACOPY JUMP JUMPDEST SWAP1 PUSH2 0x8F PUSH2 0x6A4 DUP4 PUSH2 0x67B JUMP JUMPDEST SWAP3 PUSH1 0x20 DUP1 PUSH2 0x6B2 DUP7 SWAP4 PUSH2 0x663 JUMP JUMPDEST SWAP3 ADD SWAP2 SUB SWAP1 PUSH2 0x692 JUMP JUMPDEST SWAP1 PUSH2 0x6C5 DUP3 MLOAD SWAP1 JUMP JUMPDEST DUP2 LT ISZERO PUSH2 0x52F JUMPI PUSH1 0x20 DUP1 SWAP2 MUL ADD ADD SWAP1 JUMP JUMPDEST PUSH2 0x756 SWAP2 SWAP5 PUSH2 0x701 PUSH2 0x84E SWAP5 SWAP8 SWAP6 SWAP10 SWAP9 PUSH2 0x745 SWAP4 POP PUSH2 0x6FA PUSH2 0x6F6 TIMESTAMP SWAP3 SWAP1 JUMP JUMPDEST SWAP2 SWAP1 JUMP JUMPDEST GT ISZERO PUSH2 0x44D JUMP JUMPDEST PUSH2 0x718 DUP2 PUSH2 0x712 PUSH2 0x6F6 PUSH1 0x2 PUSH2 0x488 JUMP JUMPDEST EQ PUSH2 0x495 JUMP JUMPDEST PUSH2 0x72E DUP7 PUSH2 0x728 PUSH2 0x6F6 PUSH0 PUSH2 0x488 JUMP JUMPDEST GT PUSH2 0x4D2 JUMP JUMPDEST PUSH2 0x74A PUSH2 0x745 DUP11 DUP4 PUSH2 0x73F PUSH0 PUSH2 0x488 JUMP JUMPDEST SWAP2 PUSH2 0x51F JUMP JUMPDEST PUSH2 0x534 JUMP JUMPDEST SWAP9 SWAP1 PUSH2 0x73F PUSH1 0x1 PUSH2 0x488 JUMP JUMPDEST SWAP2 PUSH2 0xCD PUSH2 0x77A PUSH2 0x767 DUP6 DUP11 PUSH2 0x124A JUMP JUMPDEST SWAP1 SWAP3 SWAP1 PUSH2 0x775 DUP5 PUSH1 0x1 PUSH2 0x564 JUMP JUMPDEST PUSH2 0x564 JUMP JUMPDEST DUP9 PUSH2 0x796 PUSH1 0x1 PUSH1 0x1 PUSH1 0xA0 SHL SUB DUP5 AND JUMPDEST SWAP2 PUSH1 0x1 PUSH1 0x1 PUSH1 0xA0 SHL SUB AND SWAP1 JUMP JUMPDEST SUB PUSH2 0x8FF JUMPI PUSH2 0x7A4 DUP2 PUSH2 0x581 JUMP JUMPDEST PUSH2 0x7B0 PUSH1 0x1 DUP4 ADD PUSH2 0x581 JUMP JUMPDEST SWAP1 JUMPDEST SWAP1 SWAP3 PUSH2 0x7D2 PUSH2 0x7C0 DUP13 PUSH2 0x55B JUMP JUMPDEST CALLER PUSH2 0x7CA ADDRESS PUSH2 0x55B JUMP JUMPDEST SWAP1 DUP12 SWAP3 PUSH2 0x130F JUMP JUMPDEST PUSH2 0x7F3 PUSH2 0x7E0 DUP6 DUP5 DUP12 PUSH2 0x13AF JUMP JUMPDEST SWAP10 PUSH2 0x7EC PUSH2 0x6F6 DUP13 SWAP3 SWAP1 JUMP JUMPDEST LT ISZERO PUSH2 0x58B JUMP JUMPDEST PUSH2 0x807 PUSH2 0x789 DUP13 SWAP3 PUSH1 0x1 PUSH1 0x1 PUSH1 0xA0 SHL SUB AND SWAP1 JUMP JUMPDEST SUB PUSH2 0x8D8 JUMPI PUSH0 PUSH2 0x835 PUSH2 0x83D SWAP5 PUSH2 0x82E PUSH2 0x824 PUSH1 0x1 SWAP6 DUP13 SWAP1 PUSH2 0x5E1 JUMP JUMPDEST DUP5 DUP1 DUP9 ADD ADD PUSH2 0x5F3 JUMP JUMPDEST DUP11 SWAP1 PUSH2 0x607 JUMP JUMPDEST SWAP3 ADD ADD PUSH2 0x5F3 JUMP JUMPDEST PUSH2 0x846 DUP4 PUSH2 0x55B JUMP JUMPDEST SWAP1 DUP6 SWAP2 PUSH2 0x1453 JUMP JUMPDEST PUSH2 0x860 PUSH2 0x85B PUSH1 0x2 PUSH2 0x488 JUMP JUMPDEST PUSH2 0x697 JUMP JUMPDEST SWAP5 PUSH2 0x87B DUP4 PUSH2 0x878 DUP9 PUSH2 0x872 PUSH0 PUSH2 0x488 JUMP JUMPDEST SWAP1 PUSH2 0x6BC JUMP JUMPDEST MSTORE JUMP JUMPDEST PUSH2 0x88D DUP5 PUSH2 0x878 DUP9 PUSH2 0x872 PUSH1 0x1 PUSH2 0x488 JUMP JUMPDEST CALLER SWAP3 SWAP4 PUSH2 0x8C6 PUSH2 0x8C0 PUSH2 0x8C0 PUSH32 0xAD56699D0F375866EB895ED27203058A36A713382AADED78EB6B67DA266D4332 SWAP5 PUSH2 0x55B JUMP JUMPDEST SWAP5 PUSH2 0x55B JUMP JUMPDEST SWAP5 PUSH2 0x8D3 PUSH2 0x31F PUSH1 0x40 MLOAD SWAP1 JUMP JUMPDEST SUB SWAP1 LOG4 JUMP JUMPDEST PUSH0 PUSH2 0x835 PUSH2 0x8FA SWAP5 PUSH2 0x82E PUSH2 0x8EF DUP5 SWAP6 DUP13 SWAP1 PUSH2 0x5E1 JUMP JUMPDEST PUSH1 0x1 DUP6 DUP9 ADD ADD PUSH2 0x5F3 JUMP JUMPDEST PUSH2 0x83D JUMP JUMPDEST PUSH2 0x90B PUSH1 0x1 DUP3 ADD PUSH2 0x581 JUMP JUMPDEST PUSH2 0x914 DUP3 PUSH2 0x581 JUMP JUMPDEST SWAP1 PUSH2 0x7B2 JUMP JUMPDEST PUSH2 0xCD SWAP6 SWAP5 SWAP4 SWAP3 SWAP2 SWAP1 PUSH1 0x60 PUSH2 0x42D JUMP JUMPDEST PUSH2 0xCD PUSH2 0x967 PUSH2 0x789 PUSH2 0x959 PUSH2 0x94B PUSH2 0xCD SWAP8 PUSH2 0x944 PUSH0 SWAP1 JUMP JUMPDEST POP DUP8 PUSH2 0x124A JUMP JUMPDEST SWAP1 SWAP5 SWAP1 PUSH2 0x775 DUP7 PUSH1 0x1 PUSH2 0x564 JUMP JUMPDEST SWAP5 SWAP3 PUSH1 0x1 PUSH1 0x1 PUSH1 0xA0 SHL SUB AND SWAP1 JUMP JUMPDEST SUB PUSH2 0x98B JUMPI PUSH2 0x983 PUSH1 0x1 PUSH0 PUSH2 0x97B DUP6 PUSH2 0x581 JUMP JUMPDEST SWAP5 ADD ADD PUSH2 0x581 JUMP JUMPDEST SWAP2 JUMPDEST SWAP1 PUSH2 0x13AF JUMP JUMPDEST PUSH2 0x99C PUSH0 DUP1 PUSH2 0x97B PUSH1 0x1 DUP7 ADD PUSH2 0x581 JUMP JUMPDEST SWAP2 PUSH2 0x985 JUMP JUMPDEST SWAP2 PUSH1 0x3 PUSH2 0x9CC PUSH2 0x775 PUSH2 0x9C3 PUSH2 0x9D2 SWAP6 PUSH2 0xCD SWAP8 PUSH2 0x9BD PUSH0 SWAP1 JUMP JUMPDEST POP PUSH2 0x124A JUMP JUMPDEST SWAP2 SWAP1 PUSH1 0x1 PUSH2 0x564 JUMP JUMPDEST ADD PUSH2 0x564 JUMP JUMPDEST PUSH2 0x581 JUMP JUMPDEST SWAP1 PUSH2 0x9F0 SWAP9 SWAP8 SWAP7 SWAP6 SWAP5 SWAP4 SWAP3 SWAP2 PUSH2 0x9EB PUSH2 0x1173 JUMP JUMPDEST PUSH2 0xB13 JUMP JUMPDEST SWAP1 SWAP2 PUSH2 0x8F PUSH2 0x11AF JUMP JUMPDEST ISZERO PUSH2 0xA01 JUMPI JUMP JUMPDEST PUSH1 0x40 MLOAD PUSH3 0x461BCD PUSH1 0xE5 SHL DUP2 MSTORE PUSH1 0x20 PUSH1 0x4 DUP3 ADD MSTORE PUSH1 0xE PUSH1 0x24 DUP3 ADD MSTORE PUSH14 0x5A65726F206C6971756964697479 PUSH1 0x90 SHL PUSH1 0x44 DUP3 ADD MSTORE PUSH1 0x64 SWAP1 REVERT JUMPDEST ISZERO PUSH2 0xA3E JUMPI JUMP JUMPDEST PUSH1 0x40 MLOAD PUSH3 0x461BCD PUSH1 0xE5 SHL DUP2 MSTORE PUSH1 0x20 PUSH1 0x4 DUP3 ADD MSTORE PUSH1 0xF PUSH1 0x24 DUP3 ADD MSTORE PUSH15 0x496E73756666696369656E74204C5 PUSH1 0x8C SHL PUSH1 0x44 DUP3 ADD MSTORE PUSH1 0x64 SWAP1 REVERT JUMPDEST DUP2 DUP2 MUL SWAP3 SWAP2 DUP2 ISZERO SWAP2 DUP5 DIV EQ OR ISZERO PUSH2 0x5EE JUMPI JUMP JUMPDEST PUSH4 0x4E487B71 PUSH1 0xE0 SHL PUSH0 MSTORE PUSH1 0x12 PUSH1 0x4 MSTORE PUSH1 0x24 PUSH0 REVERT JUMPDEST DUP2 ISZERO PUSH2 0xAA6 JUMPI DIV SWAP1 JUMP JUMPDEST PUSH2 0xA88 JUMP JUMPDEST ISZERO PUSH2 0xAB2 JUMPI JUMP JUMPDEST PUSH1 0x40 MLOAD PUSH3 0x461BCD PUSH1 0xE5 SHL DUP2 MSTORE PUSH1 0x20 PUSH1 0x4 DUP3 ADD MSTORE PUSH1 0x5 PUSH1 0x24 DUP3 ADD MSTORE PUSH5 0x4D696E2041 PUSH1 0xD8 SHL PUSH1 0x44 DUP3 ADD MSTORE PUSH1 0x64 SWAP1 REVERT JUMPDEST ISZERO PUSH2 0xAE6 JUMPI JUMP JUMPDEST PUSH1 0x40 MLOAD PUSH3 0x461BCD PUSH1 0xE5 SHL DUP2 MSTORE PUSH1 0x20 PUSH1 0x4 DUP3 ADD MSTORE PUSH1 0x5 PUSH1 0x24 DUP3 ADD MSTORE PUSH5 0x26B4B71021 PUSH1 0xD9 SHL PUSH1 0x44 DUP3 ADD MSTORE PUSH1 0x64 SWAP1 REVERT JUMPDEST SWAP9 SWAP7 SWAP3 SWAP4 SWAP6 SWAP9 SWAP8 SWAP2 SWAP5 SWAP8 POP POP TIMESTAMP GT ISZERO PUSH2 0xB2B SWAP1 PUSH2 0x44D JUMP JUMPDEST DUP4 PUSH2 0xB35 PUSH0 PUSH2 0x488 JUMP JUMPDEST LT PUSH2 0xB3F SWAP1 PUSH2 0x9FA JUMP JUMPDEST PUSH2 0xB49 DUP3 DUP5 PUSH2 0x124A JUMP JUMPDEST SWAP4 SWAP1 SWAP3 SWAP1 PUSH2 0xB58 DUP5 PUSH1 0x1 PUSH2 0x564 JUMP JUMPDEST DUP6 PUSH2 0xB62 SWAP2 PUSH2 0x564 JUMP JUMPDEST PUSH2 0xB6F CALLER PUSH1 0x3 DUP4 ADD PUSH2 0x564 JUMP JUMPDEST PUSH2 0xB78 SWAP1 PUSH2 0x581 JUMP JUMPDEST DUP8 GT ISZERO PUSH2 0xB84 SWAP1 PUSH2 0xA37 JUMP JUMPDEST PUSH2 0xB8D DUP2 PUSH2 0x581 JUMP JUMPDEST PUSH2 0xB99 PUSH1 0x1 DUP4 ADD PUSH2 0x581 JUMP JUMPDEST SWAP1 PUSH2 0xBA6 PUSH1 0x2 DUP5 ADD PUSH2 0x581 JUMP JUMPDEST SWAP12 PUSH2 0xBB1 DUP3 DUP12 PUSH2 0xA75 JUMP JUMPDEST DUP14 PUSH2 0xBBB SWAP2 PUSH2 0xA9C JUMP JUMPDEST SWAP13 PUSH2 0xBC6 DUP5 DUP13 PUSH2 0xA75 JUMP JUMPDEST SWAP1 PUSH2 0xBD0 SWAP2 PUSH2 0xA9C JUMP JUMPDEST SWAP12 DUP14 LT ISZERO PUSH2 0xBDD SWAP1 PUSH2 0xAAB JUMP JUMPDEST DUP12 LT ISZERO PUSH2 0xBE9 SWAP1 PUSH2 0xADF JUMP JUMPDEST DUP12 PUSH2 0xBF3 SWAP2 PUSH2 0x607 JUMP JUMPDEST PUSH2 0xBFD SWAP1 DUP4 PUSH2 0x5F3 JUMP JUMPDEST DUP10 PUSH2 0xC07 SWAP2 PUSH2 0x607 JUMP JUMPDEST PUSH2 0xC14 SWAP1 PUSH1 0x1 DUP4 ADD PUSH2 0x5F3 JUMP JUMPDEST PUSH1 0x2 DUP2 ADD DUP8 PUSH2 0xC22 DUP3 PUSH2 0x581 JUMP JUMPDEST SWAP1 PUSH2 0xC2C SWAP2 PUSH2 0x607 JUMP JUMPDEST PUSH2 0xC35 SWAP2 PUSH2 0x5F3 JUMP JUMPDEST DUP7 SWAP1 PUSH1 0x3 ADD CALLER PUSH2 0xC44 SWAP2 PUSH2 0x564 JUMP JUMPDEST SWAP1 PUSH2 0xC4E DUP3 PUSH2 0x581 JUMP JUMPDEST SWAP1 PUSH2 0xC58 SWAP2 PUSH2 0x607 JUMP JUMPDEST PUSH2 0xC61 SWAP2 PUSH2 0x5F3 JUMP JUMPDEST PUSH2 0xC6A SWAP1 PUSH2 0x55B JUMP JUMPDEST DUP3 DUP10 SWAP1 PUSH2 0xC76 SWAP3 PUSH2 0x1453 JUMP JUMPDEST PUSH2 0xC7F SWAP1 PUSH2 0x55B JUMP JUMPDEST PUSH2 0xC8A SWAP2 DUP8 SWAP2 PUSH2 0x1453 JUMP JUMPDEST SWAP1 CALLER SWAP2 DUP7 SWAP4 DUP7 PUSH32 0xD765E08EEF31C0983ECCA03ECD166297AC485ECD5DD69E291C848F0A020333C1 SWAP3 PUSH2 0xCBB SWAP1 PUSH2 0x55B JUMP JUMPDEST SWAP4 PUSH2 0xCC5 SWAP1 PUSH2 0x55B JUMP JUMPDEST SWAP5 PUSH2 0xCCF SWAP1 PUSH2 0x55B JUMP JUMPDEST SWAP6 PUSH2 0xCD9 PUSH1 0x40 MLOAD SWAP1 JUMP JUMPDEST SWAP3 DUP4 SWAP3 PUSH2 0x8D3 SWAP3 DUP5 PUSH2 0x3DB JUMP JUMPDEST PUSH2 0xCF7 SWAP7 SWAP6 SWAP5 SWAP4 SWAP3 SWAP2 SWAP1 PUSH0 DUP1 PUSH2 0x9D7 JUMP JUMPDEST SWAP1 SWAP2 JUMP JUMPDEST PUSH2 0xCD PUSH1 0x40 PUSH2 0x64F JUMP JUMPDEST SWAP1 PUSH2 0x8F PUSH2 0xD2D PUSH1 0x1 PUSH2 0xD16 PUSH2 0xCFB JUMP JUMPDEST SWAP5 PUSH2 0xD27 PUSH2 0xD23 DUP3 PUSH2 0x581 JUMP JUMPDEST DUP8 MSTORE JUMP JUMPDEST ADD PUSH2 0x581 JUMP JUMPDEST PUSH1 0x20 DUP5 ADD MSTORE JUMP JUMPDEST PUSH2 0xCD SWAP1 PUSH2 0xD05 JUMP JUMPDEST SWAP1 PUSH2 0xD7F PUSH2 0x789 PUSH2 0xD71 PUSH0 PUSH2 0xD5D PUSH2 0xD6B SWAP6 PUSH2 0xD56 PUSH0 SWAP1 JUMP JUMPDEST POP PUSH0 PUSH2 0x944 JUMP JUMPDEST SWAP1 SWAP6 SWAP1 PUSH2 0x775 DUP8 PUSH1 0x1 PUSH2 0x564 JUMP JUMPDEST ADD PUSH2 0xD34 JUMP JUMPDEST SWAP4 SWAP3 PUSH1 0x1 PUSH1 0x1 PUSH1 0xA0 SHL SUB AND SWAP1 JUMP JUMPDEST SUB PUSH2 0xD97 JUMPI PUSH2 0xCF7 PUSH1 0x20 PUSH2 0xD91 DUP4 MLOAD SWAP1 JUMP JUMPDEST SWAP3 ADD MLOAD SWAP1 JUMP JUMPDEST PUSH2 0xCF7 PUSH0 PUSH2 0xD91 PUSH1 0x20 DUP5 ADD MLOAD SWAP1 JUMP JUMPDEST SWAP1 PUSH2 0xDC1 SWAP11 SWAP10 SWAP9 SWAP8 SWAP7 SWAP6 SWAP5 SWAP4 SWAP3 SWAP2 PUSH2 0xDBC PUSH2 0x1173 JUMP JUMPDEST PUSH2 0xE7B JUMP JUMPDEST SWAP1 SWAP2 SWAP3 PUSH2 0x8F PUSH2 0x11AF JUMP JUMPDEST ISZERO PUSH2 0xDD3 JUMPI JUMP JUMPDEST PUSH1 0x40 MLOAD PUSH3 0x461BCD PUSH1 0xE5 SHL DUP2 MSTORE PUSH1 0x20 PUSH1 0x4 DUP3 ADD MSTORE PUSH1 0xA PUSH1 0x24 DUP3 ADD MSTORE PUSH10 0x536C6970706167652041 PUSH1 0xB0 SHL PUSH1 0x44 DUP3 ADD MSTORE PUSH1 0x64 SWAP1 REVERT JUMPDEST ISZERO PUSH2 0xE0C JUMPI JUMP JUMPDEST PUSH1 0x40 MLOAD PUSH3 0x461BCD PUSH1 0xE5 SHL DUP2 MSTORE PUSH1 0x20 PUSH1 0x4 DUP3 ADD MSTORE PUSH1 0xA PUSH1 0x24 DUP3 ADD MSTORE PUSH10 0x29B634B83830B3B29021 PUSH1 0xB1 SHL PUSH1 0x44 DUP3 ADD MSTORE PUSH1 0x64 SWAP1 REVERT JUMPDEST ISZERO PUSH2 0xE45 JUMPI JUMP JUMPDEST PUSH1 0x40 MLOAD PUSH3 0x461BCD PUSH1 0xE5 SHL DUP2 MSTORE PUSH1 0x20 PUSH1 0x4 DUP3 ADD MSTORE PUSH1 0xE PUSH1 0x24 DUP3 ADD MSTORE PUSH14 0x4C6971756964697479207A65726F PUSH1 0x90 SHL PUSH1 0x44 DUP3 ADD MSTORE PUSH1 0x64 SWAP1 REVERT JUMPDEST SWAP1 PUSH2 0xE99 SWAP4 SWAP11 SWAP3 SWAP2 SWAP12 SWAP9 SWAP12 SWAP10 SWAP7 SWAP5 SWAP8 SWAP10 POP POP POP PUSH2 0x6FA PUSH2 0x6F6 TIMESTAMP SWAP3 SWAP1 JUMP JUMPDEST PUSH2 0xEA3 DUP5 DUP9 PUSH2 0x124A JUMP JUMPDEST SWAP5 SWAP1 SWAP3 SWAP1 PUSH2 0xEBF PUSH2 0xCD PUSH2 0xEB8 DUP7 PUSH1 0x1 PUSH2 0x564 JUMP JUMPDEST DUP9 SWAP1 PUSH2 0x564 JUMP JUMPDEST SWAP2 PUSH2 0xEC9 DUP4 PUSH2 0x581 JUMP JUMPDEST SWAP9 PUSH2 0xED6 PUSH1 0x1 DUP6 ADD PUSH2 0x581 JUMP JUMPDEST SWAP12 DUP13 DUP12 PUSH2 0xEE5 PUSH2 0x6F6 PUSH0 PUSH2 0x488 JUMP JUMPDEST EQ DUP1 PUSH2 0x10F1 JUMPI JUMPDEST ISZERO PUSH2 0x106F JUMPI POP POP POP SWAP3 SWAP9 DUP10 SWAP4 SWAP11 PUSH2 0xF95 PUSH2 0xF8F DUP14 PUSH2 0xF8A SWAP13 PUSH2 0xFDB SWAP9 PUSH2 0xF46 PUSH2 0xF34 PUSH2 0xFA5 SWAP10 PUSH2 0xF1D PUSH2 0xF22 PUSH2 0xF9C SWAP12 JUMPDEST PUSH2 0x55B JUMP JUMPDEST CALLER PUSH2 0xF2C ADDRESS PUSH2 0x55B JUMP JUMPDEST SWAP1 DUP10 SWAP3 PUSH2 0x130F JUMP JUMPDEST CALLER PUSH2 0xF3E ADDRESS PUSH2 0x55B JUMP JUMPDEST SWAP1 DUP5 SWAP3 PUSH2 0x130F JUMP JUMPDEST PUSH2 0xF52 PUSH1 0x2 DUP11 ADD PUSH2 0x581 JUMP JUMPDEST PUSH2 0xF5E PUSH2 0x6F6 PUSH0 PUSH2 0x488 JUMP JUMPDEST SUB PUSH2 0x1024 JUMPI PUSH2 0xF70 PUSH2 0xF75 SWAP2 DUP5 PUSH2 0xA75 JUMP JUMPDEST PUSH2 0x14C7 JUMP JUMPDEST SWAP14 DUP15 JUMPDEST PUSH2 0xF84 PUSH2 0x6F6 PUSH0 PUSH2 0x488 JUMP JUMPDEST GT PUSH2 0xE3E JUMP JUMPDEST PUSH2 0x5E1 JUMP JUMPDEST DUP6 PUSH2 0x5F3 JUMP JUMPDEST DUP11 SWAP1 PUSH2 0x5E1 JUMP JUMPDEST PUSH1 0x1 DUP4 ADD PUSH2 0x5F3 JUMP JUMPDEST PUSH2 0xFBF PUSH1 0x2 DUP3 ADD PUSH2 0xFB9 DUP10 PUSH2 0xF8A DUP4 PUSH2 0x581 JUMP JUMPDEST SWAP1 PUSH2 0x5F3 JUMP JUMPDEST PUSH2 0xFB9 PUSH2 0xFD1 PUSH1 0x3 DUP10 SWAP4 ADD DUP7 SWAP1 PUSH2 0x564 JUMP JUMPDEST SWAP2 PUSH2 0xF8A DUP4 PUSH2 0x581 JUMP JUMPDEST SWAP2 DUP7 SWAP3 DUP7 DUP7 SWAP5 PUSH2 0x8D3 PUSH2 0x101A PUSH2 0x1014 PUSH2 0x1014 PUSH32 0x43C967B388D3A4CCAD3F7AB80167852E322E5A3FDE9893F530252281B2AE8B70 SWAP7 PUSH2 0x55B JUMP JUMPDEST SWAP7 PUSH2 0x55B JUMP JUMPDEST SWAP7 PUSH2 0x424 PUSH1 0x40 MLOAD SWAP1 JUMP JUMPDEST PUSH2 0x1068 SWAP1 PUSH2 0x1062 PUSH2 0x105B DUP12 PUSH2 0x1046 PUSH1 0x2 PUSH2 0x1053 PUSH2 0x104C DUP11 PUSH2 0x1046 DUP5 DUP8 ADD PUSH2 0x581 JUMP JUMPDEST SWAP1 PUSH2 0xA75 JUMP JUMPDEST DUP10 SWAP1 PUSH2 0xA9C JUMP JUMPDEST SWAP6 SWAP3 ADD PUSH2 0x581 JUMP JUMPDEST DUP9 SWAP1 PUSH2 0xA9C JUMP JUMPDEST SWAP1 PUSH2 0x1489 JUMP JUMPDEST SWAP14 DUP15 PUSH2 0xF78 JUMP JUMPDEST PUSH2 0x1080 PUSH2 0x1087 SWAP2 DUP6 SWAP9 SWAP4 SWAP5 SWAP9 PUSH2 0xA75 JUMP JUMPDEST DUP13 SWAP1 PUSH2 0xA9C JUMP JUMPDEST SWAP6 DUP2 DUP8 GT PUSH2 0x10CA JUMPI POP POP DUP5 LT ISZERO PUSH2 0x109D SWAP1 PUSH2 0xE05 JUMP JUMPDEST SWAP3 SWAP9 DUP10 SWAP4 SWAP11 PUSH2 0xF95 PUSH2 0xF8F DUP14 PUSH2 0xF8A SWAP13 PUSH2 0xFDB SWAP9 PUSH2 0xF46 PUSH2 0xF34 PUSH2 0xFA5 SWAP10 PUSH2 0xF1D PUSH2 0xF22 PUSH2 0xF9C SWAP12 PUSH2 0x55B JUMP JUMPDEST SWAP3 POP SWAP5 POP POP DUP4 DUP10 PUSH2 0x10DA SWAP2 PUSH2 0xA75 JUMP JUMPDEST DUP12 PUSH2 0x10E4 SWAP2 PUSH2 0xA9C JUMP JUMPDEST SWAP1 DUP2 LT ISZERO PUSH2 0x109D SWAP1 PUSH2 0xDCC JUMP JUMPDEST POP DUP1 PUSH2 0x10FF PUSH2 0x6F6 PUSH0 PUSH2 0x488 JUMP JUMPDEST EQ PUSH2 0xEEC JUMP JUMPDEST PUSH2 0x1118 SWAP8 SWAP7 SWAP6 SWAP5 SWAP4 SWAP3 SWAP2 SWAP1 PUSH0 DUP1 DUP1 PUSH2 0xDA6 JUMP JUMPDEST SWAP1 SWAP2 SWAP3 JUMP JUMPDEST PUSH2 0xCD PUSH1 0x2 PUSH2 0x488 JUMP JUMPDEST ISZERO PUSH2 0x112E JUMPI JUMP JUMPDEST PUSH1 0x40 MLOAD PUSH3 0x461BCD PUSH1 0xE5 SHL DUP2 MSTORE PUSH1 0x20 PUSH1 0x4 DUP3 ADD MSTORE PUSH1 0x1F PUSH1 0x24 DUP3 ADD MSTORE PUSH32 0x5265656E7472616E637947756172643A207265656E7472616E742063616C6C00 PUSH1 0x44 DUP3 ADD MSTORE PUSH1 0x64 SWAP1 REVERT JUMPDEST PUSH2 0x1194 PUSH2 0x117F PUSH0 PUSH2 0x581 JUMP JUMPDEST PUSH2 0x118D PUSH2 0x6F6 PUSH2 0xCD PUSH2 0x111D JUMP JUMPDEST EQ ISZERO PUSH2 0x1127 JUMP JUMPDEST PUSH2 0x8F PUSH2 0x119F PUSH2 0x111D JUMP JUMPDEST PUSH0 PUSH2 0x5F3 JUMP JUMPDEST PUSH2 0xCD PUSH1 0x1 PUSH2 0x488 JUMP JUMPDEST PUSH2 0x8F PUSH2 0x119F PUSH2 0x11A5 JUMP JUMPDEST ISZERO PUSH2 0x11C1 JUMPI JUMP JUMPDEST PUSH1 0x40 MLOAD PUSH3 0x461BCD PUSH1 0xE5 SHL DUP2 MSTORE PUSH1 0x20 PUSH1 0x4 DUP3 ADD MSTORE PUSH1 0x10 PUSH1 0x24 DUP3 ADD MSTORE PUSH16 0x4964656E746963616C20746F6B656E73 PUSH1 0x80 SHL PUSH1 0x44 DUP3 ADD MSTORE PUSH1 0x64 SWAP1 REVERT JUMPDEST PUSH2 0xC1 PUSH2 0xCD PUSH2 0xCD SWAP3 SWAP1 JUMP JUMPDEST PUSH2 0xCD SWAP1 PUSH2 0x11F9 JUMP JUMPDEST ISZERO PUSH2 0x1216 JUMPI JUMP JUMPDEST PUSH1 0x40 MLOAD PUSH3 0x461BCD PUSH1 0xE5 SHL DUP2 MSTORE PUSH1 0x20 PUSH1 0x4 DUP3 ADD MSTORE PUSH1 0xC PUSH1 0x24 DUP3 ADD MSTORE PUSH12 0x5A65726F2061646472657373 PUSH1 0xA0 SHL PUSH1 0x44 DUP3 ADD MSTORE PUSH1 0x64 SWAP1 REVERT JUMPDEST SWAP1 SWAP2 SWAP1 PUSH2 0x126A DUP2 PUSH2 0x1263 PUSH1 0x1 PUSH1 0x1 PUSH1 0xA0 SHL SUB DUP7 AND PUSH2 0x789 JUMP JUMPDEST EQ ISZERO PUSH2 0x11BA JUMP JUMPDEST DUP1 PUSH2 0x127A PUSH2 0x789 PUSH2 0xC1 PUSH0 PUSH2 0x1206 JUMP JUMPDEST EQ ISZERO DUP1 PUSH2 0x12A8 JUMPI JUMPDEST PUSH2 0x128B SWAP1 PUSH2 0x120F JUMP JUMPDEST DUP1 PUSH2 0x129E PUSH1 0x1 PUSH1 0x1 PUSH1 0xA0 SHL SUB DUP6 AND PUSH2 0x789 JUMP JUMPDEST LT ISZERO PUSH2 0xCD JUMPI SWAP2 SWAP1 JUMP JUMPDEST POP PUSH2 0x128B DUP4 PUSH2 0x12BC PUSH2 0x789 PUSH2 0xC1 PUSH0 PUSH2 0x1206 JUMP JUMPDEST EQ ISZERO SWAP1 POP PUSH2 0x1282 JUMP JUMPDEST PUSH2 0x12DE PUSH2 0x12D8 PUSH2 0xCD SWAP3 PUSH4 0xFFFFFFFF AND SWAP1 JUMP JUMPDEST PUSH1 0xE0 SHL SWAP1 JUMP JUMPDEST PUSH1 0x1 PUSH1 0x1 PUSH1 0xE0 SHL SUB NOT AND SWAP1 JUMP JUMPDEST PUSH1 0x1 PUSH1 0x1 PUSH1 0xA0 SHL SUB SWAP2 DUP3 AND DUP2 MSTORE SWAP2 AND PUSH1 0x20 DUP3 ADD MSTORE PUSH1 0x60 DUP2 ADD SWAP3 SWAP2 PUSH2 0x8F SWAP2 PUSH1 0x40 ADD MSTORE JUMP JUMPDEST PUSH2 0x8F SWAP4 PUSH1 0x4 SWAP4 SWAP2 SWAP3 PUSH2 0x1358 SWAP3 SWAP1 SWAP2 PUSH2 0x1349 SWAP2 PUSH2 0x132F PUSH4 0x23B872DD PUSH2 0x12C5 JUMP JUMPDEST SWAP4 PUSH2 0x1339 PUSH1 0x40 MLOAD SWAP1 JUMP JUMPDEST SWAP8 DUP9 SWAP6 PUSH1 0x20 DUP8 ADD SWAP1 DUP2 MSTORE ADD PUSH2 0x12EB JUMP JUMPDEST PUSH1 0x20 DUP3 ADD DUP2 SUB DUP3 MSTORE SUB DUP4 PUSH2 0x628 JUMP JUMPDEST PUSH2 0x1558 JUMP JUMPDEST ISZERO PUSH2 0x1364 JUMPI JUMP JUMPDEST PUSH1 0x40 MLOAD PUSH3 0x461BCD PUSH1 0xE5 SHL DUP2 MSTORE PUSH1 0x20 PUSH1 0x4 DUP3 ADD MSTORE PUSH1 0xD PUSH1 0x24 DUP3 ADD MSTORE PUSH13 0x125B9D985B1A59081A5B9C1D5D PUSH1 0x9A SHL PUSH1 0x44 DUP3 ADD MSTORE PUSH1 0x64 SWAP1 REVERT JUMPDEST PUSH2 0xCD PUSH2 0x3E5 PUSH2 0x488 JUMP JUMPDEST PUSH2 0xCD PUSH2 0x3E8 PUSH2 0x488 JUMP JUMPDEST PUSH2 0xCD SWAP3 PUSH2 0xF8A PUSH2 0x13FA PUSH2 0x13F3 PUSH2 0x1403 SWAP5 PUSH2 0x13C7 PUSH0 SWAP1 JUMP JUMPDEST POP DUP1 PUSH2 0x13D5 PUSH2 0x6F6 PUSH0 PUSH2 0x488 JUMP JUMPDEST GT DUP1 PUSH2 0x1422 JUMPI JUMPDEST DUP1 PUSH2 0x1409 JUMPI JUMPDEST PUSH2 0x13EB SWAP1 PUSH2 0x135D JUMP JUMPDEST PUSH2 0x1046 PUSH2 0x1399 JUMP JUMPDEST SWAP3 DUP4 PUSH2 0xA75 JUMP JUMPDEST SWAP4 PUSH2 0x1046 PUSH2 0x13A4 JUMP JUMPDEST SWAP1 PUSH2 0xA9C JUMP JUMPDEST POP PUSH2 0x13EB DUP6 PUSH2 0x141A PUSH2 0x6F6 PUSH0 PUSH2 0x488 JUMP JUMPDEST GT SWAP1 POP PUSH2 0x13E2 JUMP JUMPDEST POP DUP7 PUSH2 0x1430 PUSH2 0x6F6 PUSH0 PUSH2 0x488 JUMP JUMPDEST GT PUSH2 0x13DC JUMP JUMPDEST PUSH1 0x1 PUSH1 0x1 PUSH1 0xA0 SHL SUB SWAP1 SWAP2 AND DUP2 MSTORE PUSH1 0x40 DUP2 ADD SWAP3 SWAP2 PUSH2 0x8F SWAP2 PUSH1 0x20 ADD MSTORE JUMP JUMPDEST PUSH2 0x8F SWAP3 PUSH1 0x4 SWAP3 PUSH2 0x1358 SWAP2 PUSH2 0x1349 SWAP1 PUSH2 0x146F PUSH4 0xA9059CBB PUSH2 0x12C5 JUMP JUMPDEST SWAP3 PUSH2 0x1479 PUSH1 0x40 MLOAD SWAP1 JUMP JUMPDEST SWAP7 DUP8 SWAP5 PUSH1 0x20 DUP7 ADD SWAP1 DUP2 MSTORE ADD PUSH2 0x1436 JUMP JUMPDEST SWAP1 DUP1 DUP3 LT ISZERO PUSH2 0x1496 JUMPI POP SWAP1 JUMP JUMPDEST SWAP1 POP SWAP1 JUMP JUMPDEST PUSH2 0x14A8 PUSH2 0xCD PUSH2 0xCD SWAP3 SWAP1 JUMP JUMPDEST PUSH1 0xFF AND SWAP1 JUMP JUMPDEST PUSH2 0xCD SWAP1 PUSH2 0x14C2 PUSH2 0x6F6 PUSH2 0xCD SWAP5 PUSH1 0xFF AND SWAP1 JUMP JUMPDEST SWAP1 SHR SWAP1 JUMP JUMPDEST PUSH0 DUP2 PUSH2 0x14D6 PUSH2 0x6F6 PUSH1 0x3 PUSH2 0x488 JUMP JUMPDEST GT ISZERO PUSH2 0x1537 JUMPI POP DUP1 PUSH2 0x1505 PUSH2 0x14F5 DUP4 PUSH2 0x14EF PUSH1 0x1 PUSH2 0x149B JUMP JUMPDEST SWAP1 PUSH2 0x14AE JUMP JUMPDEST PUSH2 0x14FF PUSH1 0x1 PUSH2 0x488 JUMP JUMPDEST SWAP1 PUSH2 0x5E1 JUMP JUMPDEST SWAP1 JUMPDEST DUP1 DUP3 LT ISZERO PUSH2 0x1531 JUMPI POP PUSH2 0x152B PUSH2 0x1521 DUP3 PUSH2 0xF8A DUP2 DUP7 PUSH2 0xA9C JUMP JUMPDEST PUSH2 0x14EF PUSH1 0x1 PUSH2 0x149B JUMP JUMPDEST SWAP1 PUSH2 0x1507 JUMP JUMPDEST SWAP3 SWAP2 POP POP JUMP JUMPDEST SWAP2 SWAP1 PUSH2 0x1545 PUSH2 0x6F6 PUSH0 PUSH2 0x488 JUMP JUMPDEST SUB PUSH2 0x154C JUMPI JUMP JUMPDEST SWAP1 POP PUSH2 0xCD PUSH1 0x1 PUSH2 0x488 JUMP JUMPDEST SWAP1 PUSH0 PUSH1 0x20 SWAP2 PUSH2 0x1564 PUSH0 SWAP1 JUMP JUMPDEST POP DUP3 DUP2 MLOAD SWAP2 ADD DUP3 DUP6 GAS CALL ISZERO PUSH2 0x15EA JUMPI RETURNDATASIZE PUSH0 MLOAD SWAP1 PUSH2 0x1583 PUSH2 0x6F6 PUSH0 PUSH2 0x488 JUMP JUMPDEST SUB PUSH2 0x15D6 JUMPI POP PUSH2 0x1592 DUP2 PUSH2 0x55B JUMP JUMPDEST EXTCODESIZE PUSH2 0x159F PUSH2 0x6F6 PUSH0 PUSH2 0x488 JUMP JUMPDEST EQ JUMPDEST PUSH2 0x15A8 JUMPI POP JUMP JUMPDEST PUSH2 0x15B4 PUSH2 0x484 SWAP2 PUSH2 0x55B JUMP JUMPDEST PUSH4 0x5274AFE7 PUSH1 0xE0 SHL PUSH0 SWAP1 DUP2 MSTORE PUSH1 0x1 PUSH1 0x1 PUSH1 0xA0 SHL SUB SWAP1 SWAP2 AND PUSH1 0x4 MSTORE SWAP1 DUP2 SWAP1 PUSH1 0x24 SWAP1 JUMP JUMPDEST PUSH2 0x15E3 PUSH2 0x6F6 PUSH1 0x1 PUSH2 0x488 JUMP JUMPDEST EQ ISZERO PUSH2 0x15A1 JUMP JUMPDEST PUSH1 0x40 MLOAD RETURNDATASIZE PUSH0 DUP3 RETURNDATACOPY RETURNDATASIZE SWAP1 REVERT INVALID LOG2 PUSH5 0x6970667358 0x22 SLT KECCAK256 0xB3 CALLVALUE 0xBA PUSH25 0x4C7FDB84D7122696BE589BEDB1036A16872F71E4834B3E2539 DATALOADN 0x82E0 PUSH5 0x736F6C6343 STOP ADDMOD 0x1E STOP CALLER "
				},
				"gasEstimates": {
					"creation": {
						"codeDepositCost": "1135000",
						"executionCost": "infinite",
						"totalCost": "infinite"
					},
					"external": {
						"addLiquidity(address,address,uint256,uint256,uint256,uint256,address,uint256)": "infinite",
						"balanceOf(address,address,address)": "infinite",
						"getAmountOut(uint256,address,address)": "infinite",
						"getReserves(address,address)": "infinite",
						"removeLiquidity(address,address,uint256,uint256,uint256,address,uint256)": "infinite",
						"swapExactTokensForTokens(uint256,uint256,address[],address,uint256)": "infinite"
					},
					"internal": {
						"_getAmountIn(uint256,uint256,uint256)": "infinite",
						"_getAmountOut(uint256,uint256,uint256)": "infinite",
						"_min(uint256,uint256)": "46",
						"_sortTokens(address,address)": "infinite",
						"_sqrt(uint256)": "infinite"
					}
				},
				"methodIdentifiers": {
					"addLiquidity(address,address,uint256,uint256,uint256,uint256,address,uint256)": "e8e33700",
					"balanceOf(address,address,address)": "75bb9b63",
					"getAmountOut(uint256,address,address)": "5e1e6325",
					"getReserves(address,address)": "d52bb6f4",
					"removeLiquidity(address,address,uint256,uint256,uint256,address,uint256)": "baa2abde",
					"swapExactTokensForTokens(uint256,uint256,address[],address,uint256)": "38ed1739"
				}
			},
			"storageLayout": {
				"storage": [
					{
						"astId": 100,
						"contract": "simpleswap.sol:SimpleSwap",
						"label": "_status",
						"offset": 0,
						"slot": "0",
						"type": "t_uint256"
					},
					{
						"astId": 748,
						"contract": "simpleswap.sol:SimpleSwap",
						"label": "_pairs",
						"offset": 0,
						"slot": "1",
						"type": "t_mapping(t_address,t_mapping(t_address,t_struct(Pair)741_storage))"
					}
				],
				"types": {
					"t_address": {
						"encoding": "inplace",
						"label": "address",
						"numberOfBytes": "20"
					},
					"t_mapping(t_address,t_mapping(t_address,t_struct(Pair)741_storage))": {
						"encoding": "mapping",
						"key": "t_address",
						"label": "mapping(address => mapping(address => struct SimpleSwap.Pair))",
						"numberOfBytes": "32",
						"value": "t_mapping(t_address,t_struct(Pair)741_storage)"
					},
					"t_mapping(t_address,t_struct(Pair)741_storage)": {
						"encoding": "mapping",
						"key": "t_address",
						"label": "mapping(address => struct SimpleSwap.Pair)",
						"numberOfBytes": "32",
						"value": "t_struct(Pair)741_storage"
					},
					"t_mapping(t_address,t_uint256)": {
						"encoding": "mapping",
						"key": "t_address",
						"label": "mapping(address => uint256)",
						"numberOfBytes": "32",
						"value": "t_uint256"
					},
					"t_struct(Pair)741_storage": {
						"encoding": "inplace",
						"label": "struct SimpleSwap.Pair",
						"members": [
							{
								"astId": 734,
								"contract": "simpleswap.sol:SimpleSwap",
								"label": "reserves",
								"offset": 0,
								"slot": "0",
								"type": "t_struct(Reserves)731_storage"
							},
							{
								"astId": 736,
								"contract": "simpleswap.sol:SimpleSwap",
								"label": "totalSupply",
								"offset": 0,
								"slot": "2",
								"type": "t_uint256"
							},
							{
								"astId": 740,
								"contract": "simpleswap.sol:SimpleSwap",
								"label": "balances",
								"offset": 0,
								"slot": "3",
								"type": "t_mapping(t_address,t_uint256)"
							}
						],
						"numberOfBytes": "128"
					},
					"t_struct(Reserves)731_storage": {
						"encoding": "inplace",
						"label": "struct SimpleSwap.Reserves",
						"members": [
							{
								"astId": 728,
								"contract": "simpleswap.sol:SimpleSwap",
								"label": "reserve0",
								"offset": 0,
								"slot": "0",
								"type": "t_uint256"
							},
							{
								"astId": 730,
								"contract": "simpleswap.sol:SimpleSwap",
								"label": "reserve1",
								"offset": 0,
								"slot": "1",
								"type": "t_uint256"
							}
						],
						"numberOfBytes": "64"
					},
					"t_uint256": {
						"encoding": "inplace",
						"label": "uint256",
						"numberOfBytes": "32"
					}
				}
			},
			"userdoc": {
				"kind": "user",
				"methods": {},
				"notice": "Minimal DEX with liquidity provision and token swap",
				"version": 1
			}
		}
	}
}