{
	"simpleswap.sol": {
		"SimpleSwap": {
			"abi": [
				{
					"inputs": [
						{
							"internalType": "address",
							"name": "token",
							"type": "address"
						}
					],
					"name": "SafeERC20FailedOperation",
					"type": "error"
				},
				{
					"anonymous": false,
					"inputs": [
						{
							"indexed": true,
							"internalType": "address",
							"name": "token0",
							"type": "address"
						},
						{
							"indexed": true,
							"internalType": "address",
							"name": "token1",
							"type": "address"
						},
						{
							"indexed": true,
							"internalType": "address",
							"name": "provider",
							"type": "address"
						},
						{
							"indexed": false,
							"internalType": "uint256",
							"name": "amount0",
							"type": "uint256"
						},
						{
							"indexed": false,
							"internalType": "uint256",
							"name": "amount1",
							"type": "uint256"
						},
						{
							"indexed": false,
							"internalType": "uint256",
							"name": "liquidity",
							"type": "uint256"
						}
					],
					"name": "LiquidityAdded",
					"type": "event"
				},
				{
					"anonymous": false,
					"inputs": [
						{
							"indexed": true,
							"internalType": "address",
							"name": "token0",
							"type": "address"
						},
						{
							"indexed": true,
							"internalType": "address",
							"name": "token1",
							"type": "address"
						},
						{
							"indexed": true,
							"internalType": "address",
							"name": "provider",
							"type": "address"
						},
						{
							"indexed": false,
							"internalType": "uint256",
							"name": "amount0",
							"type": "uint256"
						},
						{
							"indexed": false,
							"internalType": "uint256",
							"name": "amount1",
							"type": "uint256"
						},
						{
							"indexed": false,
							"internalType": "uint256",
							"name": "liquidity",
							"type": "uint256"
						}
					],
					"name": "LiquidityRemoved",
					"type": "event"
				},
				{
					"anonymous": false,
					"inputs": [
						{
							"indexed": true,
							"internalType": "address",
							"name": "tokenIn",
							"type": "address"
						},
						{
							"indexed": true,
							"internalType": "address",
							"name": "tokenOut",
							"type": "address"
						},
						{
							"indexed": true,
							"internalType": "address",
							"name": "user",
							"type": "address"
						},
						{
							"indexed": false,
							"internalType": "uint256",
							"name": "amountIn",
							"type": "uint256"
						},
						{
							"indexed": false,
							"internalType": "uint256",
							"name": "amountOut",
							"type": "uint256"
						}
					],
					"name": "TokensSwapped",
					"type": "event"
				},
				{
					"inputs": [
						{
							"internalType": "address",
							"name": "tokenA",
							"type": "address"
						},
						{
							"internalType": "address",
							"name": "tokenB",
							"type": "address"
						},
						{
							"internalType": "uint256",
							"name": "amountADesired",
							"type": "uint256"
						},
						{
							"internalType": "uint256",
							"name": "amountBDesired",
							"type": "uint256"
						},
						{
							"internalType": "uint256",
							"name": "amountAMin",
							"type": "uint256"
						},
						{
							"internalType": "uint256",
							"name": "amountBMin",
							"type": "uint256"
						},
						{
							"internalType": "address",
							"name": "to",
							"type": "address"
						},
						{
							"internalType": "uint256",
							"name": "deadline",
							"type": "uint256"
						}
					],
					"name": "addLiquidity",
					"outputs": [
						{
							"internalType": "uint256",
							"name": "amountA",
							"type": "uint256"
						},
						{
							"internalType": "uint256",
							"name": "amountB",
							"type": "uint256"
						},
						{
							"internalType": "uint256",
							"name": "liquidity",
							"type": "uint256"
						}
					],
					"stateMutability": "nonpayable",
					"type": "function"
				},
				{
					"inputs": [
						{
							"internalType": "address",
							"name": "tokenA",
							"type": "address"
						},
						{
							"internalType": "address",
							"name": "tokenB",
							"type": "address"
						},
						{
							"internalType": "address",
							"name": "user",
							"type": "address"
						}
					],
					"name": "balanceOf",
					"outputs": [
						{
							"internalType": "uint256",
							"name": "",
							"type": "uint256"
						}
					],
					"stateMutability": "view",
					"type": "function"
				},
				{
					"inputs": [
						{
							"internalType": "address",
							"name": "tokenA",
							"type": "address"
						},
						{
							"internalType": "address",
							"name": "tokenB",
							"type": "address"
						}
					],
					"name": "getReserves",
					"outputs": [
						{
							"internalType": "uint256",
							"name": "reserveA",
							"type": "uint256"
						},
						{
							"internalType": "uint256",
							"name": "reserveB",
							"type": "uint256"
						}
					],
					"stateMutability": "view",
					"type": "function"
				},
				{
					"inputs": [
						{
							"internalType": "address",
							"name": "tokenA",
							"type": "address"
						},
						{
							"internalType": "address",
							"name": "tokenB",
							"type": "address"
						},
						{
							"internalType": "uint256",
							"name": "liquidity",
							"type": "uint256"
						},
						{
							"internalType": "uint256",
							"name": "amountAMin",
							"type": "uint256"
						},
						{
							"internalType": "uint256",
							"name": "amountBMin",
							"type": "uint256"
						},
						{
							"internalType": "address",
							"name": "to",
							"type": "address"
						},
						{
							"internalType": "uint256",
							"name": "deadline",
							"type": "uint256"
						}
					],
					"name": "removeLiquidity",
					"outputs": [
						{
							"internalType": "uint256",
							"name": "amountA",
							"type": "uint256"
						},
						{
							"internalType": "uint256",
							"name": "amountB",
							"type": "uint256"
						}
					],
					"stateMutability": "nonpayable",
					"type": "function"
				},
				{
					"inputs": [
						{
							"internalType": "uint256",
							"name": "amountIn",
							"type": "uint256"
						},
						{
							"internalType": "uint256",
							"name": "amountOutMin",
							"type": "uint256"
						},
						{
							"internalType": "address[]",
							"name": "path",
							"type": "address[]"
						},
						{
							"internalType": "address",
							"name": "to",
							"type": "address"
						},
						{
							"internalType": "uint256",
							"name": "deadline",
							"type": "uint256"
						}
					],
					"name": "swapExactTokensForTokens",
					"outputs": [
						{
							"internalType": "uint256[]",
							"name": "amounts",
							"type": "uint256[]"
						}
					],
					"stateMutability": "nonpayable",
					"type": "function"
				}
			],
			"devdoc": {
				"errors": {
					"SafeERC20FailedOperation(address)": [
						{
							"details": "An operation with an ERC-20 token failed."
						}
					]
				},
				"kind": "dev",
				"methods": {},
				"version": 1
			},
			"evm": {
				"assembly": "    /* \"simpleswap.sol\":252:7425  contract SimpleSwap is ReentrancyGuard {... */\n  0x80\n  dup1\n  0x40\n  mstore\n  jumpi(tag_1, callvalue)\n    /* \"@openzeppelin/contracts/security/ReentrancyGuard.sol\":1716:1717  1 */\n  0x01\n    /* \"@openzeppelin/contracts/security/ReentrancyGuard.sol\":1821:1843  _status = _NOT_ENTERED */\n  0x00\n    /* \"@openzeppelin/contracts/security/ReentrancyGuard.sol\":1716:1717  1 */\n  sstore\n    /* \"simpleswap.sol\":252:7425  contract SimpleSwap is ReentrancyGuard {... */\n  dataSize(sub_0)\n  swap1\n  dup2\n  dataOffset(sub_0)\n  dup3\n  codecopy\n  return\ntag_1:\n  0x00\n  dup1\n  revert\nstop\n\nsub_0: assembly {\n        /* \"simpleswap.sol\":252:7425  contract SimpleSwap is ReentrancyGuard {... */\n      mstore(0x40, 0x80)\n      jumpi(tag_19, iszero(lt(calldatasize, 0x04)))\n      0x00\n      dup1\n      revert\n    tag_19:\n      shr(0xe0, calldataload(0x00))\n      dup1\n      0x38ed1739\n      eq\n      tag_21\n      jumpi\n      dup1\n      0x75bb9b63\n      eq\n      tag_23\n      jumpi\n      dup1\n      0xbaa2abde\n      eq\n      tag_25\n      jumpi\n      dup1\n      0xd52bb6f4\n      eq\n      tag_27\n      jumpi\n      0xe8e33700\n      eq\n      tag_29\n      jumpi\n      0x00\n      dup1\n      revert\n    tag_29:\n      jumpi(tag_37, callvalue)\n      jumpi(tag_37, slt(add(not(0x03), calldatasize), 0x0100))\n      tag_35\n      tag_1\n      jump\t// in\n    tag_35:\n      tag_36\n      tag_2\n      jump\t// in\n    tag_36:\n      swap1\n      calldataload(0x44)\n      calldataload(0x64)\n      calldataload(0xc4)\n      sub(shl(0xa0, 0x01), 0x01)\n      dup2\n      and\n      swap1\n      dup2\n      swap1\n      sub\n      tag_37\n      jumpi\n        /* \"@openzeppelin/contracts/security/ReentrancyGuard.sol\":2227:2330  modifier nonReentrant() {... */\n      tag_39\n      tag_14\n      jump\t// in\n    tag_39:\n        /* \"simpleswap.sol\":252:7425  contract SimpleSwap is ReentrancyGuard {... */\n      calldataload(0xe4)\n        /* \"simpleswap.sol\":2135:2150  block.timestamp */\n      timestamp\n        /* \"simpleswap.sol\":2135:2162  block.timestamp <= deadline */\n      gt\n        /* \"simpleswap.sol\":252:7425  contract SimpleSwap is ReentrancyGuard {... */\n      tag_40\n      jumpi\n        /* \"simpleswap.sol\":2218:2245  _sortTokens(tokenA, tokenB) */\n      tag_42\n      dup6\n      dup6\n      tag_15\n      jump\t// in\n    tag_42:\n        /* \"simpleswap.sol\":252:7425  contract SimpleSwap is ReentrancyGuard {... */\n      swap1\n      0x01\n      dup1\n      0xa0\n      shl\n      sub\n      and\n      dup1\n      0x00\n      mstore\n      mstore(0x20, 0x01)\n      keccak256(0x00, 0x40)\n      0x01\n      dup1\n      0xa0\n      shl\n      sub\n      dup4\n      and\n      0x00\n      mstore\n      0x20\n      mstore\n      keccak256(0x00, 0x40)\n      swap5\n      tag_43\n      dup7\n      tag_11\n      jump\t// in\n    tag_43:\n      swap5\n      sub(shl(0x80, 0x01), 0x01)\n      dup7\n      mload\n      and\n        /* \"simpleswap.sol\":2359:2374  r.reserve0 == 0 */\n      iszero\n        /* \"simpleswap.sol\":2359:2393  r.reserve0 == 0 && r.reserve1 == 0 */\n      dup1\n      tag_44\n      jumpi\n        /* \"simpleswap.sol\":252:7425  contract SimpleSwap is ReentrancyGuard {... */\n    tag_45:\n        /* \"simpleswap.sol\":2355:3025  if (r.reserve0 == 0 && r.reserve1 == 0) {... */\n      iszero\n      tag_46\n      jumpi\n        /* \"simpleswap.sol\":2410:2463  (amountA, amountB) = (amountADesired, amountBDesired) */\n      swap1\n        /* \"simpleswap.sol\":3096:3103  amountA */\n      tag_50\n        /* \"simpleswap.sol\":2410:2463  (amountA, amountB) = (amountADesired, amountBDesired) */\n      swap9\n        /* \"simpleswap.sol\":3174:3181  amountB */\n      tag_49\n        /* \"simpleswap.sol\":2410:2463  (amountA, amountB) = (amountADesired, amountBDesired) */\n      swap3\n      swap10\n      dup11\n      swap3\n        /* \"simpleswap.sol\":2355:3025  if (r.reserve0 == 0 && r.reserve1 == 0) {... */\n      dup1\n      swap11\n    tag_50:\n        /* \"simpleswap.sol\":3089:3093  this */\n      address\n      swap1\n        /* \"simpleswap.sol\":3069:3079  msg.sender */\n      caller\n      swap1\n      sub(shl(0xa0, 0x01), 0x01)\n        /* \"simpleswap.sol\":252:7425  contract SimpleSwap is ReentrancyGuard {... */\n      and\n        /* \"simpleswap.sol\":3096:3103  amountA */\n      tag_16\n      jump\t// in\n        /* \"simpleswap.sol\":3174:3181  amountB */\n    tag_49:\n        /* \"simpleswap.sol\":252:7425  contract SimpleSwap is ReentrancyGuard {... */\n      0x01\n        /* \"simpleswap.sol\":3207:3223  pair.totalSupply */\n      dup6\n      add\n        /* \"simpleswap.sol\":252:7425  contract SimpleSwap is ReentrancyGuard {... */\n      swap4\n      dup5\n      sload\n        /* \"simpleswap.sol\":3207:3361  pair.totalSupply == 0 ? _sqrt(amountA * amountB)... */\n      swap6\n        /* \"simpleswap.sol\":3207:3228  pair.totalSupply == 0 */\n      dup7\n      iszero\n        /* \"simpleswap.sol\":3207:3361  pair.totalSupply == 0 ? _sqrt(amountA * amountB)... */\n      0x00\n        /* \"simpleswap.sol\":3207:3228  pair.totalSupply == 0 */\n      eq\n      tag_51\n      jumpi\n        /* \"simpleswap.sol\":3237:3254  amountA * amountB */\n      tag_53\n      dup10\n      dup10\n      tag_12\n      jump\t// in\n    tag_53:\n        /* \"simpleswap.sol\":252:7425  contract SimpleSwap is ReentrancyGuard {... */\n      0x00\n        /* \"simpleswap.sol\":7186:7187  3 */\n      0x03\n        /* \"simpleswap.sol\":7182:7187  y > 3 */\n      dup3\n      gt\n        /* \"simpleswap.sol\":7186:7187  3 */\n      iszero\n      tag_54\n      jumpi\n        /* \"simpleswap.sol\":7204:7209  z = y */\n      pop\n      dup1\n        /* \"simpleswap.sol\":252:7425  contract SimpleSwap is ReentrancyGuard {... */\n      dup1\n      0x01\n      shr\n      0x01\n      dup2\n      add\n      dup1\n      swap2\n      gt\n      tag_56\n      jumpi\n        /* \"simpleswap.sol\":7262:7354  while (x < z) {... */\n      swap1\n        /* \"simpleswap.sol\":7269:7274  x < z */\n    tag_58:\n      dup3\n      dup3\n      lt\n      tag_59\n      jumpi\n        /* \"simpleswap.sol\":7178:7415  if (y > 3) {... */\n      pop\n      pop\n    tag_61:\n        /* \"simpleswap.sol\":3207:3361  pair.totalSupply == 0 ? _sqrt(amountA * amountB)... */\n      swap6\n    tag_62:\n        /* \"simpleswap.sol\":3382:3395  liquidity > 0 */\n      dup7\n      iszero\n        /* \"simpleswap.sol\":252:7425  contract SimpleSwap is ReentrancyGuard {... */\n      tag_63\n      jumpi\n        /* \"simpleswap.sol\":3551:3580  pair.totalSupply += liquidity */\n      tag_65\n        /* \"simpleswap.sol\":252:7425  contract SimpleSwap is ReentrancyGuard {... */\n      dup8\n      tag_66\n      swap10\n      dup6\n        /* \"simpleswap.sol\":3508:3528  r.reserve1 + amountB */\n      tag_67\n        /* \"simpleswap.sol\":252:7425  contract SimpleSwap is ReentrancyGuard {... */\n      dup15\n      sub(shl(0x80, 0x01), 0x01)\n      dup16\n      dup2\n        /* \"simpleswap.sol\":3464:3484  r.reserve0 + amountA */\n      tag_68\n        /* \"simpleswap.sol\":252:7425  contract SimpleSwap is ReentrancyGuard {... */\n      0x20\n      swap3\n      dup3\n        /* \"simpleswap.sol\":3591:3604  pair.balances */\n      0x02\n        /* \"simpleswap.sol\":252:7425  contract SimpleSwap is ReentrancyGuard {... */\n      swap15\n      mload\n      and\n        /* \"simpleswap.sol\":3464:3484  r.reserve0 + amountA */\n      tag_8\n      jump\t// in\n    tag_68:\n        /* \"simpleswap.sol\":252:7425  contract SimpleSwap is ReentrancyGuard {... */\n      and\n        /* \"simpleswap.sol\":3508:3518  r.reserve1 */\n      swap5\n      add\n        /* \"simpleswap.sol\":252:7425  contract SimpleSwap is ReentrancyGuard {... */\n      mload\n      and\n        /* \"simpleswap.sol\":3508:3528  r.reserve1 + amountB */\n      tag_8\n      jump\t// in\n    tag_67:\n        /* \"simpleswap.sol\":252:7425  contract SimpleSwap is ReentrancyGuard {... */\n      mload(0x40)\n      tag_69\n      dup2\n      tag_9\n      jump\t// in\n    tag_69:\n      dup3\n      dup2\n      mstore\n      sub(shl(0x80, 0x01), 0x01)\n      dup3\n      and\n      0x20\n        /* \"simpleswap.sol\":3433:3540  Reserves(... */\n      swap1\n      swap2\n      add\n        /* \"simpleswap.sol\":252:7425  contract SimpleSwap is ReentrancyGuard {... */\n      mstore\n      0x80\n      shl\n      not(sub(shl(0x80, 0x01), 0x01))\n      and\n      or\n      dup6\n      sstore\n        /* \"simpleswap.sol\":3551:3580  pair.totalSupply += liquidity */\n      tag_8\n      jump\t// in\n    tag_65:\n        /* \"simpleswap.sol\":252:7425  contract SimpleSwap is ReentrancyGuard {... */\n      swap1\n      sstore\n      dup5\n      0x00\n      mstore\n        /* \"simpleswap.sol\":3591:3604  pair.balances */\n      add\n        /* \"simpleswap.sol\":252:7425  contract SimpleSwap is ReentrancyGuard {... */\n      0x20\n      mstore\n      keccak256(0x00, 0x40)\n        /* \"simpleswap.sol\":3591:3621  pair.balances[to] += liquidity */\n      tag_70\n        /* \"simpleswap.sol\":252:7425  contract SimpleSwap is ReentrancyGuard {... */\n      dup6\n      dup3\n      sload\n        /* \"simpleswap.sol\":3591:3621  pair.balances[to] += liquidity */\n      tag_8\n      jump\t// in\n    tag_70:\n        /* \"simpleswap.sol\":252:7425  contract SimpleSwap is ReentrancyGuard {... */\n      swap1\n      sstore\n      0x40\n      dup1\n      mload\n      dup8\n      dup2\n      mstore\n      0x20\n      dup2\n      add\n      dup10\n      swap1\n      mstore\n      swap1\n      dup2\n      add\n      dup6\n      swap1\n      mstore\n      sub(shl(0xa0, 0x01), 0x01)\n      swap3\n      swap1\n      swap3\n      and\n      swap2\n        /* \"simpleswap.sol\":3639:3702  LiquidityAdded(token0, token1, to, amountA, amountB, liquidity) */\n      0x43c967b388d3a4ccad3f7ab80167852e322e5a3fde9893f530252281b2ae8b70\n      swap1\n        /* \"simpleswap.sol\":252:7425  contract SimpleSwap is ReentrancyGuard {... */\n      0x60\n      swap1\n        /* \"simpleswap.sol\":3639:3702  LiquidityAdded(token0, token1, to, amountA, amountB, liquidity) */\n      log4\n        /* \"simpleswap.sol\":252:7425  contract SimpleSwap is ReentrancyGuard {... */\n      sstore(0x00, 0x01)\n      mload(0x40)\n      swap4\n      dup5\n      swap4\n      dup5\n      0x40\n      swap2\n      swap5\n      swap4\n      swap3\n      0x60\n      dup3\n      add\n      swap6\n      dup3\n      mstore\n      0x20\n      dup3\n      add\n      mstore\n      add\n      mstore\n      jump\n    tag_66:\n      sub\n      swap1\n      return\n    tag_63:\n      0x64\n      mload(0x40)\n      shl(0xe5, 0x461bcd)\n      dup2\n      mstore\n      0x20\n      0x04\n      dup3\n      add\n      mstore\n      0x04\n      0x24\n      dup3\n      add\n      mstore\n      shl(0xe4, 0x06c69713)\n      0x44\n      dup3\n      add\n      mstore\n      revert\n        /* \"simpleswap.sol\":7262:7354  while (x < z) {... */\n    tag_59:\n        /* \"simpleswap.sol\":7295:7300  z = x */\n      swap1\n      swap2\n      pop\n        /* \"simpleswap.sol\":7324:7333  y / x + x */\n      tag_72\n        /* \"simpleswap.sol\":7295:7300  z = x */\n      dup3\n        /* \"simpleswap.sol\":7324:7329  y / x */\n      tag_73\n      dup2\n      dup5\n      tag_13\n      jump\t// in\n    tag_73:\n        /* \"simpleswap.sol\":7324:7333  y / x + x */\n      tag_8\n      jump\t// in\n    tag_72:\n        /* \"simpleswap.sol\":252:7425  contract SimpleSwap is ReentrancyGuard {... */\n      0x01\n      shr\n        /* \"simpleswap.sol\":7262:7354  while (x < z) {... */\n      swap1\n      jump(tag_58)\n        /* \"simpleswap.sol\":252:7425  contract SimpleSwap is ReentrancyGuard {... */\n    tag_56:\n      mstore(0x00, shl(0xe0, 0x4e487b71))\n      mstore(0x04, 0x11)\n      revert(0x00, 0x24)\n        /* \"simpleswap.sol\":7178:7415  if (y > 3) {... */\n    tag_54:\n        /* \"simpleswap.sol\":7375:7381  y != 0 */\n      swap1\n        /* \"simpleswap.sol\":7371:7415  if (y != 0) {... */\n      iszero\n        /* \"simpleswap.sol\":7178:7415  if (y > 3) {... */\n      tag_61\n        /* \"simpleswap.sol\":7371:7415  if (y != 0) {... */\n      jumpi\n        /* \"simpleswap.sol\":7398:7403  z = 1 */\n      pop\n        /* \"simpleswap.sol\":252:7425  contract SimpleSwap is ReentrancyGuard {... */\n      0x01\n        /* \"simpleswap.sol\":7178:7415  if (y > 3) {... */\n      jump(tag_61)\n        /* \"simpleswap.sol\":3207:3361  pair.totalSupply == 0 ? _sqrt(amountA * amountB)... */\n    tag_51:\n        /* \"simpleswap.sol\":3276:3317  (amountA * pair.totalSupply) / r.reserve0 */\n      tag_76\n        /* \"simpleswap.sol\":3277:3303  amountA * pair.totalSupply */\n      tag_77\n      dup9\n      dup11\n      tag_12\n      jump\t// in\n    tag_77:\n      sub(shl(0x80, 0x01), 0x01)\n        /* \"simpleswap.sol\":252:7425  contract SimpleSwap is ReentrancyGuard {... */\n      dup5\n      mload\n      and\n        /* \"simpleswap.sol\":3276:3317  (amountA * pair.totalSupply) / r.reserve0 */\n      swap1\n      tag_13\n      jump\t// in\n    tag_76:\n        /* \"simpleswap.sol\":3319:3360  (amountB * pair.totalSupply) / r.reserve1 */\n      tag_78\n        /* \"simpleswap.sol\":3320:3346  amountB * pair.totalSupply */\n      tag_79\n      dup10\n      dup13\n      tag_12\n      jump\t// in\n    tag_79:\n      sub(shl(0x80, 0x01), 0x01)\n        /* \"simpleswap.sol\":252:7425  contract SimpleSwap is ReentrancyGuard {... */\n      0x20\n        /* \"simpleswap.sol\":3350:3360  r.reserve1 */\n      dup7\n      add\n        /* \"simpleswap.sol\":252:7425  contract SimpleSwap is ReentrancyGuard {... */\n      mload\n      and\n        /* \"simpleswap.sol\":3319:3360  (amountB * pair.totalSupply) / r.reserve1 */\n      swap1\n      tag_13\n      jump\t// in\n    tag_78:\n        /* \"simpleswap.sol\":7078:7083  a < b */\n      dup1\n      dup3\n      lt\n      iszero\n      tag_80\n      jumpi\n        /* \"simpleswap.sol\":7078:7091  a < b ? a : b */\n      pop\n    tag_82:\n        /* \"simpleswap.sol\":3207:3361  pair.totalSupply == 0 ? _sqrt(amountA * amountB)... */\n      swap6\n      jump(tag_62)\n        /* \"simpleswap.sol\":7078:7091  a < b ? a : b */\n    tag_80:\n      swap1\n      pop\n      jump(tag_82)\n        /* \"simpleswap.sol\":2355:3025  if (r.reserve0 == 0 && r.reserve1 == 0) {... */\n    tag_46:\n        /* \"simpleswap.sol\":2539:2549  r.reserve1 */\n      swap1\n        /* \"simpleswap.sol\":252:7425  contract SimpleSwap is ReentrancyGuard {... */\n      0x20\n        /* \"simpleswap.sol\":2539:2549  r.reserve1 */\n      dup7\n      add\n        /* \"simpleswap.sol\":252:7425  contract SimpleSwap is ReentrancyGuard {... */\n      swap2\n        /* \"simpleswap.sol\":2521:2563  (amountADesired * r.reserve1) / r.reserve0 */\n      tag_83\n        /* \"simpleswap.sol\":2522:2549  amountADesired * r.reserve1 */\n      tag_84\n      sub(shl(0x80, 0x01), 0x01)\n        /* \"simpleswap.sol\":252:7425  contract SimpleSwap is ReentrancyGuard {... */\n      dup6\n      mload\n      and\n        /* \"simpleswap.sol\":2522:2549  amountADesired * r.reserve1 */\n      dup5\n      tag_12\n      jump\t// in\n    tag_84:\n      sub(shl(0x80, 0x01), 0x01)\n        /* \"simpleswap.sol\":252:7425  contract SimpleSwap is ReentrancyGuard {... */\n      dup10\n      mload\n      and\n        /* \"simpleswap.sol\":2521:2563  (amountADesired * r.reserve1) / r.reserve0 */\n      swap1\n      tag_13\n      jump\t// in\n    tag_83:\n        /* \"simpleswap.sol\":2582:2614  amountBOptimal <= amountBDesired */\n      swap3\n      dup2\n      dup5\n      gt\n      tag_85\n      jumpi\n        /* \"simpleswap.sol\":252:7425  contract SimpleSwap is ReentrancyGuard {... */\n      pop\n      pop\n      calldataload(0xa4)\n        /* \"simpleswap.sol\":2643:2671  amountBOptimal >= amountBMin */\n      dup3\n      lt\n        /* \"simpleswap.sol\":252:7425  contract SimpleSwap is ReentrancyGuard {... */\n      tag_87\n      jumpi\n        /* \"simpleswap.sol\":3096:3103  amountA */\n      tag_50\n        /* \"simpleswap.sol\":2700:2753  (amountA, amountB) = (amountADesired, amountBOptimal) */\n      swap9\n        /* \"simpleswap.sol\":3174:3181  amountB */\n      tag_49\n        /* \"simpleswap.sol\":2700:2753  (amountA, amountB) = (amountADesired, amountBOptimal) */\n      swap3\n      swap10\n      dup11\n      swap3\n        /* \"simpleswap.sol\":2578:3014  if (amountBOptimal <= amountBDesired) {... */\n      dup1\n      swap11\n        /* \"simpleswap.sol\":2355:3025  if (r.reserve0 == 0 && r.reserve1 == 0) {... */\n      jump(tag_50)\n        /* \"simpleswap.sol\":252:7425  contract SimpleSwap is ReentrancyGuard {... */\n    tag_87:\n      mload(0x40)\n      shl(0xe5, 0x461bcd)\n      dup2\n      mstore\n      0x20\n      0x04\n      dup3\n      add\n      mstore\n      0x05\n      0x24\n      dup3\n      add\n      mstore\n      shl(0xd9, 0x39b634b821)\n      0x44\n      dup3\n      add\n      mstore\n      0x64\n      swap1\n      revert\n        /* \"simpleswap.sol\":2578:3014  if (amountBOptimal <= amountBDesired) {... */\n    tag_85:\n        /* \"simpleswap.sol\":252:7425  contract SimpleSwap is ReentrancyGuard {... */\n      swap1\n      swap3\n      pop\n        /* \"simpleswap.sol\":2819:2861  (amountBDesired * r.reserve0) / r.reserve1 */\n      tag_90\n        /* \"simpleswap.sol\":252:7425  contract SimpleSwap is ReentrancyGuard {... */\n      swap2\n      pop\n      sub(shl(0x80, 0x01), 0x01)\n        /* \"simpleswap.sol\":2820:2847  amountBDesired * r.reserve0 */\n      tag_91\n        /* \"simpleswap.sol\":252:7425  contract SimpleSwap is ReentrancyGuard {... */\n      dup2\n      dup10\n      mload\n      and\n        /* \"simpleswap.sol\":2820:2847  amountBDesired * r.reserve0 */\n      dup6\n      tag_12\n      jump\t// in\n    tag_91:\n        /* \"simpleswap.sol\":252:7425  contract SimpleSwap is ReentrancyGuard {... */\n      swap2\n      mload\n      and\n        /* \"simpleswap.sol\":2819:2861  (amountBDesired * r.reserve0) / r.reserve1 */\n      swap1\n      tag_13\n      jump\t// in\n    tag_90:\n        /* \"simpleswap.sol\":252:7425  contract SimpleSwap is ReentrancyGuard {... */\n      calldataload(0x84)\n        /* \"simpleswap.sol\":2888:2916  amountAOptimal >= amountAMin */\n      dup2\n      lt\n        /* \"simpleswap.sol\":252:7425  contract SimpleSwap is ReentrancyGuard {... */\n      tag_92\n      jumpi\n        /* \"simpleswap.sol\":3096:3103  amountA */\n      tag_50\n        /* \"simpleswap.sol\":2945:2998  (amountA, amountB) = (amountAOptimal, amountBDesired) */\n      swap9\n        /* \"simpleswap.sol\":3174:3181  amountB */\n      tag_49\n        /* \"simpleswap.sol\":2945:2998  (amountA, amountB) = (amountAOptimal, amountBDesired) */\n      swap3\n      swap10\n      dup11\n      swap3\n        /* \"simpleswap.sol\":2578:3014  if (amountBOptimal <= amountBDesired) {... */\n      dup1\n      swap11\n        /* \"simpleswap.sol\":2355:3025  if (r.reserve0 == 0 && r.reserve1 == 0) {... */\n      jump(tag_50)\n        /* \"simpleswap.sol\":252:7425  contract SimpleSwap is ReentrancyGuard {... */\n    tag_92:\n      mload(0x40)\n      shl(0xe5, 0x461bcd)\n      dup2\n      mstore\n      0x20\n      0x04\n      dup3\n      add\n      mstore\n      0x05\n      0x24\n      dup3\n      add\n      mstore\n      shl(0xd8, 0x736c697041)\n      0x44\n      dup3\n      add\n      mstore\n      0x64\n      swap1\n      revert\n        /* \"simpleswap.sol\":2359:2393  r.reserve0 == 0 && r.reserve1 == 0 */\n    tag_44:\n        /* \"simpleswap.sol\":2378:2388  r.reserve1 */\n      pop\n      sub(shl(0x80, 0x01), 0x01)\n        /* \"simpleswap.sol\":252:7425  contract SimpleSwap is ReentrancyGuard {... */\n      0x20\n        /* \"simpleswap.sol\":2378:2388  r.reserve1 */\n      dup8\n      add\n        /* \"simpleswap.sol\":252:7425  contract SimpleSwap is ReentrancyGuard {... */\n      mload\n      and\n        /* \"simpleswap.sol\":2378:2393  r.reserve1 == 0 */\n      iszero\n        /* \"simpleswap.sol\":2359:2393  r.reserve0 == 0 && r.reserve1 == 0 */\n      jump(tag_45)\n        /* \"simpleswap.sol\":252:7425  contract SimpleSwap is ReentrancyGuard {... */\n    tag_40:\n      mload(0x40)\n      shl(0xe5, 0x461bcd)\n      dup2\n      mstore\n      0x20\n      0x04\n      dup3\n      add\n      mstore\n      0x03\n      0x24\n      dup3\n      add\n      mstore\n      shl(0xec, 0x065787)\n      0x44\n      dup3\n      add\n      mstore\n      0x64\n      swap1\n      revert\n    tag_37:\n      0x00\n      dup1\n      revert\n    tag_27:\n      jumpi(tag_37, callvalue)\n      jumpi(tag_37, slt(add(not(0x03), calldatasize), 0x40))\n      0x40\n      tag_98\n      tag_1\n      jump\t// in\n    tag_98:\n        /* \"simpleswap.sol\":1572:1599  _sortTokens(tokenA, tokenB) */\n      tag_99\n        /* \"simpleswap.sol\":252:7425  contract SimpleSwap is ReentrancyGuard {... */\n      tag_100\n      tag_2\n      jump\t// in\n    tag_100:\n        /* \"simpleswap.sol\":1572:1599  _sortTokens(tokenA, tokenB) */\n      dup3\n      tag_15\n      jump\t// in\n    tag_99:\n        /* \"simpleswap.sol\":252:7425  contract SimpleSwap is ReentrancyGuard {... */\n      swap1\n      0x01\n      dup1\n      0xa0\n      shl\n      sub\n      and\n      swap1\n      dup2\n      0x00\n      mstore\n        /* \"simpleswap.sol\":1630:1636  _pairs */\n      0x01\n        /* \"simpleswap.sol\":252:7425  contract SimpleSwap is ReentrancyGuard {... */\n      0x20\n      mstore\n      dup4\n      0x00\n      keccak256\n        /* \"simpleswap.sol\":1630:1652  _pairs[token0][token1] */\n      swap1\n        /* \"simpleswap.sol\":252:7425  contract SimpleSwap is ReentrancyGuard {... */\n      0x01\n      dup1\n      0xa0\n      shl\n      sub\n      and\n      0x00\n      mstore\n      0x20\n      mstore\n      tag_101\n      dup4\n      0x00\n      keccak256\n      tag_11\n      jump\t// in\n    tag_101:\n        /* \"simpleswap.sol\":1695:1765  tokenA == token0 ? (r.reserve0, r.reserve1) : (r.reserve1, r.reserve0) */\n      swap2\n      sub(shl(0xa0, 0x01), 0x01)\n        /* \"simpleswap.sol\":252:7425  contract SimpleSwap is ReentrancyGuard {... */\n      and\n        /* \"simpleswap.sol\":1695:1711  tokenA == token0 */\n      sub\n        /* \"simpleswap.sol\":252:7425  contract SimpleSwap is ReentrancyGuard {... */\n      tag_102\n      jumpi\n      sub(shl(0x80, 0x01), 0x01)\n      dup1\n      0x20\n      dup2\n      dup5\n      mload\n      and\n        /* \"simpleswap.sol\":1727:1737  r.reserve1 */\n      swap4\n      add\n        /* \"simpleswap.sol\":252:7425  contract SimpleSwap is ReentrancyGuard {... */\n      mload\n      and\n        /* \"simpleswap.sol\":1695:1765  tokenA == token0 ? (r.reserve0, r.reserve1) : (r.reserve1, r.reserve0) */\n    tag_104:\n        /* \"simpleswap.sol\":252:7425  contract SimpleSwap is ReentrancyGuard {... */\n      dup2\n      dup5\n      mload\n      swap4\n      and\n      dup4\n      mstore\n      and\n      0x20\n      dup3\n      add\n      mstore\n      return\n        /* \"simpleswap.sol\":1695:1765  tokenA == token0 ? (r.reserve0, r.reserve1) : (r.reserve1, r.reserve0) */\n    tag_102:\n      sub(shl(0x80, 0x01), 0x01)\n        /* \"simpleswap.sol\":1742:1752  r.reserve1 */\n      dup1\n      dup1\n        /* \"simpleswap.sol\":252:7425  contract SimpleSwap is ReentrancyGuard {... */\n      0x20\n        /* \"simpleswap.sol\":1742:1752  r.reserve1 */\n      dup5\n      add\n        /* \"simpleswap.sol\":252:7425  contract SimpleSwap is ReentrancyGuard {... */\n      mload\n      and\n      swap3\n      mload\n      and\n        /* \"simpleswap.sol\":1695:1765  tokenA == token0 ? (r.reserve0, r.reserve1) : (r.reserve1, r.reserve0) */\n      jump(tag_104)\n        /* \"simpleswap.sol\":252:7425  contract SimpleSwap is ReentrancyGuard {... */\n    tag_25:\n      jumpi(tag_37, callvalue)\n      jumpi(tag_37, slt(add(not(0x03), calldatasize), 0xe0))\n      tag_109\n      tag_1\n      jump\t// in\n    tag_109:\n      tag_110\n      tag_2\n      jump\t// in\n    tag_110:\n      swap1\n      calldataload(0xa4)\n      sub(shl(0xa0, 0x01), 0x01)\n      dup2\n      and\n      dup2\n      sub\n      tag_37\n      jumpi\n        /* \"@openzeppelin/contracts/security/ReentrancyGuard.sol\":2227:2330  modifier nonReentrant() {... */\n      tag_113\n      tag_14\n      jump\t// in\n    tag_113:\n        /* \"simpleswap.sol\":252:7425  contract SimpleSwap is ReentrancyGuard {... */\n      calldataload(0xc4)\n        /* \"simpleswap.sol\":4018:4033  block.timestamp */\n      timestamp\n        /* \"simpleswap.sol\":4018:4045  block.timestamp <= deadline */\n      gt\n      iszero\n        /* \"simpleswap.sol\":4018:4062  block.timestamp <= deadline && liquidity > 0 */\n      dup1\n      tag_114\n      jumpi\n        /* \"simpleswap.sol\":252:7425  contract SimpleSwap is ReentrancyGuard {... */\n    tag_115:\n        /* \"simpleswap.sol\":4010:4070  require(block.timestamp <= deadline && liquidity > 0, \"inv\") */\n      tag_116\n      swap1\n      tag_4\n      jump\t// in\n    tag_116:\n        /* \"simpleswap.sol\":4118:4145  _sortTokens(tokenA, tokenB) */\n      tag_117\n      dup4\n      dup4\n      tag_15\n      jump\t// in\n    tag_117:\n      sub(shl(0xa0, 0x01), 0x01)\n        /* \"simpleswap.sol\":252:7425  contract SimpleSwap is ReentrancyGuard {... */\n      dup1\n      dup4\n      and\n      0x00\n      swap1\n      dup2\n      mstore\n      0x01\n      0x20\n      swap1\n      dup2\n      mstore\n      0x40\n      dup1\n      dup4\n      keccak256\n      swap4\n      dup6\n      and\n      dup4\n      mstore\n      swap3\n      dup2\n      mstore\n      dup3\n      dup3\n      keccak256\n        /* \"simpleswap.sol\":4231:4241  msg.sender */\n      caller\n        /* \"simpleswap.sol\":252:7425  contract SimpleSwap is ReentrancyGuard {... */\n      dup4\n      mstore\n        /* \"simpleswap.sol\":4217:4230  pair.balances */\n      0x02\n      dup2\n      add\n        /* \"simpleswap.sol\":252:7425  contract SimpleSwap is ReentrancyGuard {... */\n      swap1\n      swap2\n      mstore\n      swap2\n      swap1\n      keccak256\n      sload\n      swap1\n      swap6\n      swap2\n      swap3\n      swap2\n        /* \"simpleswap.sol\":4217:4242  pair.balances[msg.sender] */\n      swap1\n        /* \"simpleswap.sol\":252:7425  contract SimpleSwap is ReentrancyGuard {... */\n      calldataload(0x44)\n      gt\n      tag_118\n      jumpi\n      tag_120\n      dup7\n      tag_11\n      jump\t// in\n    tag_120:\n        /* \"simpleswap.sol\":4337:4353  pair.totalSupply */\n      swap5\n      dup5\n        /* \"simpleswap.sol\":252:7425  contract SimpleSwap is ReentrancyGuard {... */\n      0x01\n        /* \"simpleswap.sol\":4337:4353  pair.totalSupply */\n      dup9\n      add\n        /* \"simpleswap.sol\":252:7425  contract SimpleSwap is ReentrancyGuard {... */\n      sload\n      swap3\n      dup4\n      dup9\n      mload\n      sub(shl(0x80, 0x01), 0x01)\n      and\n      calldataload(0x44)\n        /* \"simpleswap.sol\":4377:4399  liquidity * r.reserve0 */\n      swap1\n      tag_121\n      swap2\n      tag_12\n      jump\t// in\n    tag_121:\n        /* \"simpleswap.sol\":4376:4409  (liquidity * r.reserve0) / supply */\n      swap1\n      tag_122\n      swap2\n      tag_13\n      jump\t// in\n    tag_122:\n        /* \"simpleswap.sol\":4443:4453  r.reserve1 */\n      swap8\n      dup9\n      dup6\n        /* \"simpleswap.sol\":252:7425  contract SimpleSwap is ReentrancyGuard {... */\n      0x20\n        /* \"simpleswap.sol\":4443:4453  r.reserve1 */\n      dup4\n      add\n        /* \"simpleswap.sol\":252:7425  contract SimpleSwap is ReentrancyGuard {... */\n      mload\n      sub(shl(0x80, 0x01), 0x01)\n      and\n      calldataload(0x44)\n        /* \"simpleswap.sol\":4431:4453  liquidity * r.reserve1 */\n      swap1\n      tag_123\n      swap2\n      tag_12\n      jump\t// in\n    tag_123:\n        /* \"simpleswap.sol\":4430:4463  (liquidity * r.reserve1) / supply */\n      swap1\n      tag_124\n      swap2\n      tag_13\n      jump\t// in\n    tag_124:\n        /* \"simpleswap.sol\":252:7425  contract SimpleSwap is ReentrancyGuard {... */\n      swap9\n      dup10\n      swap6\n      calldataload(0x64)\n        /* \"simpleswap.sol\":4484:4505  amountA >= amountAMin */\n      dup4\n      lt\n      iszero\n        /* \"simpleswap.sol\":252:7425  contract SimpleSwap is ReentrancyGuard {... */\n      0x40\n        /* \"simpleswap.sol\":4484:4530  amountA >= amountAMin && amountB >= amountBMin */\n      swap14\n        /* \"simpleswap.sol\":4686:4715  pair.totalSupply -= liquidity */\n      tag_125\n        /* \"simpleswap.sol\":4860:4867  amountB */\n      tag_126\n        /* \"simpleswap.sol\":4484:4530  amountA >= amountAMin && amountB >= amountBMin */\n      swap11\n        /* \"simpleswap.sol\":4809:4816  amountA */\n      tag_127\n        /* \"simpleswap.sol\":4484:4530  amountA >= amountAMin && amountB >= amountBMin */\n      swap8\n      dup5\n        /* \"simpleswap.sol\":4217:4230  pair.balances */\n      0x02\n        /* \"simpleswap.sol\":4484:4530  amountA >= amountAMin && amountB >= amountBMin */\n      swap6\n      tag_128\n      jumpi\n        /* \"simpleswap.sol\":252:7425  contract SimpleSwap is ReentrancyGuard {... */\n    tag_129:\n        /* \"simpleswap.sol\":4476:4539  require(amountA >= amountAMin && amountB >= amountBMin, \"slip\") */\n      tag_130\n      swap1\n      tag_6\n      jump\t// in\n    tag_130:\n        /* \"simpleswap.sol\":4643:4663  r.reserve1 - amountB */\n      tag_131\n        /* \"simpleswap.sol\":252:7425  contract SimpleSwap is ReentrancyGuard {... */\n      dup13\n      sub(shl(0x80, 0x01), 0x01)\n      0x20\n      dup2\n        /* \"simpleswap.sol\":4599:4619  r.reserve0 - amountA */\n      tag_132\n        /* \"simpleswap.sol\":252:7425  contract SimpleSwap is ReentrancyGuard {... */\n      dup14\n      dup3\n      dup9\n      mload\n      and\n        /* \"simpleswap.sol\":4599:4619  r.reserve0 - amountA */\n      tag_7\n      jump\t// in\n    tag_132:\n        /* \"simpleswap.sol\":252:7425  contract SimpleSwap is ReentrancyGuard {... */\n      and\n        /* \"simpleswap.sol\":4443:4453  r.reserve1 */\n      swap5\n      add\n        /* \"simpleswap.sol\":252:7425  contract SimpleSwap is ReentrancyGuard {... */\n      mload\n      and\n        /* \"simpleswap.sol\":4643:4663  r.reserve1 - amountB */\n      tag_7\n      jump\t// in\n    tag_131:\n        /* \"simpleswap.sol\":252:7425  contract SimpleSwap is ReentrancyGuard {... */\n      mload(0x40)\n      tag_133\n      dup2\n      tag_9\n      jump\t// in\n    tag_133:\n      dup3\n      dup2\n      mstore\n      sub(shl(0x80, 0x01), 0x01)\n      dup3\n      and\n      0x20\n        /* \"simpleswap.sol\":4568:4675  Reserves(... */\n      swap1\n      swap2\n      add\n        /* \"simpleswap.sol\":252:7425  contract SimpleSwap is ReentrancyGuard {... */\n      mstore\n      0x80\n      shl\n      not(sub(shl(0x80, 0x01), 0x01))\n      and\n      or\n      dup4\n      sstore\n      calldataload(0x44)\n      swap1\n        /* \"simpleswap.sol\":4686:4715  pair.totalSupply -= liquidity */\n      tag_7\n      jump\t// in\n    tag_125:\n        /* \"simpleswap.sol\":252:7425  contract SimpleSwap is ReentrancyGuard {... */\n      0x01\n        /* \"simpleswap.sol\":4337:4353  pair.totalSupply */\n      dup3\n      add\n        /* \"simpleswap.sol\":252:7425  contract SimpleSwap is ReentrancyGuard {... */\n      sstore\n        /* \"simpleswap.sol\":4231:4241  msg.sender */\n      caller\n      0x00\n        /* \"simpleswap.sol\":252:7425  contract SimpleSwap is ReentrancyGuard {... */\n      swap1\n      dup2\n      mstore\n        /* \"simpleswap.sol\":4217:4230  pair.balances */\n      swap2\n      add\n        /* \"simpleswap.sol\":252:7425  contract SimpleSwap is ReentrancyGuard {... */\n      0x20\n      mstore\n      dup14\n      swap1\n      keccak256\n      dup1\n      sload\n        /* \"simpleswap.sol\":4726:4764  pair.balances[msg.sender] -= liquidity */\n      tag_134\n      swap1\n        /* \"simpleswap.sol\":252:7425  contract SimpleSwap is ReentrancyGuard {... */\n      calldataload(0x44)\n      swap1\n        /* \"simpleswap.sol\":4726:4764  pair.balances[msg.sender] -= liquidity */\n      tag_7\n      jump\t// in\n    tag_134:\n        /* \"simpleswap.sol\":252:7425  contract SimpleSwap is ReentrancyGuard {... */\n      swap1\n      sstore\n      sub(shl(0xa0, 0x01), 0x01)\n      and\n        /* \"simpleswap.sol\":4809:4816  amountA */\n      tag_17\n      jump\t// in\n    tag_127:\n      sub(shl(0xa0, 0x01), 0x01)\n        /* \"simpleswap.sol\":252:7425  contract SimpleSwap is ReentrancyGuard {... */\n      and\n        /* \"simpleswap.sol\":4860:4867  amountB */\n      tag_17\n      jump\t// in\n    tag_126:\n        /* \"simpleswap.sol\":252:7425  contract SimpleSwap is ReentrancyGuard {... */\n      dup5\n      mload\n      dup5\n      dup2\n      mstore\n      0x20\n      dup2\n      add\n      dup5\n      swap1\n      mstore\n      calldataload(0x44)\n      0x40\n      dup3\n      add\n      mstore\n        /* \"simpleswap.sol\":4231:4241  msg.sender */\n      caller\n      swap3\n      sub(shl(0xa0, 0x01), 0x01)\n        /* \"simpleswap.sol\":252:7425  contract SimpleSwap is ReentrancyGuard {... */\n      swap1\n      dup2\n      and\n      swap3\n      and\n      swap1\n        /* \"simpleswap.sol\":4886:4959  LiquidityRemoved(token0, token1, msg.sender, amountA, amountB, liquidity) */\n      0xd765e08eef31c0983ecca03ecd166297ac485ecd5dd69e291c848f0a020333c1\n      swap1\n        /* \"simpleswap.sol\":252:7425  contract SimpleSwap is ReentrancyGuard {... */\n      0x60\n      swap1\n        /* \"simpleswap.sol\":4886:4959  LiquidityRemoved(token0, token1, msg.sender, amountA, amountB, liquidity) */\n      log4\n        /* \"simpleswap.sol\":252:7425  contract SimpleSwap is ReentrancyGuard {... */\n      sstore(0x00, 0x01)\n      dup3\n      mload\n      swap2\n      dup3\n      mstore\n      0x20\n      dup3\n      add\n      mstore\n      return\n        /* \"simpleswap.sol\":4484:4530  amountA >= amountAMin && amountB >= amountBMin */\n    tag_128:\n      pop\n        /* \"simpleswap.sol\":252:7425  contract SimpleSwap is ReentrancyGuard {... */\n      calldataload(0x84)\n        /* \"simpleswap.sol\":4509:4530  amountB >= amountBMin */\n      dup13\n      lt\n      iszero\n        /* \"simpleswap.sol\":4484:4530  amountA >= amountAMin && amountB >= amountBMin */\n      jump(tag_129)\n        /* \"simpleswap.sol\":252:7425  contract SimpleSwap is ReentrancyGuard {... */\n    tag_118:\n      mload(0x40)\n      shl(0xe5, 0x461bcd)\n      dup2\n      mstore\n      0x20\n      0x04\n      dup3\n      add\n      mstore\n      0x03\n      0x24\n      dup3\n      add\n      mstore\n      shl(0xea, 0x18985b)\n      0x44\n      dup3\n      add\n      mstore\n      0x64\n      swap1\n      revert\n        /* \"simpleswap.sol\":4018:4062  block.timestamp <= deadline && liquidity > 0 */\n    tag_114:\n      pop\n        /* \"simpleswap.sol\":252:7425  contract SimpleSwap is ReentrancyGuard {... */\n      calldataload(0x44)\n        /* \"simpleswap.sol\":4049:4062  liquidity > 0 */\n      iszero\n      iszero\n        /* \"simpleswap.sol\":4018:4062  block.timestamp <= deadline && liquidity > 0 */\n      jump(tag_115)\n        /* \"simpleswap.sol\":252:7425  contract SimpleSwap is ReentrancyGuard {... */\n    tag_23:\n      jumpi(tag_37, callvalue)\n      jumpi(tag_37, slt(add(not(0x03), calldatasize), 0x60))\n      tag_140\n      tag_1\n      jump\t// in\n    tag_140:\n      tag_141\n      tag_2\n      jump\t// in\n    tag_141:\n      swap1\n      calldataload(0x44)\n      swap1\n      sub(shl(0xa0, 0x01), 0x01)\n      dup3\n      and\n      dup3\n      sub\n      tag_37\n      jumpi\n        /* \"simpleswap.sol\":1363:1394  _pairs[token0][token1].balances */\n      0x02\n        /* \"simpleswap.sol\":1318:1345  _sortTokens(tokenA, tokenB) */\n      swap3\n      tag_144\n      swap2\n      tag_15\n      jump\t// in\n    tag_144:\n      sub(shl(0xa0, 0x01), 0x01)\n        /* \"simpleswap.sol\":252:7425  contract SimpleSwap is ReentrancyGuard {... */\n      swap2\n      dup3\n      and\n      0x00\n      swap1\n      dup2\n      mstore\n      0x01\n      0x20\n      swap1\n      dup2\n      mstore\n      0x40\n      dup1\n      dup4\n      keccak256\n      swap4\n      dup6\n      and\n      dup4\n      mstore\n      swap3\n      dup2\n      mstore\n      dup3\n      dup3\n      keccak256\n      swap5\n      swap1\n      swap4\n      and\n      dup2\n      mstore\n        /* \"simpleswap.sol\":1363:1394  _pairs[token0][token1].balances */\n      swap4\n      swap1\n      swap3\n      add\n        /* \"simpleswap.sol\":252:7425  contract SimpleSwap is ReentrancyGuard {... */\n      dup2\n      mstore\n      swap2\n      dup2\n      swap1\n      keccak256\n      sload\n      swap1\n      mload\n      swap1\n      dup2\n      mstore\n      return\n    tag_21:\n      jumpi(tag_37, callvalue)\n      jumpi(tag_37, slt(add(not(0x03), calldatasize), 0xa0))\n      calldataload(0x44)\n      calldataload(0x04)\n      0xffffffffffffffff\n      dup3\n      gt\n      tag_37\n      jumpi\n      calldatasize\n      0x23\n      dup4\n      add\n      slt\n      iszero\n      tag_37\n      jumpi\n      dup2\n      0x04\n      add\n      calldataload\n      swap2\n      0xffffffffffffffff\n      dup4\n      gt\n      tag_37\n      jumpi\n      calldatasize\n      0x24\n      dup5\n      0x05\n      shl\n      dup4\n      add\n      add\n      gt\n      tag_37\n      jumpi\n      calldataload(0x64)\n      swap1\n      sub(shl(0xa0, 0x01), 0x01)\n      dup3\n      and\n      dup3\n      sub\n      tag_37\n      jumpi\n        /* \"@openzeppelin/contracts/security/ReentrancyGuard.sol\":2227:2330  modifier nonReentrant() {... */\n      tag_159\n      tag_14\n      jump\t// in\n    tag_159:\n        /* \"simpleswap.sol\":252:7425  contract SimpleSwap is ReentrancyGuard {... */\n      calldataload(0x84)\n        /* \"simpleswap.sol\":5232:5247  block.timestamp */\n      timestamp\n        /* \"simpleswap.sol\":5232:5259  block.timestamp <= deadline */\n      gt\n      iszero\n        /* \"simpleswap.sol\":5232:5279  block.timestamp <= deadline && path.length == 2 */\n      dup1\n      tag_160\n      jumpi\n        /* \"simpleswap.sol\":252:7425  contract SimpleSwap is ReentrancyGuard {... */\n    tag_161:\n        /* \"simpleswap.sol\":5232:5295  block.timestamp <= deadline && path.length == 2 && amountIn > 0 */\n      dup1\n      tag_162\n      jumpi\n        /* \"simpleswap.sol\":252:7425  contract SimpleSwap is ReentrancyGuard {... */\n    tag_163:\n        /* \"simpleswap.sol\":5224:5303  require(block.timestamp <= deadline && path.length == 2 && amountIn > 0, \"inv\") */\n      tag_164\n      swap1\n      tag_4\n      jump\t// in\n    tag_164:\n        /* \"simpleswap.sol\":252:7425  contract SimpleSwap is ReentrancyGuard {... */\n      dup4\n      iszero\n      tag_194\n      jumpi\n        /* \"simpleswap.sol\":5334:5341  path[0] */\n      tag_167\n        /* \"simpleswap.sol\":252:7425  contract SimpleSwap is ReentrancyGuard {... */\n      0x24\n      dup3\n      add\n        /* \"simpleswap.sol\":5334:5341  path[0] */\n      tag_5\n      jump\t// in\n    tag_167:\n        /* \"simpleswap.sol\":252:7425  contract SimpleSwap is ReentrancyGuard {... */\n      swap4\n      0x01\n      lt\n      iszero\n      tag_194\n      jumpi\n      0x44\n        /* \"simpleswap.sol\":5371:5378  path[1] */\n      tag_170\n        /* \"simpleswap.sol\":252:7425  contract SimpleSwap is ReentrancyGuard {... */\n      swap2\n      add\n        /* \"simpleswap.sol\":5371:5378  path[1] */\n      tag_5\n      jump\t// in\n    tag_170:\n        /* \"simpleswap.sol\":5426:5456  _sortTokens(tokenIn, tokenOut) */\n      swap1\n      tag_171\n      dup3\n      dup6\n      tag_15\n      jump\t// in\n    tag_171:\n      sub(shl(0xa0, 0x01), 0x01)\n        /* \"simpleswap.sol\":252:7425  contract SimpleSwap is ReentrancyGuard {... */\n      swap2\n      dup3\n      and\n      0x00\n      dup2\n      dup2\n      mstore\n      0x01\n      0x20\n      swap1\n      dup2\n      mstore\n      0x40\n      dup1\n      dup4\n      keccak256\n      swap5\n      dup7\n      and\n      dup4\n      mstore\n      swap4\n      swap1\n      mstore\n      swap2\n      swap1\n      swap2\n      keccak256\n      swap2\n      swap1\n      swap6\n      and\n      swap5\n        /* \"simpleswap.sol\":5552:5569  tokenIn == token0 */\n      dup6\n      eq\n      swap3\n        /* \"simpleswap.sol\":5552:5728  tokenIn == token0 ? (pair.reserves.reserve0, pair.reserves.reserve1)... */\n      dup4\n      iszero\n      tag_172\n      jumpi\n        /* \"simpleswap.sol\":252:7425  contract SimpleSwap is ReentrancyGuard {... */\n      dup2\n      sload\n      swap1\n      sub(shl(0x80, 0x01), 0x01)\n      dup1\n      dup1\n      dup5\n      and\n      swap4\n      0x80\n      shr\n        /* \"simpleswap.sol\":5552:5728  tokenIn == token0 ? (pair.reserves.reserve0, pair.reserves.reserve1)... */\n      swap4\n    tag_174:\n        /* \"simpleswap.sol\":252:7425  contract SimpleSwap is ReentrancyGuard {... */\n      and\n      swap3\n      and\n        /* \"simpleswap.sol\":5794:5798  this */\n      swap3\n        /* \"simpleswap.sol\":5801:5809  amountIn */\n      tag_175\n        /* \"simpleswap.sol\":5794:5798  this */\n      dup8\n      address\n        /* \"simpleswap.sol\":5774:5784  msg.sender */\n      caller\n        /* \"simpleswap.sol\":5801:5809  amountIn */\n      dup12\n      tag_16\n      jump\t// in\n    tag_175:\n        /* \"simpleswap.sol\":374:377  997 */\n      0x03e5\n        /* \"simpleswap.sol\":252:7425  contract SimpleSwap is ReentrancyGuard {... */\n      dup8\n      mul\n      swap4\n      dup8\n      dup6\n      div\n        /* \"simpleswap.sol\":374:377  997 */\n      0x03e5\n        /* \"simpleswap.sol\":252:7425  contract SimpleSwap is ReentrancyGuard {... */\n      eq\n      dup9\n      iszero\n      or\n      iszero\n      tag_56\n      jumpi\n        /* \"simpleswap.sol\":6917:6935  amtInWFee * resOut */\n      tag_178\n      dup2\n      dup7\n      tag_12\n      jump\t// in\n    tag_178:\n        /* \"simpleswap.sol\":252:7425  contract SimpleSwap is ReentrancyGuard {... */\n      swap7\n        /* \"simpleswap.sol\":427:431  1000 */\n      0x03e8\n        /* \"simpleswap.sol\":252:7425  contract SimpleSwap is ReentrancyGuard {... */\n      dup6\n      mul\n      swap6\n      dup6\n      dup8\n      div\n        /* \"simpleswap.sol\":427:431  1000 */\n      0x03e8\n        /* \"simpleswap.sol\":252:7425  contract SimpleSwap is ReentrancyGuard {... */\n      eq\n      dup7\n      iszero\n      or\n      iszero\n      tag_56\n      jumpi\n        /* \"simpleswap.sol\":6940:6975  resIn * FEE_DENOMINATOR + amtInWFee */\n      dup10\n      swap9\n      tag_181\n        /* \"simpleswap.sol\":6916:6976  (amtInWFee * resOut) / (resIn * FEE_DENOMINATOR + amtInWFee) */\n      tag_182\n        /* \"simpleswap.sol\":6940:6975  resIn * FEE_DENOMINATOR + amtInWFee */\n      swap3\n        /* \"simpleswap.sol\":6320:6329  amountOut */\n      tag_183\n        /* \"simpleswap.sol\":6940:6975  resIn * FEE_DENOMINATOR + amtInWFee */\n      swap10\n      tag_8\n      jump\t// in\n    tag_181:\n        /* \"simpleswap.sol\":6916:6976  (amtInWFee * resOut) / (resIn * FEE_DENOMINATOR + amtInWFee) */\n      swap1\n      tag_13\n      jump\t// in\n    tag_182:\n        /* \"simpleswap.sol\":252:7425  contract SimpleSwap is ReentrancyGuard {... */\n      swap9\n      dup10\n      swap6\n      dup7\n      swap3\n        /* \"simpleswap.sol\":5886:5928  require(amountOut >= amountOutMin, \"slip\") */\n      tag_184\n        /* \"simpleswap.sol\":252:7425  contract SimpleSwap is ReentrancyGuard {... */\n      calldataload(0x24)\n        /* \"simpleswap.sol\":5894:5919  amountOut >= amountOutMin */\n      dup6\n      lt\n      iszero\n        /* \"simpleswap.sol\":5886:5928  require(amountOut >= amountOutMin, \"slip\") */\n      tag_6\n      jump\t// in\n    tag_184:\n        /* \"simpleswap.sol\":5941:6274  if (tokenIn == token0) {... */\n      iszero\n      tag_185\n      jumpi\n        /* \"simpleswap.sol\":6030:6044  rIn + amountIn */\n      tag_187\n        /* \"simpleswap.sol\":6072:6088  rOut - amountOut */\n      tag_188\n        /* \"simpleswap.sol\":6030:6044  rIn + amountIn */\n      swap4\n      swap3\n      sub(shl(0x80, 0x01), 0x01)\n      swap3\n      tag_8\n      jump\t// in\n    tag_187:\n        /* \"simpleswap.sol\":252:7425  contract SimpleSwap is ReentrancyGuard {... */\n      and\n        /* \"simpleswap.sol\":6072:6088  rOut - amountOut */\n      swap3\n      tag_7\n      jump\t// in\n    tag_188:\n        /* \"simpleswap.sol\":252:7425  contract SimpleSwap is ReentrancyGuard {... */\n      mload(0x40)\n      tag_189\n      dup2\n      tag_9\n      jump\t// in\n    tag_189:\n      dup3\n      dup2\n      mstore\n      sub(shl(0x80, 0x01), 0x01)\n      dup3\n      and\n      0x20\n        /* \"simpleswap.sol\":5995:6104  Reserves(... */\n      swap1\n      swap2\n      add\n        /* \"simpleswap.sol\":252:7425  contract SimpleSwap is ReentrancyGuard {... */\n      mstore\n      0x80\n      shl\n      not(sub(shl(0x80, 0x01), 0x01))\n      and\n      or\n      swap1\n      sstore\n        /* \"simpleswap.sol\":5941:6274  if (tokenIn == token0) {... */\n    tag_190:\n      sub(shl(0xa0, 0x01), 0x01)\n        /* \"simpleswap.sol\":252:7425  contract SimpleSwap is ReentrancyGuard {... */\n      and\n      swap3\n      dup4\n        /* \"simpleswap.sol\":6320:6329  amountOut */\n      tag_17\n      jump\t// in\n    tag_183:\n        /* \"simpleswap.sol\":252:7425  contract SimpleSwap is ReentrancyGuard {... */\n      mload(0x40)\n      swap4\n      tag_191\n      0x60\n      dup7\n      tag_10\n      jump\t// in\n    tag_191:\n        /* \"simpleswap.sol\":6367:6368  2 */\n      0x02\n        /* \"simpleswap.sol\":252:7425  contract SimpleSwap is ReentrancyGuard {... */\n      dup6\n      mstore\n      0x20\n      dup6\n      add\n      swap4\n      0x40\n      calldatasize\n      dup7\n      calldatacopy\n      dup6\n      mload\n      iszero\n      tag_194\n      jumpi\n      dup4\n      dup6\n      mstore\n      dup6\n      mload\n      0x01\n      lt\n      iszero\n      tag_194\n      jumpi\n      dup1\n      0x40\n      dup8\n      swap7\n      swap8\n      add\n      mstore\n      mload(0x40)\n      swap4\n      dup5\n      mstore\n      0x20\n      dup5\n      add\n      mstore\n        /* \"simpleswap.sol\":6452:6517  TokensSwapped(tokenIn, tokenOut, msg.sender, amountIn, amountOut) */\n      0xad56699d0f375866eb895ed27203058a36a713382aaded78eb6b67da266d4332\n        /* \"simpleswap.sol\":252:7425  contract SimpleSwap is ReentrancyGuard {... */\n      0x40\n        /* \"simpleswap.sol\":5774:5784  msg.sender */\n      caller\n        /* \"simpleswap.sol\":6452:6517  TokensSwapped(tokenIn, tokenOut, msg.sender, amountIn, amountOut) */\n      swap5\n      log4\n        /* \"simpleswap.sol\":252:7425  contract SimpleSwap is ReentrancyGuard {... */\n      sstore(0x00, 0x01)\n      mload(0x40)\n      swap2\n      dup3\n      swap2\n      0x20\n      dup4\n      add\n      swap1\n      0x20\n      dup5\n      mstore\n      mload\n      dup1\n      swap2\n      mstore\n      0x40\n      dup4\n      add\n      swap2\n      swap1\n      0x00\n    tag_196:\n      dup2\n      dup2\n      lt\n      tag_197\n      jumpi\n      pop\n      pop\n      pop\n      sub\n      swap1\n      return\n    tag_197:\n      dup3\n      mload\n      dup5\n      mstore\n      dup6\n      swap5\n      pop\n      0x20\n      swap4\n      dup5\n      add\n      swap4\n      swap1\n      swap3\n      add\n      swap2\n      0x01\n      add\n      jump(tag_196)\n    tag_194:\n      mstore(0x00, shl(0xe0, 0x4e487b71))\n      mstore(0x04, 0x32)\n      revert(0x00, 0x24)\n        /* \"simpleswap.sol\":5941:6274  if (tokenIn == token0) {... */\n    tag_185:\n        /* \"simpleswap.sol\":6188:6204  rOut - amountOut */\n      swap3\n      tag_199\n        /* \"simpleswap.sol\":6232:6246  rIn + amountIn */\n      tag_200\n        /* \"simpleswap.sol\":6188:6204  rOut - amountOut */\n      swap4\n      sub(shl(0x80, 0x01), 0x01)\n      swap3\n      tag_7\n      jump\t// in\n    tag_199:\n        /* \"simpleswap.sol\":252:7425  contract SimpleSwap is ReentrancyGuard {... */\n      and\n        /* \"simpleswap.sol\":6232:6246  rIn + amountIn */\n      swap3\n      tag_8\n      jump\t// in\n    tag_200:\n        /* \"simpleswap.sol\":252:7425  contract SimpleSwap is ReentrancyGuard {... */\n      mload(0x40)\n      tag_201\n      dup2\n      tag_9\n      jump\t// in\n    tag_201:\n      dup3\n      dup2\n      mstore\n      sub(shl(0x80, 0x01), 0x01)\n      dup3\n      and\n      0x20\n        /* \"simpleswap.sol\":6153:6262  Reserves(... */\n      swap1\n      swap2\n      add\n        /* \"simpleswap.sol\":252:7425  contract SimpleSwap is ReentrancyGuard {... */\n      mstore\n      0x80\n      shl\n      not(sub(shl(0x80, 0x01), 0x01))\n      and\n      or\n      swap1\n      sstore\n        /* \"simpleswap.sol\":5941:6274  if (tokenIn == token0) {... */\n      jump(tag_190)\n        /* \"simpleswap.sol\":5552:5728  tokenIn == token0 ? (pair.reserves.reserve0, pair.reserves.reserve1)... */\n    tag_172:\n        /* \"simpleswap.sol\":252:7425  contract SimpleSwap is ReentrancyGuard {... */\n      dup2\n      sload\n      swap1\n      sub(shl(0x80, 0x01), 0x01)\n      dup1\n      dup1\n      dup5\n      0x80\n      shr\n      swap5\n      and\n        /* \"simpleswap.sol\":5552:5728  tokenIn == token0 ? (pair.reserves.reserve0, pair.reserves.reserve1)... */\n      swap4\n      jump(tag_174)\n        /* \"simpleswap.sol\":5232:5295  block.timestamp <= deadline && path.length == 2 && amountIn > 0 */\n    tag_162:\n      pop\n        /* \"simpleswap.sol\":5283:5295  amountIn > 0 */\n      dup3\n      iszero\n      iszero\n        /* \"simpleswap.sol\":5232:5295  block.timestamp <= deadline && path.length == 2 && amountIn > 0 */\n      jump(tag_163)\n        /* \"simpleswap.sol\":5232:5279  block.timestamp <= deadline && path.length == 2 */\n    tag_160:\n        /* \"simpleswap.sol\":5263:5279  path.length == 2 */\n      pop\n        /* \"simpleswap.sol\":5278:5279  2 */\n      0x02\n        /* \"simpleswap.sol\":5263:5279  path.length == 2 */\n      dup5\n      eq\n        /* \"simpleswap.sol\":5232:5279  block.timestamp <= deadline && path.length == 2 */\n      jump(tag_161)\n        /* \"simpleswap.sol\":252:7425  contract SimpleSwap is ReentrancyGuard {... */\n    tag_1:\n      calldataload(0x04)\n      swap1\n      sub(shl(0xa0, 0x01), 0x01)\n      dup3\n      and\n      dup3\n      sub\n      tag_37\n      jumpi\n      jump\t// out\n    tag_2:\n      calldataload(0x24)\n      swap1\n      sub(shl(0xa0, 0x01), 0x01)\n      dup3\n      and\n      dup3\n      sub\n      tag_37\n      jumpi\n      jump\t// out\n    tag_4:\n      iszero\n      tag_206\n      jumpi\n      jump\t// out\n    tag_206:\n      mload(0x40)\n      shl(0xe5, 0x461bcd)\n      dup2\n      mstore\n      0x20\n      0x04\n      dup3\n      add\n      mstore\n      0x03\n      0x24\n      dup3\n      add\n      mstore\n      shl(0xe9, 0x34b73b)\n      0x44\n      dup3\n      add\n      mstore\n      0x64\n      swap1\n      revert\n    tag_5:\n      calldataload\n      sub(shl(0xa0, 0x01), 0x01)\n      dup2\n      and\n      dup2\n      sub\n      tag_37\n      jumpi\n      swap1\n      jump\t// out\n    tag_6:\n      iszero\n      tag_210\n      jumpi\n      jump\t// out\n    tag_210:\n      0x64\n      mload(0x40)\n      shl(0xe5, 0x461bcd)\n      dup2\n      mstore\n      0x20\n      0x04\n      dup3\n      add\n      mstore\n      0x04\n      0x24\n      dup3\n      add\n      mstore\n      shl(0xe4, 0x0736c697)\n      0x44\n      dup3\n      add\n      mstore\n      revert\n    tag_7:\n      swap2\n      swap1\n      dup3\n      sub\n      swap2\n      dup3\n      gt\n      tag_56\n      jumpi\n      jump\t// out\n    tag_8:\n      swap2\n      swap1\n      dup3\n      add\n      dup1\n      swap3\n      gt\n      tag_56\n      jumpi\n      jump\t// out\n    tag_9:\n      0x40\n      dup2\n      add\n      swap1\n      dup2\n      lt\n      0xffffffffffffffff\n      dup3\n      gt\n      or\n      tag_216\n      jumpi\n      0x40\n      mstore\n      jump\t// out\n    tag_216:\n      mstore(0x00, shl(0xe0, 0x4e487b71))\n      mstore(0x04, 0x41)\n      revert(0x00, 0x24)\n    tag_10:\n      swap1\n      0x1f\n      dup1\n      not\n      swap2\n      add\n      and\n      dup2\n      add\n      swap1\n      dup2\n      lt\n      0xffffffffffffffff\n      dup3\n      gt\n      or\n      tag_216\n      jumpi\n      0x40\n      mstore\n      jump\t// out\n    tag_11:\n      swap1\n      mload(0x40)\n      tag_220\n      dup2\n      tag_9\n      jump\t// in\n    tag_220:\n      swap2\n      sload\n      sub(shl(0x80, 0x01), 0x01)\n      dup2\n      and\n      dup4\n      mstore\n      0x80\n      shr\n      0x20\n      dup4\n      add\n      mstore\n      jump\t// out\n    tag_12:\n      dup2\n      dup2\n      mul\n      swap3\n      swap2\n      dup2\n      iszero\n      swap2\n      dup5\n      div\n      eq\n      or\n      iszero\n      tag_56\n      jumpi\n      jump\t// out\n    tag_13:\n      dup2\n      iszero\n      tag_223\n      jumpi\n      div\n      swap1\n      jump\t// out\n    tag_223:\n      mstore(0x00, shl(0xe0, 0x4e487b71))\n      mstore(0x04, 0x12)\n      revert(0x00, 0x24)\n        /* \"@openzeppelin/contracts/security/ReentrancyGuard.sol\":2336:2623  function _nonReentrantBefore() private {... */\n    tag_14:\n        /* \"@openzeppelin/contracts/security/ReentrancyGuard.sol\":1759:1760  2 */\n      0x02\n        /* \"@openzeppelin/contracts/security/ReentrancyGuard.sol\":2468:2475  _status */\n      0x00\n        /* \"simpleswap.sol\":252:7425  contract SimpleSwap is ReentrancyGuard {... */\n      sload\n        /* \"@openzeppelin/contracts/security/ReentrancyGuard.sol\":2468:2487  _status != _ENTERED */\n      eq\n        /* \"@openzeppelin/contracts/security/ReentrancyGuard.sol\":1759:1760  2 */\n      tag_225\n      jumpi\n      0x02\n        /* \"@openzeppelin/contracts/security/ReentrancyGuard.sol\":2468:2475  _status */\n      0x00\n        /* \"simpleswap.sol\":252:7425  contract SimpleSwap is ReentrancyGuard {... */\n      sstore\n        /* \"@openzeppelin/contracts/security/ReentrancyGuard.sol\":2336:2623  function _nonReentrantBefore() private {... */\n      jump\t// out\n        /* \"@openzeppelin/contracts/security/ReentrancyGuard.sol\":1759:1760  2 */\n    tag_225:\n        /* \"simpleswap.sol\":252:7425  contract SimpleSwap is ReentrancyGuard {... */\n      mload(0x40)\n      shl(0xe5, 0x461bcd)\n        /* \"@openzeppelin/contracts/security/ReentrancyGuard.sol\":1759:1760  2 */\n      dup2\n      mstore\n      0x20\n      0x04\n      dup3\n      add\n      mstore\n      0x1f\n      0x24\n      dup3\n      add\n        /* \"simpleswap.sol\":252:7425  contract SimpleSwap is ReentrancyGuard {... */\n      mstore\n        /* \"@openzeppelin/contracts/security/ReentrancyGuard.sol\":1759:1760  2 */\n      0x5265656e7472616e637947756172643a207265656e7472616e742063616c6c00\n        /* \"simpleswap.sol\":252:7425  contract SimpleSwap is ReentrancyGuard {... */\n      0x44\n      dup3\n      add\n        /* \"@openzeppelin/contracts/security/ReentrancyGuard.sol\":1759:1760  2 */\n      mstore\n      0x64\n      swap1\n      revert\n        /* \"simpleswap.sol\":6533:6737  function _sortTokens(address a, address b) internal pure returns (address, address) {... */\n    tag_15:\n      swap1\n      swap2\n      swap1\n      sub(shl(0xa0, 0x01), 0x01)\n        /* \"simpleswap.sol\":252:7425  contract SimpleSwap is ReentrancyGuard {... */\n      dup1\n      dup5\n      and\n      swap1\n      dup3\n      and\n        /* \"simpleswap.sol\":6636:6642  a != b */\n      dup1\n      dup3\n      eq\n      iszero\n      dup1\n        /* \"simpleswap.sol\":6636:6661  a != b && a != address(0) */\n      tag_227\n      jumpi\n        /* \"simpleswap.sol\":6533:6737  function _sortTokens(address a, address b) internal pure returns (address, address) {... */\n    tag_228:\n        /* \"simpleswap.sol\":6636:6680  a != b && a != address(0) && b != address(0) */\n      dup1\n      tag_229\n      jumpi\n        /* \"simpleswap.sol\":6533:6737  function _sortTokens(address a, address b) internal pure returns (address, address) {... */\n    tag_230:\n        /* \"simpleswap.sol\":6628:6688  require(a != b && a != address(0) && b != address(0), \"inv\") */\n      tag_231\n      swap1\n      tag_4\n      jump\t// in\n    tag_231:\n        /* \"simpleswap.sol\":6706:6711  a < b */\n      lt\n      iszero\n      tag_232\n      jumpi\n        /* \"simpleswap.sol\":6699:6729  return a < b ? (a, b) : (b, a) */\n      swap2\n        /* \"simpleswap.sol\":6533:6737  function _sortTokens(address a, address b) internal pure returns (address, address) {... */\n      swap1\n      jump\t// out\n        /* \"simpleswap.sol\":6706:6729  a < b ? (a, b) : (b, a) */\n    tag_232:\n        /* \"simpleswap.sol\":6533:6737  function _sortTokens(address a, address b) internal pure returns (address, address) {... */\n      swap1\n      jump\t// out\n        /* \"simpleswap.sol\":6636:6680  a != b && a != address(0) && b != address(0) */\n    tag_229:\n      pop\n        /* \"simpleswap.sol\":6665:6680  b != address(0) */\n      dup2\n      iszero\n      iszero\n        /* \"simpleswap.sol\":6636:6680  a != b && a != address(0) && b != address(0) */\n      jump(tag_230)\n        /* \"simpleswap.sol\":6636:6661  a != b && a != address(0) */\n    tag_227:\n        /* \"simpleswap.sol\":6646:6661  a != address(0) */\n      pop\n      dup1\n      iszero\n      iszero\n        /* \"simpleswap.sol\":6636:6661  a != b && a != address(0) */\n      jump(tag_228)\n        /* \"@openzeppelin/contracts/token/ERC20/utils/SafeERC20.sol\":1618:1806  function safeTransferFrom(IERC20 token, address from, address to, uint256 value) internal {... */\n    tag_16:\n        /* \"simpleswap.sol\":252:7425  contract SimpleSwap is ReentrancyGuard {... */\n      mload(0x40)\n      shl(0xe0, 0x23b872dd)\n        /* \"@openzeppelin/contracts/token/ERC20/utils/SafeERC20.sol\":1745:1798  abi.encodeCall(token.transferFrom, (from, to, value)) */\n      0x20\n      dup3\n      add\n      mstore\n      sub(shl(0xa0, 0x01), 0x01)\n        /* \"simpleswap.sol\":252:7425  contract SimpleSwap is ReentrancyGuard {... */\n      swap3\n      dup4\n      and\n        /* \"@openzeppelin/contracts/token/ERC20/utils/SafeERC20.sol\":1745:1798  abi.encodeCall(token.transferFrom, (from, to, value)) */\n      0x24\n      dup3\n      add\n        /* \"simpleswap.sol\":252:7425  contract SimpleSwap is ReentrancyGuard {... */\n      mstore\n      swap3\n      swap1\n      swap2\n      and\n      0x44\n      dup4\n      add\n      mstore\n      0x64\n      dup1\n      dup4\n      add\n      swap4\n      swap1\n      swap4\n      mstore\n        /* \"@openzeppelin/contracts/token/ERC20/utils/SafeERC20.sol\":1745:1798  abi.encodeCall(token.transferFrom, (from, to, value)) */\n      swap2\n      dup2\n      mstore\n      tag_235\n      swap2\n      tag_236\n      0x84\n        /* \"simpleswap.sol\":252:7425  contract SimpleSwap is ReentrancyGuard {... */\n      dup4\n        /* \"@openzeppelin/contracts/token/ERC20/utils/SafeERC20.sol\":1745:1798  abi.encodeCall(token.transferFrom, (from, to, value)) */\n      tag_10\n      jump\t// in\n    tag_236:\n      tag_18\n      jump\t// in\n    tag_235:\n        /* \"@openzeppelin/contracts/token/ERC20/utils/SafeERC20.sol\":1618:1806  function safeTransferFrom(IERC20 token, address from, address to, uint256 value) internal {... */\n      jump\t// out\n        /* \"@openzeppelin/contracts/token/ERC20/utils/SafeERC20.sol\":1219:1379  function safeTransfer(IERC20 token, address to, uint256 value) internal {... */\n    tag_17:\n        /* \"simpleswap.sol\":252:7425  contract SimpleSwap is ReentrancyGuard {... */\n      mload(0x40)\n      shl(0xe0, 0xa9059cbb)\n        /* \"@openzeppelin/contracts/token/ERC20/utils/SafeERC20.sol\":1328:1371  abi.encodeCall(token.transfer, (to, value)) */\n      0x20\n      dup3\n      add\n      mstore\n      sub(shl(0xa0, 0x01), 0x01)\n        /* \"simpleswap.sol\":252:7425  contract SimpleSwap is ReentrancyGuard {... */\n      swap1\n      swap3\n      and\n        /* \"@openzeppelin/contracts/token/ERC20/utils/SafeERC20.sol\":1328:1371  abi.encodeCall(token.transfer, (to, value)) */\n      0x24\n      dup4\n      add\n        /* \"simpleswap.sol\":252:7425  contract SimpleSwap is ReentrancyGuard {... */\n      mstore\n      0x44\n      dup1\n      dup4\n      add\n      swap4\n      swap1\n      swap4\n      mstore\n        /* \"@openzeppelin/contracts/token/ERC20/utils/SafeERC20.sol\":1328:1371  abi.encodeCall(token.transfer, (to, value)) */\n      swap2\n      dup2\n      mstore\n      tag_235\n      swap2\n      tag_236\n      0x64\n        /* \"simpleswap.sol\":252:7425  contract SimpleSwap is ReentrancyGuard {... */\n      dup4\n        /* \"@openzeppelin/contracts/token/ERC20/utils/SafeERC20.sol\":1328:1371  abi.encodeCall(token.transfer, (to, value)) */\n      tag_10\n      jump\t// in\n        /* \"@openzeppelin/contracts/token/ERC20/utils/SafeERC20.sol\":8370:9090  function _callOptionalReturn(IERC20 token, bytes memory data) private {... */\n    tag_18:\n      swap1\n      0x00\n        /* \"@openzeppelin/contracts/token/ERC20/utils/SafeERC20.sol\":8507:8928  assembly (\"memory-safe\") {... */\n      0x20\n        /* \"@openzeppelin/contracts/token/ERC20/utils/SafeERC20.sol\":8370:9090  function _callOptionalReturn(IERC20 token, bytes memory data) private {... */\n      swap2\n        /* \"@openzeppelin/contracts/token/ERC20/utils/SafeERC20.sol\":8507:8928  assembly (\"memory-safe\") {... */\n      dup3\n      dup2\n      mload\n      swap2\n      add\n      dup3\n      dup6\n      gas\n      call\n      iszero\n      tag_239\n      jumpi\n      mload(0x00)\n      returndatasize\n        /* \"@openzeppelin/contracts/token/ERC20/utils/SafeERC20.sol\":8942:8957  returnSize == 0 */\n      tag_241\n      jumpi\n      pop\n      sub(shl(0xa0, 0x01), 0x01)\n        /* \"simpleswap.sol\":252:7425  contract SimpleSwap is ReentrancyGuard {... */\n      dup2\n      and\n        /* \"@openzeppelin/contracts/token/ERC20/utils/SafeERC20.sol\":8960:8986  address(token).code.length */\n      extcodesize\n        /* \"@openzeppelin/contracts/token/ERC20/utils/SafeERC20.sol\":8960:8991  address(token).code.length == 0 */\n      iszero\n        /* \"@openzeppelin/contracts/token/ERC20/utils/SafeERC20.sol\":8942:9010  returnSize == 0 ? address(token).code.length == 0 : returnValue != 1 */\n    tag_243:\n        /* \"@openzeppelin/contracts/token/ERC20/utils/SafeERC20.sol\":8938:9084  if (returnSize == 0 ? address(token).code.length == 0 : returnValue != 1) {... */\n      tag_244\n      jumpi\n        /* \"@openzeppelin/contracts/token/ERC20/utils/SafeERC20.sol\":8370:9090  function _callOptionalReturn(IERC20 token, bytes memory data) private {... */\n      pop\n      jump\t// out\n        /* \"@openzeppelin/contracts/token/ERC20/utils/SafeERC20.sol\":8938:9084  if (returnSize == 0 ? address(token).code.length == 0 : returnValue != 1) {... */\n    tag_244:\n      shl(0xe0, 0x5274afe7)\n      0x00\n        /* \"@openzeppelin/contracts/token/ERC20/utils/SafeERC20.sol\":9033:9073  SafeERC20FailedOperation(address(token)) */\n      swap1\n      dup2\n      mstore\n      sub(shl(0xa0, 0x01), 0x01)\n        /* \"simpleswap.sol\":252:7425  contract SimpleSwap is ReentrancyGuard {... */\n      swap2\n      swap1\n      swap2\n      and\n        /* \"@openzeppelin/contracts/token/ERC20/utils/SafeERC20.sol\":9033:9073  SafeERC20FailedOperation(address(token)) */\n      0x04\n        /* \"simpleswap.sol\":252:7425  contract SimpleSwap is ReentrancyGuard {... */\n      mstore\n      0x24\n      swap1\n        /* \"@openzeppelin/contracts/token/ERC20/utils/SafeERC20.sol\":9033:9073  SafeERC20FailedOperation(address(token)) */\n      revert\n        /* \"@openzeppelin/contracts/token/ERC20/utils/SafeERC20.sol\":8942:9010  returnSize == 0 ? address(token).code.length == 0 : returnValue != 1 */\n    tag_241:\n        /* \"@openzeppelin/contracts/token/ERC20/utils/SafeERC20.sol\":9009:9010  1 */\n      0x01\n        /* \"@openzeppelin/contracts/token/ERC20/utils/SafeERC20.sol\":8994:9010  returnValue != 1 */\n      eq\n      iszero\n        /* \"@openzeppelin/contracts/token/ERC20/utils/SafeERC20.sol\":8942:9010  returnSize == 0 ? address(token).code.length == 0 : returnValue != 1 */\n      jump(tag_243)\n        /* \"@openzeppelin/contracts/token/ERC20/utils/SafeERC20.sol\":8507:8928  assembly (\"memory-safe\") {... */\n    tag_239:\n      mload(0x40)\n      returndatasize\n      0x00\n      dup3\n      returndatacopy\n      returndatasize\n      swap1\n      revert\n\n    auxdata: 0xa2646970667358221220dfcfbbf2995c5e23fd2c3cb8d2add2a8ea85482f754979cdc7abe752cfece68664736f6c634300081e0033\n}\n",
				"bytecode": {
					"linkReferences": {},
					"object": "6080806040523460195760015f55610df9908161001e8239f35b5f80fdfe60806040526004361015610011575f80fd5b5f3560e01c806338ed1739146107bc57806375bb9b631461073c578063baa2abde146104e0578063d52bb6f41461043c5763e8e3370014610050575f80fd5b34610438576101003660031901126104385761006a610ad7565b610072610aed565b9060443560643560c4356001600160a01b0381169081900361043857610096610c3d565b60e435421161040d576100a98585610c91565b9060018060a01b0316805f52600160205260405f2060018060a01b0383165f5260205260405f20946100da86610be7565b946001600160801b0386511615806103f8575b1561030a57906101019861011392998a92809a5b309033906001600160a01b0316610cda565b600185019384549586155f146102b45761012d8989610c0c565b5f60038211156102a65750808060011c6001810180911161029257905b8282106102735750505b955b8615610248576101c287610244998561018e8e6001600160801b038f816101846020928260029e5116610b88565b1694015116610b88565b60405161019a81610b95565b8281526001600160801b03821660209091015260801b6001600160801b031916178555610b88565b9055845f520160205260405f206101da858254610b88565b905560408051878152602081018990529081018590526001600160a01b0392909216917f43c967b388d3a4ccad3f7ab80167852e322e5a3fde9893f530252281b2ae8b7090606090a460015f55604051938493846040919493926060820195825260208201520152565b0390f35b606460405162461bcd60e51b815260206004820152600460248201526306c6971360e41b6044820152fd5b909150610289826102848184610c1f565b610b88565b60011c9061014a565b634e487b7160e01b5f52601160045260245ffd5b901561015457506001610154565b6102d26102c1888a610c0c565b6001600160801b0384511690610c1f565b6102f36102df898c610c0c565b6001600160801b0360208601511690610c1f565b8082101561030357505b95610156565b90506102fd565b9060208601916103386103276001600160801b0385511684610c0c565b6001600160801b0389511690610c1f565b9281841161038a57505060a435821061035d576101019861011392998a92809a610101565b60405162461bcd60e51b815260206004820152600560248201526439b634b82160d91b6044820152606490fd5b9092506103b091506001600160801b036103a78189511685610c0c565b91511690610c1f565b60843581106103cb576101019861011392998a92809a610101565b60405162461bcd60e51b8152602060048201526005602482015264736c69704160d81b6044820152606490fd5b506001600160801b03602087015116156100ed565b60405162461bcd60e51b815260206004820152600360248201526206578760ec1b6044820152606490fd5b5f80fd5b34610438576040366003190112610438576040610457610ad7565b610468610462610aed565b82610c91565b9060018060a01b031690815f526001602052835f209060018060a01b03165f52602052610496835f20610be7565b916001600160a01b0316036104c8576001600160801b0380602081845116930151165b81845193168352166020820152f35b6001600160801b0380806020840151169251166104b9565b346104385760e0366003190112610438576104f9610ad7565b610501610aed565b9060a4356001600160a01b03811681036104385761051d610c3d565b60c43542111580610731575b61053290610b03565b61053c8383610c91565b6001600160a01b038083165f90815260016020908152604080832093851683529281528282203383526002810190915291902054909591929190604435116107065761058786610be7565b94846001880154928388516001600160801b0316604435906105a891610c0c565b906105b291610c1f565b97888560208301516001600160801b0316604435906105d091610c0c565b906105da91610c1f565b98899560643583101560409d6106616106a09a61069297846002956106fa575b61060390610b49565b6106298c6001600160801b0360208161061f8d82885116610b7b565b1694015116610b7b565b60405161063581610b95565b8281526001600160801b03821660209091015260801b6001600160801b03191617835560443590610b7b565b6001820155335f90815291016020528d902080546106829060443590610b7b565b90556001600160a01b0316610d25565b6001600160a01b0316610d25565b845184815260208101849052604435604082015233926001600160a01b039081169216907fd765e08eef31c0983ecca03ecd166297ac485ecd5dd69e291c848f0a020333c190606090a460015f5582519182526020820152f35b506084358c10156105fa565b60405162461bcd60e51b815260206004820152600360248201526218985b60ea1b6044820152606490fd5b506044351515610529565b3461043857606036600319011261043857610755610ad7565b61075d610aed565b90604435906001600160a01b03821682036104385760029261077e91610c91565b6001600160a01b039182165f908152600160209081526040808320938516835292815282822094909316815293909201815291819020549051908152f35b346104385760a03660031901126104385760443560043567ffffffffffffffff821161043857366023830112156104385781600401359167ffffffffffffffff8311610438573660248460051b8301011161043857606435906001600160a01b03821682036104385761082d610c3d565b60843542111580610acd575b80610ac4575b61084890610b03565b8315610a465761085a60248201610b35565b9360011015610a4657604461086f9101610b35565b9061087a8285610c91565b6001600160a01b039182165f81815260016020908152604080832094861683529390529190912091909516948514928315610aab578154906001600160801b03808084169360801c935b169216926108d48730338b610cda565b6103e58702938785046103e51488151715610292576108f38186610c0c565b966103e88502958587046103e8148615171561029257899861091b6109219261099699610b88565b90610c1f565b9889958692610934602435851015610b49565b15610a5a5761094f61095693926001600160801b0392610b88565b1692610b7b565b60405161096281610b95565b8281526001600160801b03821660209091015260801b6001600160801b0319161790555b6001600160a01b03169283610d25565b604051936109a5606086610bc5565b6002855260208501936040368637855115610a4657838552855160011015610a4657806040879697015260405193845260208401527fad56699d0f375866eb895ed27203058a36a713382aaded78eb6b67da266d433260403394a460015f55604051918291602083019060208452518091526040830191905f5b818110610a2d575050500390f35b8251845285945060209384019390920191600101610a1f565b634e487b7160e01b5f52603260045260245ffd5b92610a70610a77936001600160801b0392610b7b565b1692610b88565b604051610a8381610b95565b8281526001600160801b03821660209091015260801b6001600160801b031916179055610986565b8154906001600160801b0380808460801c9416936108c4565b5082151561083f565b5060028414610839565b600435906001600160a01b038216820361043857565b602435906001600160a01b038216820361043857565b15610b0a57565b60405162461bcd60e51b815260206004820152600360248201526234b73b60e91b6044820152606490fd5b356001600160a01b03811681036104385790565b15610b5057565b606460405162461bcd60e51b81526020600482015260046024820152630736c69760e41b6044820152fd5b9190820391821161029257565b9190820180921161029257565b6040810190811067ffffffffffffffff821117610bb157604052565b634e487b7160e01b5f52604160045260245ffd5b90601f8019910116810190811067ffffffffffffffff821117610bb157604052565b90604051610bf481610b95565b91546001600160801b038116835260801c6020830152565b8181029291811591840414171561029257565b8115610c29570490565b634e487b7160e01b5f52601260045260245ffd5b60025f5414610c4c5760025f55565b60405162461bcd60e51b815260206004820152601f60248201527f5265656e7472616e637947756172643a207265656e7472616e742063616c6c006044820152606490fd5b9091906001600160a01b038084169082168082141580610cd1575b80610cc8575b610cbb90610b03565b1015610cc5579190565b90565b50811515610cb2565b50801515610cac565b6040516323b872dd60e01b60208201526001600160a01b039283166024820152929091166044830152606480830193909352918152610d2391610d1e608483610bc5565b610d60565b565b60405163a9059cbb60e01b60208201526001600160a01b039092166024830152604480830193909352918152610d2391610d1e606483610bc5565b905f602091828151910182855af115610db8575f513d610daf57506001600160a01b0381163b155b610d8f5750565b635274afe760e01b5f9081526001600160a01b0391909116600452602490fd5b60011415610d88565b6040513d5f823e3d90fdfea2646970667358221220dfcfbbf2995c5e23fd2c3cb8d2add2a8ea85482f754979cdc7abe752cfece68664736f6c634300081e0033",
					"opcodes": "PUSH1 0x80 DUP1 PUSH1 0x40 MSTORE CALLVALUE PUSH1 0x19 JUMPI PUSH1 0x1 PUSH0 SSTORE PUSH2 0xDF9 SWAP1 DUP2 PUSH2 0x1E DUP3 CODECOPY RETURN JUMPDEST PUSH0 DUP1 REVERT INVALID PUSH1 0x80 PUSH1 0x40 MSTORE PUSH1 0x4 CALLDATASIZE LT ISZERO PUSH2 0x11 JUMPI PUSH0 DUP1 REVERT JUMPDEST PUSH0 CALLDATALOAD PUSH1 0xE0 SHR DUP1 PUSH4 0x38ED1739 EQ PUSH2 0x7BC JUMPI DUP1 PUSH4 0x75BB9B63 EQ PUSH2 0x73C JUMPI DUP1 PUSH4 0xBAA2ABDE EQ PUSH2 0x4E0 JUMPI DUP1 PUSH4 0xD52BB6F4 EQ PUSH2 0x43C JUMPI PUSH4 0xE8E33700 EQ PUSH2 0x50 JUMPI PUSH0 DUP1 REVERT JUMPDEST CALLVALUE PUSH2 0x438 JUMPI PUSH2 0x100 CALLDATASIZE PUSH1 0x3 NOT ADD SLT PUSH2 0x438 JUMPI PUSH2 0x6A PUSH2 0xAD7 JUMP JUMPDEST PUSH2 0x72 PUSH2 0xAED JUMP JUMPDEST SWAP1 PUSH1 0x44 CALLDATALOAD PUSH1 0x64 CALLDATALOAD PUSH1 0xC4 CALLDATALOAD PUSH1 0x1 PUSH1 0x1 PUSH1 0xA0 SHL SUB DUP2 AND SWAP1 DUP2 SWAP1 SUB PUSH2 0x438 JUMPI PUSH2 0x96 PUSH2 0xC3D JUMP JUMPDEST PUSH1 0xE4 CALLDATALOAD TIMESTAMP GT PUSH2 0x40D JUMPI PUSH2 0xA9 DUP6 DUP6 PUSH2 0xC91 JUMP JUMPDEST SWAP1 PUSH1 0x1 DUP1 PUSH1 0xA0 SHL SUB AND DUP1 PUSH0 MSTORE PUSH1 0x1 PUSH1 0x20 MSTORE PUSH1 0x40 PUSH0 KECCAK256 PUSH1 0x1 DUP1 PUSH1 0xA0 SHL SUB DUP4 AND PUSH0 MSTORE PUSH1 0x20 MSTORE PUSH1 0x40 PUSH0 KECCAK256 SWAP5 PUSH2 0xDA DUP7 PUSH2 0xBE7 JUMP JUMPDEST SWAP5 PUSH1 0x1 PUSH1 0x1 PUSH1 0x80 SHL SUB DUP7 MLOAD AND ISZERO DUP1 PUSH2 0x3F8 JUMPI JUMPDEST ISZERO PUSH2 0x30A JUMPI SWAP1 PUSH2 0x101 SWAP9 PUSH2 0x113 SWAP3 SWAP10 DUP11 SWAP3 DUP1 SWAP11 JUMPDEST ADDRESS SWAP1 CALLER SWAP1 PUSH1 0x1 PUSH1 0x1 PUSH1 0xA0 SHL SUB AND PUSH2 0xCDA JUMP JUMPDEST PUSH1 0x1 DUP6 ADD SWAP4 DUP5 SLOAD SWAP6 DUP7 ISZERO PUSH0 EQ PUSH2 0x2B4 JUMPI PUSH2 0x12D DUP10 DUP10 PUSH2 0xC0C JUMP JUMPDEST PUSH0 PUSH1 0x3 DUP3 GT ISZERO PUSH2 0x2A6 JUMPI POP DUP1 DUP1 PUSH1 0x1 SHR PUSH1 0x1 DUP2 ADD DUP1 SWAP2 GT PUSH2 0x292 JUMPI SWAP1 JUMPDEST DUP3 DUP3 LT PUSH2 0x273 JUMPI POP POP JUMPDEST SWAP6 JUMPDEST DUP7 ISZERO PUSH2 0x248 JUMPI PUSH2 0x1C2 DUP8 PUSH2 0x244 SWAP10 DUP6 PUSH2 0x18E DUP15 PUSH1 0x1 PUSH1 0x1 PUSH1 0x80 SHL SUB DUP16 DUP2 PUSH2 0x184 PUSH1 0x20 SWAP3 DUP3 PUSH1 0x2 SWAP15 MLOAD AND PUSH2 0xB88 JUMP JUMPDEST AND SWAP5 ADD MLOAD AND PUSH2 0xB88 JUMP JUMPDEST PUSH1 0x40 MLOAD PUSH2 0x19A DUP2 PUSH2 0xB95 JUMP JUMPDEST DUP3 DUP2 MSTORE PUSH1 0x1 PUSH1 0x1 PUSH1 0x80 SHL SUB DUP3 AND PUSH1 0x20 SWAP1 SWAP2 ADD MSTORE PUSH1 0x80 SHL PUSH1 0x1 PUSH1 0x1 PUSH1 0x80 SHL SUB NOT AND OR DUP6 SSTORE PUSH2 0xB88 JUMP JUMPDEST SWAP1 SSTORE DUP5 PUSH0 MSTORE ADD PUSH1 0x20 MSTORE PUSH1 0x40 PUSH0 KECCAK256 PUSH2 0x1DA DUP6 DUP3 SLOAD PUSH2 0xB88 JUMP JUMPDEST SWAP1 SSTORE PUSH1 0x40 DUP1 MLOAD DUP8 DUP2 MSTORE PUSH1 0x20 DUP2 ADD DUP10 SWAP1 MSTORE SWAP1 DUP2 ADD DUP6 SWAP1 MSTORE PUSH1 0x1 PUSH1 0x1 PUSH1 0xA0 SHL SUB SWAP3 SWAP1 SWAP3 AND SWAP2 PUSH32 0x43C967B388D3A4CCAD3F7AB80167852E322E5A3FDE9893F530252281B2AE8B70 SWAP1 PUSH1 0x60 SWAP1 LOG4 PUSH1 0x1 PUSH0 SSTORE PUSH1 0x40 MLOAD SWAP4 DUP5 SWAP4 DUP5 PUSH1 0x40 SWAP2 SWAP5 SWAP4 SWAP3 PUSH1 0x60 DUP3 ADD SWAP6 DUP3 MSTORE PUSH1 0x20 DUP3 ADD MSTORE ADD MSTORE JUMP JUMPDEST SUB SWAP1 RETURN JUMPDEST PUSH1 0x64 PUSH1 0x40 MLOAD PUSH3 0x461BCD PUSH1 0xE5 SHL DUP2 MSTORE PUSH1 0x20 PUSH1 0x4 DUP3 ADD MSTORE PUSH1 0x4 PUSH1 0x24 DUP3 ADD MSTORE PUSH4 0x6C69713 PUSH1 0xE4 SHL PUSH1 0x44 DUP3 ADD MSTORE REVERT JUMPDEST SWAP1 SWAP2 POP PUSH2 0x289 DUP3 PUSH2 0x284 DUP2 DUP5 PUSH2 0xC1F JUMP JUMPDEST PUSH2 0xB88 JUMP JUMPDEST PUSH1 0x1 SHR SWAP1 PUSH2 0x14A JUMP JUMPDEST PUSH4 0x4E487B71 PUSH1 0xE0 SHL PUSH0 MSTORE PUSH1 0x11 PUSH1 0x4 MSTORE PUSH1 0x24 PUSH0 REVERT JUMPDEST SWAP1 ISZERO PUSH2 0x154 JUMPI POP PUSH1 0x1 PUSH2 0x154 JUMP JUMPDEST PUSH2 0x2D2 PUSH2 0x2C1 DUP9 DUP11 PUSH2 0xC0C JUMP JUMPDEST PUSH1 0x1 PUSH1 0x1 PUSH1 0x80 SHL SUB DUP5 MLOAD AND SWAP1 PUSH2 0xC1F JUMP JUMPDEST PUSH2 0x2F3 PUSH2 0x2DF DUP10 DUP13 PUSH2 0xC0C JUMP JUMPDEST PUSH1 0x1 PUSH1 0x1 PUSH1 0x80 SHL SUB PUSH1 0x20 DUP7 ADD MLOAD AND SWAP1 PUSH2 0xC1F JUMP JUMPDEST DUP1 DUP3 LT ISZERO PUSH2 0x303 JUMPI POP JUMPDEST SWAP6 PUSH2 0x156 JUMP JUMPDEST SWAP1 POP PUSH2 0x2FD JUMP JUMPDEST SWAP1 PUSH1 0x20 DUP7 ADD SWAP2 PUSH2 0x338 PUSH2 0x327 PUSH1 0x1 PUSH1 0x1 PUSH1 0x80 SHL SUB DUP6 MLOAD AND DUP5 PUSH2 0xC0C JUMP JUMPDEST PUSH1 0x1 PUSH1 0x1 PUSH1 0x80 SHL SUB DUP10 MLOAD AND SWAP1 PUSH2 0xC1F JUMP JUMPDEST SWAP3 DUP2 DUP5 GT PUSH2 0x38A JUMPI POP POP PUSH1 0xA4 CALLDATALOAD DUP3 LT PUSH2 0x35D JUMPI PUSH2 0x101 SWAP9 PUSH2 0x113 SWAP3 SWAP10 DUP11 SWAP3 DUP1 SWAP11 PUSH2 0x101 JUMP JUMPDEST PUSH1 0x40 MLOAD PUSH3 0x461BCD PUSH1 0xE5 SHL DUP2 MSTORE PUSH1 0x20 PUSH1 0x4 DUP3 ADD MSTORE PUSH1 0x5 PUSH1 0x24 DUP3 ADD MSTORE PUSH5 0x39B634B821 PUSH1 0xD9 SHL PUSH1 0x44 DUP3 ADD MSTORE PUSH1 0x64 SWAP1 REVERT JUMPDEST SWAP1 SWAP3 POP PUSH2 0x3B0 SWAP2 POP PUSH1 0x1 PUSH1 0x1 PUSH1 0x80 SHL SUB PUSH2 0x3A7 DUP2 DUP10 MLOAD AND DUP6 PUSH2 0xC0C JUMP JUMPDEST SWAP2 MLOAD AND SWAP1 PUSH2 0xC1F JUMP JUMPDEST PUSH1 0x84 CALLDATALOAD DUP2 LT PUSH2 0x3CB JUMPI PUSH2 0x101 SWAP9 PUSH2 0x113 SWAP3 SWAP10 DUP11 SWAP3 DUP1 SWAP11 PUSH2 0x101 JUMP JUMPDEST PUSH1 0x40 MLOAD PUSH3 0x461BCD PUSH1 0xE5 SHL DUP2 MSTORE PUSH1 0x20 PUSH1 0x4 DUP3 ADD MSTORE PUSH1 0x5 PUSH1 0x24 DUP3 ADD MSTORE PUSH5 0x736C697041 PUSH1 0xD8 SHL PUSH1 0x44 DUP3 ADD MSTORE PUSH1 0x64 SWAP1 REVERT JUMPDEST POP PUSH1 0x1 PUSH1 0x1 PUSH1 0x80 SHL SUB PUSH1 0x20 DUP8 ADD MLOAD AND ISZERO PUSH2 0xED JUMP JUMPDEST PUSH1 0x40 MLOAD PUSH3 0x461BCD PUSH1 0xE5 SHL DUP2 MSTORE PUSH1 0x20 PUSH1 0x4 DUP3 ADD MSTORE PUSH1 0x3 PUSH1 0x24 DUP3 ADD MSTORE PUSH3 0x65787 PUSH1 0xEC SHL PUSH1 0x44 DUP3 ADD MSTORE PUSH1 0x64 SWAP1 REVERT JUMPDEST PUSH0 DUP1 REVERT JUMPDEST CALLVALUE PUSH2 0x438 JUMPI PUSH1 0x40 CALLDATASIZE PUSH1 0x3 NOT ADD SLT PUSH2 0x438 JUMPI PUSH1 0x40 PUSH2 0x457 PUSH2 0xAD7 JUMP JUMPDEST PUSH2 0x468 PUSH2 0x462 PUSH2 0xAED JUMP JUMPDEST DUP3 PUSH2 0xC91 JUMP JUMPDEST SWAP1 PUSH1 0x1 DUP1 PUSH1 0xA0 SHL SUB AND SWAP1 DUP2 PUSH0 MSTORE PUSH1 0x1 PUSH1 0x20 MSTORE DUP4 PUSH0 KECCAK256 SWAP1 PUSH1 0x1 DUP1 PUSH1 0xA0 SHL SUB AND PUSH0 MSTORE PUSH1 0x20 MSTORE PUSH2 0x496 DUP4 PUSH0 KECCAK256 PUSH2 0xBE7 JUMP JUMPDEST SWAP2 PUSH1 0x1 PUSH1 0x1 PUSH1 0xA0 SHL SUB AND SUB PUSH2 0x4C8 JUMPI PUSH1 0x1 PUSH1 0x1 PUSH1 0x80 SHL SUB DUP1 PUSH1 0x20 DUP2 DUP5 MLOAD AND SWAP4 ADD MLOAD AND JUMPDEST DUP2 DUP5 MLOAD SWAP4 AND DUP4 MSTORE AND PUSH1 0x20 DUP3 ADD MSTORE RETURN JUMPDEST PUSH1 0x1 PUSH1 0x1 PUSH1 0x80 SHL SUB DUP1 DUP1 PUSH1 0x20 DUP5 ADD MLOAD AND SWAP3 MLOAD AND PUSH2 0x4B9 JUMP JUMPDEST CALLVALUE PUSH2 0x438 JUMPI PUSH1 0xE0 CALLDATASIZE PUSH1 0x3 NOT ADD SLT PUSH2 0x438 JUMPI PUSH2 0x4F9 PUSH2 0xAD7 JUMP JUMPDEST PUSH2 0x501 PUSH2 0xAED JUMP JUMPDEST SWAP1 PUSH1 0xA4 CALLDATALOAD PUSH1 0x1 PUSH1 0x1 PUSH1 0xA0 SHL SUB DUP2 AND DUP2 SUB PUSH2 0x438 JUMPI PUSH2 0x51D PUSH2 0xC3D JUMP JUMPDEST PUSH1 0xC4 CALLDATALOAD TIMESTAMP GT ISZERO DUP1 PUSH2 0x731 JUMPI JUMPDEST PUSH2 0x532 SWAP1 PUSH2 0xB03 JUMP JUMPDEST PUSH2 0x53C DUP4 DUP4 PUSH2 0xC91 JUMP JUMPDEST PUSH1 0x1 PUSH1 0x1 PUSH1 0xA0 SHL SUB DUP1 DUP4 AND PUSH0 SWAP1 DUP2 MSTORE PUSH1 0x1 PUSH1 0x20 SWAP1 DUP2 MSTORE PUSH1 0x40 DUP1 DUP4 KECCAK256 SWAP4 DUP6 AND DUP4 MSTORE SWAP3 DUP2 MSTORE DUP3 DUP3 KECCAK256 CALLER DUP4 MSTORE PUSH1 0x2 DUP2 ADD SWAP1 SWAP2 MSTORE SWAP2 SWAP1 KECCAK256 SLOAD SWAP1 SWAP6 SWAP2 SWAP3 SWAP2 SWAP1 PUSH1 0x44 CALLDATALOAD GT PUSH2 0x706 JUMPI PUSH2 0x587 DUP7 PUSH2 0xBE7 JUMP JUMPDEST SWAP5 DUP5 PUSH1 0x1 DUP9 ADD SLOAD SWAP3 DUP4 DUP9 MLOAD PUSH1 0x1 PUSH1 0x1 PUSH1 0x80 SHL SUB AND PUSH1 0x44 CALLDATALOAD SWAP1 PUSH2 0x5A8 SWAP2 PUSH2 0xC0C JUMP JUMPDEST SWAP1 PUSH2 0x5B2 SWAP2 PUSH2 0xC1F JUMP JUMPDEST SWAP8 DUP9 DUP6 PUSH1 0x20 DUP4 ADD MLOAD PUSH1 0x1 PUSH1 0x1 PUSH1 0x80 SHL SUB AND PUSH1 0x44 CALLDATALOAD SWAP1 PUSH2 0x5D0 SWAP2 PUSH2 0xC0C JUMP JUMPDEST SWAP1 PUSH2 0x5DA SWAP2 PUSH2 0xC1F JUMP JUMPDEST SWAP9 DUP10 SWAP6 PUSH1 0x64 CALLDATALOAD DUP4 LT ISZERO PUSH1 0x40 SWAP14 PUSH2 0x661 PUSH2 0x6A0 SWAP11 PUSH2 0x692 SWAP8 DUP5 PUSH1 0x2 SWAP6 PUSH2 0x6FA JUMPI JUMPDEST PUSH2 0x603 SWAP1 PUSH2 0xB49 JUMP JUMPDEST PUSH2 0x629 DUP13 PUSH1 0x1 PUSH1 0x1 PUSH1 0x80 SHL SUB PUSH1 0x20 DUP2 PUSH2 0x61F DUP14 DUP3 DUP9 MLOAD AND PUSH2 0xB7B JUMP JUMPDEST AND SWAP5 ADD MLOAD AND PUSH2 0xB7B JUMP JUMPDEST PUSH1 0x40 MLOAD PUSH2 0x635 DUP2 PUSH2 0xB95 JUMP JUMPDEST DUP3 DUP2 MSTORE PUSH1 0x1 PUSH1 0x1 PUSH1 0x80 SHL SUB DUP3 AND PUSH1 0x20 SWAP1 SWAP2 ADD MSTORE PUSH1 0x80 SHL PUSH1 0x1 PUSH1 0x1 PUSH1 0x80 SHL SUB NOT AND OR DUP4 SSTORE PUSH1 0x44 CALLDATALOAD SWAP1 PUSH2 0xB7B JUMP JUMPDEST PUSH1 0x1 DUP3 ADD SSTORE CALLER PUSH0 SWAP1 DUP2 MSTORE SWAP2 ADD PUSH1 0x20 MSTORE DUP14 SWAP1 KECCAK256 DUP1 SLOAD PUSH2 0x682 SWAP1 PUSH1 0x44 CALLDATALOAD SWAP1 PUSH2 0xB7B JUMP JUMPDEST SWAP1 SSTORE PUSH1 0x1 PUSH1 0x1 PUSH1 0xA0 SHL SUB AND PUSH2 0xD25 JUMP JUMPDEST PUSH1 0x1 PUSH1 0x1 PUSH1 0xA0 SHL SUB AND PUSH2 0xD25 JUMP JUMPDEST DUP5 MLOAD DUP5 DUP2 MSTORE PUSH1 0x20 DUP2 ADD DUP5 SWAP1 MSTORE PUSH1 0x44 CALLDATALOAD PUSH1 0x40 DUP3 ADD MSTORE CALLER SWAP3 PUSH1 0x1 PUSH1 0x1 PUSH1 0xA0 SHL SUB SWAP1 DUP2 AND SWAP3 AND SWAP1 PUSH32 0xD765E08EEF31C0983ECCA03ECD166297AC485ECD5DD69E291C848F0A020333C1 SWAP1 PUSH1 0x60 SWAP1 LOG4 PUSH1 0x1 PUSH0 SSTORE DUP3 MLOAD SWAP2 DUP3 MSTORE PUSH1 0x20 DUP3 ADD MSTORE RETURN JUMPDEST POP PUSH1 0x84 CALLDATALOAD DUP13 LT ISZERO PUSH2 0x5FA JUMP JUMPDEST PUSH1 0x40 MLOAD PUSH3 0x461BCD PUSH1 0xE5 SHL DUP2 MSTORE PUSH1 0x20 PUSH1 0x4 DUP3 ADD MSTORE PUSH1 0x3 PUSH1 0x24 DUP3 ADD MSTORE PUSH3 0x18985B PUSH1 0xEA SHL PUSH1 0x44 DUP3 ADD MSTORE PUSH1 0x64 SWAP1 REVERT JUMPDEST POP PUSH1 0x44 CALLDATALOAD ISZERO ISZERO PUSH2 0x529 JUMP JUMPDEST CALLVALUE PUSH2 0x438 JUMPI PUSH1 0x60 CALLDATASIZE PUSH1 0x3 NOT ADD SLT PUSH2 0x438 JUMPI PUSH2 0x755 PUSH2 0xAD7 JUMP JUMPDEST PUSH2 0x75D PUSH2 0xAED JUMP JUMPDEST SWAP1 PUSH1 0x44 CALLDATALOAD SWAP1 PUSH1 0x1 PUSH1 0x1 PUSH1 0xA0 SHL SUB DUP3 AND DUP3 SUB PUSH2 0x438 JUMPI PUSH1 0x2 SWAP3 PUSH2 0x77E SWAP2 PUSH2 0xC91 JUMP JUMPDEST PUSH1 0x1 PUSH1 0x1 PUSH1 0xA0 SHL SUB SWAP2 DUP3 AND PUSH0 SWAP1 DUP2 MSTORE PUSH1 0x1 PUSH1 0x20 SWAP1 DUP2 MSTORE PUSH1 0x40 DUP1 DUP4 KECCAK256 SWAP4 DUP6 AND DUP4 MSTORE SWAP3 DUP2 MSTORE DUP3 DUP3 KECCAK256 SWAP5 SWAP1 SWAP4 AND DUP2 MSTORE SWAP4 SWAP1 SWAP3 ADD DUP2 MSTORE SWAP2 DUP2 SWAP1 KECCAK256 SLOAD SWAP1 MLOAD SWAP1 DUP2 MSTORE RETURN JUMPDEST CALLVALUE PUSH2 0x438 JUMPI PUSH1 0xA0 CALLDATASIZE PUSH1 0x3 NOT ADD SLT PUSH2 0x438 JUMPI PUSH1 0x44 CALLDATALOAD PUSH1 0x4 CALLDATALOAD PUSH8 0xFFFFFFFFFFFFFFFF DUP3 GT PUSH2 0x438 JUMPI CALLDATASIZE PUSH1 0x23 DUP4 ADD SLT ISZERO PUSH2 0x438 JUMPI DUP2 PUSH1 0x4 ADD CALLDATALOAD SWAP2 PUSH8 0xFFFFFFFFFFFFFFFF DUP4 GT PUSH2 0x438 JUMPI CALLDATASIZE PUSH1 0x24 DUP5 PUSH1 0x5 SHL DUP4 ADD ADD GT PUSH2 0x438 JUMPI PUSH1 0x64 CALLDATALOAD SWAP1 PUSH1 0x1 PUSH1 0x1 PUSH1 0xA0 SHL SUB DUP3 AND DUP3 SUB PUSH2 0x438 JUMPI PUSH2 0x82D PUSH2 0xC3D JUMP JUMPDEST PUSH1 0x84 CALLDATALOAD TIMESTAMP GT ISZERO DUP1 PUSH2 0xACD JUMPI JUMPDEST DUP1 PUSH2 0xAC4 JUMPI JUMPDEST PUSH2 0x848 SWAP1 PUSH2 0xB03 JUMP JUMPDEST DUP4 ISZERO PUSH2 0xA46 JUMPI PUSH2 0x85A PUSH1 0x24 DUP3 ADD PUSH2 0xB35 JUMP JUMPDEST SWAP4 PUSH1 0x1 LT ISZERO PUSH2 0xA46 JUMPI PUSH1 0x44 PUSH2 0x86F SWAP2 ADD PUSH2 0xB35 JUMP JUMPDEST SWAP1 PUSH2 0x87A DUP3 DUP6 PUSH2 0xC91 JUMP JUMPDEST PUSH1 0x1 PUSH1 0x1 PUSH1 0xA0 SHL SUB SWAP2 DUP3 AND PUSH0 DUP2 DUP2 MSTORE PUSH1 0x1 PUSH1 0x20 SWAP1 DUP2 MSTORE PUSH1 0x40 DUP1 DUP4 KECCAK256 SWAP5 DUP7 AND DUP4 MSTORE SWAP4 SWAP1 MSTORE SWAP2 SWAP1 SWAP2 KECCAK256 SWAP2 SWAP1 SWAP6 AND SWAP5 DUP6 EQ SWAP3 DUP4 ISZERO PUSH2 0xAAB JUMPI DUP2 SLOAD SWAP1 PUSH1 0x1 PUSH1 0x1 PUSH1 0x80 SHL SUB DUP1 DUP1 DUP5 AND SWAP4 PUSH1 0x80 SHR SWAP4 JUMPDEST AND SWAP3 AND SWAP3 PUSH2 0x8D4 DUP8 ADDRESS CALLER DUP12 PUSH2 0xCDA JUMP JUMPDEST PUSH2 0x3E5 DUP8 MUL SWAP4 DUP8 DUP6 DIV PUSH2 0x3E5 EQ DUP9 ISZERO OR ISZERO PUSH2 0x292 JUMPI PUSH2 0x8F3 DUP2 DUP7 PUSH2 0xC0C JUMP JUMPDEST SWAP7 PUSH2 0x3E8 DUP6 MUL SWAP6 DUP6 DUP8 DIV PUSH2 0x3E8 EQ DUP7 ISZERO OR ISZERO PUSH2 0x292 JUMPI DUP10 SWAP9 PUSH2 0x91B PUSH2 0x921 SWAP3 PUSH2 0x996 SWAP10 PUSH2 0xB88 JUMP JUMPDEST SWAP1 PUSH2 0xC1F JUMP JUMPDEST SWAP9 DUP10 SWAP6 DUP7 SWAP3 PUSH2 0x934 PUSH1 0x24 CALLDATALOAD DUP6 LT ISZERO PUSH2 0xB49 JUMP JUMPDEST ISZERO PUSH2 0xA5A JUMPI PUSH2 0x94F PUSH2 0x956 SWAP4 SWAP3 PUSH1 0x1 PUSH1 0x1 PUSH1 0x80 SHL SUB SWAP3 PUSH2 0xB88 JUMP JUMPDEST AND SWAP3 PUSH2 0xB7B JUMP JUMPDEST PUSH1 0x40 MLOAD PUSH2 0x962 DUP2 PUSH2 0xB95 JUMP JUMPDEST DUP3 DUP2 MSTORE PUSH1 0x1 PUSH1 0x1 PUSH1 0x80 SHL SUB DUP3 AND PUSH1 0x20 SWAP1 SWAP2 ADD MSTORE PUSH1 0x80 SHL PUSH1 0x1 PUSH1 0x1 PUSH1 0x80 SHL SUB NOT AND OR SWAP1 SSTORE JUMPDEST PUSH1 0x1 PUSH1 0x1 PUSH1 0xA0 SHL SUB AND SWAP3 DUP4 PUSH2 0xD25 JUMP JUMPDEST PUSH1 0x40 MLOAD SWAP4 PUSH2 0x9A5 PUSH1 0x60 DUP7 PUSH2 0xBC5 JUMP JUMPDEST PUSH1 0x2 DUP6 MSTORE PUSH1 0x20 DUP6 ADD SWAP4 PUSH1 0x40 CALLDATASIZE DUP7 CALLDATACOPY DUP6 MLOAD ISZERO PUSH2 0xA46 JUMPI DUP4 DUP6 MSTORE DUP6 MLOAD PUSH1 0x1 LT ISZERO PUSH2 0xA46 JUMPI DUP1 PUSH1 0x40 DUP8 SWAP7 SWAP8 ADD MSTORE PUSH1 0x40 MLOAD SWAP4 DUP5 MSTORE PUSH1 0x20 DUP5 ADD MSTORE PUSH32 0xAD56699D0F375866EB895ED27203058A36A713382AADED78EB6B67DA266D4332 PUSH1 0x40 CALLER SWAP5 LOG4 PUSH1 0x1 PUSH0 SSTORE PUSH1 0x40 MLOAD SWAP2 DUP3 SWAP2 PUSH1 0x20 DUP4 ADD SWAP1 PUSH1 0x20 DUP5 MSTORE MLOAD DUP1 SWAP2 MSTORE PUSH1 0x40 DUP4 ADD SWAP2 SWAP1 PUSH0 JUMPDEST DUP2 DUP2 LT PUSH2 0xA2D JUMPI POP POP POP SUB SWAP1 RETURN JUMPDEST DUP3 MLOAD DUP5 MSTORE DUP6 SWAP5 POP PUSH1 0x20 SWAP4 DUP5 ADD SWAP4 SWAP1 SWAP3 ADD SWAP2 PUSH1 0x1 ADD PUSH2 0xA1F JUMP JUMPDEST PUSH4 0x4E487B71 PUSH1 0xE0 SHL PUSH0 MSTORE PUSH1 0x32 PUSH1 0x4 MSTORE PUSH1 0x24 PUSH0 REVERT JUMPDEST SWAP3 PUSH2 0xA70 PUSH2 0xA77 SWAP4 PUSH1 0x1 PUSH1 0x1 PUSH1 0x80 SHL SUB SWAP3 PUSH2 0xB7B JUMP JUMPDEST AND SWAP3 PUSH2 0xB88 JUMP JUMPDEST PUSH1 0x40 MLOAD PUSH2 0xA83 DUP2 PUSH2 0xB95 JUMP JUMPDEST DUP3 DUP2 MSTORE PUSH1 0x1 PUSH1 0x1 PUSH1 0x80 SHL SUB DUP3 AND PUSH1 0x20 SWAP1 SWAP2 ADD MSTORE PUSH1 0x80 SHL PUSH1 0x1 PUSH1 0x1 PUSH1 0x80 SHL SUB NOT AND OR SWAP1 SSTORE PUSH2 0x986 JUMP JUMPDEST DUP2 SLOAD SWAP1 PUSH1 0x1 PUSH1 0x1 PUSH1 0x80 SHL SUB DUP1 DUP1 DUP5 PUSH1 0x80 SHR SWAP5 AND SWAP4 PUSH2 0x8C4 JUMP JUMPDEST POP DUP3 ISZERO ISZERO PUSH2 0x83F JUMP JUMPDEST POP PUSH1 0x2 DUP5 EQ PUSH2 0x839 JUMP JUMPDEST PUSH1 0x4 CALLDATALOAD SWAP1 PUSH1 0x1 PUSH1 0x1 PUSH1 0xA0 SHL SUB DUP3 AND DUP3 SUB PUSH2 0x438 JUMPI JUMP JUMPDEST PUSH1 0x24 CALLDATALOAD SWAP1 PUSH1 0x1 PUSH1 0x1 PUSH1 0xA0 SHL SUB DUP3 AND DUP3 SUB PUSH2 0x438 JUMPI JUMP JUMPDEST ISZERO PUSH2 0xB0A JUMPI JUMP JUMPDEST PUSH1 0x40 MLOAD PUSH3 0x461BCD PUSH1 0xE5 SHL DUP2 MSTORE PUSH1 0x20 PUSH1 0x4 DUP3 ADD MSTORE PUSH1 0x3 PUSH1 0x24 DUP3 ADD MSTORE PUSH3 0x34B73B PUSH1 0xE9 SHL PUSH1 0x44 DUP3 ADD MSTORE PUSH1 0x64 SWAP1 REVERT JUMPDEST CALLDATALOAD PUSH1 0x1 PUSH1 0x1 PUSH1 0xA0 SHL SUB DUP2 AND DUP2 SUB PUSH2 0x438 JUMPI SWAP1 JUMP JUMPDEST ISZERO PUSH2 0xB50 JUMPI JUMP JUMPDEST PUSH1 0x64 PUSH1 0x40 MLOAD PUSH3 0x461BCD PUSH1 0xE5 SHL DUP2 MSTORE PUSH1 0x20 PUSH1 0x4 DUP3 ADD MSTORE PUSH1 0x4 PUSH1 0x24 DUP3 ADD MSTORE PUSH4 0x736C697 PUSH1 0xE4 SHL PUSH1 0x44 DUP3 ADD MSTORE REVERT JUMPDEST SWAP2 SWAP1 DUP3 SUB SWAP2 DUP3 GT PUSH2 0x292 JUMPI JUMP JUMPDEST SWAP2 SWAP1 DUP3 ADD DUP1 SWAP3 GT PUSH2 0x292 JUMPI JUMP JUMPDEST PUSH1 0x40 DUP2 ADD SWAP1 DUP2 LT PUSH8 0xFFFFFFFFFFFFFFFF DUP3 GT OR PUSH2 0xBB1 JUMPI PUSH1 0x40 MSTORE JUMP JUMPDEST PUSH4 0x4E487B71 PUSH1 0xE0 SHL PUSH0 MSTORE PUSH1 0x41 PUSH1 0x4 MSTORE PUSH1 0x24 PUSH0 REVERT JUMPDEST SWAP1 PUSH1 0x1F DUP1 NOT SWAP2 ADD AND DUP2 ADD SWAP1 DUP2 LT PUSH8 0xFFFFFFFFFFFFFFFF DUP3 GT OR PUSH2 0xBB1 JUMPI PUSH1 0x40 MSTORE JUMP JUMPDEST SWAP1 PUSH1 0x40 MLOAD PUSH2 0xBF4 DUP2 PUSH2 0xB95 JUMP JUMPDEST SWAP2 SLOAD PUSH1 0x1 PUSH1 0x1 PUSH1 0x80 SHL SUB DUP2 AND DUP4 MSTORE PUSH1 0x80 SHR PUSH1 0x20 DUP4 ADD MSTORE JUMP JUMPDEST DUP2 DUP2 MUL SWAP3 SWAP2 DUP2 ISZERO SWAP2 DUP5 DIV EQ OR ISZERO PUSH2 0x292 JUMPI JUMP JUMPDEST DUP2 ISZERO PUSH2 0xC29 JUMPI DIV SWAP1 JUMP JUMPDEST PUSH4 0x4E487B71 PUSH1 0xE0 SHL PUSH0 MSTORE PUSH1 0x12 PUSH1 0x4 MSTORE PUSH1 0x24 PUSH0 REVERT JUMPDEST PUSH1 0x2 PUSH0 SLOAD EQ PUSH2 0xC4C JUMPI PUSH1 0x2 PUSH0 SSTORE JUMP JUMPDEST PUSH1 0x40 MLOAD PUSH3 0x461BCD PUSH1 0xE5 SHL DUP2 MSTORE PUSH1 0x20 PUSH1 0x4 DUP3 ADD MSTORE PUSH1 0x1F PUSH1 0x24 DUP3 ADD MSTORE PUSH32 0x5265656E7472616E637947756172643A207265656E7472616E742063616C6C00 PUSH1 0x44 DUP3 ADD MSTORE PUSH1 0x64 SWAP1 REVERT JUMPDEST SWAP1 SWAP2 SWAP1 PUSH1 0x1 PUSH1 0x1 PUSH1 0xA0 SHL SUB DUP1 DUP5 AND SWAP1 DUP3 AND DUP1 DUP3 EQ ISZERO DUP1 PUSH2 0xCD1 JUMPI JUMPDEST DUP1 PUSH2 0xCC8 JUMPI JUMPDEST PUSH2 0xCBB SWAP1 PUSH2 0xB03 JUMP JUMPDEST LT ISZERO PUSH2 0xCC5 JUMPI SWAP2 SWAP1 JUMP JUMPDEST SWAP1 JUMP JUMPDEST POP DUP2 ISZERO ISZERO PUSH2 0xCB2 JUMP JUMPDEST POP DUP1 ISZERO ISZERO PUSH2 0xCAC JUMP JUMPDEST PUSH1 0x40 MLOAD PUSH4 0x23B872DD PUSH1 0xE0 SHL PUSH1 0x20 DUP3 ADD MSTORE PUSH1 0x1 PUSH1 0x1 PUSH1 0xA0 SHL SUB SWAP3 DUP4 AND PUSH1 0x24 DUP3 ADD MSTORE SWAP3 SWAP1 SWAP2 AND PUSH1 0x44 DUP4 ADD MSTORE PUSH1 0x64 DUP1 DUP4 ADD SWAP4 SWAP1 SWAP4 MSTORE SWAP2 DUP2 MSTORE PUSH2 0xD23 SWAP2 PUSH2 0xD1E PUSH1 0x84 DUP4 PUSH2 0xBC5 JUMP JUMPDEST PUSH2 0xD60 JUMP JUMPDEST JUMP JUMPDEST PUSH1 0x40 MLOAD PUSH4 0xA9059CBB PUSH1 0xE0 SHL PUSH1 0x20 DUP3 ADD MSTORE PUSH1 0x1 PUSH1 0x1 PUSH1 0xA0 SHL SUB SWAP1 SWAP3 AND PUSH1 0x24 DUP4 ADD MSTORE PUSH1 0x44 DUP1 DUP4 ADD SWAP4 SWAP1 SWAP4 MSTORE SWAP2 DUP2 MSTORE PUSH2 0xD23 SWAP2 PUSH2 0xD1E PUSH1 0x64 DUP4 PUSH2 0xBC5 JUMP JUMPDEST SWAP1 PUSH0 PUSH1 0x20 SWAP2 DUP3 DUP2 MLOAD SWAP2 ADD DUP3 DUP6 GAS CALL ISZERO PUSH2 0xDB8 JUMPI PUSH0 MLOAD RETURNDATASIZE PUSH2 0xDAF JUMPI POP PUSH1 0x1 PUSH1 0x1 PUSH1 0xA0 SHL SUB DUP2 AND EXTCODESIZE ISZERO JUMPDEST PUSH2 0xD8F JUMPI POP JUMP JUMPDEST PUSH4 0x5274AFE7 PUSH1 0xE0 SHL PUSH0 SWAP1 DUP2 MSTORE PUSH1 0x1 PUSH1 0x1 PUSH1 0xA0 SHL SUB SWAP2 SWAP1 SWAP2 AND PUSH1 0x4 MSTORE PUSH1 0x24 SWAP1 REVERT JUMPDEST PUSH1 0x1 EQ ISZERO PUSH2 0xD88 JUMP JUMPDEST PUSH1 0x40 MLOAD RETURNDATASIZE PUSH0 DUP3 RETURNDATACOPY RETURNDATASIZE SWAP1 REVERT INVALID LOG2 PUSH5 0x6970667358 0x22 SLT KECCAK256 0xDF 0xCF 0xBB CALLCODE SWAP10 TLOAD MCOPY 0x23 REVERT 0x2C EXTCODECOPY 0xB8 0xD2 0xAD 0xD2 0xA8 0xEA DUP6 BASEFEE 0x2F PUSH22 0x4979CDC7ABE752CFECE68664736F6C634300081E0033 "
				},
				"gasEstimates": {
					"creation": {
						"codeDepositCost": "715400",
						"executionCost": "22860",
						"totalCost": "738260"
					},
					"external": {
						"addLiquidity(address,address,uint256,uint256,uint256,uint256,address,uint256)": "infinite",
						"balanceOf(address,address,address)": "2958",
						"getReserves(address,address)": "3124",
						"removeLiquidity(address,address,uint256,uint256,uint256,address,uint256)": "infinite",
						"swapExactTokensForTokens(uint256,uint256,address[],address,uint256)": "infinite"
					},
					"internal": {
						"_getAmountOut(uint256,uint256,uint256)": "infinite",
						"_min(uint256,uint256)": "infinite",
						"_sortTokens(address,address)": "infinite",
						"_sqrt(uint256)": "infinite"
					}
				},
				"methodIdentifiers": {
					"addLiquidity(address,address,uint256,uint256,uint256,uint256,address,uint256)": "e8e33700",
					"balanceOf(address,address,address)": "75bb9b63",
					"getReserves(address,address)": "d52bb6f4",
					"removeLiquidity(address,address,uint256,uint256,uint256,address,uint256)": "baa2abde",
					"swapExactTokensForTokens(uint256,uint256,address[],address,uint256)": "38ed1739"
				}
			},
			"storageLayout": {
				"storage": [
					{
						"astId": 100,
						"contract": "simpleswap.sol:SimpleSwap",
						"label": "_status",
						"offset": 0,
						"slot": "0",
						"type": "t_uint256"
					},
					{
						"astId": 747,
						"contract": "simpleswap.sol:SimpleSwap",
						"label": "_pairs",
						"offset": 0,
						"slot": "1",
						"type": "t_mapping(t_address,t_mapping(t_address,t_struct(Pair)740_storage))"
					}
				],
				"types": {
					"t_address": {
						"encoding": "inplace",
						"label": "address",
						"numberOfBytes": "20"
					},
					"t_mapping(t_address,t_mapping(t_address,t_struct(Pair)740_storage))": {
						"encoding": "mapping",
						"key": "t_address",
						"label": "mapping(address => mapping(address => struct SimpleSwap.Pair))",
						"numberOfBytes": "32",
						"value": "t_mapping(t_address,t_struct(Pair)740_storage)"
					},
					"t_mapping(t_address,t_struct(Pair)740_storage)": {
						"encoding": "mapping",
						"key": "t_address",
						"label": "mapping(address => struct SimpleSwap.Pair)",
						"numberOfBytes": "32",
						"value": "t_struct(Pair)740_storage"
					},
					"t_mapping(t_address,t_uint256)": {
						"encoding": "mapping",
						"key": "t_address",
						"label": "mapping(address => uint256)",
						"numberOfBytes": "32",
						"value": "t_uint256"
					},
					"t_struct(Pair)740_storage": {
						"encoding": "inplace",
						"label": "struct SimpleSwap.Pair",
						"members": [
							{
								"astId": 733,
								"contract": "simpleswap.sol:SimpleSwap",
								"label": "reserves",
								"offset": 0,
								"slot": "0",
								"type": "t_struct(Reserves)730_storage"
							},
							{
								"astId": 735,
								"contract": "simpleswap.sol:SimpleSwap",
								"label": "totalSupply",
								"offset": 0,
								"slot": "1",
								"type": "t_uint256"
							},
							{
								"astId": 739,
								"contract": "simpleswap.sol:SimpleSwap",
								"label": "balances",
								"offset": 0,
								"slot": "2",
								"type": "t_mapping(t_address,t_uint256)"
							}
						],
						"numberOfBytes": "96"
					},
					"t_struct(Reserves)730_storage": {
						"encoding": "inplace",
						"label": "struct SimpleSwap.Reserves",
						"members": [
							{
								"astId": 727,
								"contract": "simpleswap.sol:SimpleSwap",
								"label": "reserve0",
								"offset": 0,
								"slot": "0",
								"type": "t_uint128"
							},
							{
								"astId": 729,
								"contract": "simpleswap.sol:SimpleSwap",
								"label": "reserve1",
								"offset": 16,
								"slot": "0",
								"type": "t_uint128"
							}
						],
						"numberOfBytes": "32"
					},
					"t_uint128": {
						"encoding": "inplace",
						"label": "uint128",
						"numberOfBytes": "16"
					},
					"t_uint256": {
						"encoding": "inplace",
						"label": "uint256",
						"numberOfBytes": "32"
					}
				}
			},
			"userdoc": {
				"kind": "user",
				"methods": {},
				"version": 1
			}
		}
	}
}