{
	"simpleswap.sol": {
		"SimpleSwap": {
			"abi": [
				{
					"inputs": [
						{
							"internalType": "address",
							"name": "_tokenA",
							"type": "address"
						},
						{
							"internalType": "address",
							"name": "_tokenB",
							"type": "address"
						}
					],
					"stateMutability": "nonpayable",
					"type": "constructor"
				},
				{
					"inputs": [
						{
							"internalType": "address",
							"name": "token",
							"type": "address"
						}
					],
					"name": "SafeERC20FailedOperation",
					"type": "error"
				},
				{
					"anonymous": false,
					"inputs": [
						{
							"indexed": true,
							"internalType": "address",
							"name": "provider",
							"type": "address"
						},
						{
							"indexed": false,
							"internalType": "uint256",
							"name": "amountA",
							"type": "uint256"
						},
						{
							"indexed": false,
							"internalType": "uint256",
							"name": "amountB",
							"type": "uint256"
						},
						{
							"indexed": false,
							"internalType": "uint256",
							"name": "liquidity",
							"type": "uint256"
						}
					],
					"name": "LiquidityAdded",
					"type": "event"
				},
				{
					"anonymous": false,
					"inputs": [
						{
							"indexed": true,
							"internalType": "address",
							"name": "provider",
							"type": "address"
						},
						{
							"indexed": false,
							"internalType": "uint256",
							"name": "amountA",
							"type": "uint256"
						},
						{
							"indexed": false,
							"internalType": "uint256",
							"name": "amountB",
							"type": "uint256"
						},
						{
							"indexed": false,
							"internalType": "uint256",
							"name": "liquidity",
							"type": "uint256"
						}
					],
					"name": "LiquidityRemoved",
					"type": "event"
				},
				{
					"anonymous": false,
					"inputs": [
						{
							"indexed": true,
							"internalType": "address",
							"name": "user",
							"type": "address"
						},
						{
							"indexed": false,
							"internalType": "uint256",
							"name": "amountIn",
							"type": "uint256"
						},
						{
							"indexed": false,
							"internalType": "uint256",
							"name": "amountOut",
							"type": "uint256"
						}
					],
					"name": "Swap",
					"type": "event"
				},
				{
					"inputs": [
						{
							"internalType": "uint256",
							"name": "amountADesired",
							"type": "uint256"
						},
						{
							"internalType": "uint256",
							"name": "amountBDesired",
							"type": "uint256"
						},
						{
							"internalType": "uint256",
							"name": "amountAMin",
							"type": "uint256"
						},
						{
							"internalType": "uint256",
							"name": "amountBMin",
							"type": "uint256"
						},
						{
							"internalType": "address",
							"name": "to",
							"type": "address"
						},
						{
							"internalType": "uint256",
							"name": "deadline",
							"type": "uint256"
						}
					],
					"name": "addLiquidity",
					"outputs": [
						{
							"internalType": "uint256",
							"name": "amountA",
							"type": "uint256"
						},
						{
							"internalType": "uint256",
							"name": "amountB",
							"type": "uint256"
						},
						{
							"internalType": "uint256",
							"name": "liquidity",
							"type": "uint256"
						}
					],
					"stateMutability": "nonpayable",
					"type": "function"
				},
				{
					"inputs": [
						{
							"internalType": "address",
							"name": "user",
							"type": "address"
						}
					],
					"name": "balanceOf",
					"outputs": [
						{
							"internalType": "uint256",
							"name": "",
							"type": "uint256"
						}
					],
					"stateMutability": "view",
					"type": "function"
				},
				{
					"inputs": [],
					"name": "getReserves",
					"outputs": [
						{
							"internalType": "uint256",
							"name": "",
							"type": "uint256"
						},
						{
							"internalType": "uint256",
							"name": "",
							"type": "uint256"
						}
					],
					"stateMutability": "view",
					"type": "function"
				},
				{
					"inputs": [
						{
							"internalType": "uint256",
							"name": "liquidity",
							"type": "uint256"
						},
						{
							"internalType": "uint256",
							"name": "amountAMin",
							"type": "uint256"
						},
						{
							"internalType": "uint256",
							"name": "amountBMin",
							"type": "uint256"
						},
						{
							"internalType": "address",
							"name": "to",
							"type": "address"
						},
						{
							"internalType": "uint256",
							"name": "deadline",
							"type": "uint256"
						}
					],
					"name": "removeLiquidity",
					"outputs": [
						{
							"internalType": "uint256",
							"name": "amountA",
							"type": "uint256"
						},
						{
							"internalType": "uint256",
							"name": "amountB",
							"type": "uint256"
						}
					],
					"stateMutability": "nonpayable",
					"type": "function"
				},
				{
					"inputs": [
						{
							"internalType": "uint256",
							"name": "amountIn",
							"type": "uint256"
						},
						{
							"internalType": "uint256",
							"name": "amountOutMin",
							"type": "uint256"
						},
						{
							"internalType": "bool",
							"name": "swapAToB",
							"type": "bool"
						},
						{
							"internalType": "address",
							"name": "to",
							"type": "address"
						},
						{
							"internalType": "uint256",
							"name": "deadline",
							"type": "uint256"
						}
					],
					"name": "swap",
					"outputs": [
						{
							"internalType": "uint256",
							"name": "amountOut",
							"type": "uint256"
						}
					],
					"stateMutability": "nonpayable",
					"type": "function"
				},
				{
					"inputs": [],
					"name": "tokenA",
					"outputs": [
						{
							"internalType": "contract IERC20",
							"name": "",
							"type": "address"
						}
					],
					"stateMutability": "view",
					"type": "function"
				},
				{
					"inputs": [],
					"name": "tokenB",
					"outputs": [
						{
							"internalType": "contract IERC20",
							"name": "",
							"type": "address"
						}
					],
					"stateMutability": "view",
					"type": "function"
				},
				{
					"inputs": [],
					"name": "totalSupply",
					"outputs": [
						{
							"internalType": "uint256",
							"name": "",
							"type": "uint256"
						}
					],
					"stateMutability": "view",
					"type": "function"
				}
			],
			"devdoc": {
				"errors": {
					"SafeERC20FailedOperation(address)": [
						{
							"details": "An operation with an ERC-20 token failed."
						}
					]
				},
				"kind": "dev",
				"methods": {},
				"title": "SimpleSwap - Minimal DEX for Single Token Pair",
				"version": 1
			},
			"evm": {
				"assembly": "    /* \"simpleswap.sol\":361:5780  contract SimpleSwap is ReentrancyGuard {... */\n  0x80\n  jumpi(tag_14, callvalue)\n  0x1f\n  bytecodeSize\n  codesize\n  dup2\n  swap1\n  sub\n  swap2\n  dup3\n  add\n  not(0x1f)\n  and\n  dup4\n  add\n  swap2\n  sub(shl(0x40, 0x01), 0x01)\n  dup4\n  gt\n  dup5\n  dup5\n  lt\n  or\n  tag_4\n  jumpi\n  dup1\n  dup5\n  swap3\n  0x40\n  swap5\n  dup6\n  mstore\n  dup4\n  codecopy\n  dup2\n  add\n  sub\n  slt\n  tag_14\n  jumpi\n  tag_8\n  0x20\n  tag_9\n  dup4\n  tag_1\n  jump\t// in\ntag_9:\n  swap3\n  add\n  tag_1\n  jump\t// in\ntag_8:\n    /* \"@openzeppelin/contracts/security/ReentrancyGuard.sol\":1716:1717  1 */\n  sstore(0x00, 0x01)\n  sub(shl(0xa0, 0x01), 0x01)\n    /* \"simpleswap.sol\":361:5780  contract SimpleSwap is ReentrancyGuard {... */\n  swap1\n  dup2\n  and\n  swap2\n  and\n    /* \"simpleswap.sol\":1110:1128  _tokenA != _tokenB */\n  dup1\n  dup3\n  eq\n  iszero\n  dup1\n    /* \"simpleswap.sol\":1110:1153  _tokenA != _tokenB && _tokenA != address(0) */\n  tag_10\n  jumpi\ntag_11:\n    /* \"simpleswap.sol\":1110:1178  _tokenA != _tokenB && _tokenA != address(0) && _tokenB != address(0) */\n  dup1\n  tag_12\n  jumpi\ntag_13:\n    /* \"simpleswap.sol\":361:5780  contract SimpleSwap is ReentrancyGuard {... */\n  iszero\n  tag_14\n  jumpi\n  0x01\n  dup1\n  0xa0\n  shl\n  sub\n  not\n    /* \"simpleswap.sol\":1190:1214  tokenA = IERC20(_tokenA) */\n  0x05\n    /* \"simpleswap.sol\":361:5780  contract SimpleSwap is ReentrancyGuard {... */\n  sload\n  and\n  or\n    /* \"simpleswap.sol\":1190:1214  tokenA = IERC20(_tokenA) */\n  0x05\n    /* \"simpleswap.sol\":361:5780  contract SimpleSwap is ReentrancyGuard {... */\n  sstore\n  0x01\n  dup1\n  0xa0\n  shl\n  sub\n  not\n    /* \"simpleswap.sol\":1225:1249  tokenB = IERC20(_tokenB) */\n  0x06\n    /* \"simpleswap.sol\":361:5780  contract SimpleSwap is ReentrancyGuard {... */\n  sload\n  and\n  or\n    /* \"simpleswap.sol\":1225:1249  tokenB = IERC20(_tokenB) */\n  0x06\n    /* \"simpleswap.sol\":361:5780  contract SimpleSwap is ReentrancyGuard {... */\n  sstore\n  mload(0x40)\n  dataSize(sub_0)\n  swap1\n  dup2\n  dataOffset(sub_0)\n  dup3\n  codecopy\n  return\ntag_14:\n  0x00\n  dup1\n  revert\n    /* \"simpleswap.sol\":1110:1178  _tokenA != _tokenB && _tokenA != address(0) && _tokenB != address(0) */\ntag_12:\n    /* \"simpleswap.sol\":1157:1178  _tokenB != address(0) */\n  pop\n  dup2\n  iszero\n  iszero\n    /* \"simpleswap.sol\":1110:1178  _tokenA != _tokenB && _tokenA != address(0) && _tokenB != address(0) */\n  jump(tag_13)\n    /* \"simpleswap.sol\":1110:1153  _tokenA != _tokenB && _tokenA != address(0) */\ntag_10:\n    /* \"simpleswap.sol\":1132:1153  _tokenA != address(0) */\n  pop\n  dup1\n  iszero\n  iszero\n    /* \"simpleswap.sol\":1110:1153  _tokenA != _tokenB && _tokenA != address(0) */\n  jump(tag_11)\n    /* \"simpleswap.sol\":361:5780  contract SimpleSwap is ReentrancyGuard {... */\ntag_4:\n  mstore(0x00, shl(0xe0, 0x4e487b71))\n  mstore(0x04, 0x41)\n  revert(0x00, 0x24)\ntag_1:\n  mload\n  swap1\n  sub(shl(0xa0, 0x01), 0x01)\n  dup3\n  and\n  dup3\n  sub\n  tag_14\n  jumpi\n  jump\t// out\nstop\n\nsub_0: assembly {\n        /* \"simpleswap.sol\":361:5780  contract SimpleSwap is ReentrancyGuard {... */\n      0x80\n      dup1\n      0x40\n      mstore\n      jumpi(tag_12, iszero(lt(calldatasize, 0x04)))\n      0x00\n      dup1\n      revert\n    tag_12:\n      shr(0xe0, calldataload(0x00))\n      swap1\n      dup2\n      0x0902f1ac\n      eq\n      tag_14\n      jumpi\n      pop\n      dup1\n      0x0fc63d10\n      eq\n      tag_16\n      jumpi\n      dup1\n      0x18160ddd\n      eq\n      tag_18\n      jumpi\n      dup1\n      0x5f64b55b\n      eq\n      tag_20\n      jumpi\n      dup1\n      0x704c4536\n      eq\n      tag_22\n      jumpi\n      dup1\n      0x70a08231\n      eq\n      tag_24\n      jumpi\n      dup1\n      0xded998b9\n      eq\n      tag_26\n      jumpi\n      0xed856cdc\n      eq\n      tag_28\n      jumpi\n      0x00\n      dup1\n      revert\n    tag_28:\n      jumpi(tag_48, callvalue)\n      jumpi(tag_48, slt(add(not(0x03), calldatasize), 0xa0))\n      calldataload(0x04)\n      tag_34\n      tag_1\n      jump\t// in\n    tag_34:\n        /* \"@openzeppelin/contracts/security/ReentrancyGuard.sol\":2227:2330  modifier nonReentrant() {... */\n      tag_35\n      tag_7\n      jump\t// in\n    tag_35:\n        /* \"simpleswap.sol\":361:5780  contract SimpleSwap is ReentrancyGuard {... */\n      calldataload(0x84)\n        /* \"simpleswap.sol\":3912:3927  block.timestamp */\n      timestamp\n        /* \"simpleswap.sol\":3912:3939  block.timestamp <= deadline */\n      gt\n        /* \"simpleswap.sol\":361:5780  contract SimpleSwap is ReentrancyGuard {... */\n      tag_48\n      jumpi\n        /* \"simpleswap.sol\":3959:3972  liquidity > 0 */\n      dup2\n      iszero\n      iszero\n        /* \"simpleswap.sol\":3959:4010  liquidity > 0 && _balances[msg.sender] >= liquidity */\n      dup1\n      tag_38\n      jumpi\n        /* \"simpleswap.sol\":361:5780  contract SimpleSwap is ReentrancyGuard {... */\n    tag_39:\n      iszero\n      tag_48\n      jumpi\n      sload(0x01)\n      swap1\n        /* \"simpleswap.sol\":4079:4097  _reserves.reserveB */\n      0x02\n        /* \"simpleswap.sol\":361:5780  contract SimpleSwap is ReentrancyGuard {... */\n      sload\n        /* \"simpleswap.sol\":4121:4135  liquidity * rA */\n      swap3\n      tag_42\n      dup4\n      dup3\n      tag_3\n      jump\t// in\n    tag_42:\n        /* \"simpleswap.sol\":361:5780  contract SimpleSwap is ReentrancyGuard {... */\n      swap3\n        /* \"simpleswap.sol\":4120:4151  (liquidity * rA) / _totalSupply */\n      tag_43\n        /* \"simpleswap.sol\":4139:4151  _totalSupply */\n      0x03\n        /* \"simpleswap.sol\":361:5780  contract SimpleSwap is ReentrancyGuard {... */\n      sload\n        /* \"simpleswap.sol\":4120:4151  (liquidity * rA) / _totalSupply */\n      dup1\n      swap6\n      tag_5\n      jump\t// in\n    tag_43:\n        /* \"simpleswap.sol\":4173:4187  liquidity * rB */\n      swap4\n        /* \"simpleswap.sol\":4172:4203  (liquidity * rB) / _totalSupply */\n      tag_44\n        /* \"simpleswap.sol\":4173:4187  liquidity * rB */\n      dup2\n      tag_45\n      dup9\n      dup7\n      tag_3\n      jump\t// in\n    tag_45:\n        /* \"simpleswap.sol\":4172:4203  (liquidity * rB) / _totalSupply */\n      tag_5\n      jump\t// in\n    tag_44:\n        /* \"simpleswap.sol\":361:5780  contract SimpleSwap is ReentrancyGuard {... */\n      swap4\n      calldataload(0x24)\n        /* \"simpleswap.sol\":4224:4245  amountA >= amountAMin */\n      dup7\n      lt\n        /* \"simpleswap.sol\":361:5780  contract SimpleSwap is ReentrancyGuard {... */\n      tag_48\n      jumpi\n      calldataload(0x44)\n        /* \"simpleswap.sol\":4265:4286  amountB >= amountBMin */\n      dup6\n      lt\n        /* \"simpleswap.sol\":361:5780  contract SimpleSwap is ReentrancyGuard {... */\n      tag_48\n      jumpi\n        /* \"simpleswap.sol\":4388:4413  _totalSupply -= liquidity */\n      tag_50\n        /* \"simpleswap.sol\":4321:4333  rA - amountA */\n      dup5\n        /* \"simpleswap.sol\":4564:4613  LiquidityRemoved(to, amountA, amountB, liquidity) */\n      tag_51\n        /* \"simpleswap.sol\":4321:4333  rA - amountA */\n      swap4\n        /* \"simpleswap.sol\":4365:4377  rB - amountB */\n      tag_52\n        /* \"simpleswap.sol\":4321:4333  rA - amountA */\n      dup9\n        /* \"simpleswap.sol\":361:5780  contract SimpleSwap is ReentrancyGuard {... */\n      0x40\n        /* \"simpleswap.sol\":4321:4333  rA - amountA */\n      swap12\n      tag_53\n      dup13\n        /* \"simpleswap.sol\":4564:4613  LiquidityRemoved(to, amountA, amountB, liquidity) */\n      0x1dc8bb69df2b8e91fbdcbfcf93d951b3f0000f085a95fe3f7946d6161439245d\n        /* \"simpleswap.sol\":4321:4333  rA - amountA */\n      swap11\n      tag_6\n      jump\t// in\n    tag_53:\n        /* \"simpleswap.sol\":361:5780  contract SimpleSwap is ReentrancyGuard {... */\n      0x01\n      sstore\n        /* \"simpleswap.sol\":4365:4377  rB - amountB */\n      tag_6\n      jump\t// in\n    tag_52:\n        /* \"simpleswap.sol\":4079:4097  _reserves.reserveB */\n      0x02\n        /* \"simpleswap.sol\":361:5780  contract SimpleSwap is ReentrancyGuard {... */\n      sstore\n        /* \"simpleswap.sol\":4388:4413  _totalSupply -= liquidity */\n      tag_6\n      jump\t// in\n    tag_50:\n        /* \"simpleswap.sol\":4139:4151  _totalSupply */\n      0x03\n        /* \"simpleswap.sol\":361:5780  contract SimpleSwap is ReentrancyGuard {... */\n      sstore\n        /* \"simpleswap.sol\":4434:4444  msg.sender */\n      caller\n        /* \"simpleswap.sol\":361:5780  contract SimpleSwap is ReentrancyGuard {... */\n      0x00\n      mstore\n      mstore(0x20, 0x04)\n      dup7\n      0x00\n      keccak256\n        /* \"simpleswap.sol\":4424:4458  _balances[msg.sender] -= liquidity */\n      tag_54\n        /* \"simpleswap.sol\":361:5780  contract SimpleSwap is ReentrancyGuard {... */\n      dup6\n      dup3\n      sload\n        /* \"simpleswap.sol\":4424:4458  _balances[msg.sender] -= liquidity */\n      tag_6\n      jump\t// in\n    tag_54:\n        /* \"simpleswap.sol\":361:5780  contract SimpleSwap is ReentrancyGuard {... */\n      swap1\n      sstore\n        /* \"simpleswap.sol\":4471:4477  tokenA */\n      0x05\n        /* \"simpleswap.sol\":361:5780  contract SimpleSwap is ReentrancyGuard {... */\n      sload\n        /* \"simpleswap.sol\":4495:4502  amountA */\n      tag_55\n      swap1\n        /* \"simpleswap.sol\":361:5780  contract SimpleSwap is ReentrancyGuard {... */\n      dup8\n      swap1\n      dup4\n      swap1\n      sub(shl(0xa0, 0x01), 0x01)\n      and\n        /* \"simpleswap.sol\":4495:4502  amountA */\n      tag_10\n      jump\t// in\n    tag_55:\n        /* \"simpleswap.sol\":4514:4520  tokenB */\n      0x06\n        /* \"simpleswap.sol\":361:5780  contract SimpleSwap is ReentrancyGuard {... */\n      sload\n        /* \"simpleswap.sol\":4538:4545  amountB */\n      tag_56\n      swap1\n        /* \"simpleswap.sol\":361:5780  contract SimpleSwap is ReentrancyGuard {... */\n      dup7\n      swap1\n      dup4\n      swap1\n      sub(shl(0xa0, 0x01), 0x01)\n      and\n        /* \"simpleswap.sol\":4538:4545  amountB */\n      tag_10\n      jump\t// in\n    tag_56:\n        /* \"simpleswap.sol\":361:5780  contract SimpleSwap is ReentrancyGuard {... */\n      dup7\n      mload\n      dup7\n      dup2\n      mstore\n      0x20\n      dup2\n      add\n      dup7\n      swap1\n      mstore\n      0x40\n      dup2\n      add\n      swap5\n      swap1\n      swap5\n      mstore\n      sub(shl(0xa0, 0x01), 0x01)\n      and\n      swap3\n      swap1\n      dup2\n      swap1\n      0x60\n      dup3\n      add\n      swap1\n      jump\n        /* \"simpleswap.sol\":4564:4613  LiquidityRemoved(to, amountA, amountB, liquidity) */\n    tag_51:\n      sub\n      swap1\n      log2\n        /* \"simpleswap.sol\":361:5780  contract SimpleSwap is ReentrancyGuard {... */\n      sstore(0x00, 0x01)\n      dup3\n      mload\n      swap2\n      dup3\n      mstore\n      0x20\n      dup3\n      add\n      mstore\n      return\n    tag_48:\n      0x00\n      dup1\n      revert\n        /* \"simpleswap.sol\":3959:4010  liquidity > 0 && _balances[msg.sender] >= liquidity */\n    tag_38:\n        /* \"simpleswap.sol\":3986:3996  msg.sender */\n      pop\n      caller\n        /* \"simpleswap.sol\":361:5780  contract SimpleSwap is ReentrancyGuard {... */\n      0x00\n      mstore\n      mstore(0x20, 0x04)\n      dup2\n      sload(keccak256(0x00, 0x40))\n        /* \"simpleswap.sol\":3976:4010  _balances[msg.sender] >= liquidity */\n      lt\n      iszero\n        /* \"simpleswap.sol\":3959:4010  liquidity > 0 && _balances[msg.sender] >= liquidity */\n      jump(tag_39)\n        /* \"simpleswap.sol\":361:5780  contract SimpleSwap is ReentrancyGuard {... */\n    tag_26:\n      jumpi(tag_48, callvalue)\n      jumpi(tag_48, slt(add(not(0x03), calldatasize), 0xc0))\n      calldataload(0x04)\n      calldataload(0x84)\n      sub(shl(0xa0, 0x01), 0x01)\n      dup2\n      and\n      swap1\n      calldataload(0x24)\n      swap1\n      dup3\n      swap1\n      sub\n      tag_48\n      jumpi\n        /* \"@openzeppelin/contracts/security/ReentrancyGuard.sol\":2227:2330  modifier nonReentrant() {... */\n      tag_63\n      tag_7\n      jump\t// in\n    tag_63:\n        /* \"simpleswap.sol\":361:5780  contract SimpleSwap is ReentrancyGuard {... */\n      calldataload(0xa4)\n        /* \"simpleswap.sol\":2321:2336  block.timestamp */\n      timestamp\n        /* \"simpleswap.sol\":2321:2348  block.timestamp <= deadline */\n      gt\n        /* \"simpleswap.sol\":361:5780  contract SimpleSwap is ReentrancyGuard {... */\n      tag_48\n      jumpi\n        /* \"simpleswap.sol\":2368:2386  amountADesired > 0 */\n      dup3\n      iszero\n      iszero\n        /* \"simpleswap.sol\":2368:2408  amountADesired > 0 && amountBDesired > 0 */\n      dup1\n      tag_66\n      jumpi\n        /* \"simpleswap.sol\":361:5780  contract SimpleSwap is ReentrancyGuard {... */\n    tag_67:\n      iszero\n      tag_48\n      jumpi\n      sload(0x01)\n        /* \"simpleswap.sol\":2477:2495  _reserves.reserveB */\n      0x02\n        /* \"simpleswap.sol\":361:5780  contract SimpleSwap is ReentrancyGuard {... */\n      sload\n        /* \"simpleswap.sol\":2512:2519  rA == 0 */\n      swap2\n      dup2\n      iszero\n        /* \"simpleswap.sol\":2512:2530  rA == 0 && rB == 0 */\n      dup1\n      tag_70\n      jumpi\n        /* \"simpleswap.sol\":361:5780  contract SimpleSwap is ReentrancyGuard {... */\n    tag_71:\n        /* \"simpleswap.sol\":2508:3070  if (rA == 0 && rB == 0) {... */\n      iszero\n      tag_72\n      jumpi\n        /* \"simpleswap.sol\":2547:2600  (amountA, amountB) = (amountADesired, amountBDesired) */\n      swap4\n        /* \"simpleswap.sol\":2508:3070  if (rA == 0 && rB == 0) {... */\n      swap3\n    tag_74:\n        /* \"simpleswap.sol\":3082:3088  tokenA */\n      0x05\n        /* \"simpleswap.sol\":361:5780  contract SimpleSwap is ReentrancyGuard {... */\n      sload\n        /* \"simpleswap.sol\":3133:3140  amountA */\n      tag_75\n      swap1\n        /* \"simpleswap.sol\":361:5780  contract SimpleSwap is ReentrancyGuard {... */\n      dup6\n      swap1\n        /* \"simpleswap.sol\":3126:3130  this */\n      address\n      swap1\n        /* \"simpleswap.sol\":3106:3116  msg.sender */\n      caller\n      swap1\n      sub(shl(0xa0, 0x01), 0x01)\n        /* \"simpleswap.sol\":361:5780  contract SimpleSwap is ReentrancyGuard {... */\n      and\n        /* \"simpleswap.sol\":3133:3140  amountA */\n      tag_9\n      jump\t// in\n    tag_75:\n        /* \"simpleswap.sol\":3203:3210  amountB */\n      tag_76\n        /* \"simpleswap.sol\":3126:3130  this */\n      dup6\n      address\n        /* \"simpleswap.sol\":3106:3116  msg.sender */\n      caller\n        /* \"simpleswap.sol\":361:5780  contract SimpleSwap is ReentrancyGuard {... */\n      0x01\n      dup1\n      0xa0\n      shl\n      sub\n        /* \"simpleswap.sol\":3152:3158  tokenB */\n      0x06\n        /* \"simpleswap.sol\":361:5780  contract SimpleSwap is ReentrancyGuard {... */\n      sload\n      and\n        /* \"simpleswap.sol\":3203:3210  amountB */\n      tag_9\n      jump\t// in\n    tag_76:\n        /* \"simpleswap.sol\":3228:3240  _totalSupply */\n      0x03\n        /* \"simpleswap.sol\":361:5780  contract SimpleSwap is ReentrancyGuard {... */\n      sload\n      swap3\n        /* \"simpleswap.sol\":3228:3245  _totalSupply == 0 */\n      dup4\n      tag_77\n      jumpi\n        /* \"simpleswap.sol\":3280:3297  amountA * amountB */\n      tag_79\n      dup7\n      dup7\n      tag_3\n      jump\t// in\n    tag_79:\n        /* \"simpleswap.sol\":361:5780  contract SimpleSwap is ReentrancyGuard {... */\n      0x00\n        /* \"simpleswap.sol\":3228:3240  _totalSupply */\n      0x03\n        /* \"simpleswap.sol\":1740:1745  y > 3 */\n      dup3\n      gt\n        /* \"simpleswap.sol\":3228:3240  _totalSupply */\n      iszero\n      tag_80\n      jumpi\n        /* \"simpleswap.sol\":1762:1767  z = y */\n      pop\n      dup1\n        /* \"simpleswap.sol\":361:5780  contract SimpleSwap is ReentrancyGuard {... */\n      dup1\n      0x01\n      shr\n      0x01\n      dup2\n      add\n      dup1\n      swap2\n      gt\n      tag_82\n      jumpi\n        /* \"simpleswap.sol\":1818:1910  while (x < z) {... */\n      swap1\n        /* \"simpleswap.sol\":1825:1830  x < z */\n    tag_84:\n      dup3\n      dup3\n      lt\n      tag_85\n      jumpi\n        /* \"simpleswap.sol\":1736:1971  if (y > 3) {... */\n      pop\n      pop\n    tag_87:\n        /* \"simpleswap.sol\":3224:3384  if (_totalSupply == 0) {... */\n      swap3\n    tag_88:\n        /* \"simpleswap.sol\":3404:3417  liquidity > 0 */\n      dup4\n      iszero\n        /* \"simpleswap.sol\":361:5780  contract SimpleSwap is ReentrancyGuard {... */\n      tag_48\n      jumpi\n      tag_91\n        /* \"simpleswap.sol\":3452:3464  rA + amountA */\n      swap5\n        /* \"simpleswap.sol\":3496:3508  rB + amountB */\n      tag_92\n        /* \"simpleswap.sol\":3452:3464  rA + amountA */\n      dup9\n        /* \"simpleswap.sol\":3519:3544  _totalSupply += liquidity */\n      tag_93\n        /* \"simpleswap.sol\":3452:3464  rA + amountA */\n      swap5\n      tag_94\n      dup11\n      dup10\n      swap7\n      tag_4\n      jump\t// in\n    tag_94:\n        /* \"simpleswap.sol\":361:5780  contract SimpleSwap is ReentrancyGuard {... */\n      0x01\n      sstore\n        /* \"simpleswap.sol\":3496:3508  rB + amountB */\n      tag_4\n      jump\t// in\n    tag_92:\n        /* \"simpleswap.sol\":2477:2495  _reserves.reserveB */\n      0x02\n        /* \"simpleswap.sol\":361:5780  contract SimpleSwap is ReentrancyGuard {... */\n      sstore\n        /* \"simpleswap.sol\":3519:3544  _totalSupply += liquidity */\n      tag_4\n      jump\t// in\n    tag_93:\n        /* \"simpleswap.sol\":3228:3240  _totalSupply */\n      0x03\n        /* \"simpleswap.sol\":361:5780  contract SimpleSwap is ReentrancyGuard {... */\n      sstore\n      dup1\n      0x00\n      mstore\n      mstore(0x20, 0x04)\n      keccak256(0x00, 0x40)\n        /* \"simpleswap.sol\":3555:3581  _balances[to] += liquidity */\n      tag_95\n        /* \"simpleswap.sol\":361:5780  contract SimpleSwap is ReentrancyGuard {... */\n      dup4\n      dup3\n      sload\n        /* \"simpleswap.sol\":3555:3581  _balances[to] += liquidity */\n      tag_4\n      jump\t// in\n    tag_95:\n        /* \"simpleswap.sol\":361:5780  contract SimpleSwap is ReentrancyGuard {... */\n      swap1\n      sstore\n      0x40\n      dup1\n      mload\n      dup6\n      dup2\n      mstore\n      0x20\n      dup2\n      add\n      dup8\n      swap1\n      mstore\n      swap1\n      dup2\n      add\n      dup4\n      swap1\n      mstore\n        /* \"simpleswap.sol\":3599:3646  LiquidityAdded(to, amountA, amountB, liquidity) */\n      0x64b83944e79c3ce8d4c297411de637c3e102d064677aac0c163976ebdcd6f50e\n      swap1\n        /* \"simpleswap.sol\":361:5780  contract SimpleSwap is ReentrancyGuard {... */\n      0x60\n      swap1\n        /* \"simpleswap.sol\":3599:3646  LiquidityAdded(to, amountA, amountB, liquidity) */\n      log2\n        /* \"simpleswap.sol\":361:5780  contract SimpleSwap is ReentrancyGuard {... */\n      sstore(0x00, 0x01)\n      mload(0x40)\n      swap4\n      dup5\n      swap4\n      dup5\n      0x40\n      swap2\n      swap5\n      swap4\n      swap3\n      0x60\n      dup3\n      add\n      swap6\n      dup3\n      mstore\n      0x20\n      dup3\n      add\n      mstore\n      add\n      mstore\n      jump\n    tag_91:\n      sub\n      swap1\n      return\n        /* \"simpleswap.sol\":1818:1910  while (x < z) {... */\n    tag_85:\n        /* \"simpleswap.sol\":1851:1856  z = x */\n      swap1\n      swap2\n      pop\n        /* \"simpleswap.sol\":1880:1889  y / x + x */\n      tag_97\n        /* \"simpleswap.sol\":1851:1856  z = x */\n      dup3\n        /* \"simpleswap.sol\":1880:1885  y / x */\n      tag_98\n      dup2\n      dup5\n      tag_5\n      jump\t// in\n    tag_98:\n        /* \"simpleswap.sol\":1880:1889  y / x + x */\n      tag_4\n      jump\t// in\n    tag_97:\n        /* \"simpleswap.sol\":361:5780  contract SimpleSwap is ReentrancyGuard {... */\n      0x01\n      shr\n        /* \"simpleswap.sol\":1818:1910  while (x < z) {... */\n      swap1\n      jump(tag_84)\n        /* \"simpleswap.sol\":361:5780  contract SimpleSwap is ReentrancyGuard {... */\n    tag_82:\n      mstore(0x00, shl(0xe0, 0x4e487b71))\n      mstore(0x04, 0x11)\n      revert(0x00, 0x24)\n        /* \"simpleswap.sol\":1736:1971  if (y > 3) {... */\n    tag_80:\n        /* \"simpleswap.sol\":1931:1937  y != 0 */\n      swap1\n        /* \"simpleswap.sol\":1927:1971  if (y != 0) {... */\n      iszero\n        /* \"simpleswap.sol\":1736:1971  if (y > 3) {... */\n      tag_87\n        /* \"simpleswap.sol\":1927:1971  if (y != 0) {... */\n      jumpi\n        /* \"simpleswap.sol\":1954:1959  z = 1 */\n      pop\n        /* \"simpleswap.sol\":361:5780  contract SimpleSwap is ReentrancyGuard {... */\n      0x01\n        /* \"simpleswap.sol\":1736:1971  if (y > 3) {... */\n      jump(tag_87)\n        /* \"simpleswap.sol\":3224:3384  if (_totalSupply == 0) {... */\n    tag_77:\n        /* \"simpleswap.sol\":3343:3372  (amountA * _totalSupply) / rA */\n      tag_101\n        /* \"simpleswap.sol\":3344:3366  amountA * _totalSupply */\n      dup4\n      tag_45\n      dup7\n      dup9\n      tag_3\n      jump\t// in\n        /* \"simpleswap.sol\":3343:3372  (amountA * _totalSupply) / rA */\n    tag_101:\n        /* \"simpleswap.sol\":3224:3384  if (_totalSupply == 0) {... */\n      swap3\n      jump(tag_88)\n        /* \"simpleswap.sol\":2508:3070  if (rA == 0 && rB == 0) {... */\n    tag_72:\n        /* \"simpleswap.sol\":2652:2678  (amountADesired * rB) / rA */\n      tag_103\n        /* \"simpleswap.sol\":2653:2672  amountADesired * rB */\n      dup3\n      tag_45\n      dup6\n      dup9\n      tag_3\n      jump\t// in\n        /* \"simpleswap.sol\":2652:2678  (amountADesired * rB) / rA */\n    tag_103:\n        /* \"simpleswap.sol\":2697:2723  optimalB <= amountBDesired */\n      swap1\n      dup1\n      dup3\n      gt\n      tag_105\n      jumpi\n        /* \"simpleswap.sol\":361:5780  contract SimpleSwap is ReentrancyGuard {... */\n      pop\n      calldataload(0x64)\n        /* \"simpleswap.sol\":2752:2774  optimalB >= amountBMin */\n      dup2\n      lt\n        /* \"simpleswap.sol\":361:5780  contract SimpleSwap is ReentrancyGuard {... */\n      tag_48\n      jumpi\n        /* \"simpleswap.sol\":2794:2841  (amountA, amountB) = (amountADesired, optimalB) */\n      swap4\n        /* \"simpleswap.sol\":2693:3059  if (optimalB <= amountBDesired) {... */\n      swap3\n        /* \"simpleswap.sol\":2508:3070  if (rA == 0 && rB == 0) {... */\n      jump(tag_74)\n        /* \"simpleswap.sol\":2693:3059  if (optimalB <= amountBDesired) {... */\n    tag_105:\n        /* \"simpleswap.sol\":2902:2921  amountBDesired * rA */\n      swap5\n      pop\n      pop\n        /* \"simpleswap.sol\":2901:2927  (amountBDesired * rA) / rB */\n      tag_110\n        /* \"simpleswap.sol\":2902:2921  amountBDesired * rA */\n      dup3\n      tag_45\n      dup4\n      dup8\n      tag_3\n      jump\t// in\n        /* \"simpleswap.sol\":2901:2927  (amountBDesired * rA) / rB */\n    tag_110:\n        /* \"simpleswap.sol\":361:5780  contract SimpleSwap is ReentrancyGuard {... */\n      swap4\n      calldataload(0x44)\n        /* \"simpleswap.sol\":2954:2976  optimalA >= amountAMin */\n      dup6\n      lt\n        /* \"simpleswap.sol\":361:5780  contract SimpleSwap is ReentrancyGuard {... */\n      tag_48\n      jumpi\n        /* \"simpleswap.sol\":2996:3043  (amountA, amountB) = (optimalA, amountBDesired) */\n      swap4\n        /* \"simpleswap.sol\":2693:3059  if (optimalB <= amountBDesired) {... */\n      swap3\n        /* \"simpleswap.sol\":2508:3070  if (rA == 0 && rB == 0) {... */\n      jump(tag_74)\n        /* \"simpleswap.sol\":2512:2530  rA == 0 && rB == 0 */\n    tag_70:\n        /* \"simpleswap.sol\":2523:2530  rB == 0 */\n      pop\n      dup3\n      iszero\n        /* \"simpleswap.sol\":2512:2530  rA == 0 && rB == 0 */\n      jump(tag_71)\n        /* \"simpleswap.sol\":2368:2408  amountADesired > 0 && amountBDesired > 0 */\n    tag_66:\n        /* \"simpleswap.sol\":2390:2408  amountBDesired > 0 */\n      pop\n      dup1\n      iszero\n      iszero\n        /* \"simpleswap.sol\":2368:2408  amountADesired > 0 && amountBDesired > 0 */\n      jump(tag_67)\n        /* \"simpleswap.sol\":361:5780  contract SimpleSwap is ReentrancyGuard {... */\n    tag_24:\n      jumpi(tag_48, callvalue)\n      jumpi(tag_48, slt(add(not(0x03), calldatasize), 0x20))\n      calldataload(0x04)\n      sub(shl(0xa0, 0x01), 0x01)\n      dup2\n      and\n      swap1\n      dup2\n      swap1\n      sub\n      tag_48\n      jumpi\n      0x00\n      mstore\n      mstore(0x20, 0x04)\n      0x20\n      sload(keccak256(0x00, 0x40))\n      mload(0x40)\n      swap1\n      dup2\n      mstore\n      return\n    tag_22:\n      jumpi(tag_48, callvalue)\n      jumpi(tag_48, slt(add(not(0x03), calldatasize), 0xa0))\n      calldataload(0x44)\n      calldataload(0x04)\n      dup2\n      iszero\n      iszero\n      dup3\n      sub\n      tag_48\n      jumpi\n      tag_126\n      tag_1\n      jump\t// in\n    tag_126:\n        /* \"@openzeppelin/contracts/security/ReentrancyGuard.sol\":2227:2330  modifier nonReentrant() {... */\n      swap1\n      tag_127\n      tag_7\n      jump\t// in\n    tag_127:\n        /* \"simpleswap.sol\":361:5780  contract SimpleSwap is ReentrancyGuard {... */\n      calldataload(0x84)\n        /* \"simpleswap.sol\":4797:4812  block.timestamp */\n      timestamp\n        /* \"simpleswap.sol\":4797:4824  block.timestamp <= deadline */\n      gt\n        /* \"simpleswap.sol\":361:5780  contract SimpleSwap is ReentrancyGuard {... */\n      tag_48\n      jumpi\n        /* \"simpleswap.sol\":4844:4856  amountIn > 0 */\n      dup1\n      iszero\n        /* \"simpleswap.sol\":361:5780  contract SimpleSwap is ReentrancyGuard {... */\n      tag_48\n      jumpi\n        /* \"simpleswap.sol\":4900:5020  swapAToB... */\n      dup3\n      iszero\n      tag_132\n      jumpi\n        /* \"simpleswap.sol\":361:5780  contract SimpleSwap is ReentrancyGuard {... */\n      sload(0x01)\n        /* \"simpleswap.sol\":4945:4963  _reserves.reserveB */\n      0x02\n        /* \"simpleswap.sol\":361:5780  contract SimpleSwap is ReentrancyGuard {... */\n      sload\n        /* \"simpleswap.sol\":4900:5020  swapAToB... */\n      swap1\n    tag_134:\n        /* \"simpleswap.sol\":5041:5048  rIn > 0 */\n      dup1\n      iszero\n      iszero\n        /* \"simpleswap.sol\":5041:5060  rIn > 0 && rOut > 0 */\n      dup1\n      tag_135\n      jumpi\n        /* \"simpleswap.sol\":4900:5020  swapAToB... */\n    tag_136:\n        /* \"simpleswap.sol\":361:5780  contract SimpleSwap is ReentrancyGuard {... */\n      iszero\n      tag_48\n      jumpi\n        /* \"simpleswap.sol\":5159:5180  rIn + amountInWithFee */\n      tag_139\n        /* \"simpleswap.sol\":5132:5154  amountInWithFee * rOut */\n      dup4\n      tag_140\n        /* \"simpleswap.sol\":5131:5181  (amountInWithFee * rOut) / (rIn + amountInWithFee) */\n      tag_141\n        /* \"simpleswap.sol\":5132:5154  amountInWithFee * rOut */\n      swap5\n      dup3\n      tag_3\n      jump\t// in\n    tag_140:\n        /* \"simpleswap.sol\":5159:5180  rIn + amountInWithFee */\n      swap3\n      tag_4\n      jump\t// in\n    tag_139:\n        /* \"simpleswap.sol\":5131:5181  (amountInWithFee * rOut) / (rIn + amountInWithFee) */\n      swap1\n      tag_5\n      jump\t// in\n    tag_141:\n        /* \"simpleswap.sol\":361:5780  contract SimpleSwap is ReentrancyGuard {... */\n      swap2\n      calldataload(0x24)\n        /* \"simpleswap.sol\":5202:5227  amountOut >= amountOutMin */\n      dup4\n      lt\n        /* \"simpleswap.sol\":361:5780  contract SimpleSwap is ReentrancyGuard {... */\n      tag_48\n      jumpi\n        /* \"simpleswap.sol\":5241:5715  if (swapAToB) {... */\n      dup3\n        /* \"simpleswap.sol\":361:5780  contract SimpleSwap is ReentrancyGuard {... */\n      0x20\n        /* \"simpleswap.sol\":5241:5715  if (swapAToB) {... */\n      swap5\n      0x00\n      eq\n      tag_144\n      jumpi\n        /* \"simpleswap.sol\":5270:5276  tokenA */\n      0x05\n        /* \"simpleswap.sol\":361:5780  contract SimpleSwap is ReentrancyGuard {... */\n      sload\n        /* \"simpleswap.sol\":5369:5378  amountOut */\n      tag_146\n      swap3\n        /* \"simpleswap.sol\":361:5780  contract SimpleSwap is ReentrancyGuard {... */\n      swap1\n        /* \"simpleswap.sol\":5321:5329  amountIn */\n      tag_147\n      swap1\n        /* \"simpleswap.sol\":361:5780  contract SimpleSwap is ReentrancyGuard {... */\n      dup6\n      swap1\n        /* \"simpleswap.sol\":5314:5318  this */\n      address\n      swap1\n        /* \"simpleswap.sol\":5294:5304  msg.sender */\n      caller\n      swap1\n      sub(shl(0xa0, 0x01), 0x01)\n        /* \"simpleswap.sol\":361:5780  contract SimpleSwap is ReentrancyGuard {... */\n      and\n        /* \"simpleswap.sol\":5321:5329  amountIn */\n      tag_9\n      jump\t// in\n    tag_147:\n        /* \"simpleswap.sol\":5345:5351  tokenB */\n      0x06\n        /* \"simpleswap.sol\":361:5780  contract SimpleSwap is ReentrancyGuard {... */\n      sload\n      sub(shl(0xa0, 0x01), 0x01)\n      and\n        /* \"simpleswap.sol\":5369:5378  amountOut */\n      tag_10\n      jump\t// in\n    tag_146:\n        /* \"simpleswap.sol\":5394:5424  _reserves.reserveA += amountIn */\n      tag_148\n        /* \"simpleswap.sol\":361:5780  contract SimpleSwap is ReentrancyGuard {... */\n      dup2\n      sload(0x01)\n        /* \"simpleswap.sol\":5394:5424  _reserves.reserveA += amountIn */\n      tag_4\n      jump\t// in\n    tag_148:\n        /* \"simpleswap.sol\":361:5780  contract SimpleSwap is ReentrancyGuard {... */\n      0x01\n      sstore\n        /* \"simpleswap.sol\":5439:5470  _reserves.reserveB -= amountOut */\n      tag_149\n        /* \"simpleswap.sol\":361:5780  contract SimpleSwap is ReentrancyGuard {... */\n      dup3\n        /* \"simpleswap.sol\":5439:5457  _reserves.reserveB */\n      0x02\n        /* \"simpleswap.sol\":361:5780  contract SimpleSwap is ReentrancyGuard {... */\n      sload\n        /* \"simpleswap.sol\":5439:5470  _reserves.reserveB -= amountOut */\n      tag_6\n      jump\t// in\n    tag_149:\n        /* \"simpleswap.sol\":5439:5457  _reserves.reserveB */\n      0x02\n        /* \"simpleswap.sol\":361:5780  contract SimpleSwap is ReentrancyGuard {... */\n      sstore\n        /* \"simpleswap.sol\":5241:5715  if (swapAToB) {... */\n    tag_150:\n        /* \"simpleswap.sol\":361:5780  contract SimpleSwap is ReentrancyGuard {... */\n      mload(0x40)\n      swap1\n      dup2\n      mstore\n      dup2\n      dup4\n      dup3\n      add\n      mstore\n        /* \"simpleswap.sol\":5732:5769  Swap(msg.sender, amountIn, amountOut) */\n      0x77f92a1b6a1a11de8ca49515ad4c1fad45632dd3442167d74b90b304a3c7a758\n        /* \"simpleswap.sol\":361:5780  contract SimpleSwap is ReentrancyGuard {... */\n      0x40\n        /* \"simpleswap.sol\":5737:5747  msg.sender */\n      caller\n        /* \"simpleswap.sol\":5732:5769  Swap(msg.sender, amountIn, amountOut) */\n      swap3\n      log2\n        /* \"simpleswap.sol\":361:5780  contract SimpleSwap is ReentrancyGuard {... */\n      sstore(0x00, 0x01)\n      mload(0x40)\n      swap1\n      dup2\n      mstore\n      return\n        /* \"simpleswap.sol\":5241:5715  if (swapAToB) {... */\n    tag_144:\n        /* \"simpleswap.sol\":5503:5509  tokenB */\n      0x06\n        /* \"simpleswap.sol\":361:5780  contract SimpleSwap is ReentrancyGuard {... */\n      sload\n        /* \"simpleswap.sol\":5602:5611  amountOut */\n      tag_151\n      swap3\n        /* \"simpleswap.sol\":361:5780  contract SimpleSwap is ReentrancyGuard {... */\n      swap1\n        /* \"simpleswap.sol\":5554:5562  amountIn */\n      tag_152\n      swap1\n        /* \"simpleswap.sol\":361:5780  contract SimpleSwap is ReentrancyGuard {... */\n      dup6\n      swap1\n        /* \"simpleswap.sol\":5547:5551  this */\n      address\n      swap1\n        /* \"simpleswap.sol\":5527:5537  msg.sender */\n      caller\n      swap1\n      sub(shl(0xa0, 0x01), 0x01)\n        /* \"simpleswap.sol\":361:5780  contract SimpleSwap is ReentrancyGuard {... */\n      and\n        /* \"simpleswap.sol\":5554:5562  amountIn */\n      tag_9\n      jump\t// in\n    tag_152:\n        /* \"simpleswap.sol\":5578:5584  tokenA */\n      0x05\n        /* \"simpleswap.sol\":361:5780  contract SimpleSwap is ReentrancyGuard {... */\n      sload\n      sub(shl(0xa0, 0x01), 0x01)\n      and\n        /* \"simpleswap.sol\":5602:5611  amountOut */\n      tag_10\n      jump\t// in\n    tag_151:\n        /* \"simpleswap.sol\":5627:5657  _reserves.reserveB += amountIn */\n      tag_153\n        /* \"simpleswap.sol\":361:5780  contract SimpleSwap is ReentrancyGuard {... */\n      dup2\n        /* \"simpleswap.sol\":5627:5645  _reserves.reserveB */\n      0x02\n        /* \"simpleswap.sol\":361:5780  contract SimpleSwap is ReentrancyGuard {... */\n      sload\n        /* \"simpleswap.sol\":5627:5657  _reserves.reserveB += amountIn */\n      tag_4\n      jump\t// in\n    tag_153:\n        /* \"simpleswap.sol\":5627:5645  _reserves.reserveB */\n      0x02\n        /* \"simpleswap.sol\":361:5780  contract SimpleSwap is ReentrancyGuard {... */\n      sstore\n        /* \"simpleswap.sol\":5672:5703  _reserves.reserveA -= amountOut */\n      tag_154\n        /* \"simpleswap.sol\":361:5780  contract SimpleSwap is ReentrancyGuard {... */\n      dup3\n      sload(0x01)\n        /* \"simpleswap.sol\":5672:5703  _reserves.reserveA -= amountOut */\n      tag_6\n      jump\t// in\n    tag_154:\n        /* \"simpleswap.sol\":361:5780  contract SimpleSwap is ReentrancyGuard {... */\n      0x01\n      sstore\n        /* \"simpleswap.sol\":5241:5715  if (swapAToB) {... */\n      jump(tag_150)\n        /* \"simpleswap.sol\":5041:5060  rIn > 0 && rOut > 0 */\n    tag_135:\n        /* \"simpleswap.sol\":5052:5060  rOut > 0 */\n      pop\n      dup2\n      iszero\n      iszero\n        /* \"simpleswap.sol\":5041:5060  rIn > 0 && rOut > 0 */\n      jump(tag_136)\n        /* \"simpleswap.sol\":4900:5020  swapAToB... */\n    tag_132:\n        /* \"simpleswap.sol\":4981:4999  _reserves.reserveB */\n      0x02\n        /* \"simpleswap.sol\":361:5780  contract SimpleSwap is ReentrancyGuard {... */\n      sload\n      sload(0x01)\n        /* \"simpleswap.sol\":4900:5020  swapAToB... */\n      swap1\n      jump(tag_134)\n        /* \"simpleswap.sol\":361:5780  contract SimpleSwap is ReentrancyGuard {... */\n    tag_20:\n      jumpi(tag_48, callvalue)\n      jumpi(tag_48, slt(add(not(0x03), calldatasize), 0x00))\n        /* \"simpleswap.sol\":701:721  IERC20 public tokenB */\n      0x06\n        /* \"simpleswap.sol\":361:5780  contract SimpleSwap is ReentrancyGuard {... */\n      sload\n      mload(0x40)\n      sub(shl(0xa0, 0x01), 0x01)\n      swap1\n      swap2\n      and\n      dup2\n      mstore\n      0x20\n      swap1\n      return\n    tag_18:\n      jumpi(tag_48, callvalue)\n      jumpi(tag_48, slt(add(not(0x03), calldatasize), 0x00))\n      0x20\n        /* \"simpleswap.sol\":1612:1624  _totalSupply */\n      0x03\n        /* \"simpleswap.sol\":361:5780  contract SimpleSwap is ReentrancyGuard {... */\n      sload\n      mload(0x40)\n      swap1\n      dup2\n      mstore\n      return\n    tag_16:\n      jumpi(tag_48, callvalue)\n      jumpi(tag_48, slt(add(not(0x03), calldatasize), 0x00))\n        /* \"simpleswap.sol\":674:694  IERC20 public tokenA */\n      0x05\n        /* \"simpleswap.sol\":361:5780  contract SimpleSwap is ReentrancyGuard {... */\n      sload\n      mload(0x40)\n      sub(shl(0xa0, 0x01), 0x01)\n      swap1\n      swap2\n      and\n      dup2\n      mstore\n      0x20\n      swap1\n      return\n    tag_14:\n      jumpi(tag_48, callvalue)\n      jumpi(tag_48, slt(add(not(0x03), calldatasize), 0x00))\n      0x40\n      swap1\n        /* \"simpleswap.sol\":1370:1379  _reserves */\n      0x01\n        /* \"simpleswap.sol\":361:5780  contract SimpleSwap is ReentrancyGuard {... */\n      sload\n        /* \"simpleswap.sol\":1390:1408  _reserves.reserveB */\n      0x02\n        /* \"simpleswap.sol\":361:5780  contract SimpleSwap is ReentrancyGuard {... */\n      sload\n      swap1\n      dup3\n      mstore\n      0x20\n      dup3\n      add\n      mstore\n      return\n    tag_1:\n      calldataload(0x64)\n      swap1\n      sub(shl(0xa0, 0x01), 0x01)\n      dup3\n      and\n      dup3\n      sub\n      tag_48\n      jumpi\n      jump\t// out\n    tag_3:\n      dup2\n      dup2\n      mul\n      swap3\n      swap2\n      dup2\n      iszero\n      swap2\n      dup5\n      div\n      eq\n      or\n      iszero\n      tag_82\n      jumpi\n      jump\t// out\n    tag_4:\n      swap2\n      swap1\n      dup3\n      add\n      dup1\n      swap3\n      gt\n      tag_82\n      jumpi\n      jump\t// out\n    tag_5:\n      dup2\n      iszero\n      tag_177\n      jumpi\n      div\n      swap1\n      jump\t// out\n    tag_177:\n      mstore(0x00, shl(0xe0, 0x4e487b71))\n      mstore(0x04, 0x12)\n      revert(0x00, 0x24)\n    tag_6:\n      swap2\n      swap1\n      dup3\n      sub\n      swap2\n      dup3\n      gt\n      tag_82\n      jumpi\n      jump\t// out\n        /* \"@openzeppelin/contracts/security/ReentrancyGuard.sol\":2336:2623  function _nonReentrantBefore() private {... */\n    tag_7:\n        /* \"@openzeppelin/contracts/security/ReentrancyGuard.sol\":1759:1760  2 */\n      0x02\n        /* \"@openzeppelin/contracts/security/ReentrancyGuard.sol\":2468:2475  _status */\n      0x00\n        /* \"simpleswap.sol\":361:5780  contract SimpleSwap is ReentrancyGuard {... */\n      sload\n        /* \"@openzeppelin/contracts/security/ReentrancyGuard.sol\":2468:2487  _status != _ENTERED */\n      eq\n        /* \"@openzeppelin/contracts/security/ReentrancyGuard.sol\":1759:1760  2 */\n      tag_181\n      jumpi\n      0x02\n        /* \"@openzeppelin/contracts/security/ReentrancyGuard.sol\":2468:2475  _status */\n      0x00\n        /* \"simpleswap.sol\":361:5780  contract SimpleSwap is ReentrancyGuard {... */\n      sstore\n        /* \"@openzeppelin/contracts/security/ReentrancyGuard.sol\":2336:2623  function _nonReentrantBefore() private {... */\n      jump\t// out\n        /* \"@openzeppelin/contracts/security/ReentrancyGuard.sol\":1759:1760  2 */\n    tag_181:\n        /* \"simpleswap.sol\":361:5780  contract SimpleSwap is ReentrancyGuard {... */\n      mload(0x40)\n      shl(0xe5, 0x461bcd)\n        /* \"@openzeppelin/contracts/security/ReentrancyGuard.sol\":1759:1760  2 */\n      dup2\n      mstore\n      0x20\n      0x04\n      dup3\n      add\n      mstore\n      0x1f\n      0x24\n      dup3\n      add\n      mstore\n      0x5265656e7472616e637947756172643a207265656e7472616e742063616c6c00\n      0x44\n      dup3\n      add\n      mstore\n      0x64\n      swap1\n      revert\n        /* \"simpleswap.sol\":361:5780  contract SimpleSwap is ReentrancyGuard {... */\n    tag_8:\n      swap1\n      0x1f\n      dup1\n      not\n      swap2\n      add\n      and\n      dup2\n      add\n      swap1\n      dup2\n      lt\n      0xffffffffffffffff\n      dup3\n      gt\n      or\n      tag_183\n      jumpi\n      0x40\n      mstore\n      jump\t// out\n    tag_183:\n      mstore(0x00, shl(0xe0, 0x4e487b71))\n      mstore(0x04, 0x41)\n      revert(0x00, 0x24)\n        /* \"@openzeppelin/contracts/token/ERC20/utils/SafeERC20.sol\":1618:1806  function safeTransferFrom(IERC20 token, address from, address to, uint256 value) internal {... */\n    tag_9:\n        /* \"simpleswap.sol\":361:5780  contract SimpleSwap is ReentrancyGuard {... */\n      mload(0x40)\n      shl(0xe0, 0x23b872dd)\n        /* \"@openzeppelin/contracts/token/ERC20/utils/SafeERC20.sol\":1745:1798  abi.encodeCall(token.transferFrom, (from, to, value)) */\n      0x20\n      dup3\n      add\n      mstore\n      sub(shl(0xa0, 0x01), 0x01)\n        /* \"simpleswap.sol\":361:5780  contract SimpleSwap is ReentrancyGuard {... */\n      swap3\n      dup4\n      and\n        /* \"@openzeppelin/contracts/token/ERC20/utils/SafeERC20.sol\":1745:1798  abi.encodeCall(token.transferFrom, (from, to, value)) */\n      0x24\n      dup3\n      add\n        /* \"simpleswap.sol\":361:5780  contract SimpleSwap is ReentrancyGuard {... */\n      mstore\n      swap3\n      swap1\n      swap2\n      and\n      0x44\n      dup4\n      add\n      mstore\n      0x64\n      dup1\n      dup4\n      add\n      swap4\n      swap1\n      swap4\n      mstore\n        /* \"@openzeppelin/contracts/token/ERC20/utils/SafeERC20.sol\":1745:1798  abi.encodeCall(token.transferFrom, (from, to, value)) */\n      swap2\n      dup2\n      mstore\n      tag_185\n      swap2\n      tag_186\n      0x84\n        /* \"simpleswap.sol\":361:5780  contract SimpleSwap is ReentrancyGuard {... */\n      dup4\n        /* \"@openzeppelin/contracts/token/ERC20/utils/SafeERC20.sol\":1745:1798  abi.encodeCall(token.transferFrom, (from, to, value)) */\n      tag_8\n      jump\t// in\n    tag_186:\n      tag_11\n      jump\t// in\n    tag_185:\n        /* \"@openzeppelin/contracts/token/ERC20/utils/SafeERC20.sol\":1618:1806  function safeTransferFrom(IERC20 token, address from, address to, uint256 value) internal {... */\n      jump\t// out\n        /* \"@openzeppelin/contracts/token/ERC20/utils/SafeERC20.sol\":1219:1379  function safeTransfer(IERC20 token, address to, uint256 value) internal {... */\n    tag_10:\n        /* \"simpleswap.sol\":361:5780  contract SimpleSwap is ReentrancyGuard {... */\n      mload(0x40)\n      shl(0xe0, 0xa9059cbb)\n        /* \"@openzeppelin/contracts/token/ERC20/utils/SafeERC20.sol\":1328:1371  abi.encodeCall(token.transfer, (to, value)) */\n      0x20\n      dup3\n      add\n      mstore\n      sub(shl(0xa0, 0x01), 0x01)\n        /* \"simpleswap.sol\":361:5780  contract SimpleSwap is ReentrancyGuard {... */\n      swap1\n      swap3\n      and\n        /* \"@openzeppelin/contracts/token/ERC20/utils/SafeERC20.sol\":1328:1371  abi.encodeCall(token.transfer, (to, value)) */\n      0x24\n      dup4\n      add\n        /* \"simpleswap.sol\":361:5780  contract SimpleSwap is ReentrancyGuard {... */\n      mstore\n      0x44\n      dup1\n      dup4\n      add\n      swap4\n      swap1\n      swap4\n      mstore\n        /* \"@openzeppelin/contracts/token/ERC20/utils/SafeERC20.sol\":1328:1371  abi.encodeCall(token.transfer, (to, value)) */\n      swap2\n      dup2\n      mstore\n      tag_185\n      swap2\n      tag_186\n      0x64\n        /* \"simpleswap.sol\":361:5780  contract SimpleSwap is ReentrancyGuard {... */\n      dup4\n        /* \"@openzeppelin/contracts/token/ERC20/utils/SafeERC20.sol\":1328:1371  abi.encodeCall(token.transfer, (to, value)) */\n      tag_8\n      jump\t// in\n        /* \"@openzeppelin/contracts/token/ERC20/utils/SafeERC20.sol\":8370:9090  function _callOptionalReturn(IERC20 token, bytes memory data) private {... */\n    tag_11:\n      swap1\n      0x00\n        /* \"@openzeppelin/contracts/token/ERC20/utils/SafeERC20.sol\":8507:8928  assembly (\"memory-safe\") {... */\n      0x20\n        /* \"@openzeppelin/contracts/token/ERC20/utils/SafeERC20.sol\":8370:9090  function _callOptionalReturn(IERC20 token, bytes memory data) private {... */\n      swap2\n        /* \"@openzeppelin/contracts/token/ERC20/utils/SafeERC20.sol\":8507:8928  assembly (\"memory-safe\") {... */\n      dup3\n      dup2\n      mload\n      swap2\n      add\n      dup3\n      dup6\n      gas\n      call\n      iszero\n      tag_189\n      jumpi\n      mload(0x00)\n      returndatasize\n        /* \"@openzeppelin/contracts/token/ERC20/utils/SafeERC20.sol\":8942:8957  returnSize == 0 */\n      tag_191\n      jumpi\n      pop\n      sub(shl(0xa0, 0x01), 0x01)\n        /* \"simpleswap.sol\":361:5780  contract SimpleSwap is ReentrancyGuard {... */\n      dup2\n      and\n        /* \"@openzeppelin/contracts/token/ERC20/utils/SafeERC20.sol\":8960:8986  address(token).code.length */\n      extcodesize\n        /* \"@openzeppelin/contracts/token/ERC20/utils/SafeERC20.sol\":8960:8991  address(token).code.length == 0 */\n      iszero\n        /* \"@openzeppelin/contracts/token/ERC20/utils/SafeERC20.sol\":8942:9010  returnSize == 0 ? address(token).code.length == 0 : returnValue != 1 */\n    tag_193:\n        /* \"@openzeppelin/contracts/token/ERC20/utils/SafeERC20.sol\":8938:9084  if (returnSize == 0 ? address(token).code.length == 0 : returnValue != 1) {... */\n      tag_194\n      jumpi\n        /* \"@openzeppelin/contracts/token/ERC20/utils/SafeERC20.sol\":8370:9090  function _callOptionalReturn(IERC20 token, bytes memory data) private {... */\n      pop\n      jump\t// out\n        /* \"@openzeppelin/contracts/token/ERC20/utils/SafeERC20.sol\":8938:9084  if (returnSize == 0 ? address(token).code.length == 0 : returnValue != 1) {... */\n    tag_194:\n      shl(0xe0, 0x5274afe7)\n      0x00\n        /* \"@openzeppelin/contracts/token/ERC20/utils/SafeERC20.sol\":9033:9073  SafeERC20FailedOperation(address(token)) */\n      swap1\n      dup2\n      mstore\n      sub(shl(0xa0, 0x01), 0x01)\n        /* \"simpleswap.sol\":361:5780  contract SimpleSwap is ReentrancyGuard {... */\n      swap2\n      swap1\n      swap2\n      and\n        /* \"@openzeppelin/contracts/token/ERC20/utils/SafeERC20.sol\":9033:9073  SafeERC20FailedOperation(address(token)) */\n      0x04\n        /* \"simpleswap.sol\":361:5780  contract SimpleSwap is ReentrancyGuard {... */\n      mstore\n      0x24\n      swap1\n        /* \"@openzeppelin/contracts/token/ERC20/utils/SafeERC20.sol\":9033:9073  SafeERC20FailedOperation(address(token)) */\n      revert\n        /* \"@openzeppelin/contracts/token/ERC20/utils/SafeERC20.sol\":8942:9010  returnSize == 0 ? address(token).code.length == 0 : returnValue != 1 */\n    tag_191:\n        /* \"@openzeppelin/contracts/token/ERC20/utils/SafeERC20.sol\":9009:9010  1 */\n      0x01\n        /* \"@openzeppelin/contracts/token/ERC20/utils/SafeERC20.sol\":8994:9010  returnValue != 1 */\n      eq\n      iszero\n        /* \"@openzeppelin/contracts/token/ERC20/utils/SafeERC20.sol\":8942:9010  returnSize == 0 ? address(token).code.length == 0 : returnValue != 1 */\n      jump(tag_193)\n        /* \"@openzeppelin/contracts/token/ERC20/utils/SafeERC20.sol\":8507:8928  assembly (\"memory-safe\") {... */\n    tag_189:\n      mload(0x40)\n      returndatasize\n      0x00\n      dup3\n      returndatacopy\n      returndatasize\n      swap1\n      revert\n\n    auxdata: 0xa2646970667358221220d12467c05a152e35721f01ea955ba03366d1a77944ef40887e035e2480d4444464736f6c634300081e0033\n}\n",
				"bytecode": {
					"linkReferences": {},
					"object": "608034609d57601f61093b38819003918201601f19168301916001600160401b0383118484101760b1578084926040948552833981010312609d57604b602060458360c5565b920160c5565b60015f556001600160a01b039081169116808214158060a9575b8060a1575b15609d5760018060a01b0319600554161760055560018060a01b0319600654161760065560405161086290816100d98239f35b5f80fd5b50811515606a565b508015156065565b634e487b7160e01b5f52604160045260245ffd5b51906001600160a01b0382168203609d5756fe6080806040526004361015610012575f80fd5b5f3560e01c9081630902f1ac14610635575080630fc63d101461060d57806318160ddd146105f05780635f64b55b146105c8578063704c45361461044557806370a0823114610409578063ded998b9146101e25763ed856cdc14610074575f80fd5b346101c85760a03660031901126101c857600435610090610658565b6100986106b9565b60843542116101c857811515806101cc575b156101c85760015490600254926100c1838261066e565b926100cf600354809561068e565b936100e3816100de888661066e565b61068e565b9360243586106101c85760443585106101c857610140846101b5936101388860409b6101308c7f1dc8bb69df2b8e91fbdcbfcf93d951b3f0000f085a95fe3f7946d6161439245d9a6106ac565b6001556106ac565b6002556106ac565b600355335f526004602052865f206101598582546106ac565b905560055461017490879083906001600160a01b031661078e565b60065461018d90869083906001600160a01b031661078e565b86518681526020810186905260408101949094526001600160a01b0316929081906060820190565b0390a260015f5582519182526020820152f35b5f80fd5b50335f5260046020528160405f205410156100aa565b346101c85760c03660031901126101c8576004356084356001600160a01b03811690602435908290036101c8576102176106b9565b60a43542116101c85782151580610400575b156101c857600154600254918115806103f8575b156103af5793925b600554610260908590309033906001600160a01b0316610743565b61027685303360018060a01b0360065416610743565b600354928361039b57610289868661066e565b5f600382111561038d5750808060011c6001810180911161037957905b82821061035a5750505b925b83156101c857610356946102d7886102df946102cf8a8996610681565b600155610681565b600255610681565b600355805f52600460205260405f206102f9838254610681565b905560408051858152602081018790529081018390527f64b83944e79c3ce8d4c297411de637c3e102d064677aac0c163976ebdcd6f50e90606090a260015f55604051938493846040919493926060820195825260208201520152565b0390f35b9091506103708261036b818461068e565b610681565b60011c906102a6565b634e487b7160e01b5f52601160045260245ffd5b90156102b0575060016102b0565b6103a9836100de868861066e565b926102b2565b6103bd826100de858861066e565b908082116103d6575060643581106101c8579392610245565b9450506103e7826100de838761066e565b9360443585106101c8579392610245565b50821561023d565b50801515610229565b346101c85760203660031901126101c8576004356001600160a01b038116908190036101c8575f526004602052602060405f2054604051908152f35b346101c85760a03660031901126101c85760443560043581151582036101c85761046d610658565b906104766106b9565b60843542116101c85780156101c85782156105bc57600154600254905b801515806105b3575b156101c8576104b8836104b26104be948261066e565b92610681565b9061068e565b9160243583106101c857826020945f1461055f5760055461050392906104f2908590309033906001600160a01b0316610743565b6006546001600160a01b031661078e565b61050f81600154610681565b60015561051e826002546106ac565b6002555b60405190815281838201527f77f92a1b6a1a11de8ca49515ad4c1fad45632dd3442167d74b90b304a3c7a75860403392a260015f55604051908152f35b600654610590929061057f908590309033906001600160a01b0316610743565b6005546001600160a01b031661078e565b61059c81600254610681565b6002556105ab826001546106ac565b600155610522565b5081151561049c565b60025460015490610493565b346101c8575f3660031901126101c8576006546040516001600160a01b039091168152602090f35b346101c8575f3660031901126101c8576020600354604051908152f35b346101c8575f3660031901126101c8576005546040516001600160a01b039091168152602090f35b346101c8575f3660031901126101c8576040906001546002549082526020820152f35b606435906001600160a01b03821682036101c857565b8181029291811591840414171561037957565b9190820180921161037957565b8115610698570490565b634e487b7160e01b5f52601260045260245ffd5b9190820391821161037957565b60025f54146106c85760025f55565b60405162461bcd60e51b815260206004820152601f60248201527f5265656e7472616e637947756172643a207265656e7472616e742063616c6c006044820152606490fd5b90601f8019910116810190811067ffffffffffffffff82111761072f57604052565b634e487b7160e01b5f52604160045260245ffd5b6040516323b872dd60e01b60208201526001600160a01b03928316602482015292909116604483015260648083019390935291815261078c9161078760848361070d565b6107c9565b565b60405163a9059cbb60e01b60208201526001600160a01b03909216602483015260448083019390935291815261078c9161078760648361070d565b905f602091828151910182855af115610821575f513d61081857506001600160a01b0381163b155b6107f85750565b635274afe760e01b5f9081526001600160a01b0391909116600452602490fd5b600114156107f1565b6040513d5f823e3d90fdfea2646970667358221220d12467c05a152e35721f01ea955ba03366d1a77944ef40887e035e2480d4444464736f6c634300081e0033",
					"opcodes": "PUSH1 0x80 CALLVALUE PUSH1 0x9D JUMPI PUSH1 0x1F PUSH2 0x93B CODESIZE DUP2 SWAP1 SUB SWAP2 DUP3 ADD PUSH1 0x1F NOT AND DUP4 ADD SWAP2 PUSH1 0x1 PUSH1 0x1 PUSH1 0x40 SHL SUB DUP4 GT DUP5 DUP5 LT OR PUSH1 0xB1 JUMPI DUP1 DUP5 SWAP3 PUSH1 0x40 SWAP5 DUP6 MSTORE DUP4 CODECOPY DUP2 ADD SUB SLT PUSH1 0x9D JUMPI PUSH1 0x4B PUSH1 0x20 PUSH1 0x45 DUP4 PUSH1 0xC5 JUMP JUMPDEST SWAP3 ADD PUSH1 0xC5 JUMP JUMPDEST PUSH1 0x1 PUSH0 SSTORE PUSH1 0x1 PUSH1 0x1 PUSH1 0xA0 SHL SUB SWAP1 DUP2 AND SWAP2 AND DUP1 DUP3 EQ ISZERO DUP1 PUSH1 0xA9 JUMPI JUMPDEST DUP1 PUSH1 0xA1 JUMPI JUMPDEST ISZERO PUSH1 0x9D JUMPI PUSH1 0x1 DUP1 PUSH1 0xA0 SHL SUB NOT PUSH1 0x5 SLOAD AND OR PUSH1 0x5 SSTORE PUSH1 0x1 DUP1 PUSH1 0xA0 SHL SUB NOT PUSH1 0x6 SLOAD AND OR PUSH1 0x6 SSTORE PUSH1 0x40 MLOAD PUSH2 0x862 SWAP1 DUP2 PUSH2 0xD9 DUP3 CODECOPY RETURN JUMPDEST PUSH0 DUP1 REVERT JUMPDEST POP DUP2 ISZERO ISZERO PUSH1 0x6A JUMP JUMPDEST POP DUP1 ISZERO ISZERO PUSH1 0x65 JUMP JUMPDEST PUSH4 0x4E487B71 PUSH1 0xE0 SHL PUSH0 MSTORE PUSH1 0x41 PUSH1 0x4 MSTORE PUSH1 0x24 PUSH0 REVERT JUMPDEST MLOAD SWAP1 PUSH1 0x1 PUSH1 0x1 PUSH1 0xA0 SHL SUB DUP3 AND DUP3 SUB PUSH1 0x9D JUMPI JUMP INVALID PUSH1 0x80 DUP1 PUSH1 0x40 MSTORE PUSH1 0x4 CALLDATASIZE LT ISZERO PUSH2 0x12 JUMPI PUSH0 DUP1 REVERT JUMPDEST PUSH0 CALLDATALOAD PUSH1 0xE0 SHR SWAP1 DUP2 PUSH4 0x902F1AC EQ PUSH2 0x635 JUMPI POP DUP1 PUSH4 0xFC63D10 EQ PUSH2 0x60D JUMPI DUP1 PUSH4 0x18160DDD EQ PUSH2 0x5F0 JUMPI DUP1 PUSH4 0x5F64B55B EQ PUSH2 0x5C8 JUMPI DUP1 PUSH4 0x704C4536 EQ PUSH2 0x445 JUMPI DUP1 PUSH4 0x70A08231 EQ PUSH2 0x409 JUMPI DUP1 PUSH4 0xDED998B9 EQ PUSH2 0x1E2 JUMPI PUSH4 0xED856CDC EQ PUSH2 0x74 JUMPI PUSH0 DUP1 REVERT JUMPDEST CALLVALUE PUSH2 0x1C8 JUMPI PUSH1 0xA0 CALLDATASIZE PUSH1 0x3 NOT ADD SLT PUSH2 0x1C8 JUMPI PUSH1 0x4 CALLDATALOAD PUSH2 0x90 PUSH2 0x658 JUMP JUMPDEST PUSH2 0x98 PUSH2 0x6B9 JUMP JUMPDEST PUSH1 0x84 CALLDATALOAD TIMESTAMP GT PUSH2 0x1C8 JUMPI DUP2 ISZERO ISZERO DUP1 PUSH2 0x1CC JUMPI JUMPDEST ISZERO PUSH2 0x1C8 JUMPI PUSH1 0x1 SLOAD SWAP1 PUSH1 0x2 SLOAD SWAP3 PUSH2 0xC1 DUP4 DUP3 PUSH2 0x66E JUMP JUMPDEST SWAP3 PUSH2 0xCF PUSH1 0x3 SLOAD DUP1 SWAP6 PUSH2 0x68E JUMP JUMPDEST SWAP4 PUSH2 0xE3 DUP2 PUSH2 0xDE DUP9 DUP7 PUSH2 0x66E JUMP JUMPDEST PUSH2 0x68E JUMP JUMPDEST SWAP4 PUSH1 0x24 CALLDATALOAD DUP7 LT PUSH2 0x1C8 JUMPI PUSH1 0x44 CALLDATALOAD DUP6 LT PUSH2 0x1C8 JUMPI PUSH2 0x140 DUP5 PUSH2 0x1B5 SWAP4 PUSH2 0x138 DUP9 PUSH1 0x40 SWAP12 PUSH2 0x130 DUP13 PUSH32 0x1DC8BB69DF2B8E91FBDCBFCF93D951B3F0000F085A95FE3F7946D6161439245D SWAP11 PUSH2 0x6AC JUMP JUMPDEST PUSH1 0x1 SSTORE PUSH2 0x6AC JUMP JUMPDEST PUSH1 0x2 SSTORE PUSH2 0x6AC JUMP JUMPDEST PUSH1 0x3 SSTORE CALLER PUSH0 MSTORE PUSH1 0x4 PUSH1 0x20 MSTORE DUP7 PUSH0 KECCAK256 PUSH2 0x159 DUP6 DUP3 SLOAD PUSH2 0x6AC JUMP JUMPDEST SWAP1 SSTORE PUSH1 0x5 SLOAD PUSH2 0x174 SWAP1 DUP8 SWAP1 DUP4 SWAP1 PUSH1 0x1 PUSH1 0x1 PUSH1 0xA0 SHL SUB AND PUSH2 0x78E JUMP JUMPDEST PUSH1 0x6 SLOAD PUSH2 0x18D SWAP1 DUP7 SWAP1 DUP4 SWAP1 PUSH1 0x1 PUSH1 0x1 PUSH1 0xA0 SHL SUB AND PUSH2 0x78E JUMP JUMPDEST DUP7 MLOAD DUP7 DUP2 MSTORE PUSH1 0x20 DUP2 ADD DUP7 SWAP1 MSTORE PUSH1 0x40 DUP2 ADD SWAP5 SWAP1 SWAP5 MSTORE PUSH1 0x1 PUSH1 0x1 PUSH1 0xA0 SHL SUB AND SWAP3 SWAP1 DUP2 SWAP1 PUSH1 0x60 DUP3 ADD SWAP1 JUMP JUMPDEST SUB SWAP1 LOG2 PUSH1 0x1 PUSH0 SSTORE DUP3 MLOAD SWAP2 DUP3 MSTORE PUSH1 0x20 DUP3 ADD MSTORE RETURN JUMPDEST PUSH0 DUP1 REVERT JUMPDEST POP CALLER PUSH0 MSTORE PUSH1 0x4 PUSH1 0x20 MSTORE DUP2 PUSH1 0x40 PUSH0 KECCAK256 SLOAD LT ISZERO PUSH2 0xAA JUMP JUMPDEST CALLVALUE PUSH2 0x1C8 JUMPI PUSH1 0xC0 CALLDATASIZE PUSH1 0x3 NOT ADD SLT PUSH2 0x1C8 JUMPI PUSH1 0x4 CALLDATALOAD PUSH1 0x84 CALLDATALOAD PUSH1 0x1 PUSH1 0x1 PUSH1 0xA0 SHL SUB DUP2 AND SWAP1 PUSH1 0x24 CALLDATALOAD SWAP1 DUP3 SWAP1 SUB PUSH2 0x1C8 JUMPI PUSH2 0x217 PUSH2 0x6B9 JUMP JUMPDEST PUSH1 0xA4 CALLDATALOAD TIMESTAMP GT PUSH2 0x1C8 JUMPI DUP3 ISZERO ISZERO DUP1 PUSH2 0x400 JUMPI JUMPDEST ISZERO PUSH2 0x1C8 JUMPI PUSH1 0x1 SLOAD PUSH1 0x2 SLOAD SWAP2 DUP2 ISZERO DUP1 PUSH2 0x3F8 JUMPI JUMPDEST ISZERO PUSH2 0x3AF JUMPI SWAP4 SWAP3 JUMPDEST PUSH1 0x5 SLOAD PUSH2 0x260 SWAP1 DUP6 SWAP1 ADDRESS SWAP1 CALLER SWAP1 PUSH1 0x1 PUSH1 0x1 PUSH1 0xA0 SHL SUB AND PUSH2 0x743 JUMP JUMPDEST PUSH2 0x276 DUP6 ADDRESS CALLER PUSH1 0x1 DUP1 PUSH1 0xA0 SHL SUB PUSH1 0x6 SLOAD AND PUSH2 0x743 JUMP JUMPDEST PUSH1 0x3 SLOAD SWAP3 DUP4 PUSH2 0x39B JUMPI PUSH2 0x289 DUP7 DUP7 PUSH2 0x66E JUMP JUMPDEST PUSH0 PUSH1 0x3 DUP3 GT ISZERO PUSH2 0x38D JUMPI POP DUP1 DUP1 PUSH1 0x1 SHR PUSH1 0x1 DUP2 ADD DUP1 SWAP2 GT PUSH2 0x379 JUMPI SWAP1 JUMPDEST DUP3 DUP3 LT PUSH2 0x35A JUMPI POP POP JUMPDEST SWAP3 JUMPDEST DUP4 ISZERO PUSH2 0x1C8 JUMPI PUSH2 0x356 SWAP5 PUSH2 0x2D7 DUP9 PUSH2 0x2DF SWAP5 PUSH2 0x2CF DUP11 DUP10 SWAP7 PUSH2 0x681 JUMP JUMPDEST PUSH1 0x1 SSTORE PUSH2 0x681 JUMP JUMPDEST PUSH1 0x2 SSTORE PUSH2 0x681 JUMP JUMPDEST PUSH1 0x3 SSTORE DUP1 PUSH0 MSTORE PUSH1 0x4 PUSH1 0x20 MSTORE PUSH1 0x40 PUSH0 KECCAK256 PUSH2 0x2F9 DUP4 DUP3 SLOAD PUSH2 0x681 JUMP JUMPDEST SWAP1 SSTORE PUSH1 0x40 DUP1 MLOAD DUP6 DUP2 MSTORE PUSH1 0x20 DUP2 ADD DUP8 SWAP1 MSTORE SWAP1 DUP2 ADD DUP4 SWAP1 MSTORE PUSH32 0x64B83944E79C3CE8D4C297411DE637C3E102D064677AAC0C163976EBDCD6F50E SWAP1 PUSH1 0x60 SWAP1 LOG2 PUSH1 0x1 PUSH0 SSTORE PUSH1 0x40 MLOAD SWAP4 DUP5 SWAP4 DUP5 PUSH1 0x40 SWAP2 SWAP5 SWAP4 SWAP3 PUSH1 0x60 DUP3 ADD SWAP6 DUP3 MSTORE PUSH1 0x20 DUP3 ADD MSTORE ADD MSTORE JUMP JUMPDEST SUB SWAP1 RETURN JUMPDEST SWAP1 SWAP2 POP PUSH2 0x370 DUP3 PUSH2 0x36B DUP2 DUP5 PUSH2 0x68E JUMP JUMPDEST PUSH2 0x681 JUMP JUMPDEST PUSH1 0x1 SHR SWAP1 PUSH2 0x2A6 JUMP JUMPDEST PUSH4 0x4E487B71 PUSH1 0xE0 SHL PUSH0 MSTORE PUSH1 0x11 PUSH1 0x4 MSTORE PUSH1 0x24 PUSH0 REVERT JUMPDEST SWAP1 ISZERO PUSH2 0x2B0 JUMPI POP PUSH1 0x1 PUSH2 0x2B0 JUMP JUMPDEST PUSH2 0x3A9 DUP4 PUSH2 0xDE DUP7 DUP9 PUSH2 0x66E JUMP JUMPDEST SWAP3 PUSH2 0x2B2 JUMP JUMPDEST PUSH2 0x3BD DUP3 PUSH2 0xDE DUP6 DUP9 PUSH2 0x66E JUMP JUMPDEST SWAP1 DUP1 DUP3 GT PUSH2 0x3D6 JUMPI POP PUSH1 0x64 CALLDATALOAD DUP2 LT PUSH2 0x1C8 JUMPI SWAP4 SWAP3 PUSH2 0x245 JUMP JUMPDEST SWAP5 POP POP PUSH2 0x3E7 DUP3 PUSH2 0xDE DUP4 DUP8 PUSH2 0x66E JUMP JUMPDEST SWAP4 PUSH1 0x44 CALLDATALOAD DUP6 LT PUSH2 0x1C8 JUMPI SWAP4 SWAP3 PUSH2 0x245 JUMP JUMPDEST POP DUP3 ISZERO PUSH2 0x23D JUMP JUMPDEST POP DUP1 ISZERO ISZERO PUSH2 0x229 JUMP JUMPDEST CALLVALUE PUSH2 0x1C8 JUMPI PUSH1 0x20 CALLDATASIZE PUSH1 0x3 NOT ADD SLT PUSH2 0x1C8 JUMPI PUSH1 0x4 CALLDATALOAD PUSH1 0x1 PUSH1 0x1 PUSH1 0xA0 SHL SUB DUP2 AND SWAP1 DUP2 SWAP1 SUB PUSH2 0x1C8 JUMPI PUSH0 MSTORE PUSH1 0x4 PUSH1 0x20 MSTORE PUSH1 0x20 PUSH1 0x40 PUSH0 KECCAK256 SLOAD PUSH1 0x40 MLOAD SWAP1 DUP2 MSTORE RETURN JUMPDEST CALLVALUE PUSH2 0x1C8 JUMPI PUSH1 0xA0 CALLDATASIZE PUSH1 0x3 NOT ADD SLT PUSH2 0x1C8 JUMPI PUSH1 0x44 CALLDATALOAD PUSH1 0x4 CALLDATALOAD DUP2 ISZERO ISZERO DUP3 SUB PUSH2 0x1C8 JUMPI PUSH2 0x46D PUSH2 0x658 JUMP JUMPDEST SWAP1 PUSH2 0x476 PUSH2 0x6B9 JUMP JUMPDEST PUSH1 0x84 CALLDATALOAD TIMESTAMP GT PUSH2 0x1C8 JUMPI DUP1 ISZERO PUSH2 0x1C8 JUMPI DUP3 ISZERO PUSH2 0x5BC JUMPI PUSH1 0x1 SLOAD PUSH1 0x2 SLOAD SWAP1 JUMPDEST DUP1 ISZERO ISZERO DUP1 PUSH2 0x5B3 JUMPI JUMPDEST ISZERO PUSH2 0x1C8 JUMPI PUSH2 0x4B8 DUP4 PUSH2 0x4B2 PUSH2 0x4BE SWAP5 DUP3 PUSH2 0x66E JUMP JUMPDEST SWAP3 PUSH2 0x681 JUMP JUMPDEST SWAP1 PUSH2 0x68E JUMP JUMPDEST SWAP2 PUSH1 0x24 CALLDATALOAD DUP4 LT PUSH2 0x1C8 JUMPI DUP3 PUSH1 0x20 SWAP5 PUSH0 EQ PUSH2 0x55F JUMPI PUSH1 0x5 SLOAD PUSH2 0x503 SWAP3 SWAP1 PUSH2 0x4F2 SWAP1 DUP6 SWAP1 ADDRESS SWAP1 CALLER SWAP1 PUSH1 0x1 PUSH1 0x1 PUSH1 0xA0 SHL SUB AND PUSH2 0x743 JUMP JUMPDEST PUSH1 0x6 SLOAD PUSH1 0x1 PUSH1 0x1 PUSH1 0xA0 SHL SUB AND PUSH2 0x78E JUMP JUMPDEST PUSH2 0x50F DUP2 PUSH1 0x1 SLOAD PUSH2 0x681 JUMP JUMPDEST PUSH1 0x1 SSTORE PUSH2 0x51E DUP3 PUSH1 0x2 SLOAD PUSH2 0x6AC JUMP JUMPDEST PUSH1 0x2 SSTORE JUMPDEST PUSH1 0x40 MLOAD SWAP1 DUP2 MSTORE DUP2 DUP4 DUP3 ADD MSTORE PUSH32 0x77F92A1B6A1A11DE8CA49515AD4C1FAD45632DD3442167D74B90B304A3C7A758 PUSH1 0x40 CALLER SWAP3 LOG2 PUSH1 0x1 PUSH0 SSTORE PUSH1 0x40 MLOAD SWAP1 DUP2 MSTORE RETURN JUMPDEST PUSH1 0x6 SLOAD PUSH2 0x590 SWAP3 SWAP1 PUSH2 0x57F SWAP1 DUP6 SWAP1 ADDRESS SWAP1 CALLER SWAP1 PUSH1 0x1 PUSH1 0x1 PUSH1 0xA0 SHL SUB AND PUSH2 0x743 JUMP JUMPDEST PUSH1 0x5 SLOAD PUSH1 0x1 PUSH1 0x1 PUSH1 0xA0 SHL SUB AND PUSH2 0x78E JUMP JUMPDEST PUSH2 0x59C DUP2 PUSH1 0x2 SLOAD PUSH2 0x681 JUMP JUMPDEST PUSH1 0x2 SSTORE PUSH2 0x5AB DUP3 PUSH1 0x1 SLOAD PUSH2 0x6AC JUMP JUMPDEST PUSH1 0x1 SSTORE PUSH2 0x522 JUMP JUMPDEST POP DUP2 ISZERO ISZERO PUSH2 0x49C JUMP JUMPDEST PUSH1 0x2 SLOAD PUSH1 0x1 SLOAD SWAP1 PUSH2 0x493 JUMP JUMPDEST CALLVALUE PUSH2 0x1C8 JUMPI PUSH0 CALLDATASIZE PUSH1 0x3 NOT ADD SLT PUSH2 0x1C8 JUMPI PUSH1 0x6 SLOAD PUSH1 0x40 MLOAD PUSH1 0x1 PUSH1 0x1 PUSH1 0xA0 SHL SUB SWAP1 SWAP2 AND DUP2 MSTORE PUSH1 0x20 SWAP1 RETURN JUMPDEST CALLVALUE PUSH2 0x1C8 JUMPI PUSH0 CALLDATASIZE PUSH1 0x3 NOT ADD SLT PUSH2 0x1C8 JUMPI PUSH1 0x20 PUSH1 0x3 SLOAD PUSH1 0x40 MLOAD SWAP1 DUP2 MSTORE RETURN JUMPDEST CALLVALUE PUSH2 0x1C8 JUMPI PUSH0 CALLDATASIZE PUSH1 0x3 NOT ADD SLT PUSH2 0x1C8 JUMPI PUSH1 0x5 SLOAD PUSH1 0x40 MLOAD PUSH1 0x1 PUSH1 0x1 PUSH1 0xA0 SHL SUB SWAP1 SWAP2 AND DUP2 MSTORE PUSH1 0x20 SWAP1 RETURN JUMPDEST CALLVALUE PUSH2 0x1C8 JUMPI PUSH0 CALLDATASIZE PUSH1 0x3 NOT ADD SLT PUSH2 0x1C8 JUMPI PUSH1 0x40 SWAP1 PUSH1 0x1 SLOAD PUSH1 0x2 SLOAD SWAP1 DUP3 MSTORE PUSH1 0x20 DUP3 ADD MSTORE RETURN JUMPDEST PUSH1 0x64 CALLDATALOAD SWAP1 PUSH1 0x1 PUSH1 0x1 PUSH1 0xA0 SHL SUB DUP3 AND DUP3 SUB PUSH2 0x1C8 JUMPI JUMP JUMPDEST DUP2 DUP2 MUL SWAP3 SWAP2 DUP2 ISZERO SWAP2 DUP5 DIV EQ OR ISZERO PUSH2 0x379 JUMPI JUMP JUMPDEST SWAP2 SWAP1 DUP3 ADD DUP1 SWAP3 GT PUSH2 0x379 JUMPI JUMP JUMPDEST DUP2 ISZERO PUSH2 0x698 JUMPI DIV SWAP1 JUMP JUMPDEST PUSH4 0x4E487B71 PUSH1 0xE0 SHL PUSH0 MSTORE PUSH1 0x12 PUSH1 0x4 MSTORE PUSH1 0x24 PUSH0 REVERT JUMPDEST SWAP2 SWAP1 DUP3 SUB SWAP2 DUP3 GT PUSH2 0x379 JUMPI JUMP JUMPDEST PUSH1 0x2 PUSH0 SLOAD EQ PUSH2 0x6C8 JUMPI PUSH1 0x2 PUSH0 SSTORE JUMP JUMPDEST PUSH1 0x40 MLOAD PUSH3 0x461BCD PUSH1 0xE5 SHL DUP2 MSTORE PUSH1 0x20 PUSH1 0x4 DUP3 ADD MSTORE PUSH1 0x1F PUSH1 0x24 DUP3 ADD MSTORE PUSH32 0x5265656E7472616E637947756172643A207265656E7472616E742063616C6C00 PUSH1 0x44 DUP3 ADD MSTORE PUSH1 0x64 SWAP1 REVERT JUMPDEST SWAP1 PUSH1 0x1F DUP1 NOT SWAP2 ADD AND DUP2 ADD SWAP1 DUP2 LT PUSH8 0xFFFFFFFFFFFFFFFF DUP3 GT OR PUSH2 0x72F JUMPI PUSH1 0x40 MSTORE JUMP JUMPDEST PUSH4 0x4E487B71 PUSH1 0xE0 SHL PUSH0 MSTORE PUSH1 0x41 PUSH1 0x4 MSTORE PUSH1 0x24 PUSH0 REVERT JUMPDEST PUSH1 0x40 MLOAD PUSH4 0x23B872DD PUSH1 0xE0 SHL PUSH1 0x20 DUP3 ADD MSTORE PUSH1 0x1 PUSH1 0x1 PUSH1 0xA0 SHL SUB SWAP3 DUP4 AND PUSH1 0x24 DUP3 ADD MSTORE SWAP3 SWAP1 SWAP2 AND PUSH1 0x44 DUP4 ADD MSTORE PUSH1 0x64 DUP1 DUP4 ADD SWAP4 SWAP1 SWAP4 MSTORE SWAP2 DUP2 MSTORE PUSH2 0x78C SWAP2 PUSH2 0x787 PUSH1 0x84 DUP4 PUSH2 0x70D JUMP JUMPDEST PUSH2 0x7C9 JUMP JUMPDEST JUMP JUMPDEST PUSH1 0x40 MLOAD PUSH4 0xA9059CBB PUSH1 0xE0 SHL PUSH1 0x20 DUP3 ADD MSTORE PUSH1 0x1 PUSH1 0x1 PUSH1 0xA0 SHL SUB SWAP1 SWAP3 AND PUSH1 0x24 DUP4 ADD MSTORE PUSH1 0x44 DUP1 DUP4 ADD SWAP4 SWAP1 SWAP4 MSTORE SWAP2 DUP2 MSTORE PUSH2 0x78C SWAP2 PUSH2 0x787 PUSH1 0x64 DUP4 PUSH2 0x70D JUMP JUMPDEST SWAP1 PUSH0 PUSH1 0x20 SWAP2 DUP3 DUP2 MLOAD SWAP2 ADD DUP3 DUP6 GAS CALL ISZERO PUSH2 0x821 JUMPI PUSH0 MLOAD RETURNDATASIZE PUSH2 0x818 JUMPI POP PUSH1 0x1 PUSH1 0x1 PUSH1 0xA0 SHL SUB DUP2 AND EXTCODESIZE ISZERO JUMPDEST PUSH2 0x7F8 JUMPI POP JUMP JUMPDEST PUSH4 0x5274AFE7 PUSH1 0xE0 SHL PUSH0 SWAP1 DUP2 MSTORE PUSH1 0x1 PUSH1 0x1 PUSH1 0xA0 SHL SUB SWAP2 SWAP1 SWAP2 AND PUSH1 0x4 MSTORE PUSH1 0x24 SWAP1 REVERT JUMPDEST PUSH1 0x1 EQ ISZERO PUSH2 0x7F1 JUMP JUMPDEST PUSH1 0x40 MLOAD RETURNDATASIZE PUSH0 DUP3 RETURNDATACOPY RETURNDATASIZE SWAP1 REVERT INVALID LOG2 PUSH5 0x6970667358 0x22 SLT KECCAK256 DATALOADN 0x2467 0xC0 GAS ISZERO 0x2E CALLDATALOAD PUSH19 0x1F01EA955BA03366D1A77944EF40887E035E24 DUP1 0xD4 PREVRANDAO PREVRANDAO PUSH5 0x736F6C6343 STOP ADDMOD 0x1E STOP CALLER "
				},
				"gasEstimates": {
					"creation": {
						"codeDepositCost": "429200",
						"executionCost": "infinite",
						"totalCost": "infinite"
					},
					"external": {
						"addLiquidity(uint256,uint256,uint256,uint256,address,uint256)": "infinite",
						"balanceOf(address)": "2477",
						"getReserves()": "4369",
						"removeLiquidity(uint256,uint256,uint256,address,uint256)": "infinite",
						"swap(uint256,uint256,bool,address,uint256)": "infinite",
						"tokenA()": "2302",
						"tokenB()": "2346",
						"totalSupply()": "2300"
					},
					"internal": {
						"_sqrt(uint256)": "infinite"
					}
				},
				"methodIdentifiers": {
					"addLiquidity(uint256,uint256,uint256,uint256,address,uint256)": "ded998b9",
					"balanceOf(address)": "70a08231",
					"getReserves()": "0902f1ac",
					"removeLiquidity(uint256,uint256,uint256,address,uint256)": "ed856cdc",
					"swap(uint256,uint256,bool,address,uint256)": "704c4536",
					"tokenA()": "0fc63d10",
					"tokenB()": "5f64b55b",
					"totalSupply()": "18160ddd"
				}
			},
			"storageLayout": {
				"storage": [
					{
						"astId": 100,
						"contract": "simpleswap.sol:SimpleSwap",
						"label": "_status",
						"offset": 0,
						"slot": "0",
						"type": "t_uint256"
					},
					{
						"astId": 728,
						"contract": "simpleswap.sol:SimpleSwap",
						"label": "_reserves",
						"offset": 0,
						"slot": "1",
						"type": "t_struct(Reserves)725_storage"
					},
					{
						"astId": 730,
						"contract": "simpleswap.sol:SimpleSwap",
						"label": "_totalSupply",
						"offset": 0,
						"slot": "3",
						"type": "t_uint256"
					},
					{
						"astId": 734,
						"contract": "simpleswap.sol:SimpleSwap",
						"label": "_balances",
						"offset": 0,
						"slot": "4",
						"type": "t_mapping(t_address,t_uint256)"
					},
					{
						"astId": 737,
						"contract": "simpleswap.sol:SimpleSwap",
						"label": "tokenA",
						"offset": 0,
						"slot": "5",
						"type": "t_contract(IERC20)232"
					},
					{
						"astId": 740,
						"contract": "simpleswap.sol:SimpleSwap",
						"label": "tokenB",
						"offset": 0,
						"slot": "6",
						"type": "t_contract(IERC20)232"
					}
				],
				"types": {
					"t_address": {
						"encoding": "inplace",
						"label": "address",
						"numberOfBytes": "20"
					},
					"t_contract(IERC20)232": {
						"encoding": "inplace",
						"label": "contract IERC20",
						"numberOfBytes": "20"
					},
					"t_mapping(t_address,t_uint256)": {
						"encoding": "mapping",
						"key": "t_address",
						"label": "mapping(address => uint256)",
						"numberOfBytes": "32",
						"value": "t_uint256"
					},
					"t_struct(Reserves)725_storage": {
						"encoding": "inplace",
						"label": "struct SimpleSwap.Reserves",
						"members": [
							{
								"astId": 722,
								"contract": "simpleswap.sol:SimpleSwap",
								"label": "reserveA",
								"offset": 0,
								"slot": "0",
								"type": "t_uint256"
							},
							{
								"astId": 724,
								"contract": "simpleswap.sol:SimpleSwap",
								"label": "reserveB",
								"offset": 0,
								"slot": "1",
								"type": "t_uint256"
							}
						],
						"numberOfBytes": "64"
					},
					"t_uint256": {
						"encoding": "inplace",
						"label": "uint256",
						"numberOfBytes": "32"
					}
				}
			},
			"userdoc": {
				"kind": "user",
				"methods": {},
				"version": 1
			}
		}
	}
}