{
	"data": {
		"bytecode": {
			"linkReferences": {},
			"object": "608060405234601f57600e6023565b60405161162b61005e823961162b90f35b5f80fd5b60296050565b565b6035603560359290565b90565b60356001602b565b9060356035604c92602b565b9055565b602960586038565b5f604056fe60806040526004361015610011575f80fd5b5f3560e01c806338ed1739146100705780635e1e63251461006b57806375bb9b6314610066578063baa2abde14610061578063d52bb6f41461005c5763e8e337000361007e576103f8565b61034b565b6102f3565b61025a565b610215565b6101b3565b805b0361007e57565b5f80fd5b9050359061008f82610075565b565b909182601f8301121561007e5781359167ffffffffffffffff831161007e57602001926020830284011161007e57565b6001600160a01b031690565b90565b6001600160a01b038116610077565b9050359061008f826100d0565b9060a08282031261007e576101018183610082565b9261010f8260208501610082565b9260408101359167ffffffffffffffff831161007e57610134846100cd948401610091565b93909461014481606086016100df565b93608001610082565b9061016d61016661015c845190565b8084529260200190565b9260200190565b905f5b81811061017d5750505090565b90919261019a6101936001928651815260200190565b9460200190565b929101610170565b60208082526100cd9291019061014d565b3461007e576101e16101d56101c93660046100ec565b9493909392919261091a565b604051918291826101a2565b0390f35b909160608284031261007e576100cd6101fe8484610082565b9361020c81602086016100df565b936040016100df565b3461007e576101e161023161022b3660046101e5565b9161092a565b6040519182918290815260200190565b909160608284031261007e576100cd6101fe84846100df565b3461007e576101e1610231610270366004610241565b916109a2565b60e08183031261007e5761028a82826100df565b9261029883602084016100df565b926102a68160408501610082565b926102b48260608301610082565b926100cd6102c58460808501610082565b936102d38160a086016100df565b9360c001610082565b90815260408101929161008f9160200152565b0152565b3461007e57610312610306366004610276565b95949094939193610ce6565b906101e161031f60405190565b928392836102dc565b919060408382031261007e576100cd9061034281856100df565b936020016100df565b3461007e5761031261035e366004610328565b90610d3d565b91906101008382031261007e5761037b81846100df565b9261038982602083016100df565b926103978360408401610082565b926103a58160608501610082565b926103b38260808301610082565b926100cd6103c48460a08501610082565b936103d28160c086016100df565b9360e001610082565b90815260608101939261008f9290916040916102ef906020830152565b3461007e576101e161041d61040e366004610364565b96959095949194939293611105565b6040519193915b938493846103db565b9061044496959493929161043f611173565b6106d6565b9061008f6111af565b1561045457565b60405162461bcd60e51b8152602060048201526007602482015266115e1c1a5c995960ca1b604482015280606481015b0390fd5b6100cd6100cd6100cd9290565b1561049c57565b60405162461bcd60e51b815260206004820152600e60248201526d2830ba341036bab9ba103132901960911b6044820152606490fd5b156104d957565b60405162461bcd60e51b815260206004820152600a60248201526916995c9bc81a5b9c1d5d60b21b6044820152606490fd5b634e487b7160e01b5f52603260045260245ffd5b919081101561052f576020020190565b61050b565b356100cd816100d0565b6100cd906100c1906001600160a01b031682565b6100cd9061053e565b6100cd90610552565b9061056e9061055b565b5f5260205260405f2090565b6100cd9081565b6100cd905461057a565b1561059257565b60405162461bcd60e51b8152602060048201526013602482015272125b9cdd59999a58da595b9d081bdd5d1c1d5d606a1b6044820152606490fd5b634e487b7160e01b5f52601160045260245ffd5b919082018092116105ee57565b6105cd565b906100cd6100cd61060392610488565b9055565b919082039182116105ee57565b634e487b7160e01b5f52604160045260245ffd5b90601f01601f1916810190811067ffffffffffffffff82111761064a57604052565b610614565b9061008f61065c60405190565b9283610628565b67ffffffffffffffff811161064a5760208091020190565b9061068d61068883610663565b61064f565b918252565b369037565b9061008f6106a48361067b565b926020806106b28693610663565b9201910390610692565b906106c5825190565b81101561052f576020809102010190565b610756919461070161084e949795999861074593506106fa6106f6429290565b9190565b111561044d565b610718816107126106f66002610488565b14610495565b61072e866107286106f65f610488565b116104d2565b61074a6107458a8361073f5f610488565b9161051f565b610534565b989061073f6001610488565b916100cd61077a610767858a61124a565b909290610775846001610564565b610564565b886107966001600160a01b0384165b916001600160a01b031690565b036108ff576107a481610581565b6107b060018301610581565b905b90926107d26107c08c61055b565b336107ca3061055b565b908b9261130f565b6107f36107e085848b6113af565b996107ec6106f68c9290565b101561058b565b6108076107898c926001600160a01b031690565b036108d8575f61083561083d9461082e6108246001958c906105e1565b84808801016105f3565b8a90610607565b9201016105f3565b6108468361055b565b908591611453565b61086061085b6002610488565b610697565b9461087b83610878886108725f610488565b906106bc565b52565b61088d84610878886108726001610488565b3392936108c66108c06108c07fad56699d0f375866eb895ed27203058a36a713382aaded78eb6b67da266d43329461055b565b9461055b565b946108d361031f60405190565b0390a4565b5f6108356108fa9461082e6108ef84958c906105e1565b6001858801016105f3565b61083d565b61090b60018201610581565b61091482610581565b906107b2565b6100cd959493929190606061042d565b6100cd61096761078961095961094b6100cd976109445f90565b508761124a565b909490610775866001610564565b94926001600160a01b031690565b0361098b5761098360015f61097b85610581565b940101610581565b915b906113af565b61099c5f8061097b60018601610581565b91610985565b9160036109cc6107756109c36109d2956100cd976109bd5f90565b5061124a565b91906001610564565b01610564565b610581565b906109f098979695949392916109eb611173565b610b13565b909161008f6111af565b15610a0157565b60405162461bcd60e51b815260206004820152600e60248201526d5a65726f206c697175696469747960901b6044820152606490fd5b15610a3e57565b60405162461bcd60e51b815260206004820152600f60248201526e0496e73756666696369656e74204c5608c1b6044820152606490fd5b818102929181159184041417156105ee57565b634e487b7160e01b5f52601260045260245ffd5b8115610aa6570490565b610a88565b15610ab257565b60405162461bcd60e51b81526020600482015260056024820152644d696e204160d81b6044820152606490fd5b15610ae657565b60405162461bcd60e51b815260206004820152600560248201526426b4b7102160d91b6044820152606490fd5b989692939598979194975050421115610b2b9061044d565b83610b355f610488565b10610b3f906109fa565b610b49828461124a565b93909290610b58846001610564565b85610b6291610564565b610b6f3360038301610564565b610b7890610581565b871115610b8490610a37565b610b8d81610581565b610b9960018301610581565b90610ba660028401610581565b9b610bb1828b610a75565b8d610bbb91610a9c565b9c610bc6848c610a75565b90610bd091610a9c565b9b8d1015610bdd90610aab565b8b1015610be990610adf565b8b610bf391610607565b610bfd90836105f3565b89610c0791610607565b610c1490600183016105f3565b6002810187610c2282610581565b90610c2c91610607565b610c35916105f3565b869060030133610c4491610564565b90610c4e82610581565b90610c5891610607565b610c61916105f3565b610c6a9061055b565b828990610c7692611453565b610c7f9061055b565b610c8a918791611453565b9033918693867fd765e08eef31c0983ecca03ecd166297ac485ecd5dd69e291c848f0a020333c192610cbb9061055b565b93610cc59061055b565b94610ccf9061055b565b95610cd960405190565b9283926108d392846103db565b610cf7969594939291905f806109d7565b9091565b6100cd604061064f565b9061008f610d2d6001610d16610cfb565b94610d27610d2382610581565b8752565b01610581565b6020840152565b6100cd90610d05565b90610d7f610789610d715f610d5d610d6b95610d565f90565b505f610944565b909590610775876001610564565b01610d34565b93926001600160a01b031690565b03610d9757610cf76020610d91835190565b92015190565b610cf75f610d91602084015190565b90610dc19a999897969594939291610dbc611173565b610e7b565b90919261008f6111af565b15610dd357565b60405162461bcd60e51b815260206004820152600a602482015269536c697070616765204160b01b6044820152606490fd5b15610e0c57565b60405162461bcd60e51b815260206004820152600a60248201526929b634b83830b3b2902160b11b6044820152606490fd5b15610e4557565b60405162461bcd60e51b815260206004820152600e60248201526d4c6971756964697479207a65726f60901b6044820152606490fd5b90610e99939a92919b989b99969497995050506106fa6106f6429290565b610ea3848861124a565b94909290610ebf6100cd610eb8866001610564565b8890610564565b91610ec983610581565b98610ed660018501610581565b9b8c8b610ee56106f65f610488565b14806110f1575b1561106f57505050929889939a610f95610f8f8d610f8a9c610fdb98610f46610f34610fa599610f1d610f22610f9c9b5b61055b565b33610f2c3061055b565b90899261130f565b33610f3e3061055b565b90849261130f565b610f5260028a01610581565b610f5e6106f65f610488565b0361102457610f70610f759184610a75565b6114c7565b9d8e5b610f846106f65f610488565b11610e3e565b6105e1565b856105f3565b8a906105e1565b600183016105f3565b610fbf60028201610fb989610f8a83610581565b906105f3565b610fb9610fd160038993018690610564565b91610f8a83610581565b9186928686946108d361101a6110146110147f43c967b388d3a4ccad3f7ab80167852e322e5a3fde9893f530252281b2ae8b709661055b565b9661055b565b9661042460405190565b6110689061106261105b8b611046600261105361104c8a611046848701610581565b90610a75565b8990610a9c565b959201610581565b8890610a9c565b90611489565b9d8e610f78565b611080611087918598939498610a75565b8c90610a9c565b958187116110ca57505084101561109d90610e05565b929889939a610f95610f8f8d610f8a9c610fdb98610f46610f34610fa599610f1d610f22610f9c9b61055b565b925094505083896110da91610a75565b8b6110e491610a9c565b9081101561109d90610dcc565b50806110ff6106f65f610488565b14610eec565b61111897969594939291905f8080610da6565b909192565b6100cd6002610488565b1561112e57565b60405162461bcd60e51b815260206004820152601f60248201527f5265656e7472616e637947756172643a207265656e7472616e742063616c6c006044820152606490fd5b61119461117f5f610581565b61118d6106f66100cd61111d565b1415611127565b61008f61119f61111d565b5f6105f3565b6100cd6001610488565b61008f61119f6111a5565b156111c157565b60405162461bcd60e51b815260206004820152601060248201526f4964656e746963616c20746f6b656e7360801b6044820152606490fd5b6100c16100cd6100cd9290565b6100cd906111f9565b1561121657565b60405162461bcd60e51b815260206004820152600c60248201526b5a65726f206164647265737360a01b6044820152606490fd5b90919061126a816112636001600160a01b038616610789565b14156111ba565b8061127a6107896100c15f611206565b1415806112a8575b61128b9061120f565b8061129e6001600160a01b038516610789565b10156100cd579190565b5061128b836112bc6107896100c15f611206565b14159050611282565b6112de6112d86100cd9263ffffffff1690565b60e01b90565b6001600160e01b03191690565b6001600160a01b0391821681529116602082015260608101929161008f9160400152565b61008f9360049391926113589290916113499161132f6323b872dd6112c5565b9361133960405190565b97889560208701908152016112eb565b60208201810382520383610628565b611558565b1561136457565b60405162461bcd60e51b815260206004820152600d60248201526c125b9d985b1a59081a5b9c1d5d609a1b6044820152606490fd5b6100cd6103e5610488565b6100cd6103e8610488565b6100cd92610f8a6113fa6113f3611403946113c75f90565b50806113d56106f65f610488565b1180611422575b80611409575b6113eb9061135d565b611046611399565b9283610a75565b936110466113a4565b90610a9c565b506113eb8561141a6106f65f610488565b1190506113e2565b50866114306106f65f610488565b116113dc565b6001600160a01b03909116815260408101929161008f9160200152565b61008f92600492611358916113499061146f63a9059cbb6112c5565b9261147960405190565b9687946020860190815201611436565b9080821015611496575090565b905090565b6114a86100cd6100cd9290565b60ff1690565b6100cd906114c26106f66100cd9460ff1690565b901c90565b5f816114d66106f66003610488565b11156115375750806115056114f5836114ef600161149b565b906114ae565b6114ff6001610488565b906105e1565b905b80821015611531575061152b61152182610f8a8186610a9c565b6114ef600161149b565b90611507565b92915050565b91906115456106f65f610488565b0361154c57565b90506100cd6001610488565b905f6020916115645f90565b50828151910182855af1156115ea573d5f51906115836106f65f610488565b036115d657506115928161055b565b3b61159f6106f65f610488565b145b6115a85750565b6115b46104849161055b565b635274afe760e01b5f9081526001600160a01b03909116600452908190602490565b6115e36106f66001610488565b14156115a1565b6040513d5f823e3d90fdfea2646970667358221220b334ba784c7fdb84d7122696be589bedb1036a16872f71e4834b3e2539d182e064736f6c634300081e0033",
			"opcodes": "PUSH1 0x80 PUSH1 0x40 MSTORE CALLVALUE PUSH1 0x1F JUMPI PUSH1 0xE PUSH1 0x23 JUMP JUMPDEST PUSH1 0x40 MLOAD PUSH2 0x162B PUSH2 0x5E DUP3 CODECOPY PUSH2 0x162B SWAP1 RETURN JUMPDEST PUSH0 DUP1 REVERT JUMPDEST PUSH1 0x29 PUSH1 0x50 JUMP JUMPDEST JUMP JUMPDEST PUSH1 0x35 PUSH1 0x35 PUSH1 0x35 SWAP3 SWAP1 JUMP JUMPDEST SWAP1 JUMP JUMPDEST PUSH1 0x35 PUSH1 0x1 PUSH1 0x2B JUMP JUMPDEST SWAP1 PUSH1 0x35 PUSH1 0x35 PUSH1 0x4C SWAP3 PUSH1 0x2B JUMP JUMPDEST SWAP1 SSTORE JUMP JUMPDEST PUSH1 0x29 PUSH1 0x58 PUSH1 0x38 JUMP JUMPDEST PUSH0 PUSH1 0x40 JUMP INVALID PUSH1 0x80 PUSH1 0x40 MSTORE PUSH1 0x4 CALLDATASIZE LT ISZERO PUSH2 0x11 JUMPI PUSH0 DUP1 REVERT JUMPDEST PUSH0 CALLDATALOAD PUSH1 0xE0 SHR DUP1 PUSH4 0x38ED1739 EQ PUSH2 0x70 JUMPI DUP1 PUSH4 0x5E1E6325 EQ PUSH2 0x6B JUMPI DUP1 PUSH4 0x75BB9B63 EQ PUSH2 0x66 JUMPI DUP1 PUSH4 0xBAA2ABDE EQ PUSH2 0x61 JUMPI DUP1 PUSH4 0xD52BB6F4 EQ PUSH2 0x5C JUMPI PUSH4 0xE8E33700 SUB PUSH2 0x7E JUMPI PUSH2 0x3F8 JUMP JUMPDEST PUSH2 0x34B JUMP JUMPDEST PUSH2 0x2F3 JUMP JUMPDEST PUSH2 0x25A JUMP JUMPDEST PUSH2 0x215 JUMP JUMPDEST PUSH2 0x1B3 JUMP JUMPDEST DUP1 JUMPDEST SUB PUSH2 0x7E JUMPI JUMP JUMPDEST PUSH0 DUP1 REVERT JUMPDEST SWAP1 POP CALLDATALOAD SWAP1 PUSH2 0x8F DUP3 PUSH2 0x75 JUMP JUMPDEST JUMP JUMPDEST SWAP1 SWAP2 DUP3 PUSH1 0x1F DUP4 ADD SLT ISZERO PUSH2 0x7E JUMPI DUP2 CALLDATALOAD SWAP2 PUSH8 0xFFFFFFFFFFFFFFFF DUP4 GT PUSH2 0x7E JUMPI PUSH1 0x20 ADD SWAP3 PUSH1 0x20 DUP4 MUL DUP5 ADD GT PUSH2 0x7E JUMPI JUMP JUMPDEST PUSH1 0x1 PUSH1 0x1 PUSH1 0xA0 SHL SUB AND SWAP1 JUMP JUMPDEST SWAP1 JUMP JUMPDEST PUSH1 0x1 PUSH1 0x1 PUSH1 0xA0 SHL SUB DUP2 AND PUSH2 0x77 JUMP JUMPDEST SWAP1 POP CALLDATALOAD SWAP1 PUSH2 0x8F DUP3 PUSH2 0xD0 JUMP JUMPDEST SWAP1 PUSH1 0xA0 DUP3 DUP3 SUB SLT PUSH2 0x7E JUMPI PUSH2 0x101 DUP2 DUP4 PUSH2 0x82 JUMP JUMPDEST SWAP3 PUSH2 0x10F DUP3 PUSH1 0x20 DUP6 ADD PUSH2 0x82 JUMP JUMPDEST SWAP3 PUSH1 0x40 DUP2 ADD CALLDATALOAD SWAP2 PUSH8 0xFFFFFFFFFFFFFFFF DUP4 GT PUSH2 0x7E JUMPI PUSH2 0x134 DUP5 PUSH2 0xCD SWAP5 DUP5 ADD PUSH2 0x91 JUMP JUMPDEST SWAP4 SWAP1 SWAP5 PUSH2 0x144 DUP2 PUSH1 0x60 DUP7 ADD PUSH2 0xDF JUMP JUMPDEST SWAP4 PUSH1 0x80 ADD PUSH2 0x82 JUMP JUMPDEST SWAP1 PUSH2 0x16D PUSH2 0x166 PUSH2 0x15C DUP5 MLOAD SWAP1 JUMP JUMPDEST DUP1 DUP5 MSTORE SWAP3 PUSH1 0x20 ADD SWAP1 JUMP JUMPDEST SWAP3 PUSH1 0x20 ADD SWAP1 JUMP JUMPDEST SWAP1 PUSH0 JUMPDEST DUP2 DUP2 LT PUSH2 0x17D JUMPI POP POP POP SWAP1 JUMP JUMPDEST SWAP1 SWAP2 SWAP3 PUSH2 0x19A PUSH2 0x193 PUSH1 0x1 SWAP3 DUP7 MLOAD DUP2 MSTORE PUSH1 0x20 ADD SWAP1 JUMP JUMPDEST SWAP5 PUSH1 0x20 ADD SWAP1 JUMP JUMPDEST SWAP3 SWAP2 ADD PUSH2 0x170 JUMP JUMPDEST PUSH1 0x20 DUP1 DUP3 MSTORE PUSH2 0xCD SWAP3 SWAP2 ADD SWAP1 PUSH2 0x14D JUMP JUMPDEST CALLVALUE PUSH2 0x7E JUMPI PUSH2 0x1E1 PUSH2 0x1D5 PUSH2 0x1C9 CALLDATASIZE PUSH1 0x4 PUSH2 0xEC JUMP JUMPDEST SWAP5 SWAP4 SWAP1 SWAP4 SWAP3 SWAP2 SWAP3 PUSH2 0x91A JUMP JUMPDEST PUSH1 0x40 MLOAD SWAP2 DUP3 SWAP2 DUP3 PUSH2 0x1A2 JUMP JUMPDEST SUB SWAP1 RETURN JUMPDEST SWAP1 SWAP2 PUSH1 0x60 DUP3 DUP5 SUB SLT PUSH2 0x7E JUMPI PUSH2 0xCD PUSH2 0x1FE DUP5 DUP5 PUSH2 0x82 JUMP JUMPDEST SWAP4 PUSH2 0x20C DUP2 PUSH1 0x20 DUP7 ADD PUSH2 0xDF JUMP JUMPDEST SWAP4 PUSH1 0x40 ADD PUSH2 0xDF JUMP JUMPDEST CALLVALUE PUSH2 0x7E JUMPI PUSH2 0x1E1 PUSH2 0x231 PUSH2 0x22B CALLDATASIZE PUSH1 0x4 PUSH2 0x1E5 JUMP JUMPDEST SWAP2 PUSH2 0x92A JUMP JUMPDEST PUSH1 0x40 MLOAD SWAP2 DUP3 SWAP2 DUP3 SWAP1 DUP2 MSTORE PUSH1 0x20 ADD SWAP1 JUMP JUMPDEST SWAP1 SWAP2 PUSH1 0x60 DUP3 DUP5 SUB SLT PUSH2 0x7E JUMPI PUSH2 0xCD PUSH2 0x1FE DUP5 DUP5 PUSH2 0xDF JUMP JUMPDEST CALLVALUE PUSH2 0x7E JUMPI PUSH2 0x1E1 PUSH2 0x231 PUSH2 0x270 CALLDATASIZE PUSH1 0x4 PUSH2 0x241 JUMP JUMPDEST SWAP2 PUSH2 0x9A2 JUMP JUMPDEST PUSH1 0xE0 DUP2 DUP4 SUB SLT PUSH2 0x7E JUMPI PUSH2 0x28A DUP3 DUP3 PUSH2 0xDF JUMP JUMPDEST SWAP3 PUSH2 0x298 DUP4 PUSH1 0x20 DUP5 ADD PUSH2 0xDF JUMP JUMPDEST SWAP3 PUSH2 0x2A6 DUP2 PUSH1 0x40 DUP6 ADD PUSH2 0x82 JUMP JUMPDEST SWAP3 PUSH2 0x2B4 DUP3 PUSH1 0x60 DUP4 ADD PUSH2 0x82 JUMP JUMPDEST SWAP3 PUSH2 0xCD PUSH2 0x2C5 DUP5 PUSH1 0x80 DUP6 ADD PUSH2 0x82 JUMP JUMPDEST SWAP4 PUSH2 0x2D3 DUP2 PUSH1 0xA0 DUP7 ADD PUSH2 0xDF JUMP JUMPDEST SWAP4 PUSH1 0xC0 ADD PUSH2 0x82 JUMP JUMPDEST SWAP1 DUP2 MSTORE PUSH1 0x40 DUP2 ADD SWAP3 SWAP2 PUSH2 0x8F SWAP2 PUSH1 0x20 ADD MSTORE JUMP JUMPDEST ADD MSTORE JUMP JUMPDEST CALLVALUE PUSH2 0x7E JUMPI PUSH2 0x312 PUSH2 0x306 CALLDATASIZE PUSH1 0x4 PUSH2 0x276 JUMP JUMPDEST SWAP6 SWAP5 SWAP1 SWAP5 SWAP4 SWAP2 SWAP4 PUSH2 0xCE6 JUMP JUMPDEST SWAP1 PUSH2 0x1E1 PUSH2 0x31F PUSH1 0x40 MLOAD SWAP1 JUMP JUMPDEST SWAP3 DUP4 SWAP3 DUP4 PUSH2 0x2DC JUMP JUMPDEST SWAP2 SWAP1 PUSH1 0x40 DUP4 DUP3 SUB SLT PUSH2 0x7E JUMPI PUSH2 0xCD SWAP1 PUSH2 0x342 DUP2 DUP6 PUSH2 0xDF JUMP JUMPDEST SWAP4 PUSH1 0x20 ADD PUSH2 0xDF JUMP JUMPDEST CALLVALUE PUSH2 0x7E JUMPI PUSH2 0x312 PUSH2 0x35E CALLDATASIZE PUSH1 0x4 PUSH2 0x328 JUMP JUMPDEST SWAP1 PUSH2 0xD3D JUMP JUMPDEST SWAP2 SWAP1 PUSH2 0x100 DUP4 DUP3 SUB SLT PUSH2 0x7E JUMPI PUSH2 0x37B DUP2 DUP5 PUSH2 0xDF JUMP JUMPDEST SWAP3 PUSH2 0x389 DUP3 PUSH1 0x20 DUP4 ADD PUSH2 0xDF JUMP JUMPDEST SWAP3 PUSH2 0x397 DUP4 PUSH1 0x40 DUP5 ADD PUSH2 0x82 JUMP JUMPDEST SWAP3 PUSH2 0x3A5 DUP2 PUSH1 0x60 DUP6 ADD PUSH2 0x82 JUMP JUMPDEST SWAP3 PUSH2 0x3B3 DUP3 PUSH1 0x80 DUP4 ADD PUSH2 0x82 JUMP JUMPDEST SWAP3 PUSH2 0xCD PUSH2 0x3C4 DUP5 PUSH1 0xA0 DUP6 ADD PUSH2 0x82 JUMP JUMPDEST SWAP4 PUSH2 0x3D2 DUP2 PUSH1 0xC0 DUP7 ADD PUSH2 0xDF JUMP JUMPDEST SWAP4 PUSH1 0xE0 ADD PUSH2 0x82 JUMP JUMPDEST SWAP1 DUP2 MSTORE PUSH1 0x60 DUP2 ADD SWAP4 SWAP3 PUSH2 0x8F SWAP3 SWAP1 SWAP2 PUSH1 0x40 SWAP2 PUSH2 0x2EF SWAP1 PUSH1 0x20 DUP4 ADD MSTORE JUMP JUMPDEST CALLVALUE PUSH2 0x7E JUMPI PUSH2 0x1E1 PUSH2 0x41D PUSH2 0x40E CALLDATASIZE PUSH1 0x4 PUSH2 0x364 JUMP JUMPDEST SWAP7 SWAP6 SWAP1 SWAP6 SWAP5 SWAP2 SWAP5 SWAP4 SWAP3 SWAP4 PUSH2 0x1105 JUMP JUMPDEST PUSH1 0x40 MLOAD SWAP2 SWAP4 SWAP2 JUMPDEST SWAP4 DUP5 SWAP4 DUP5 PUSH2 0x3DB JUMP JUMPDEST SWAP1 PUSH2 0x444 SWAP7 SWAP6 SWAP5 SWAP4 SWAP3 SWAP2 PUSH2 0x43F PUSH2 0x1173 JUMP JUMPDEST PUSH2 0x6D6 JUMP JUMPDEST SWAP1 PUSH2 0x8F PUSH2 0x11AF JUMP JUMPDEST ISZERO PUSH2 0x454 JUMPI JUMP JUMPDEST PUSH1 0x40 MLOAD PUSH3 0x461BCD PUSH1 0xE5 SHL DUP2 MSTORE PUSH1 0x20 PUSH1 0x4 DUP3 ADD MSTORE PUSH1 0x7 PUSH1 0x24 DUP3 ADD MSTORE PUSH7 0x115E1C1A5C9959 PUSH1 0xCA SHL PUSH1 0x44 DUP3 ADD MSTORE DUP1 PUSH1 0x64 DUP2 ADD JUMPDEST SUB SWAP1 REVERT JUMPDEST PUSH2 0xCD PUSH2 0xCD PUSH2 0xCD SWAP3 SWAP1 JUMP JUMPDEST ISZERO PUSH2 0x49C JUMPI JUMP JUMPDEST PUSH1 0x40 MLOAD PUSH3 0x461BCD PUSH1 0xE5 SHL DUP2 MSTORE PUSH1 0x20 PUSH1 0x4 DUP3 ADD MSTORE PUSH1 0xE PUSH1 0x24 DUP3 ADD MSTORE PUSH14 0x2830BA341036BAB9BA1031329019 PUSH1 0x91 SHL PUSH1 0x44 DUP3 ADD MSTORE PUSH1 0x64 SWAP1 REVERT JUMPDEST ISZERO PUSH2 0x4D9 JUMPI JUMP JUMPDEST PUSH1 0x40 MLOAD PUSH3 0x461BCD PUSH1 0xE5 SHL DUP2 MSTORE PUSH1 0x20 PUSH1 0x4 DUP3 ADD MSTORE PUSH1 0xA PUSH1 0x24 DUP3 ADD MSTORE PUSH10 0x16995C9BC81A5B9C1D5D PUSH1 0xB2 SHL PUSH1 0x44 DUP3 ADD MSTORE PUSH1 0x64 SWAP1 REVERT JUMPDEST PUSH4 0x4E487B71 PUSH1 0xE0 SHL PUSH0 MSTORE PUSH1 0x32 PUSH1 0x4 MSTORE PUSH1 0x24 PUSH0 REVERT JUMPDEST SWAP2 SWAP1 DUP2 LT ISZERO PUSH2 0x52F JUMPI PUSH1 0x20 MUL ADD SWAP1 JUMP JUMPDEST PUSH2 0x50B JUMP JUMPDEST CALLDATALOAD PUSH2 0xCD DUP2 PUSH2 0xD0 JUMP JUMPDEST PUSH2 0xCD SWAP1 PUSH2 0xC1 SWAP1 PUSH1 0x1 PUSH1 0x1 PUSH1 0xA0 SHL SUB AND DUP3 JUMP JUMPDEST PUSH2 0xCD SWAP1 PUSH2 0x53E JUMP JUMPDEST PUSH2 0xCD SWAP1 PUSH2 0x552 JUMP JUMPDEST SWAP1 PUSH2 0x56E SWAP1 PUSH2 0x55B JUMP JUMPDEST PUSH0 MSTORE PUSH1 0x20 MSTORE PUSH1 0x40 PUSH0 KECCAK256 SWAP1 JUMP JUMPDEST PUSH2 0xCD SWAP1 DUP2 JUMP JUMPDEST PUSH2 0xCD SWAP1 SLOAD PUSH2 0x57A JUMP JUMPDEST ISZERO PUSH2 0x592 JUMPI JUMP JUMPDEST PUSH1 0x40 MLOAD PUSH3 0x461BCD PUSH1 0xE5 SHL DUP2 MSTORE PUSH1 0x20 PUSH1 0x4 DUP3 ADD MSTORE PUSH1 0x13 PUSH1 0x24 DUP3 ADD MSTORE PUSH19 0x125B9CDD59999A58DA595B9D081BDD5D1C1D5D PUSH1 0x6A SHL PUSH1 0x44 DUP3 ADD MSTORE PUSH1 0x64 SWAP1 REVERT JUMPDEST PUSH4 0x4E487B71 PUSH1 0xE0 SHL PUSH0 MSTORE PUSH1 0x11 PUSH1 0x4 MSTORE PUSH1 0x24 PUSH0 REVERT JUMPDEST SWAP2 SWAP1 DUP3 ADD DUP1 SWAP3 GT PUSH2 0x5EE JUMPI JUMP JUMPDEST PUSH2 0x5CD JUMP JUMPDEST SWAP1 PUSH2 0xCD PUSH2 0xCD PUSH2 0x603 SWAP3 PUSH2 0x488 JUMP JUMPDEST SWAP1 SSTORE JUMP JUMPDEST SWAP2 SWAP1 DUP3 SUB SWAP2 DUP3 GT PUSH2 0x5EE JUMPI JUMP JUMPDEST PUSH4 0x4E487B71 PUSH1 0xE0 SHL PUSH0 MSTORE PUSH1 0x41 PUSH1 0x4 MSTORE PUSH1 0x24 PUSH0 REVERT JUMPDEST SWAP1 PUSH1 0x1F ADD PUSH1 0x1F NOT AND DUP2 ADD SWAP1 DUP2 LT PUSH8 0xFFFFFFFFFFFFFFFF DUP3 GT OR PUSH2 0x64A JUMPI PUSH1 0x40 MSTORE JUMP JUMPDEST PUSH2 0x614 JUMP JUMPDEST SWAP1 PUSH2 0x8F PUSH2 0x65C PUSH1 0x40 MLOAD SWAP1 JUMP JUMPDEST SWAP3 DUP4 PUSH2 0x628 JUMP JUMPDEST PUSH8 0xFFFFFFFFFFFFFFFF DUP2 GT PUSH2 0x64A JUMPI PUSH1 0x20 DUP1 SWAP2 MUL ADD SWAP1 JUMP JUMPDEST SWAP1 PUSH2 0x68D PUSH2 0x688 DUP4 PUSH2 0x663 JUMP JUMPDEST PUSH2 0x64F JUMP JUMPDEST SWAP2 DUP3 MSTORE JUMP JUMPDEST CALLDATASIZE SWAP1 CALLDATACOPY JUMP JUMPDEST SWAP1 PUSH2 0x8F PUSH2 0x6A4 DUP4 PUSH2 0x67B JUMP JUMPDEST SWAP3 PUSH1 0x20 DUP1 PUSH2 0x6B2 DUP7 SWAP4 PUSH2 0x663 JUMP JUMPDEST SWAP3 ADD SWAP2 SUB SWAP1 PUSH2 0x692 JUMP JUMPDEST SWAP1 PUSH2 0x6C5 DUP3 MLOAD SWAP1 JUMP JUMPDEST DUP2 LT ISZERO PUSH2 0x52F JUMPI PUSH1 0x20 DUP1 SWAP2 MUL ADD ADD SWAP1 JUMP JUMPDEST PUSH2 0x756 SWAP2 SWAP5 PUSH2 0x701 PUSH2 0x84E SWAP5 SWAP8 SWAP6 SWAP10 SWAP9 PUSH2 0x745 SWAP4 POP PUSH2 0x6FA PUSH2 0x6F6 TIMESTAMP SWAP3 SWAP1 JUMP JUMPDEST SWAP2 SWAP1 JUMP JUMPDEST GT ISZERO PUSH2 0x44D JUMP JUMPDEST PUSH2 0x718 DUP2 PUSH2 0x712 PUSH2 0x6F6 PUSH1 0x2 PUSH2 0x488 JUMP JUMPDEST EQ PUSH2 0x495 JUMP JUMPDEST PUSH2 0x72E DUP7 PUSH2 0x728 PUSH2 0x6F6 PUSH0 PUSH2 0x488 JUMP JUMPDEST GT PUSH2 0x4D2 JUMP JUMPDEST PUSH2 0x74A PUSH2 0x745 DUP11 DUP4 PUSH2 0x73F PUSH0 PUSH2 0x488 JUMP JUMPDEST SWAP2 PUSH2 0x51F JUMP JUMPDEST PUSH2 0x534 JUMP JUMPDEST SWAP9 SWAP1 PUSH2 0x73F PUSH1 0x1 PUSH2 0x488 JUMP JUMPDEST SWAP2 PUSH2 0xCD PUSH2 0x77A PUSH2 0x767 DUP6 DUP11 PUSH2 0x124A JUMP JUMPDEST SWAP1 SWAP3 SWAP1 PUSH2 0x775 DUP5 PUSH1 0x1 PUSH2 0x564 JUMP JUMPDEST PUSH2 0x564 JUMP JUMPDEST DUP9 PUSH2 0x796 PUSH1 0x1 PUSH1 0x1 PUSH1 0xA0 SHL SUB DUP5 AND JUMPDEST SWAP2 PUSH1 0x1 PUSH1 0x1 PUSH1 0xA0 SHL SUB AND SWAP1 JUMP JUMPDEST SUB PUSH2 0x8FF JUMPI PUSH2 0x7A4 DUP2 PUSH2 0x581 JUMP JUMPDEST PUSH2 0x7B0 PUSH1 0x1 DUP4 ADD PUSH2 0x581 JUMP JUMPDEST SWAP1 JUMPDEST SWAP1 SWAP3 PUSH2 0x7D2 PUSH2 0x7C0 DUP13 PUSH2 0x55B JUMP JUMPDEST CALLER PUSH2 0x7CA ADDRESS PUSH2 0x55B JUMP JUMPDEST SWAP1 DUP12 SWAP3 PUSH2 0x130F JUMP JUMPDEST PUSH2 0x7F3 PUSH2 0x7E0 DUP6 DUP5 DUP12 PUSH2 0x13AF JUMP JUMPDEST SWAP10 PUSH2 0x7EC PUSH2 0x6F6 DUP13 SWAP3 SWAP1 JUMP JUMPDEST LT ISZERO PUSH2 0x58B JUMP JUMPDEST PUSH2 0x807 PUSH2 0x789 DUP13 SWAP3 PUSH1 0x1 PUSH1 0x1 PUSH1 0xA0 SHL SUB AND SWAP1 JUMP JUMPDEST SUB PUSH2 0x8D8 JUMPI PUSH0 PUSH2 0x835 PUSH2 0x83D SWAP5 PUSH2 0x82E PUSH2 0x824 PUSH1 0x1 SWAP6 DUP13 SWAP1 PUSH2 0x5E1 JUMP JUMPDEST DUP5 DUP1 DUP9 ADD ADD PUSH2 0x5F3 JUMP JUMPDEST DUP11 SWAP1 PUSH2 0x607 JUMP JUMPDEST SWAP3 ADD ADD PUSH2 0x5F3 JUMP JUMPDEST PUSH2 0x846 DUP4 PUSH2 0x55B JUMP JUMPDEST SWAP1 DUP6 SWAP2 PUSH2 0x1453 JUMP JUMPDEST PUSH2 0x860 PUSH2 0x85B PUSH1 0x2 PUSH2 0x488 JUMP JUMPDEST PUSH2 0x697 JUMP JUMPDEST SWAP5 PUSH2 0x87B DUP4 PUSH2 0x878 DUP9 PUSH2 0x872 PUSH0 PUSH2 0x488 JUMP JUMPDEST SWAP1 PUSH2 0x6BC JUMP JUMPDEST MSTORE JUMP JUMPDEST PUSH2 0x88D DUP5 PUSH2 0x878 DUP9 PUSH2 0x872 PUSH1 0x1 PUSH2 0x488 JUMP JUMPDEST CALLER SWAP3 SWAP4 PUSH2 0x8C6 PUSH2 0x8C0 PUSH2 0x8C0 PUSH32 0xAD56699D0F375866EB895ED27203058A36A713382AADED78EB6B67DA266D4332 SWAP5 PUSH2 0x55B JUMP JUMPDEST SWAP5 PUSH2 0x55B JUMP JUMPDEST SWAP5 PUSH2 0x8D3 PUSH2 0x31F PUSH1 0x40 MLOAD SWAP1 JUMP JUMPDEST SUB SWAP1 LOG4 JUMP JUMPDEST PUSH0 PUSH2 0x835 PUSH2 0x8FA SWAP5 PUSH2 0x82E PUSH2 0x8EF DUP5 SWAP6 DUP13 SWAP1 PUSH2 0x5E1 JUMP JUMPDEST PUSH1 0x1 DUP6 DUP9 ADD ADD PUSH2 0x5F3 JUMP JUMPDEST PUSH2 0x83D JUMP JUMPDEST PUSH2 0x90B PUSH1 0x1 DUP3 ADD PUSH2 0x581 JUMP JUMPDEST PUSH2 0x914 DUP3 PUSH2 0x581 JUMP JUMPDEST SWAP1 PUSH2 0x7B2 JUMP JUMPDEST PUSH2 0xCD SWAP6 SWAP5 SWAP4 SWAP3 SWAP2 SWAP1 PUSH1 0x60 PUSH2 0x42D JUMP JUMPDEST PUSH2 0xCD PUSH2 0x967 PUSH2 0x789 PUSH2 0x959 PUSH2 0x94B PUSH2 0xCD SWAP8 PUSH2 0x944 PUSH0 SWAP1 JUMP JUMPDEST POP DUP8 PUSH2 0x124A JUMP JUMPDEST SWAP1 SWAP5 SWAP1 PUSH2 0x775 DUP7 PUSH1 0x1 PUSH2 0x564 JUMP JUMPDEST SWAP5 SWAP3 PUSH1 0x1 PUSH1 0x1 PUSH1 0xA0 SHL SUB AND SWAP1 JUMP JUMPDEST SUB PUSH2 0x98B JUMPI PUSH2 0x983 PUSH1 0x1 PUSH0 PUSH2 0x97B DUP6 PUSH2 0x581 JUMP JUMPDEST SWAP5 ADD ADD PUSH2 0x581 JUMP JUMPDEST SWAP2 JUMPDEST SWAP1 PUSH2 0x13AF JUMP JUMPDEST PUSH2 0x99C PUSH0 DUP1 PUSH2 0x97B PUSH1 0x1 DUP7 ADD PUSH2 0x581 JUMP JUMPDEST SWAP2 PUSH2 0x985 JUMP JUMPDEST SWAP2 PUSH1 0x3 PUSH2 0x9CC PUSH2 0x775 PUSH2 0x9C3 PUSH2 0x9D2 SWAP6 PUSH2 0xCD SWAP8 PUSH2 0x9BD PUSH0 SWAP1 JUMP JUMPDEST POP PUSH2 0x124A JUMP JUMPDEST SWAP2 SWAP1 PUSH1 0x1 PUSH2 0x564 JUMP JUMPDEST ADD PUSH2 0x564 JUMP JUMPDEST PUSH2 0x581 JUMP JUMPDEST SWAP1 PUSH2 0x9F0 SWAP9 SWAP8 SWAP7 SWAP6 SWAP5 SWAP4 SWAP3 SWAP2 PUSH2 0x9EB PUSH2 0x1173 JUMP JUMPDEST PUSH2 0xB13 JUMP JUMPDEST SWAP1 SWAP2 PUSH2 0x8F PUSH2 0x11AF JUMP JUMPDEST ISZERO PUSH2 0xA01 JUMPI JUMP JUMPDEST PUSH1 0x40 MLOAD PUSH3 0x461BCD PUSH1 0xE5 SHL DUP2 MSTORE PUSH1 0x20 PUSH1 0x4 DUP3 ADD MSTORE PUSH1 0xE PUSH1 0x24 DUP3 ADD MSTORE PUSH14 0x5A65726F206C6971756964697479 PUSH1 0x90 SHL PUSH1 0x44 DUP3 ADD MSTORE PUSH1 0x64 SWAP1 REVERT JUMPDEST ISZERO PUSH2 0xA3E JUMPI JUMP JUMPDEST PUSH1 0x40 MLOAD PUSH3 0x461BCD PUSH1 0xE5 SHL DUP2 MSTORE PUSH1 0x20 PUSH1 0x4 DUP3 ADD MSTORE PUSH1 0xF PUSH1 0x24 DUP3 ADD MSTORE PUSH15 0x496E73756666696369656E74204C5 PUSH1 0x8C SHL PUSH1 0x44 DUP3 ADD MSTORE PUSH1 0x64 SWAP1 REVERT JUMPDEST DUP2 DUP2 MUL SWAP3 SWAP2 DUP2 ISZERO SWAP2 DUP5 DIV EQ OR ISZERO PUSH2 0x5EE JUMPI JUMP JUMPDEST PUSH4 0x4E487B71 PUSH1 0xE0 SHL PUSH0 MSTORE PUSH1 0x12 PUSH1 0x4 MSTORE PUSH1 0x24 PUSH0 REVERT JUMPDEST DUP2 ISZERO PUSH2 0xAA6 JUMPI DIV SWAP1 JUMP JUMPDEST PUSH2 0xA88 JUMP JUMPDEST ISZERO PUSH2 0xAB2 JUMPI JUMP JUMPDEST PUSH1 0x40 MLOAD PUSH3 0x461BCD PUSH1 0xE5 SHL DUP2 MSTORE PUSH1 0x20 PUSH1 0x4 DUP3 ADD MSTORE PUSH1 0x5 PUSH1 0x24 DUP3 ADD MSTORE PUSH5 0x4D696E2041 PUSH1 0xD8 SHL PUSH1 0x44 DUP3 ADD MSTORE PUSH1 0x64 SWAP1 REVERT JUMPDEST ISZERO PUSH2 0xAE6 JUMPI JUMP JUMPDEST PUSH1 0x40 MLOAD PUSH3 0x461BCD PUSH1 0xE5 SHL DUP2 MSTORE PUSH1 0x20 PUSH1 0x4 DUP3 ADD MSTORE PUSH1 0x5 PUSH1 0x24 DUP3 ADD MSTORE PUSH5 0x26B4B71021 PUSH1 0xD9 SHL PUSH1 0x44 DUP3 ADD MSTORE PUSH1 0x64 SWAP1 REVERT JUMPDEST SWAP9 SWAP7 SWAP3 SWAP4 SWAP6 SWAP9 SWAP8 SWAP2 SWAP5 SWAP8 POP POP TIMESTAMP GT ISZERO PUSH2 0xB2B SWAP1 PUSH2 0x44D JUMP JUMPDEST DUP4 PUSH2 0xB35 PUSH0 PUSH2 0x488 JUMP JUMPDEST LT PUSH2 0xB3F SWAP1 PUSH2 0x9FA JUMP JUMPDEST PUSH2 0xB49 DUP3 DUP5 PUSH2 0x124A JUMP JUMPDEST SWAP4 SWAP1 SWAP3 SWAP1 PUSH2 0xB58 DUP5 PUSH1 0x1 PUSH2 0x564 JUMP JUMPDEST DUP6 PUSH2 0xB62 SWAP2 PUSH2 0x564 JUMP JUMPDEST PUSH2 0xB6F CALLER PUSH1 0x3 DUP4 ADD PUSH2 0x564 JUMP JUMPDEST PUSH2 0xB78 SWAP1 PUSH2 0x581 JUMP JUMPDEST DUP8 GT ISZERO PUSH2 0xB84 SWAP1 PUSH2 0xA37 JUMP JUMPDEST PUSH2 0xB8D DUP2 PUSH2 0x581 JUMP JUMPDEST PUSH2 0xB99 PUSH1 0x1 DUP4 ADD PUSH2 0x581 JUMP JUMPDEST SWAP1 PUSH2 0xBA6 PUSH1 0x2 DUP5 ADD PUSH2 0x581 JUMP JUMPDEST SWAP12 PUSH2 0xBB1 DUP3 DUP12 PUSH2 0xA75 JUMP JUMPDEST DUP14 PUSH2 0xBBB SWAP2 PUSH2 0xA9C JUMP JUMPDEST SWAP13 PUSH2 0xBC6 DUP5 DUP13 PUSH2 0xA75 JUMP JUMPDEST SWAP1 PUSH2 0xBD0 SWAP2 PUSH2 0xA9C JUMP JUMPDEST SWAP12 DUP14 LT ISZERO PUSH2 0xBDD SWAP1 PUSH2 0xAAB JUMP JUMPDEST DUP12 LT ISZERO PUSH2 0xBE9 SWAP1 PUSH2 0xADF JUMP JUMPDEST DUP12 PUSH2 0xBF3 SWAP2 PUSH2 0x607 JUMP JUMPDEST PUSH2 0xBFD SWAP1 DUP4 PUSH2 0x5F3 JUMP JUMPDEST DUP10 PUSH2 0xC07 SWAP2 PUSH2 0x607 JUMP JUMPDEST PUSH2 0xC14 SWAP1 PUSH1 0x1 DUP4 ADD PUSH2 0x5F3 JUMP JUMPDEST PUSH1 0x2 DUP2 ADD DUP8 PUSH2 0xC22 DUP3 PUSH2 0x581 JUMP JUMPDEST SWAP1 PUSH2 0xC2C SWAP2 PUSH2 0x607 JUMP JUMPDEST PUSH2 0xC35 SWAP2 PUSH2 0x5F3 JUMP JUMPDEST DUP7 SWAP1 PUSH1 0x3 ADD CALLER PUSH2 0xC44 SWAP2 PUSH2 0x564 JUMP JUMPDEST SWAP1 PUSH2 0xC4E DUP3 PUSH2 0x581 JUMP JUMPDEST SWAP1 PUSH2 0xC58 SWAP2 PUSH2 0x607 JUMP JUMPDEST PUSH2 0xC61 SWAP2 PUSH2 0x5F3 JUMP JUMPDEST PUSH2 0xC6A SWAP1 PUSH2 0x55B JUMP JUMPDEST DUP3 DUP10 SWAP1 PUSH2 0xC76 SWAP3 PUSH2 0x1453 JUMP JUMPDEST PUSH2 0xC7F SWAP1 PUSH2 0x55B JUMP JUMPDEST PUSH2 0xC8A SWAP2 DUP8 SWAP2 PUSH2 0x1453 JUMP JUMPDEST SWAP1 CALLER SWAP2 DUP7 SWAP4 DUP7 PUSH32 0xD765E08EEF31C0983ECCA03ECD166297AC485ECD5DD69E291C848F0A020333C1 SWAP3 PUSH2 0xCBB SWAP1 PUSH2 0x55B JUMP JUMPDEST SWAP4 PUSH2 0xCC5 SWAP1 PUSH2 0x55B JUMP JUMPDEST SWAP5 PUSH2 0xCCF SWAP1 PUSH2 0x55B JUMP JUMPDEST SWAP6 PUSH2 0xCD9 PUSH1 0x40 MLOAD SWAP1 JUMP JUMPDEST SWAP3 DUP4 SWAP3 PUSH2 0x8D3 SWAP3 DUP5 PUSH2 0x3DB JUMP JUMPDEST PUSH2 0xCF7 SWAP7 SWAP6 SWAP5 SWAP4 SWAP3 SWAP2 SWAP1 PUSH0 DUP1 PUSH2 0x9D7 JUMP JUMPDEST SWAP1 SWAP2 JUMP JUMPDEST PUSH2 0xCD PUSH1 0x40 PUSH2 0x64F JUMP JUMPDEST SWAP1 PUSH2 0x8F PUSH2 0xD2D PUSH1 0x1 PUSH2 0xD16 PUSH2 0xCFB JUMP JUMPDEST SWAP5 PUSH2 0xD27 PUSH2 0xD23 DUP3 PUSH2 0x581 JUMP JUMPDEST DUP8 MSTORE JUMP JUMPDEST ADD PUSH2 0x581 JUMP JUMPDEST PUSH1 0x20 DUP5 ADD MSTORE JUMP JUMPDEST PUSH2 0xCD SWAP1 PUSH2 0xD05 JUMP JUMPDEST SWAP1 PUSH2 0xD7F PUSH2 0x789 PUSH2 0xD71 PUSH0 PUSH2 0xD5D PUSH2 0xD6B SWAP6 PUSH2 0xD56 PUSH0 SWAP1 JUMP JUMPDEST POP PUSH0 PUSH2 0x944 JUMP JUMPDEST SWAP1 SWAP6 SWAP1 PUSH2 0x775 DUP8 PUSH1 0x1 PUSH2 0x564 JUMP JUMPDEST ADD PUSH2 0xD34 JUMP JUMPDEST SWAP4 SWAP3 PUSH1 0x1 PUSH1 0x1 PUSH1 0xA0 SHL SUB AND SWAP1 JUMP JUMPDEST SUB PUSH2 0xD97 JUMPI PUSH2 0xCF7 PUSH1 0x20 PUSH2 0xD91 DUP4 MLOAD SWAP1 JUMP JUMPDEST SWAP3 ADD MLOAD SWAP1 JUMP JUMPDEST PUSH2 0xCF7 PUSH0 PUSH2 0xD91 PUSH1 0x20 DUP5 ADD MLOAD SWAP1 JUMP JUMPDEST SWAP1 PUSH2 0xDC1 SWAP11 SWAP10 SWAP9 SWAP8 SWAP7 SWAP6 SWAP5 SWAP4 SWAP3 SWAP2 PUSH2 0xDBC PUSH2 0x1173 JUMP JUMPDEST PUSH2 0xE7B JUMP JUMPDEST SWAP1 SWAP2 SWAP3 PUSH2 0x8F PUSH2 0x11AF JUMP JUMPDEST ISZERO PUSH2 0xDD3 JUMPI JUMP JUMPDEST PUSH1 0x40 MLOAD PUSH3 0x461BCD PUSH1 0xE5 SHL DUP2 MSTORE PUSH1 0x20 PUSH1 0x4 DUP3 ADD MSTORE PUSH1 0xA PUSH1 0x24 DUP3 ADD MSTORE PUSH10 0x536C6970706167652041 PUSH1 0xB0 SHL PUSH1 0x44 DUP3 ADD MSTORE PUSH1 0x64 SWAP1 REVERT JUMPDEST ISZERO PUSH2 0xE0C JUMPI JUMP JUMPDEST PUSH1 0x40 MLOAD PUSH3 0x461BCD PUSH1 0xE5 SHL DUP2 MSTORE PUSH1 0x20 PUSH1 0x4 DUP3 ADD MSTORE PUSH1 0xA PUSH1 0x24 DUP3 ADD MSTORE PUSH10 0x29B634B83830B3B29021 PUSH1 0xB1 SHL PUSH1 0x44 DUP3 ADD MSTORE PUSH1 0x64 SWAP1 REVERT JUMPDEST ISZERO PUSH2 0xE45 JUMPI JUMP JUMPDEST PUSH1 0x40 MLOAD PUSH3 0x461BCD PUSH1 0xE5 SHL DUP2 MSTORE PUSH1 0x20 PUSH1 0x4 DUP3 ADD MSTORE PUSH1 0xE PUSH1 0x24 DUP3 ADD MSTORE PUSH14 0x4C6971756964697479207A65726F PUSH1 0x90 SHL PUSH1 0x44 DUP3 ADD MSTORE PUSH1 0x64 SWAP1 REVERT JUMPDEST SWAP1 PUSH2 0xE99 SWAP4 SWAP11 SWAP3 SWAP2 SWAP12 SWAP9 SWAP12 SWAP10 SWAP7 SWAP5 SWAP8 SWAP10 POP POP POP PUSH2 0x6FA PUSH2 0x6F6 TIMESTAMP SWAP3 SWAP1 JUMP JUMPDEST PUSH2 0xEA3 DUP5 DUP9 PUSH2 0x124A JUMP JUMPDEST SWAP5 SWAP1 SWAP3 SWAP1 PUSH2 0xEBF PUSH2 0xCD PUSH2 0xEB8 DUP7 PUSH1 0x1 PUSH2 0x564 JUMP JUMPDEST DUP9 SWAP1 PUSH2 0x564 JUMP JUMPDEST SWAP2 PUSH2 0xEC9 DUP4 PUSH2 0x581 JUMP JUMPDEST SWAP9 PUSH2 0xED6 PUSH1 0x1 DUP6 ADD PUSH2 0x581 JUMP JUMPDEST SWAP12 DUP13 DUP12 PUSH2 0xEE5 PUSH2 0x6F6 PUSH0 PUSH2 0x488 JUMP JUMPDEST EQ DUP1 PUSH2 0x10F1 JUMPI JUMPDEST ISZERO PUSH2 0x106F JUMPI POP POP POP SWAP3 SWAP9 DUP10 SWAP4 SWAP11 PUSH2 0xF95 PUSH2 0xF8F DUP14 PUSH2 0xF8A SWAP13 PUSH2 0xFDB SWAP9 PUSH2 0xF46 PUSH2 0xF34 PUSH2 0xFA5 SWAP10 PUSH2 0xF1D PUSH2 0xF22 PUSH2 0xF9C SWAP12 JUMPDEST PUSH2 0x55B JUMP JUMPDEST CALLER PUSH2 0xF2C ADDRESS PUSH2 0x55B JUMP JUMPDEST SWAP1 DUP10 SWAP3 PUSH2 0x130F JUMP JUMPDEST CALLER PUSH2 0xF3E ADDRESS PUSH2 0x55B JUMP JUMPDEST SWAP1 DUP5 SWAP3 PUSH2 0x130F JUMP JUMPDEST PUSH2 0xF52 PUSH1 0x2 DUP11 ADD PUSH2 0x581 JUMP JUMPDEST PUSH2 0xF5E PUSH2 0x6F6 PUSH0 PUSH2 0x488 JUMP JUMPDEST SUB PUSH2 0x1024 JUMPI PUSH2 0xF70 PUSH2 0xF75 SWAP2 DUP5 PUSH2 0xA75 JUMP JUMPDEST PUSH2 0x14C7 JUMP JUMPDEST SWAP14 DUP15 JUMPDEST PUSH2 0xF84 PUSH2 0x6F6 PUSH0 PUSH2 0x488 JUMP JUMPDEST GT PUSH2 0xE3E JUMP JUMPDEST PUSH2 0x5E1 JUMP JUMPDEST DUP6 PUSH2 0x5F3 JUMP JUMPDEST DUP11 SWAP1 PUSH2 0x5E1 JUMP JUMPDEST PUSH1 0x1 DUP4 ADD PUSH2 0x5F3 JUMP JUMPDEST PUSH2 0xFBF PUSH1 0x2 DUP3 ADD PUSH2 0xFB9 DUP10 PUSH2 0xF8A DUP4 PUSH2 0x581 JUMP JUMPDEST SWAP1 PUSH2 0x5F3 JUMP JUMPDEST PUSH2 0xFB9 PUSH2 0xFD1 PUSH1 0x3 DUP10 SWAP4 ADD DUP7 SWAP1 PUSH2 0x564 JUMP JUMPDEST SWAP2 PUSH2 0xF8A DUP4 PUSH2 0x581 JUMP JUMPDEST SWAP2 DUP7 SWAP3 DUP7 DUP7 SWAP5 PUSH2 0x8D3 PUSH2 0x101A PUSH2 0x1014 PUSH2 0x1014 PUSH32 0x43C967B388D3A4CCAD3F7AB80167852E322E5A3FDE9893F530252281B2AE8B70 SWAP7 PUSH2 0x55B JUMP JUMPDEST SWAP7 PUSH2 0x55B JUMP JUMPDEST SWAP7 PUSH2 0x424 PUSH1 0x40 MLOAD SWAP1 JUMP JUMPDEST PUSH2 0x1068 SWAP1 PUSH2 0x1062 PUSH2 0x105B DUP12 PUSH2 0x1046 PUSH1 0x2 PUSH2 0x1053 PUSH2 0x104C DUP11 PUSH2 0x1046 DUP5 DUP8 ADD PUSH2 0x581 JUMP JUMPDEST SWAP1 PUSH2 0xA75 JUMP JUMPDEST DUP10 SWAP1 PUSH2 0xA9C JUMP JUMPDEST SWAP6 SWAP3 ADD PUSH2 0x581 JUMP JUMPDEST DUP9 SWAP1 PUSH2 0xA9C JUMP JUMPDEST SWAP1 PUSH2 0x1489 JUMP JUMPDEST SWAP14 DUP15 PUSH2 0xF78 JUMP JUMPDEST PUSH2 0x1080 PUSH2 0x1087 SWAP2 DUP6 SWAP9 SWAP4 SWAP5 SWAP9 PUSH2 0xA75 JUMP JUMPDEST DUP13 SWAP1 PUSH2 0xA9C JUMP JUMPDEST SWAP6 DUP2 DUP8 GT PUSH2 0x10CA JUMPI POP POP DUP5 LT ISZERO PUSH2 0x109D SWAP1 PUSH2 0xE05 JUMP JUMPDEST SWAP3 SWAP9 DUP10 SWAP4 SWAP11 PUSH2 0xF95 PUSH2 0xF8F DUP14 PUSH2 0xF8A SWAP13 PUSH2 0xFDB SWAP9 PUSH2 0xF46 PUSH2 0xF34 PUSH2 0xFA5 SWAP10 PUSH2 0xF1D PUSH2 0xF22 PUSH2 0xF9C SWAP12 PUSH2 0x55B JUMP JUMPDEST SWAP3 POP SWAP5 POP POP DUP4 DUP10 PUSH2 0x10DA SWAP2 PUSH2 0xA75 JUMP JUMPDEST DUP12 PUSH2 0x10E4 SWAP2 PUSH2 0xA9C JUMP JUMPDEST SWAP1 DUP2 LT ISZERO PUSH2 0x109D SWAP1 PUSH2 0xDCC JUMP JUMPDEST POP DUP1 PUSH2 0x10FF PUSH2 0x6F6 PUSH0 PUSH2 0x488 JUMP JUMPDEST EQ PUSH2 0xEEC JUMP JUMPDEST PUSH2 0x1118 SWAP8 SWAP7 SWAP6 SWAP5 SWAP4 SWAP3 SWAP2 SWAP1 PUSH0 DUP1 DUP1 PUSH2 0xDA6 JUMP JUMPDEST SWAP1 SWAP2 SWAP3 JUMP JUMPDEST PUSH2 0xCD PUSH1 0x2 PUSH2 0x488 JUMP JUMPDEST ISZERO PUSH2 0x112E JUMPI JUMP JUMPDEST PUSH1 0x40 MLOAD PUSH3 0x461BCD PUSH1 0xE5 SHL DUP2 MSTORE PUSH1 0x20 PUSH1 0x4 DUP3 ADD MSTORE PUSH1 0x1F PUSH1 0x24 DUP3 ADD MSTORE PUSH32 0x5265656E7472616E637947756172643A207265656E7472616E742063616C6C00 PUSH1 0x44 DUP3 ADD MSTORE PUSH1 0x64 SWAP1 REVERT JUMPDEST PUSH2 0x1194 PUSH2 0x117F PUSH0 PUSH2 0x581 JUMP JUMPDEST PUSH2 0x118D PUSH2 0x6F6 PUSH2 0xCD PUSH2 0x111D JUMP JUMPDEST EQ ISZERO PUSH2 0x1127 JUMP JUMPDEST PUSH2 0x8F PUSH2 0x119F PUSH2 0x111D JUMP JUMPDEST PUSH0 PUSH2 0x5F3 JUMP JUMPDEST PUSH2 0xCD PUSH1 0x1 PUSH2 0x488 JUMP JUMPDEST PUSH2 0x8F PUSH2 0x119F PUSH2 0x11A5 JUMP JUMPDEST ISZERO PUSH2 0x11C1 JUMPI JUMP JUMPDEST PUSH1 0x40 MLOAD PUSH3 0x461BCD PUSH1 0xE5 SHL DUP2 MSTORE PUSH1 0x20 PUSH1 0x4 DUP3 ADD MSTORE PUSH1 0x10 PUSH1 0x24 DUP3 ADD MSTORE PUSH16 0x4964656E746963616C20746F6B656E73 PUSH1 0x80 SHL PUSH1 0x44 DUP3 ADD MSTORE PUSH1 0x64 SWAP1 REVERT JUMPDEST PUSH2 0xC1 PUSH2 0xCD PUSH2 0xCD SWAP3 SWAP1 JUMP JUMPDEST PUSH2 0xCD SWAP1 PUSH2 0x11F9 JUMP JUMPDEST ISZERO PUSH2 0x1216 JUMPI JUMP JUMPDEST PUSH1 0x40 MLOAD PUSH3 0x461BCD PUSH1 0xE5 SHL DUP2 MSTORE PUSH1 0x20 PUSH1 0x4 DUP3 ADD MSTORE PUSH1 0xC PUSH1 0x24 DUP3 ADD MSTORE PUSH12 0x5A65726F2061646472657373 PUSH1 0xA0 SHL PUSH1 0x44 DUP3 ADD MSTORE PUSH1 0x64 SWAP1 REVERT JUMPDEST SWAP1 SWAP2 SWAP1 PUSH2 0x126A DUP2 PUSH2 0x1263 PUSH1 0x1 PUSH1 0x1 PUSH1 0xA0 SHL SUB DUP7 AND PUSH2 0x789 JUMP JUMPDEST EQ ISZERO PUSH2 0x11BA JUMP JUMPDEST DUP1 PUSH2 0x127A PUSH2 0x789 PUSH2 0xC1 PUSH0 PUSH2 0x1206 JUMP JUMPDEST EQ ISZERO DUP1 PUSH2 0x12A8 JUMPI JUMPDEST PUSH2 0x128B SWAP1 PUSH2 0x120F JUMP JUMPDEST DUP1 PUSH2 0x129E PUSH1 0x1 PUSH1 0x1 PUSH1 0xA0 SHL SUB DUP6 AND PUSH2 0x789 JUMP JUMPDEST LT ISZERO PUSH2 0xCD JUMPI SWAP2 SWAP1 JUMP JUMPDEST POP PUSH2 0x128B DUP4 PUSH2 0x12BC PUSH2 0x789 PUSH2 0xC1 PUSH0 PUSH2 0x1206 JUMP JUMPDEST EQ ISZERO SWAP1 POP PUSH2 0x1282 JUMP JUMPDEST PUSH2 0x12DE PUSH2 0x12D8 PUSH2 0xCD SWAP3 PUSH4 0xFFFFFFFF AND SWAP1 JUMP JUMPDEST PUSH1 0xE0 SHL SWAP1 JUMP JUMPDEST PUSH1 0x1 PUSH1 0x1 PUSH1 0xE0 SHL SUB NOT AND SWAP1 JUMP JUMPDEST PUSH1 0x1 PUSH1 0x1 PUSH1 0xA0 SHL SUB SWAP2 DUP3 AND DUP2 MSTORE SWAP2 AND PUSH1 0x20 DUP3 ADD MSTORE PUSH1 0x60 DUP2 ADD SWAP3 SWAP2 PUSH2 0x8F SWAP2 PUSH1 0x40 ADD MSTORE JUMP JUMPDEST PUSH2 0x8F SWAP4 PUSH1 0x4 SWAP4 SWAP2 SWAP3 PUSH2 0x1358 SWAP3 SWAP1 SWAP2 PUSH2 0x1349 SWAP2 PUSH2 0x132F PUSH4 0x23B872DD PUSH2 0x12C5 JUMP JUMPDEST SWAP4 PUSH2 0x1339 PUSH1 0x40 MLOAD SWAP1 JUMP JUMPDEST SWAP8 DUP9 SWAP6 PUSH1 0x20 DUP8 ADD SWAP1 DUP2 MSTORE ADD PUSH2 0x12EB JUMP JUMPDEST PUSH1 0x20 DUP3 ADD DUP2 SUB DUP3 MSTORE SUB DUP4 PUSH2 0x628 JUMP JUMPDEST PUSH2 0x1558 JUMP JUMPDEST ISZERO PUSH2 0x1364 JUMPI JUMP JUMPDEST PUSH1 0x40 MLOAD PUSH3 0x461BCD PUSH1 0xE5 SHL DUP2 MSTORE PUSH1 0x20 PUSH1 0x4 DUP3 ADD MSTORE PUSH1 0xD PUSH1 0x24 DUP3 ADD MSTORE PUSH13 0x125B9D985B1A59081A5B9C1D5D PUSH1 0x9A SHL PUSH1 0x44 DUP3 ADD MSTORE PUSH1 0x64 SWAP1 REVERT JUMPDEST PUSH2 0xCD PUSH2 0x3E5 PUSH2 0x488 JUMP JUMPDEST PUSH2 0xCD PUSH2 0x3E8 PUSH2 0x488 JUMP JUMPDEST PUSH2 0xCD SWAP3 PUSH2 0xF8A PUSH2 0x13FA PUSH2 0x13F3 PUSH2 0x1403 SWAP5 PUSH2 0x13C7 PUSH0 SWAP1 JUMP JUMPDEST POP DUP1 PUSH2 0x13D5 PUSH2 0x6F6 PUSH0 PUSH2 0x488 JUMP JUMPDEST GT DUP1 PUSH2 0x1422 JUMPI JUMPDEST DUP1 PUSH2 0x1409 JUMPI JUMPDEST PUSH2 0x13EB SWAP1 PUSH2 0x135D JUMP JUMPDEST PUSH2 0x1046 PUSH2 0x1399 JUMP JUMPDEST SWAP3 DUP4 PUSH2 0xA75 JUMP JUMPDEST SWAP4 PUSH2 0x1046 PUSH2 0x13A4 JUMP JUMPDEST SWAP1 PUSH2 0xA9C JUMP JUMPDEST POP PUSH2 0x13EB DUP6 PUSH2 0x141A PUSH2 0x6F6 PUSH0 PUSH2 0x488 JUMP JUMPDEST GT SWAP1 POP PUSH2 0x13E2 JUMP JUMPDEST POP DUP7 PUSH2 0x1430 PUSH2 0x6F6 PUSH0 PUSH2 0x488 JUMP JUMPDEST GT PUSH2 0x13DC JUMP JUMPDEST PUSH1 0x1 PUSH1 0x1 PUSH1 0xA0 SHL SUB SWAP1 SWAP2 AND DUP2 MSTORE PUSH1 0x40 DUP2 ADD SWAP3 SWAP2 PUSH2 0x8F SWAP2 PUSH1 0x20 ADD MSTORE JUMP JUMPDEST PUSH2 0x8F SWAP3 PUSH1 0x4 SWAP3 PUSH2 0x1358 SWAP2 PUSH2 0x1349 SWAP1 PUSH2 0x146F PUSH4 0xA9059CBB PUSH2 0x12C5 JUMP JUMPDEST SWAP3 PUSH2 0x1479 PUSH1 0x40 MLOAD SWAP1 JUMP JUMPDEST SWAP7 DUP8 SWAP5 PUSH1 0x20 DUP7 ADD SWAP1 DUP2 MSTORE ADD PUSH2 0x1436 JUMP JUMPDEST SWAP1 DUP1 DUP3 LT ISZERO PUSH2 0x1496 JUMPI POP SWAP1 JUMP JUMPDEST SWAP1 POP SWAP1 JUMP JUMPDEST PUSH2 0x14A8 PUSH2 0xCD PUSH2 0xCD SWAP3 SWAP1 JUMP JUMPDEST PUSH1 0xFF AND SWAP1 JUMP JUMPDEST PUSH2 0xCD SWAP1 PUSH2 0x14C2 PUSH2 0x6F6 PUSH2 0xCD SWAP5 PUSH1 0xFF AND SWAP1 JUMP JUMPDEST SWAP1 SHR SWAP1 JUMP JUMPDEST PUSH0 DUP2 PUSH2 0x14D6 PUSH2 0x6F6 PUSH1 0x3 PUSH2 0x488 JUMP JUMPDEST GT ISZERO PUSH2 0x1537 JUMPI POP DUP1 PUSH2 0x1505 PUSH2 0x14F5 DUP4 PUSH2 0x14EF PUSH1 0x1 PUSH2 0x149B JUMP JUMPDEST SWAP1 PUSH2 0x14AE JUMP JUMPDEST PUSH2 0x14FF PUSH1 0x1 PUSH2 0x488 JUMP JUMPDEST SWAP1 PUSH2 0x5E1 JUMP JUMPDEST SWAP1 JUMPDEST DUP1 DUP3 LT ISZERO PUSH2 0x1531 JUMPI POP PUSH2 0x152B PUSH2 0x1521 DUP3 PUSH2 0xF8A DUP2 DUP7 PUSH2 0xA9C JUMP JUMPDEST PUSH2 0x14EF PUSH1 0x1 PUSH2 0x149B JUMP JUMPDEST SWAP1 PUSH2 0x1507 JUMP JUMPDEST SWAP3 SWAP2 POP POP JUMP JUMPDEST SWAP2 SWAP1 PUSH2 0x1545 PUSH2 0x6F6 PUSH0 PUSH2 0x488 JUMP JUMPDEST SUB PUSH2 0x154C JUMPI JUMP JUMPDEST SWAP1 POP PUSH2 0xCD PUSH1 0x1 PUSH2 0x488 JUMP JUMPDEST SWAP1 PUSH0 PUSH1 0x20 SWAP2 PUSH2 0x1564 PUSH0 SWAP1 JUMP JUMPDEST POP DUP3 DUP2 MLOAD SWAP2 ADD DUP3 DUP6 GAS CALL ISZERO PUSH2 0x15EA JUMPI RETURNDATASIZE PUSH0 MLOAD SWAP1 PUSH2 0x1583 PUSH2 0x6F6 PUSH0 PUSH2 0x488 JUMP JUMPDEST SUB PUSH2 0x15D6 JUMPI POP PUSH2 0x1592 DUP2 PUSH2 0x55B JUMP JUMPDEST EXTCODESIZE PUSH2 0x159F PUSH2 0x6F6 PUSH0 PUSH2 0x488 JUMP JUMPDEST EQ JUMPDEST PUSH2 0x15A8 JUMPI POP JUMP JUMPDEST PUSH2 0x15B4 PUSH2 0x484 SWAP2 PUSH2 0x55B JUMP JUMPDEST PUSH4 0x5274AFE7 PUSH1 0xE0 SHL PUSH0 SWAP1 DUP2 MSTORE PUSH1 0x1 PUSH1 0x1 PUSH1 0xA0 SHL SUB SWAP1 SWAP2 AND PUSH1 0x4 MSTORE SWAP1 DUP2 SWAP1 PUSH1 0x24 SWAP1 JUMP JUMPDEST PUSH2 0x15E3 PUSH2 0x6F6 PUSH1 0x1 PUSH2 0x488 JUMP JUMPDEST EQ ISZERO PUSH2 0x15A1 JUMP JUMPDEST PUSH1 0x40 MLOAD RETURNDATASIZE PUSH0 DUP3 RETURNDATACOPY RETURNDATASIZE SWAP1 REVERT INVALID LOG2 PUSH5 0x6970667358 0x22 SLT KECCAK256 0xB3 CALLVALUE 0xBA PUSH25 0x4C7FDB84D7122696BE589BEDB1036A16872F71E4834B3E2539 DATALOADN 0x82E0 PUSH5 0x736F6C6343 STOP ADDMOD 0x1E STOP CALLER "
		},
		"gasEstimates": {
			"creation": {
				"codeDepositCost": "1135000",
				"executionCost": "infinite",
				"totalCost": "infinite"
			},
			"external": {
				"addLiquidity(address,address,uint256,uint256,uint256,uint256,address,uint256)": "infinite",
				"balanceOf(address,address,address)": "infinite",
				"getAmountOut(uint256,address,address)": "infinite",
				"getReserves(address,address)": "infinite",
				"removeLiquidity(address,address,uint256,uint256,uint256,address,uint256)": "infinite",
				"swapExactTokensForTokens(uint256,uint256,address[],address,uint256)": "infinite"
			},
			"internal": {
				"_getAmountIn(uint256,uint256,uint256)": "infinite",
				"_getAmountOut(uint256,uint256,uint256)": "infinite",
				"_min(uint256,uint256)": "46",
				"_sortTokens(address,address)": "infinite",
				"_sqrt(uint256)": "infinite"
			}
		},
		"methodIdentifiers": {
			"addLiquidity(address,address,uint256,uint256,uint256,uint256,address,uint256)": "e8e33700",
			"balanceOf(address,address,address)": "75bb9b63",
			"getAmountOut(uint256,address,address)": "5e1e6325",
			"getReserves(address,address)": "d52bb6f4",
			"removeLiquidity(address,address,uint256,uint256,uint256,address,uint256)": "baa2abde",
			"swapExactTokensForTokens(uint256,uint256,address[],address,uint256)": "38ed1739"
		}
	},
	"abi": [
		{
			"inputs": [
				{
					"internalType": "address",
					"name": "token",
					"type": "address"
				}
			],
			"name": "SafeERC20FailedOperation",
			"type": "error"
		},
		{
			"anonymous": false,
			"inputs": [
				{
					"indexed": true,
					"internalType": "address",
					"name": "token0",
					"type": "address"
				},
				{
					"indexed": true,
					"internalType": "address",
					"name": "token1",
					"type": "address"
				},
				{
					"indexed": true,
					"internalType": "address",
					"name": "provider",
					"type": "address"
				},
				{
					"indexed": false,
					"internalType": "uint256",
					"name": "amount0",
					"type": "uint256"
				},
				{
					"indexed": false,
					"internalType": "uint256",
					"name": "amount1",
					"type": "uint256"
				},
				{
					"indexed": false,
					"internalType": "uint256",
					"name": "liquidity",
					"type": "uint256"
				}
			],
			"name": "LiquidityAdded",
			"type": "event"
		},
		{
			"anonymous": false,
			"inputs": [
				{
					"indexed": true,
					"internalType": "address",
					"name": "token0",
					"type": "address"
				},
				{
					"indexed": true,
					"internalType": "address",
					"name": "token1",
					"type": "address"
				},
				{
					"indexed": true,
					"internalType": "address",
					"name": "provider",
					"type": "address"
				},
				{
					"indexed": false,
					"internalType": "uint256",
					"name": "amount0",
					"type": "uint256"
				},
				{
					"indexed": false,
					"internalType": "uint256",
					"name": "amount1",
					"type": "uint256"
				},
				{
					"indexed": false,
					"internalType": "uint256",
					"name": "liquidity",
					"type": "uint256"
				}
			],
			"name": "LiquidityRemoved",
			"type": "event"
		},
		{
			"anonymous": false,
			"inputs": [
				{
					"indexed": true,
					"internalType": "address",
					"name": "tokenIn",
					"type": "address"
				},
				{
					"indexed": true,
					"internalType": "address",
					"name": "tokenOut",
					"type": "address"
				},
				{
					"indexed": true,
					"internalType": "address",
					"name": "user",
					"type": "address"
				},
				{
					"indexed": false,
					"internalType": "uint256",
					"name": "amountIn",
					"type": "uint256"
				},
				{
					"indexed": false,
					"internalType": "uint256",
					"name": "amountOut",
					"type": "uint256"
				}
			],
			"name": "TokensSwapped",
			"type": "event"
		},
		{
			"inputs": [
				{
					"internalType": "address",
					"name": "tokenA",
					"type": "address"
				},
				{
					"internalType": "address",
					"name": "tokenB",
					"type": "address"
				},
				{
					"internalType": "uint256",
					"name": "amountADesired",
					"type": "uint256"
				},
				{
					"internalType": "uint256",
					"name": "amountBDesired",
					"type": "uint256"
				},
				{
					"internalType": "uint256",
					"name": "amountAMin",
					"type": "uint256"
				},
				{
					"internalType": "uint256",
					"name": "amountBMin",
					"type": "uint256"
				},
				{
					"internalType": "address",
					"name": "to",
					"type": "address"
				},
				{
					"internalType": "uint256",
					"name": "deadline",
					"type": "uint256"
				}
			],
			"name": "addLiquidity",
			"outputs": [
				{
					"internalType": "uint256",
					"name": "amountA",
					"type": "uint256"
				},
				{
					"internalType": "uint256",
					"name": "amountB",
					"type": "uint256"
				},
				{
					"internalType": "uint256",
					"name": "liquidity",
					"type": "uint256"
				}
			],
			"stateMutability": "nonpayable",
			"type": "function"
		},
		{
			"inputs": [
				{
					"internalType": "address",
					"name": "tokenA",
					"type": "address"
				},
				{
					"internalType": "address",
					"name": "tokenB",
					"type": "address"
				},
				{
					"internalType": "address",
					"name": "user",
					"type": "address"
				}
			],
			"name": "balanceOf",
			"outputs": [
				{
					"internalType": "uint256",
					"name": "",
					"type": "uint256"
				}
			],
			"stateMutability": "view",
			"type": "function"
		},
		{
			"inputs": [
				{
					"internalType": "uint256",
					"name": "amountIn",
					"type": "uint256"
				},
				{
					"internalType": "address",
					"name": "tokenIn",
					"type": "address"
				},
				{
					"internalType": "address",
					"name": "tokenOut",
					"type": "address"
				}
			],
			"name": "getAmountOut",
			"outputs": [
				{
					"internalType": "uint256",
					"name": "",
					"type": "uint256"
				}
			],
			"stateMutability": "view",
			"type": "function"
		},
		{
			"inputs": [
				{
					"internalType": "address",
					"name": "tokenA",
					"type": "address"
				},
				{
					"internalType": "address",
					"name": "tokenB",
					"type": "address"
				}
			],
			"name": "getReserves",
			"outputs": [
				{
					"internalType": "uint256",
					"name": "reserveA",
					"type": "uint256"
				},
				{
					"internalType": "uint256",
					"name": "reserveB",
					"type": "uint256"
				}
			],
			"stateMutability": "view",
			"type": "function"
		},
		{
			"inputs": [
				{
					"internalType": "address",
					"name": "tokenA",
					"type": "address"
				},
				{
					"internalType": "address",
					"name": "tokenB",
					"type": "address"
				},
				{
					"internalType": "uint256",
					"name": "liquidity",
					"type": "uint256"
				},
				{
					"internalType": "uint256",
					"name": "amountAMin",
					"type": "uint256"
				},
				{
					"internalType": "uint256",
					"name": "amountBMin",
					"type": "uint256"
				},
				{
					"internalType": "address",
					"name": "to",
					"type": "address"
				},
				{
					"internalType": "uint256",
					"name": "deadline",
					"type": "uint256"
				}
			],
			"name": "removeLiquidity",
			"outputs": [
				{
					"internalType": "uint256",
					"name": "amountA",
					"type": "uint256"
				},
				{
					"internalType": "uint256",
					"name": "amountB",
					"type": "uint256"
				}
			],
			"stateMutability": "nonpayable",
			"type": "function"
		},
		{
			"inputs": [
				{
					"internalType": "uint256",
					"name": "amountIn",
					"type": "uint256"
				},
				{
					"internalType": "uint256",
					"name": "amountOutMin",
					"type": "uint256"
				},
				{
					"internalType": "address[]",
					"name": "path",
					"type": "address[]"
				},
				{
					"internalType": "address",
					"name": "to",
					"type": "address"
				},
				{
					"internalType": "uint256",
					"name": "deadline",
					"type": "uint256"
				}
			],
			"name": "swapExactTokensForTokens",
			"outputs": [
				{
					"internalType": "uint256[]",
					"name": "amounts",
					"type": "uint256[]"
				}
			],
			"stateMutability": "nonpayable",
			"type": "function"
		}
	]
}