{
	"data": {
		"bytecode": {
			"linkReferences": {},
			"object": "6080806040523460195760015f55610e4d908161001e8239f35b5f80fdfe60806040526004361015610011575f80fd5b5f3560e01c806338ed1739146107aa5780635e1e63251461072e57806375bb9b63146106bc578063baa2abde1461044e578063d52bb6f4146103925763e8e337001461005b575f80fd5b3461038e5761010036600319011261038e57610075610ac3565b61007d610a97565b9060643560443560c4356001600160a01b0381169081900361038e576100a1610b90565b6100af60e435421115610ad9565b6100b98585610be4565b9060018060a01b0316805f52600160205260405f2060018060a01b0383165f5260205260405f20938454946001810191825497871580610386575b156102c357906101089a61011a929b8c92809c5b309033906001600160a01b0316610c8c565b600281018054978a8a828a8c8061028d575050509061013891610b5f565b5f600382111561027f5750808060011c6001810180911161026b57905b82821061024c5750505b975b881561021657610212996003956101898e610190958f610182908f97610b23565b8955610b23565b9055610b23565b9055845f520160205260405f206101a8858254610b23565b905560408051878152602081018990529081018590526001600160a01b0392909216917f43c967b388d3a4ccad3f7ab80167852e322e5a3fde9893f530252281b2ae8b7090606090a460015f55604051938493846040919493926060820195825260208201520152565b0390f35b60405162461bcd60e51b815260206004820152600e60248201526d4c6971756964697479207a65726f60901b6044820152606490fd5b9091506102628261025d8184610b72565b610b23565b60011c90610155565b634e487b7160e01b5f52601160045260245ffd5b901561015f5750600161015f565b6102a66102a1926102a1836102ac97610b5f565b610b72565b94610b5f565b808210156102bc57505b97610161565b90506102b6565b906102d2886102a18b84610b5f565b91808311610328575060a43582106102f6576101089a61011a929b8c92809c610108565b60405162461bcd60e51b815260206004820152600a60248201526929b634b83830b3b2902160b11b6044820152606490fd5b915050610339886102a18984610b5f565b6084358110610354576101089a61011a929b8c92809c610108565b60405162461bcd60e51b815260206004820152600a602482015269536c697070616765204160b01b6044820152606490fd5b5088156100f4565b5f80fd5b3461038e57604036600319011261038e576103ab610ac3565b6103bc6103b6610a97565b82610be4565b919060018060a01b031691825f52600160205260405f209060018060a01b03165f5260205260405f2060405192604084019284841067ffffffffffffffff85111761043a57604094602094865260018454948583520154948591015260018060a01b0316145f1461043557905b82519182526020820152f35b610429565b634e487b7160e01b5f52604160045260245ffd5b3461038e5760e036600319011261038e57610467610ac3565b61046f610a97565b9060a4356044356001600160a01b038216820361038e5761048e610b90565b61049c60c435421115610ad9565b8015610686576104ac8484610be4565b919060018060a01b0316805f52600160205260405f2060018060a01b0384165f5260205260405f2095600387019460018060a01b0333165f52856020528360405f20541061064f57875490600189019283549360028b019a8b5490610515826102a1888c610b5f565b9b610524836102a18a8d610b5f565b9b8d60643511610622576084358d106105f55760409e6105638f958f9a90610591988f928d61059f9f8e9a61055c8d61055c95610b30565b9055610b30565b905560018060a01b0333165f526020528d5f206105818b8254610b30565b90556001600160a01b0316610d79565b6001600160a01b0316610d79565b855185815260208101859052604081019290925233926001600160a01b0316917fd765e08eef31c0983ecca03ecd166297ac485ecd5dd69e291c848f0a020333c190606090a460015f5582519182526020820152f35b60405162461bcd60e51b815260206004820152600560248201526426b4b7102160d91b6044820152606490fd5b60405162461bcd60e51b81526020600482015260056024820152644d696e204160d81b6044820152606490fd5b60405162461bcd60e51b815260206004820152600f60248201526e0496e73756666696369656e74204c5608c1b6044820152606490fd5b60405162461bcd60e51b815260206004820152600e60248201526d5a65726f206c697175696469747960901b6044820152606490fd5b3461038e57606036600319011261038e5760036106d7610ac3565b6106f06106e2610a97565b6106ea610aad565b92610be4565b6001600160a01b039182165f908152600160209081526040808320938516835292815282822094909316815293909201815291819020549051908152f35b3461038e57606036600319011261038e57602061079561074c610a97565b6107576103b6610aad565b6001600160a01b039182165f818152600187526040808220938516825292875291909120929091160361079d5760018154910154905b600435610cd7565b604051908152f35b600181015490549061078d565b3461038e5760a036600319011261038e5760043560443567ffffffffffffffff811161038e573660238201121561038e5780600401359167ffffffffffffffff831161038e573660248460051b8401011161038e57606435916001600160a01b038316830361038e5761081b610b90565b610829608435421115610ad9565b60028403610a61578115610a2f5783156109b45761084960248201610b0f565b93600110156109b457604461085e9101610b0f565b916108698385610be4565b6001600160a01b039182165f81815260016020908152604080832094861683529390529190912091909516948514908115610a21578054946001820154915b6108b48630338b610c8c565b6108bf838888610cd7565b9660243588106109e6578780948892610904975f146109c857906108e96001946108f09493610b23565b8555610b30565b9101555b6001600160a01b03169283610d79565b60405193610913606086610b3d565b60028552602085019360403686378551156109b4578385528551600110156109b457806040879697015260405193845260208401527fad56699d0f375866eb895ed27203058a36a713382aaded78eb6b67da266d433260403394a460015f55604051918291602083019060208452518091526040830191905f5b81811061099b575050500390f35b825184528594506020938401939092019160010161098d565b634e487b7160e01b5f52603260045260245ffd5b6109df936109d591610b23565b6001850155610b30565b90556108f4565b60405162461bcd60e51b8152602060048201526013602482015272125b9cdd59999a58da595b9d081bdd5d1c1d5d606a1b6044820152606490fd5b6001810154948154916108a8565b60405162461bcd60e51b815260206004820152600a60248201526916995c9bc81a5b9c1d5d60b21b6044820152606490fd5b60405162461bcd60e51b815260206004820152600e60248201526d2830ba341036bab9ba103132901960911b6044820152606490fd5b602435906001600160a01b038216820361038e57565b604435906001600160a01b038216820361038e57565b600435906001600160a01b038216820361038e57565b15610ae057565b60405162461bcd60e51b8152602060048201526007602482015266115e1c1a5c995960ca1b6044820152606490fd5b356001600160a01b038116810361038e5790565b9190820180921161026b57565b9190820391821161026b57565b90601f8019910116810190811067ffffffffffffffff82111761043a57604052565b8181029291811591840414171561026b57565b8115610b7c570490565b634e487b7160e01b5f52601260045260245ffd5b60025f5414610b9f5760025f55565b60405162461bcd60e51b815260206004820152601f60248201527f5265656e7472616e637947756172643a207265656e7472616e742063616c6c006044820152606490fd5b9091906001600160a01b03808416908216808214610c545780151580610c4b575b15610c17571015610c14579190565b90565b60405162461bcd60e51b815260206004820152600c60248201526b5a65726f206164647265737360a01b6044820152606490fd5b50811515610c05565b60405162461bcd60e51b815260206004820152601060248201526f4964656e746963616c20746f6b656e7360801b6044820152606490fd5b6040516323b872dd60e01b60208201526001600160a01b039283166024820152929091166044830152606480830193909352918152610cd591610cd0608483610b3d565b610db4565b565b918215801580610d70575b80610d67575b15610d32576103e584029384046103e514171561026b57610d099083610b5f565b906103e88102908082046103e8149015171561026b57610c1492610d2c91610b23565b90610b72565b60405162461bcd60e51b815260206004820152600d60248201526c125b9d985b1a59081a5b9c1d5d609a1b6044820152606490fd5b50811515610ce8565b50821515610ce2565b60405163a9059cbb60e01b60208201526001600160a01b039092166024830152604480830193909352918152610cd591610cd0606483610b3d565b905f602091828151910182855af115610e0c575f513d610e0357506001600160a01b0381163b155b610de35750565b635274afe760e01b5f9081526001600160a01b0391909116600452602490fd5b60011415610ddc565b6040513d5f823e3d90fdfea2646970667358221220b0f7a6334c378ada80b182f90c6d14d848022af1bfbfa5d18f83752ca8c5d6dc64736f6c634300081e0033",
			"opcodes": "PUSH1 0x80 DUP1 PUSH1 0x40 MSTORE CALLVALUE PUSH1 0x19 JUMPI PUSH1 0x1 PUSH0 SSTORE PUSH2 0xE4D SWAP1 DUP2 PUSH2 0x1E DUP3 CODECOPY RETURN JUMPDEST PUSH0 DUP1 REVERT INVALID PUSH1 0x80 PUSH1 0x40 MSTORE PUSH1 0x4 CALLDATASIZE LT ISZERO PUSH2 0x11 JUMPI PUSH0 DUP1 REVERT JUMPDEST PUSH0 CALLDATALOAD PUSH1 0xE0 SHR DUP1 PUSH4 0x38ED1739 EQ PUSH2 0x7AA JUMPI DUP1 PUSH4 0x5E1E6325 EQ PUSH2 0x72E JUMPI DUP1 PUSH4 0x75BB9B63 EQ PUSH2 0x6BC JUMPI DUP1 PUSH4 0xBAA2ABDE EQ PUSH2 0x44E JUMPI DUP1 PUSH4 0xD52BB6F4 EQ PUSH2 0x392 JUMPI PUSH4 0xE8E33700 EQ PUSH2 0x5B JUMPI PUSH0 DUP1 REVERT JUMPDEST CALLVALUE PUSH2 0x38E JUMPI PUSH2 0x100 CALLDATASIZE PUSH1 0x3 NOT ADD SLT PUSH2 0x38E JUMPI PUSH2 0x75 PUSH2 0xAC3 JUMP JUMPDEST PUSH2 0x7D PUSH2 0xA97 JUMP JUMPDEST SWAP1 PUSH1 0x64 CALLDATALOAD PUSH1 0x44 CALLDATALOAD PUSH1 0xC4 CALLDATALOAD PUSH1 0x1 PUSH1 0x1 PUSH1 0xA0 SHL SUB DUP2 AND SWAP1 DUP2 SWAP1 SUB PUSH2 0x38E JUMPI PUSH2 0xA1 PUSH2 0xB90 JUMP JUMPDEST PUSH2 0xAF PUSH1 0xE4 CALLDATALOAD TIMESTAMP GT ISZERO PUSH2 0xAD9 JUMP JUMPDEST PUSH2 0xB9 DUP6 DUP6 PUSH2 0xBE4 JUMP JUMPDEST SWAP1 PUSH1 0x1 DUP1 PUSH1 0xA0 SHL SUB AND DUP1 PUSH0 MSTORE PUSH1 0x1 PUSH1 0x20 MSTORE PUSH1 0x40 PUSH0 KECCAK256 PUSH1 0x1 DUP1 PUSH1 0xA0 SHL SUB DUP4 AND PUSH0 MSTORE PUSH1 0x20 MSTORE PUSH1 0x40 PUSH0 KECCAK256 SWAP4 DUP5 SLOAD SWAP5 PUSH1 0x1 DUP2 ADD SWAP2 DUP3 SLOAD SWAP8 DUP8 ISZERO DUP1 PUSH2 0x386 JUMPI JUMPDEST ISZERO PUSH2 0x2C3 JUMPI SWAP1 PUSH2 0x108 SWAP11 PUSH2 0x11A SWAP3 SWAP12 DUP13 SWAP3 DUP1 SWAP13 JUMPDEST ADDRESS SWAP1 CALLER SWAP1 PUSH1 0x1 PUSH1 0x1 PUSH1 0xA0 SHL SUB AND PUSH2 0xC8C JUMP JUMPDEST PUSH1 0x2 DUP2 ADD DUP1 SLOAD SWAP8 DUP11 DUP11 DUP3 DUP11 DUP13 DUP1 PUSH2 0x28D JUMPI POP POP POP SWAP1 PUSH2 0x138 SWAP2 PUSH2 0xB5F JUMP JUMPDEST PUSH0 PUSH1 0x3 DUP3 GT ISZERO PUSH2 0x27F JUMPI POP DUP1 DUP1 PUSH1 0x1 SHR PUSH1 0x1 DUP2 ADD DUP1 SWAP2 GT PUSH2 0x26B JUMPI SWAP1 JUMPDEST DUP3 DUP3 LT PUSH2 0x24C JUMPI POP POP JUMPDEST SWAP8 JUMPDEST DUP9 ISZERO PUSH2 0x216 JUMPI PUSH2 0x212 SWAP10 PUSH1 0x3 SWAP6 PUSH2 0x189 DUP15 PUSH2 0x190 SWAP6 DUP16 PUSH2 0x182 SWAP1 DUP16 SWAP8 PUSH2 0xB23 JUMP JUMPDEST DUP10 SSTORE PUSH2 0xB23 JUMP JUMPDEST SWAP1 SSTORE PUSH2 0xB23 JUMP JUMPDEST SWAP1 SSTORE DUP5 PUSH0 MSTORE ADD PUSH1 0x20 MSTORE PUSH1 0x40 PUSH0 KECCAK256 PUSH2 0x1A8 DUP6 DUP3 SLOAD PUSH2 0xB23 JUMP JUMPDEST SWAP1 SSTORE PUSH1 0x40 DUP1 MLOAD DUP8 DUP2 MSTORE PUSH1 0x20 DUP2 ADD DUP10 SWAP1 MSTORE SWAP1 DUP2 ADD DUP6 SWAP1 MSTORE PUSH1 0x1 PUSH1 0x1 PUSH1 0xA0 SHL SUB SWAP3 SWAP1 SWAP3 AND SWAP2 PUSH32 0x43C967B388D3A4CCAD3F7AB80167852E322E5A3FDE9893F530252281B2AE8B70 SWAP1 PUSH1 0x60 SWAP1 LOG4 PUSH1 0x1 PUSH0 SSTORE PUSH1 0x40 MLOAD SWAP4 DUP5 SWAP4 DUP5 PUSH1 0x40 SWAP2 SWAP5 SWAP4 SWAP3 PUSH1 0x60 DUP3 ADD SWAP6 DUP3 MSTORE PUSH1 0x20 DUP3 ADD MSTORE ADD MSTORE JUMP JUMPDEST SUB SWAP1 RETURN JUMPDEST PUSH1 0x40 MLOAD PUSH3 0x461BCD PUSH1 0xE5 SHL DUP2 MSTORE PUSH1 0x20 PUSH1 0x4 DUP3 ADD MSTORE PUSH1 0xE PUSH1 0x24 DUP3 ADD MSTORE PUSH14 0x4C6971756964697479207A65726F PUSH1 0x90 SHL PUSH1 0x44 DUP3 ADD MSTORE PUSH1 0x64 SWAP1 REVERT JUMPDEST SWAP1 SWAP2 POP PUSH2 0x262 DUP3 PUSH2 0x25D DUP2 DUP5 PUSH2 0xB72 JUMP JUMPDEST PUSH2 0xB23 JUMP JUMPDEST PUSH1 0x1 SHR SWAP1 PUSH2 0x155 JUMP JUMPDEST PUSH4 0x4E487B71 PUSH1 0xE0 SHL PUSH0 MSTORE PUSH1 0x11 PUSH1 0x4 MSTORE PUSH1 0x24 PUSH0 REVERT JUMPDEST SWAP1 ISZERO PUSH2 0x15F JUMPI POP PUSH1 0x1 PUSH2 0x15F JUMP JUMPDEST PUSH2 0x2A6 PUSH2 0x2A1 SWAP3 PUSH2 0x2A1 DUP4 PUSH2 0x2AC SWAP8 PUSH2 0xB5F JUMP JUMPDEST PUSH2 0xB72 JUMP JUMPDEST SWAP5 PUSH2 0xB5F JUMP JUMPDEST DUP1 DUP3 LT ISZERO PUSH2 0x2BC JUMPI POP JUMPDEST SWAP8 PUSH2 0x161 JUMP JUMPDEST SWAP1 POP PUSH2 0x2B6 JUMP JUMPDEST SWAP1 PUSH2 0x2D2 DUP9 PUSH2 0x2A1 DUP12 DUP5 PUSH2 0xB5F JUMP JUMPDEST SWAP2 DUP1 DUP4 GT PUSH2 0x328 JUMPI POP PUSH1 0xA4 CALLDATALOAD DUP3 LT PUSH2 0x2F6 JUMPI PUSH2 0x108 SWAP11 PUSH2 0x11A SWAP3 SWAP12 DUP13 SWAP3 DUP1 SWAP13 PUSH2 0x108 JUMP JUMPDEST PUSH1 0x40 MLOAD PUSH3 0x461BCD PUSH1 0xE5 SHL DUP2 MSTORE PUSH1 0x20 PUSH1 0x4 DUP3 ADD MSTORE PUSH1 0xA PUSH1 0x24 DUP3 ADD MSTORE PUSH10 0x29B634B83830B3B29021 PUSH1 0xB1 SHL PUSH1 0x44 DUP3 ADD MSTORE PUSH1 0x64 SWAP1 REVERT JUMPDEST SWAP2 POP POP PUSH2 0x339 DUP9 PUSH2 0x2A1 DUP10 DUP5 PUSH2 0xB5F JUMP JUMPDEST PUSH1 0x84 CALLDATALOAD DUP2 LT PUSH2 0x354 JUMPI PUSH2 0x108 SWAP11 PUSH2 0x11A SWAP3 SWAP12 DUP13 SWAP3 DUP1 SWAP13 PUSH2 0x108 JUMP JUMPDEST PUSH1 0x40 MLOAD PUSH3 0x461BCD PUSH1 0xE5 SHL DUP2 MSTORE PUSH1 0x20 PUSH1 0x4 DUP3 ADD MSTORE PUSH1 0xA PUSH1 0x24 DUP3 ADD MSTORE PUSH10 0x536C6970706167652041 PUSH1 0xB0 SHL PUSH1 0x44 DUP3 ADD MSTORE PUSH1 0x64 SWAP1 REVERT JUMPDEST POP DUP9 ISZERO PUSH2 0xF4 JUMP JUMPDEST PUSH0 DUP1 REVERT JUMPDEST CALLVALUE PUSH2 0x38E JUMPI PUSH1 0x40 CALLDATASIZE PUSH1 0x3 NOT ADD SLT PUSH2 0x38E JUMPI PUSH2 0x3AB PUSH2 0xAC3 JUMP JUMPDEST PUSH2 0x3BC PUSH2 0x3B6 PUSH2 0xA97 JUMP JUMPDEST DUP3 PUSH2 0xBE4 JUMP JUMPDEST SWAP2 SWAP1 PUSH1 0x1 DUP1 PUSH1 0xA0 SHL SUB AND SWAP2 DUP3 PUSH0 MSTORE PUSH1 0x1 PUSH1 0x20 MSTORE PUSH1 0x40 PUSH0 KECCAK256 SWAP1 PUSH1 0x1 DUP1 PUSH1 0xA0 SHL SUB AND PUSH0 MSTORE PUSH1 0x20 MSTORE PUSH1 0x40 PUSH0 KECCAK256 PUSH1 0x40 MLOAD SWAP3 PUSH1 0x40 DUP5 ADD SWAP3 DUP5 DUP5 LT PUSH8 0xFFFFFFFFFFFFFFFF DUP6 GT OR PUSH2 0x43A JUMPI PUSH1 0x40 SWAP5 PUSH1 0x20 SWAP5 DUP7 MSTORE PUSH1 0x1 DUP5 SLOAD SWAP5 DUP6 DUP4 MSTORE ADD SLOAD SWAP5 DUP6 SWAP2 ADD MSTORE PUSH1 0x1 DUP1 PUSH1 0xA0 SHL SUB AND EQ PUSH0 EQ PUSH2 0x435 JUMPI SWAP1 JUMPDEST DUP3 MLOAD SWAP2 DUP3 MSTORE PUSH1 0x20 DUP3 ADD MSTORE RETURN JUMPDEST PUSH2 0x429 JUMP JUMPDEST PUSH4 0x4E487B71 PUSH1 0xE0 SHL PUSH0 MSTORE PUSH1 0x41 PUSH1 0x4 MSTORE PUSH1 0x24 PUSH0 REVERT JUMPDEST CALLVALUE PUSH2 0x38E JUMPI PUSH1 0xE0 CALLDATASIZE PUSH1 0x3 NOT ADD SLT PUSH2 0x38E JUMPI PUSH2 0x467 PUSH2 0xAC3 JUMP JUMPDEST PUSH2 0x46F PUSH2 0xA97 JUMP JUMPDEST SWAP1 PUSH1 0xA4 CALLDATALOAD PUSH1 0x44 CALLDATALOAD PUSH1 0x1 PUSH1 0x1 PUSH1 0xA0 SHL SUB DUP3 AND DUP3 SUB PUSH2 0x38E JUMPI PUSH2 0x48E PUSH2 0xB90 JUMP JUMPDEST PUSH2 0x49C PUSH1 0xC4 CALLDATALOAD TIMESTAMP GT ISZERO PUSH2 0xAD9 JUMP JUMPDEST DUP1 ISZERO PUSH2 0x686 JUMPI PUSH2 0x4AC DUP5 DUP5 PUSH2 0xBE4 JUMP JUMPDEST SWAP2 SWAP1 PUSH1 0x1 DUP1 PUSH1 0xA0 SHL SUB AND DUP1 PUSH0 MSTORE PUSH1 0x1 PUSH1 0x20 MSTORE PUSH1 0x40 PUSH0 KECCAK256 PUSH1 0x1 DUP1 PUSH1 0xA0 SHL SUB DUP5 AND PUSH0 MSTORE PUSH1 0x20 MSTORE PUSH1 0x40 PUSH0 KECCAK256 SWAP6 PUSH1 0x3 DUP8 ADD SWAP5 PUSH1 0x1 DUP1 PUSH1 0xA0 SHL SUB CALLER AND PUSH0 MSTORE DUP6 PUSH1 0x20 MSTORE DUP4 PUSH1 0x40 PUSH0 KECCAK256 SLOAD LT PUSH2 0x64F JUMPI DUP8 SLOAD SWAP1 PUSH1 0x1 DUP10 ADD SWAP3 DUP4 SLOAD SWAP4 PUSH1 0x2 DUP12 ADD SWAP11 DUP12 SLOAD SWAP1 PUSH2 0x515 DUP3 PUSH2 0x2A1 DUP9 DUP13 PUSH2 0xB5F JUMP JUMPDEST SWAP12 PUSH2 0x524 DUP4 PUSH2 0x2A1 DUP11 DUP14 PUSH2 0xB5F JUMP JUMPDEST SWAP12 DUP14 PUSH1 0x64 CALLDATALOAD GT PUSH2 0x622 JUMPI PUSH1 0x84 CALLDATALOAD DUP14 LT PUSH2 0x5F5 JUMPI PUSH1 0x40 SWAP15 PUSH2 0x563 DUP16 SWAP6 DUP16 SWAP11 SWAP1 PUSH2 0x591 SWAP9 DUP16 SWAP3 DUP14 PUSH2 0x59F SWAP16 DUP15 SWAP11 PUSH2 0x55C DUP14 PUSH2 0x55C SWAP6 PUSH2 0xB30 JUMP JUMPDEST SWAP1 SSTORE PUSH2 0xB30 JUMP JUMPDEST SWAP1 SSTORE PUSH1 0x1 DUP1 PUSH1 0xA0 SHL SUB CALLER AND PUSH0 MSTORE PUSH1 0x20 MSTORE DUP14 PUSH0 KECCAK256 PUSH2 0x581 DUP12 DUP3 SLOAD PUSH2 0xB30 JUMP JUMPDEST SWAP1 SSTORE PUSH1 0x1 PUSH1 0x1 PUSH1 0xA0 SHL SUB AND PUSH2 0xD79 JUMP JUMPDEST PUSH1 0x1 PUSH1 0x1 PUSH1 0xA0 SHL SUB AND PUSH2 0xD79 JUMP JUMPDEST DUP6 MLOAD DUP6 DUP2 MSTORE PUSH1 0x20 DUP2 ADD DUP6 SWAP1 MSTORE PUSH1 0x40 DUP2 ADD SWAP3 SWAP1 SWAP3 MSTORE CALLER SWAP3 PUSH1 0x1 PUSH1 0x1 PUSH1 0xA0 SHL SUB AND SWAP2 PUSH32 0xD765E08EEF31C0983ECCA03ECD166297AC485ECD5DD69E291C848F0A020333C1 SWAP1 PUSH1 0x60 SWAP1 LOG4 PUSH1 0x1 PUSH0 SSTORE DUP3 MLOAD SWAP2 DUP3 MSTORE PUSH1 0x20 DUP3 ADD MSTORE RETURN JUMPDEST PUSH1 0x40 MLOAD PUSH3 0x461BCD PUSH1 0xE5 SHL DUP2 MSTORE PUSH1 0x20 PUSH1 0x4 DUP3 ADD MSTORE PUSH1 0x5 PUSH1 0x24 DUP3 ADD MSTORE PUSH5 0x26B4B71021 PUSH1 0xD9 SHL PUSH1 0x44 DUP3 ADD MSTORE PUSH1 0x64 SWAP1 REVERT JUMPDEST PUSH1 0x40 MLOAD PUSH3 0x461BCD PUSH1 0xE5 SHL DUP2 MSTORE PUSH1 0x20 PUSH1 0x4 DUP3 ADD MSTORE PUSH1 0x5 PUSH1 0x24 DUP3 ADD MSTORE PUSH5 0x4D696E2041 PUSH1 0xD8 SHL PUSH1 0x44 DUP3 ADD MSTORE PUSH1 0x64 SWAP1 REVERT JUMPDEST PUSH1 0x40 MLOAD PUSH3 0x461BCD PUSH1 0xE5 SHL DUP2 MSTORE PUSH1 0x20 PUSH1 0x4 DUP3 ADD MSTORE PUSH1 0xF PUSH1 0x24 DUP3 ADD MSTORE PUSH15 0x496E73756666696369656E74204C5 PUSH1 0x8C SHL PUSH1 0x44 DUP3 ADD MSTORE PUSH1 0x64 SWAP1 REVERT JUMPDEST PUSH1 0x40 MLOAD PUSH3 0x461BCD PUSH1 0xE5 SHL DUP2 MSTORE PUSH1 0x20 PUSH1 0x4 DUP3 ADD MSTORE PUSH1 0xE PUSH1 0x24 DUP3 ADD MSTORE PUSH14 0x5A65726F206C6971756964697479 PUSH1 0x90 SHL PUSH1 0x44 DUP3 ADD MSTORE PUSH1 0x64 SWAP1 REVERT JUMPDEST CALLVALUE PUSH2 0x38E JUMPI PUSH1 0x60 CALLDATASIZE PUSH1 0x3 NOT ADD SLT PUSH2 0x38E JUMPI PUSH1 0x3 PUSH2 0x6D7 PUSH2 0xAC3 JUMP JUMPDEST PUSH2 0x6F0 PUSH2 0x6E2 PUSH2 0xA97 JUMP JUMPDEST PUSH2 0x6EA PUSH2 0xAAD JUMP JUMPDEST SWAP3 PUSH2 0xBE4 JUMP JUMPDEST PUSH1 0x1 PUSH1 0x1 PUSH1 0xA0 SHL SUB SWAP2 DUP3 AND PUSH0 SWAP1 DUP2 MSTORE PUSH1 0x1 PUSH1 0x20 SWAP1 DUP2 MSTORE PUSH1 0x40 DUP1 DUP4 KECCAK256 SWAP4 DUP6 AND DUP4 MSTORE SWAP3 DUP2 MSTORE DUP3 DUP3 KECCAK256 SWAP5 SWAP1 SWAP4 AND DUP2 MSTORE SWAP4 SWAP1 SWAP3 ADD DUP2 MSTORE SWAP2 DUP2 SWAP1 KECCAK256 SLOAD SWAP1 MLOAD SWAP1 DUP2 MSTORE RETURN JUMPDEST CALLVALUE PUSH2 0x38E JUMPI PUSH1 0x60 CALLDATASIZE PUSH1 0x3 NOT ADD SLT PUSH2 0x38E JUMPI PUSH1 0x20 PUSH2 0x795 PUSH2 0x74C PUSH2 0xA97 JUMP JUMPDEST PUSH2 0x757 PUSH2 0x3B6 PUSH2 0xAAD JUMP JUMPDEST PUSH1 0x1 PUSH1 0x1 PUSH1 0xA0 SHL SUB SWAP2 DUP3 AND PUSH0 DUP2 DUP2 MSTORE PUSH1 0x1 DUP8 MSTORE PUSH1 0x40 DUP1 DUP3 KECCAK256 SWAP4 DUP6 AND DUP3 MSTORE SWAP3 DUP8 MSTORE SWAP2 SWAP1 SWAP2 KECCAK256 SWAP3 SWAP1 SWAP2 AND SUB PUSH2 0x79D JUMPI PUSH1 0x1 DUP2 SLOAD SWAP2 ADD SLOAD SWAP1 JUMPDEST PUSH1 0x4 CALLDATALOAD PUSH2 0xCD7 JUMP JUMPDEST PUSH1 0x40 MLOAD SWAP1 DUP2 MSTORE RETURN JUMPDEST PUSH1 0x1 DUP2 ADD SLOAD SWAP1 SLOAD SWAP1 PUSH2 0x78D JUMP JUMPDEST CALLVALUE PUSH2 0x38E JUMPI PUSH1 0xA0 CALLDATASIZE PUSH1 0x3 NOT ADD SLT PUSH2 0x38E JUMPI PUSH1 0x4 CALLDATALOAD PUSH1 0x44 CALLDATALOAD PUSH8 0xFFFFFFFFFFFFFFFF DUP2 GT PUSH2 0x38E JUMPI CALLDATASIZE PUSH1 0x23 DUP3 ADD SLT ISZERO PUSH2 0x38E JUMPI DUP1 PUSH1 0x4 ADD CALLDATALOAD SWAP2 PUSH8 0xFFFFFFFFFFFFFFFF DUP4 GT PUSH2 0x38E JUMPI CALLDATASIZE PUSH1 0x24 DUP5 PUSH1 0x5 SHL DUP5 ADD ADD GT PUSH2 0x38E JUMPI PUSH1 0x64 CALLDATALOAD SWAP2 PUSH1 0x1 PUSH1 0x1 PUSH1 0xA0 SHL SUB DUP4 AND DUP4 SUB PUSH2 0x38E JUMPI PUSH2 0x81B PUSH2 0xB90 JUMP JUMPDEST PUSH2 0x829 PUSH1 0x84 CALLDATALOAD TIMESTAMP GT ISZERO PUSH2 0xAD9 JUMP JUMPDEST PUSH1 0x2 DUP5 SUB PUSH2 0xA61 JUMPI DUP2 ISZERO PUSH2 0xA2F JUMPI DUP4 ISZERO PUSH2 0x9B4 JUMPI PUSH2 0x849 PUSH1 0x24 DUP3 ADD PUSH2 0xB0F JUMP JUMPDEST SWAP4 PUSH1 0x1 LT ISZERO PUSH2 0x9B4 JUMPI PUSH1 0x44 PUSH2 0x85E SWAP2 ADD PUSH2 0xB0F JUMP JUMPDEST SWAP2 PUSH2 0x869 DUP4 DUP6 PUSH2 0xBE4 JUMP JUMPDEST PUSH1 0x1 PUSH1 0x1 PUSH1 0xA0 SHL SUB SWAP2 DUP3 AND PUSH0 DUP2 DUP2 MSTORE PUSH1 0x1 PUSH1 0x20 SWAP1 DUP2 MSTORE PUSH1 0x40 DUP1 DUP4 KECCAK256 SWAP5 DUP7 AND DUP4 MSTORE SWAP4 SWAP1 MSTORE SWAP2 SWAP1 SWAP2 KECCAK256 SWAP2 SWAP1 SWAP6 AND SWAP5 DUP6 EQ SWAP1 DUP2 ISZERO PUSH2 0xA21 JUMPI DUP1 SLOAD SWAP5 PUSH1 0x1 DUP3 ADD SLOAD SWAP2 JUMPDEST PUSH2 0x8B4 DUP7 ADDRESS CALLER DUP12 PUSH2 0xC8C JUMP JUMPDEST PUSH2 0x8BF DUP4 DUP9 DUP9 PUSH2 0xCD7 JUMP JUMPDEST SWAP7 PUSH1 0x24 CALLDATALOAD DUP9 LT PUSH2 0x9E6 JUMPI DUP8 DUP1 SWAP5 DUP9 SWAP3 PUSH2 0x904 SWAP8 PUSH0 EQ PUSH2 0x9C8 JUMPI SWAP1 PUSH2 0x8E9 PUSH1 0x1 SWAP5 PUSH2 0x8F0 SWAP5 SWAP4 PUSH2 0xB23 JUMP JUMPDEST DUP6 SSTORE PUSH2 0xB30 JUMP JUMPDEST SWAP2 ADD SSTORE JUMPDEST PUSH1 0x1 PUSH1 0x1 PUSH1 0xA0 SHL SUB AND SWAP3 DUP4 PUSH2 0xD79 JUMP JUMPDEST PUSH1 0x40 MLOAD SWAP4 PUSH2 0x913 PUSH1 0x60 DUP7 PUSH2 0xB3D JUMP JUMPDEST PUSH1 0x2 DUP6 MSTORE PUSH1 0x20 DUP6 ADD SWAP4 PUSH1 0x40 CALLDATASIZE DUP7 CALLDATACOPY DUP6 MLOAD ISZERO PUSH2 0x9B4 JUMPI DUP4 DUP6 MSTORE DUP6 MLOAD PUSH1 0x1 LT ISZERO PUSH2 0x9B4 JUMPI DUP1 PUSH1 0x40 DUP8 SWAP7 SWAP8 ADD MSTORE PUSH1 0x40 MLOAD SWAP4 DUP5 MSTORE PUSH1 0x20 DUP5 ADD MSTORE PUSH32 0xAD56699D0F375866EB895ED27203058A36A713382AADED78EB6B67DA266D4332 PUSH1 0x40 CALLER SWAP5 LOG4 PUSH1 0x1 PUSH0 SSTORE PUSH1 0x40 MLOAD SWAP2 DUP3 SWAP2 PUSH1 0x20 DUP4 ADD SWAP1 PUSH1 0x20 DUP5 MSTORE MLOAD DUP1 SWAP2 MSTORE PUSH1 0x40 DUP4 ADD SWAP2 SWAP1 PUSH0 JUMPDEST DUP2 DUP2 LT PUSH2 0x99B JUMPI POP POP POP SUB SWAP1 RETURN JUMPDEST DUP3 MLOAD DUP5 MSTORE DUP6 SWAP5 POP PUSH1 0x20 SWAP4 DUP5 ADD SWAP4 SWAP1 SWAP3 ADD SWAP2 PUSH1 0x1 ADD PUSH2 0x98D JUMP JUMPDEST PUSH4 0x4E487B71 PUSH1 0xE0 SHL PUSH0 MSTORE PUSH1 0x32 PUSH1 0x4 MSTORE PUSH1 0x24 PUSH0 REVERT JUMPDEST PUSH2 0x9DF SWAP4 PUSH2 0x9D5 SWAP2 PUSH2 0xB23 JUMP JUMPDEST PUSH1 0x1 DUP6 ADD SSTORE PUSH2 0xB30 JUMP JUMPDEST SWAP1 SSTORE PUSH2 0x8F4 JUMP JUMPDEST PUSH1 0x40 MLOAD PUSH3 0x461BCD PUSH1 0xE5 SHL DUP2 MSTORE PUSH1 0x20 PUSH1 0x4 DUP3 ADD MSTORE PUSH1 0x13 PUSH1 0x24 DUP3 ADD MSTORE PUSH19 0x125B9CDD59999A58DA595B9D081BDD5D1C1D5D PUSH1 0x6A SHL PUSH1 0x44 DUP3 ADD MSTORE PUSH1 0x64 SWAP1 REVERT JUMPDEST PUSH1 0x1 DUP2 ADD SLOAD SWAP5 DUP2 SLOAD SWAP2 PUSH2 0x8A8 JUMP JUMPDEST PUSH1 0x40 MLOAD PUSH3 0x461BCD PUSH1 0xE5 SHL DUP2 MSTORE PUSH1 0x20 PUSH1 0x4 DUP3 ADD MSTORE PUSH1 0xA PUSH1 0x24 DUP3 ADD MSTORE PUSH10 0x16995C9BC81A5B9C1D5D PUSH1 0xB2 SHL PUSH1 0x44 DUP3 ADD MSTORE PUSH1 0x64 SWAP1 REVERT JUMPDEST PUSH1 0x40 MLOAD PUSH3 0x461BCD PUSH1 0xE5 SHL DUP2 MSTORE PUSH1 0x20 PUSH1 0x4 DUP3 ADD MSTORE PUSH1 0xE PUSH1 0x24 DUP3 ADD MSTORE PUSH14 0x2830BA341036BAB9BA1031329019 PUSH1 0x91 SHL PUSH1 0x44 DUP3 ADD MSTORE PUSH1 0x64 SWAP1 REVERT JUMPDEST PUSH1 0x24 CALLDATALOAD SWAP1 PUSH1 0x1 PUSH1 0x1 PUSH1 0xA0 SHL SUB DUP3 AND DUP3 SUB PUSH2 0x38E JUMPI JUMP JUMPDEST PUSH1 0x44 CALLDATALOAD SWAP1 PUSH1 0x1 PUSH1 0x1 PUSH1 0xA0 SHL SUB DUP3 AND DUP3 SUB PUSH2 0x38E JUMPI JUMP JUMPDEST PUSH1 0x4 CALLDATALOAD SWAP1 PUSH1 0x1 PUSH1 0x1 PUSH1 0xA0 SHL SUB DUP3 AND DUP3 SUB PUSH2 0x38E JUMPI JUMP JUMPDEST ISZERO PUSH2 0xAE0 JUMPI JUMP JUMPDEST PUSH1 0x40 MLOAD PUSH3 0x461BCD PUSH1 0xE5 SHL DUP2 MSTORE PUSH1 0x20 PUSH1 0x4 DUP3 ADD MSTORE PUSH1 0x7 PUSH1 0x24 DUP3 ADD MSTORE PUSH7 0x115E1C1A5C9959 PUSH1 0xCA SHL PUSH1 0x44 DUP3 ADD MSTORE PUSH1 0x64 SWAP1 REVERT JUMPDEST CALLDATALOAD PUSH1 0x1 PUSH1 0x1 PUSH1 0xA0 SHL SUB DUP2 AND DUP2 SUB PUSH2 0x38E JUMPI SWAP1 JUMP JUMPDEST SWAP2 SWAP1 DUP3 ADD DUP1 SWAP3 GT PUSH2 0x26B JUMPI JUMP JUMPDEST SWAP2 SWAP1 DUP3 SUB SWAP2 DUP3 GT PUSH2 0x26B JUMPI JUMP JUMPDEST SWAP1 PUSH1 0x1F DUP1 NOT SWAP2 ADD AND DUP2 ADD SWAP1 DUP2 LT PUSH8 0xFFFFFFFFFFFFFFFF DUP3 GT OR PUSH2 0x43A JUMPI PUSH1 0x40 MSTORE JUMP JUMPDEST DUP2 DUP2 MUL SWAP3 SWAP2 DUP2 ISZERO SWAP2 DUP5 DIV EQ OR ISZERO PUSH2 0x26B JUMPI JUMP JUMPDEST DUP2 ISZERO PUSH2 0xB7C JUMPI DIV SWAP1 JUMP JUMPDEST PUSH4 0x4E487B71 PUSH1 0xE0 SHL PUSH0 MSTORE PUSH1 0x12 PUSH1 0x4 MSTORE PUSH1 0x24 PUSH0 REVERT JUMPDEST PUSH1 0x2 PUSH0 SLOAD EQ PUSH2 0xB9F JUMPI PUSH1 0x2 PUSH0 SSTORE JUMP JUMPDEST PUSH1 0x40 MLOAD PUSH3 0x461BCD PUSH1 0xE5 SHL DUP2 MSTORE PUSH1 0x20 PUSH1 0x4 DUP3 ADD MSTORE PUSH1 0x1F PUSH1 0x24 DUP3 ADD MSTORE PUSH32 0x5265656E7472616E637947756172643A207265656E7472616E742063616C6C00 PUSH1 0x44 DUP3 ADD MSTORE PUSH1 0x64 SWAP1 REVERT JUMPDEST SWAP1 SWAP2 SWAP1 PUSH1 0x1 PUSH1 0x1 PUSH1 0xA0 SHL SUB DUP1 DUP5 AND SWAP1 DUP3 AND DUP1 DUP3 EQ PUSH2 0xC54 JUMPI DUP1 ISZERO ISZERO DUP1 PUSH2 0xC4B JUMPI JUMPDEST ISZERO PUSH2 0xC17 JUMPI LT ISZERO PUSH2 0xC14 JUMPI SWAP2 SWAP1 JUMP JUMPDEST SWAP1 JUMP JUMPDEST PUSH1 0x40 MLOAD PUSH3 0x461BCD PUSH1 0xE5 SHL DUP2 MSTORE PUSH1 0x20 PUSH1 0x4 DUP3 ADD MSTORE PUSH1 0xC PUSH1 0x24 DUP3 ADD MSTORE PUSH12 0x5A65726F2061646472657373 PUSH1 0xA0 SHL PUSH1 0x44 DUP3 ADD MSTORE PUSH1 0x64 SWAP1 REVERT JUMPDEST POP DUP2 ISZERO ISZERO PUSH2 0xC05 JUMP JUMPDEST PUSH1 0x40 MLOAD PUSH3 0x461BCD PUSH1 0xE5 SHL DUP2 MSTORE PUSH1 0x20 PUSH1 0x4 DUP3 ADD MSTORE PUSH1 0x10 PUSH1 0x24 DUP3 ADD MSTORE PUSH16 0x4964656E746963616C20746F6B656E73 PUSH1 0x80 SHL PUSH1 0x44 DUP3 ADD MSTORE PUSH1 0x64 SWAP1 REVERT JUMPDEST PUSH1 0x40 MLOAD PUSH4 0x23B872DD PUSH1 0xE0 SHL PUSH1 0x20 DUP3 ADD MSTORE PUSH1 0x1 PUSH1 0x1 PUSH1 0xA0 SHL SUB SWAP3 DUP4 AND PUSH1 0x24 DUP3 ADD MSTORE SWAP3 SWAP1 SWAP2 AND PUSH1 0x44 DUP4 ADD MSTORE PUSH1 0x64 DUP1 DUP4 ADD SWAP4 SWAP1 SWAP4 MSTORE SWAP2 DUP2 MSTORE PUSH2 0xCD5 SWAP2 PUSH2 0xCD0 PUSH1 0x84 DUP4 PUSH2 0xB3D JUMP JUMPDEST PUSH2 0xDB4 JUMP JUMPDEST JUMP JUMPDEST SWAP2 DUP3 ISZERO DUP1 ISZERO DUP1 PUSH2 0xD70 JUMPI JUMPDEST DUP1 PUSH2 0xD67 JUMPI JUMPDEST ISZERO PUSH2 0xD32 JUMPI PUSH2 0x3E5 DUP5 MUL SWAP4 DUP5 DIV PUSH2 0x3E5 EQ OR ISZERO PUSH2 0x26B JUMPI PUSH2 0xD09 SWAP1 DUP4 PUSH2 0xB5F JUMP JUMPDEST SWAP1 PUSH2 0x3E8 DUP2 MUL SWAP1 DUP1 DUP3 DIV PUSH2 0x3E8 EQ SWAP1 ISZERO OR ISZERO PUSH2 0x26B JUMPI PUSH2 0xC14 SWAP3 PUSH2 0xD2C SWAP2 PUSH2 0xB23 JUMP JUMPDEST SWAP1 PUSH2 0xB72 JUMP JUMPDEST PUSH1 0x40 MLOAD PUSH3 0x461BCD PUSH1 0xE5 SHL DUP2 MSTORE PUSH1 0x20 PUSH1 0x4 DUP3 ADD MSTORE PUSH1 0xD PUSH1 0x24 DUP3 ADD MSTORE PUSH13 0x125B9D985B1A59081A5B9C1D5D PUSH1 0x9A SHL PUSH1 0x44 DUP3 ADD MSTORE PUSH1 0x64 SWAP1 REVERT JUMPDEST POP DUP2 ISZERO ISZERO PUSH2 0xCE8 JUMP JUMPDEST POP DUP3 ISZERO ISZERO PUSH2 0xCE2 JUMP JUMPDEST PUSH1 0x40 MLOAD PUSH4 0xA9059CBB PUSH1 0xE0 SHL PUSH1 0x20 DUP3 ADD MSTORE PUSH1 0x1 PUSH1 0x1 PUSH1 0xA0 SHL SUB SWAP1 SWAP3 AND PUSH1 0x24 DUP4 ADD MSTORE PUSH1 0x44 DUP1 DUP4 ADD SWAP4 SWAP1 SWAP4 MSTORE SWAP2 DUP2 MSTORE PUSH2 0xCD5 SWAP2 PUSH2 0xCD0 PUSH1 0x64 DUP4 PUSH2 0xB3D JUMP JUMPDEST SWAP1 PUSH0 PUSH1 0x20 SWAP2 DUP3 DUP2 MLOAD SWAP2 ADD DUP3 DUP6 GAS CALL ISZERO PUSH2 0xE0C JUMPI PUSH0 MLOAD RETURNDATASIZE PUSH2 0xE03 JUMPI POP PUSH1 0x1 PUSH1 0x1 PUSH1 0xA0 SHL SUB DUP2 AND EXTCODESIZE ISZERO JUMPDEST PUSH2 0xDE3 JUMPI POP JUMP JUMPDEST PUSH4 0x5274AFE7 PUSH1 0xE0 SHL PUSH0 SWAP1 DUP2 MSTORE PUSH1 0x1 PUSH1 0x1 PUSH1 0xA0 SHL SUB SWAP2 SWAP1 SWAP2 AND PUSH1 0x4 MSTORE PUSH1 0x24 SWAP1 REVERT JUMPDEST PUSH1 0x1 EQ ISZERO PUSH2 0xDDC JUMP JUMPDEST PUSH1 0x40 MLOAD RETURNDATASIZE PUSH0 DUP3 RETURNDATACOPY RETURNDATASIZE SWAP1 REVERT INVALID LOG2 PUSH5 0x6970667358 0x22 SLT KECCAK256 0xB0 0xF7 0xA6 CALLER 0x4C CALLDATACOPY DUP11 0xDA DUP1 0xB1 DUP3 EXTDELEGATECALL 0xC PUSH14 0x14D848022AF1BFBFA5D18F83752C 0xA8 0xC5 0xD6 0xDC PUSH5 0x736F6C6343 STOP ADDMOD 0x1E STOP CALLER "
		},
		"gasEstimates": {
			"creation": {
				"codeDepositCost": "732200",
				"executionCost": "22879",
				"totalCost": "755079"
			},
			"external": {
				"addLiquidity(address,address,uint256,uint256,uint256,uint256,address,uint256)": "infinite",
				"balanceOf(address,address,address)": "2950",
				"getAmountOut(uint256,address,address)": "5363",
				"getReserves(address,address)": "5101",
				"removeLiquidity(address,address,uint256,uint256,uint256,address,uint256)": "infinite",
				"swapExactTokensForTokens(uint256,uint256,address[],address,uint256)": "infinite"
			},
			"internal": {
				"_getAmountIn(uint256,uint256,uint256)": "infinite",
				"_getAmountOut(uint256,uint256,uint256)": "infinite",
				"_min(uint256,uint256)": "infinite",
				"_sortTokens(address,address)": "infinite",
				"_sqrt(uint256)": "infinite"
			}
		},
		"methodIdentifiers": {
			"addLiquidity(address,address,uint256,uint256,uint256,uint256,address,uint256)": "e8e33700",
			"balanceOf(address,address,address)": "75bb9b63",
			"getAmountOut(uint256,address,address)": "5e1e6325",
			"getReserves(address,address)": "d52bb6f4",
			"removeLiquidity(address,address,uint256,uint256,uint256,address,uint256)": "baa2abde",
			"swapExactTokensForTokens(uint256,uint256,address[],address,uint256)": "38ed1739"
		}
	},
	"abi": [
		{
			"inputs": [
				{
					"internalType": "address",
					"name": "token",
					"type": "address"
				}
			],
			"name": "SafeERC20FailedOperation",
			"type": "error"
		},
		{
			"anonymous": false,
			"inputs": [
				{
					"indexed": true,
					"internalType": "address",
					"name": "token0",
					"type": "address"
				},
				{
					"indexed": true,
					"internalType": "address",
					"name": "token1",
					"type": "address"
				},
				{
					"indexed": true,
					"internalType": "address",
					"name": "provider",
					"type": "address"
				},
				{
					"indexed": false,
					"internalType": "uint256",
					"name": "amount0",
					"type": "uint256"
				},
				{
					"indexed": false,
					"internalType": "uint256",
					"name": "amount1",
					"type": "uint256"
				},
				{
					"indexed": false,
					"internalType": "uint256",
					"name": "liquidity",
					"type": "uint256"
				}
			],
			"name": "LiquidityAdded",
			"type": "event"
		},
		{
			"anonymous": false,
			"inputs": [
				{
					"indexed": true,
					"internalType": "address",
					"name": "token0",
					"type": "address"
				},
				{
					"indexed": true,
					"internalType": "address",
					"name": "token1",
					"type": "address"
				},
				{
					"indexed": true,
					"internalType": "address",
					"name": "provider",
					"type": "address"
				},
				{
					"indexed": false,
					"internalType": "uint256",
					"name": "amount0",
					"type": "uint256"
				},
				{
					"indexed": false,
					"internalType": "uint256",
					"name": "amount1",
					"type": "uint256"
				},
				{
					"indexed": false,
					"internalType": "uint256",
					"name": "liquidity",
					"type": "uint256"
				}
			],
			"name": "LiquidityRemoved",
			"type": "event"
		},
		{
			"anonymous": false,
			"inputs": [
				{
					"indexed": true,
					"internalType": "address",
					"name": "tokenIn",
					"type": "address"
				},
				{
					"indexed": true,
					"internalType": "address",
					"name": "tokenOut",
					"type": "address"
				},
				{
					"indexed": true,
					"internalType": "address",
					"name": "user",
					"type": "address"
				},
				{
					"indexed": false,
					"internalType": "uint256",
					"name": "amountIn",
					"type": "uint256"
				},
				{
					"indexed": false,
					"internalType": "uint256",
					"name": "amountOut",
					"type": "uint256"
				}
			],
			"name": "TokensSwapped",
			"type": "event"
		},
		{
			"inputs": [
				{
					"internalType": "address",
					"name": "tokenA",
					"type": "address"
				},
				{
					"internalType": "address",
					"name": "tokenB",
					"type": "address"
				},
				{
					"internalType": "uint256",
					"name": "amountADesired",
					"type": "uint256"
				},
				{
					"internalType": "uint256",
					"name": "amountBDesired",
					"type": "uint256"
				},
				{
					"internalType": "uint256",
					"name": "amountAMin",
					"type": "uint256"
				},
				{
					"internalType": "uint256",
					"name": "amountBMin",
					"type": "uint256"
				},
				{
					"internalType": "address",
					"name": "to",
					"type": "address"
				},
				{
					"internalType": "uint256",
					"name": "deadline",
					"type": "uint256"
				}
			],
			"name": "addLiquidity",
			"outputs": [
				{
					"internalType": "uint256",
					"name": "amountA",
					"type": "uint256"
				},
				{
					"internalType": "uint256",
					"name": "amountB",
					"type": "uint256"
				},
				{
					"internalType": "uint256",
					"name": "liquidity",
					"type": "uint256"
				}
			],
			"stateMutability": "nonpayable",
			"type": "function"
		},
		{
			"inputs": [
				{
					"internalType": "address",
					"name": "tokenA",
					"type": "address"
				},
				{
					"internalType": "address",
					"name": "tokenB",
					"type": "address"
				},
				{
					"internalType": "address",
					"name": "user",
					"type": "address"
				}
			],
			"name": "balanceOf",
			"outputs": [
				{
					"internalType": "uint256",
					"name": "",
					"type": "uint256"
				}
			],
			"stateMutability": "view",
			"type": "function"
		},
		{
			"inputs": [
				{
					"internalType": "uint256",
					"name": "amountIn",
					"type": "uint256"
				},
				{
					"internalType": "address",
					"name": "tokenIn",
					"type": "address"
				},
				{
					"internalType": "address",
					"name": "tokenOut",
					"type": "address"
				}
			],
			"name": "getAmountOut",
			"outputs": [
				{
					"internalType": "uint256",
					"name": "",
					"type": "uint256"
				}
			],
			"stateMutability": "view",
			"type": "function"
		},
		{
			"inputs": [
				{
					"internalType": "address",
					"name": "tokenA",
					"type": "address"
				},
				{
					"internalType": "address",
					"name": "tokenB",
					"type": "address"
				}
			],
			"name": "getReserves",
			"outputs": [
				{
					"internalType": "uint256",
					"name": "reserveA",
					"type": "uint256"
				},
				{
					"internalType": "uint256",
					"name": "reserveB",
					"type": "uint256"
				}
			],
			"stateMutability": "view",
			"type": "function"
		},
		{
			"inputs": [
				{
					"internalType": "address",
					"name": "tokenA",
					"type": "address"
				},
				{
					"internalType": "address",
					"name": "tokenB",
					"type": "address"
				},
				{
					"internalType": "uint256",
					"name": "liquidity",
					"type": "uint256"
				},
				{
					"internalType": "uint256",
					"name": "amountAMin",
					"type": "uint256"
				},
				{
					"internalType": "uint256",
					"name": "amountBMin",
					"type": "uint256"
				},
				{
					"internalType": "address",
					"name": "to",
					"type": "address"
				},
				{
					"internalType": "uint256",
					"name": "deadline",
					"type": "uint256"
				}
			],
			"name": "removeLiquidity",
			"outputs": [
				{
					"internalType": "uint256",
					"name": "amountA",
					"type": "uint256"
				},
				{
					"internalType": "uint256",
					"name": "amountB",
					"type": "uint256"
				}
			],
			"stateMutability": "nonpayable",
			"type": "function"
		},
		{
			"inputs": [
				{
					"internalType": "uint256",
					"name": "amountIn",
					"type": "uint256"
				},
				{
					"internalType": "uint256",
					"name": "amountOutMin",
					"type": "uint256"
				},
				{
					"internalType": "address[]",
					"name": "path",
					"type": "address[]"
				},
				{
					"internalType": "address",
					"name": "to",
					"type": "address"
				},
				{
					"internalType": "uint256",
					"name": "deadline",
					"type": "uint256"
				}
			],
			"name": "swapExactTokensForTokens",
			"outputs": [
				{
					"internalType": "uint256[]",
					"name": "amounts",
					"type": "uint256[]"
				}
			],
			"stateMutability": "nonpayable",
			"type": "function"
		}
	]
}